{
	"src/KipuBankV2.sol": {
		"KipuBankV2": {
			"abi": [
				{
					"inputs": [
						{
							"internalType": "uint256",
							"name": "_bankCapUsd6",
							"type": "uint256"
						},
						{
							"internalType": "address",
							"name": "ethPriceFeed",
							"type": "address"
						},
						{
							"internalType": "uint256",
							"name": "ethWithdrawLimit",
							"type": "uint256"
						}
					],
					"stateMutability": "nonpayable",
					"type": "constructor"
				},
				{
					"inputs": [],
					"name": "AccessControlBadConfirmation",
					"type": "error"
				},
				{
					"inputs": [
						{
							"internalType": "address",
							"name": "account",
							"type": "address"
						},
						{
							"internalType": "bytes32",
							"name": "neededRole",
							"type": "bytes32"
						}
					],
					"name": "AccessControlUnauthorizedAccount",
					"type": "error"
				},
				{
					"inputs": [
						{
							"internalType": "uint256",
							"name": "attempted",
							"type": "uint256"
						},
						{
							"internalType": "uint256",
							"name": "cap",
							"type": "uint256"
						}
					],
					"name": "CapExceeded",
					"type": "error"
				},
				{
					"inputs": [],
					"name": "EthTransferFailed",
					"type": "error"
				},
				{
					"inputs": [
						{
							"internalType": "uint256",
							"name": "balance",
							"type": "uint256"
						},
						{
							"internalType": "uint256",
							"name": "needed",
							"type": "uint256"
						}
					],
					"name": "InsufficientBalance",
					"type": "error"
				},
				{
					"inputs": [
						{
							"internalType": "address",
							"name": "token",
							"type": "address"
						}
					],
					"name": "PriceFeedNotSet",
					"type": "error"
				},
				{
					"inputs": [],
					"name": "PriceNegative",
					"type": "error"
				},
				{
					"inputs": [
						{
							"internalType": "address",
							"name": "token",
							"type": "address"
						}
					],
					"name": "SafeERC20FailedOperation",
					"type": "error"
				},
				{
					"inputs": [
						{
							"internalType": "address",
							"name": "token",
							"type": "address"
						}
					],
					"name": "UnsupportedToken",
					"type": "error"
				},
				{
					"inputs": [
						{
							"internalType": "uint256",
							"name": "attempted",
							"type": "uint256"
						},
						{
							"internalType": "uint256",
							"name": "limit",
							"type": "uint256"
						}
					],
					"name": "WithdrawLimitExceeded",
					"type": "error"
				},
				{
					"inputs": [],
					"name": "ZeroAmount",
					"type": "error"
				},
				{
					"anonymous": false,
					"inputs": [
						{
							"indexed": true,
							"internalType": "address",
							"name": "token",
							"type": "address"
						},
						{
							"indexed": true,
							"internalType": "address",
							"name": "account",
							"type": "address"
						},
						{
							"indexed": false,
							"internalType": "uint256",
							"name": "amountToken",
							"type": "uint256"
						},
						{
							"indexed": false,
							"internalType": "uint256",
							"name": "newBalanceToken",
							"type": "uint256"
						},
						{
							"indexed": false,
							"internalType": "uint256",
							"name": "amountUsd6",
							"type": "uint256"
						}
					],
					"name": "Deposit",
					"type": "event"
				},
				{
					"anonymous": false,
					"inputs": [
						{
							"indexed": true,
							"internalType": "bytes32",
							"name": "role",
							"type": "bytes32"
						},
						{
							"indexed": true,
							"internalType": "bytes32",
							"name": "previousAdminRole",
							"type": "bytes32"
						},
						{
							"indexed": true,
							"internalType": "bytes32",
							"name": "newAdminRole",
							"type": "bytes32"
						}
					],
					"name": "RoleAdminChanged",
					"type": "event"
				},
				{
					"anonymous": false,
					"inputs": [
						{
							"indexed": true,
							"internalType": "bytes32",
							"name": "role",
							"type": "bytes32"
						},
						{
							"indexed": true,
							"internalType": "address",
							"name": "account",
							"type": "address"
						},
						{
							"indexed": true,
							"internalType": "address",
							"name": "sender",
							"type": "address"
						}
					],
					"name": "RoleGranted",
					"type": "event"
				},
				{
					"anonymous": false,
					"inputs": [
						{
							"indexed": true,
							"internalType": "bytes32",
							"name": "role",
							"type": "bytes32"
						},
						{
							"indexed": true,
							"internalType": "address",
							"name": "account",
							"type": "address"
						},
						{
							"indexed": true,
							"internalType": "address",
							"name": "sender",
							"type": "address"
						}
					],
					"name": "RoleRevoked",
					"type": "event"
				},
				{
					"anonymous": false,
					"inputs": [
						{
							"indexed": true,
							"internalType": "address",
							"name": "token",
							"type": "address"
						},
						{
							"indexed": false,
							"internalType": "bool",
							"name": "supported",
							"type": "bool"
						},
						{
							"indexed": false,
							"internalType": "bool",
							"name": "isNative",
							"type": "bool"
						},
						{
							"indexed": false,
							"internalType": "uint8",
							"name": "tokenDecimals",
							"type": "uint8"
						},
						{
							"indexed": false,
							"internalType": "uint256",
							"name": "withdrawLimit",
							"type": "uint256"
						},
						{
							"indexed": false,
							"internalType": "address",
							"name": "priceFeed",
							"type": "address"
						}
					],
					"name": "TokenConfigured",
					"type": "event"
				},
				{
					"anonymous": false,
					"inputs": [
						{
							"indexed": true,
							"internalType": "address",
							"name": "token",
							"type": "address"
						},
						{
							"indexed": true,
							"internalType": "address",
							"name": "account",
							"type": "address"
						},
						{
							"indexed": false,
							"internalType": "uint256",
							"name": "amountToken",
							"type": "uint256"
						},
						{
							"indexed": false,
							"internalType": "uint256",
							"name": "newBalanceToken",
							"type": "uint256"
						},
						{
							"indexed": false,
							"internalType": "uint256",
							"name": "amountUsd6",
							"type": "uint256"
						}
					],
					"name": "Withdraw",
					"type": "event"
				},
				{
					"inputs": [],
					"name": "DEFAULT_ADMIN_ROLE",
					"outputs": [
						{
							"internalType": "bytes32",
							"name": "",
							"type": "bytes32"
						}
					],
					"stateMutability": "view",
					"type": "function"
				},
				{
					"inputs": [],
					"name": "NATIVE_TOKEN",
					"outputs": [
						{
							"internalType": "address",
							"name": "",
							"type": "address"
						}
					],
					"stateMutability": "view",
					"type": "function"
				},
				{
					"inputs": [],
					"name": "ROLE_ADMIN",
					"outputs": [
						{
							"internalType": "bytes32",
							"name": "",
							"type": "bytes32"
						}
					],
					"stateMutability": "view",
					"type": "function"
				},
				{
					"inputs": [],
					"name": "USD_DECIMALS",
					"outputs": [
						{
							"internalType": "uint8",
							"name": "",
							"type": "uint8"
						}
					],
					"stateMutability": "view",
					"type": "function"
				},
				{
					"inputs": [],
					"name": "bankCapUsd6",
					"outputs": [
						{
							"internalType": "uint256",
							"name": "",
							"type": "uint256"
						}
					],
					"stateMutability": "view",
					"type": "function"
				},
				{
					"inputs": [],
					"name": "depositCount",
					"outputs": [
						{
							"internalType": "uint256",
							"name": "",
							"type": "uint256"
						}
					],
					"stateMutability": "view",
					"type": "function"
				},
				{
					"inputs": [],
					"name": "depositEth",
					"outputs": [],
					"stateMutability": "payable",
					"type": "function"
				},
				{
					"inputs": [
						{
							"internalType": "address",
							"name": "token",
							"type": "address"
						},
						{
							"internalType": "uint256",
							"name": "amount",
							"type": "uint256"
						}
					],
					"name": "depositToken",
					"outputs": [],
					"stateMutability": "nonpayable",
					"type": "function"
				},
				{
					"inputs": [
						{
							"internalType": "address",
							"name": "token",
							"type": "address"
						}
					],
					"name": "getBalance",
					"outputs": [
						{
							"internalType": "uint256",
							"name": "",
							"type": "uint256"
						}
					],
					"stateMutability": "view",
					"type": "function"
				},
				{
					"inputs": [
						{
							"internalType": "bytes32",
							"name": "role",
							"type": "bytes32"
						}
					],
					"name": "getRoleAdmin",
					"outputs": [
						{
							"internalType": "bytes32",
							"name": "",
							"type": "bytes32"
						}
					],
					"stateMutability": "view",
					"type": "function"
				},
				{
					"inputs": [
						{
							"internalType": "address",
							"name": "token",
							"type": "address"
						},
						{
							"internalType": "address",
							"name": "user",
							"type": "address"
						}
					],
					"name": "getUsdBalance",
					"outputs": [
						{
							"internalType": "uint256",
							"name": "",
							"type": "uint256"
						}
					],
					"stateMutability": "view",
					"type": "function"
				},
				{
					"inputs": [
						{
							"internalType": "bytes32",
							"name": "role",
							"type": "bytes32"
						},
						{
							"internalType": "address",
							"name": "account",
							"type": "address"
						}
					],
					"name": "grantRole",
					"outputs": [],
					"stateMutability": "nonpayable",
					"type": "function"
				},
				{
					"inputs": [
						{
							"internalType": "bytes32",
							"name": "role",
							"type": "bytes32"
						},
						{
							"internalType": "address",
							"name": "account",
							"type": "address"
						}
					],
					"name": "hasRole",
					"outputs": [
						{
							"internalType": "bool",
							"name": "",
							"type": "bool"
						}
					],
					"stateMutability": "view",
					"type": "function"
				},
				{
					"inputs": [
						{
							"internalType": "bytes32",
							"name": "role",
							"type": "bytes32"
						},
						{
							"internalType": "address",
							"name": "callerConfirmation",
							"type": "address"
						}
					],
					"name": "renounceRole",
					"outputs": [],
					"stateMutability": "nonpayable",
					"type": "function"
				},
				{
					"inputs": [
						{
							"internalType": "bytes32",
							"name": "role",
							"type": "bytes32"
						},
						{
							"internalType": "address",
							"name": "account",
							"type": "address"
						}
					],
					"name": "revokeRole",
					"outputs": [],
					"stateMutability": "nonpayable",
					"type": "function"
				},
				{
					"inputs": [
						{
							"internalType": "address",
							"name": "token",
							"type": "address"
						},
						{
							"internalType": "bool",
							"name": "supported",
							"type": "bool"
						},
						{
							"internalType": "uint8",
							"name": "tokenDecimals",
							"type": "uint8"
						},
						{
							"internalType": "uint256",
							"name": "withdrawLimit",
							"type": "uint256"
						},
						{
							"internalType": "address",
							"name": "priceFeed",
							"type": "address"
						}
					],
					"name": "setTokenConfig",
					"outputs": [],
					"stateMutability": "nonpayable",
					"type": "function"
				},
				{
					"inputs": [
						{
							"internalType": "bytes4",
							"name": "interfaceId",
							"type": "bytes4"
						}
					],
					"name": "supportsInterface",
					"outputs": [
						{
							"internalType": "bool",
							"name": "",
							"type": "bool"
						}
					],
					"stateMutability": "view",
					"type": "function"
				},
				{
					"inputs": [
						{
							"internalType": "address",
							"name": "",
							"type": "address"
						}
					],
					"name": "tokenConfig",
					"outputs": [
						{
							"internalType": "bool",
							"name": "supported",
							"type": "bool"
						},
						{
							"internalType": "bool",
							"name": "isNative",
							"type": "bool"
						},
						{
							"internalType": "uint8",
							"name": "tokenDecimals",
							"type": "uint8"
						},
						{
							"internalType": "uint256",
							"name": "withdrawLimit",
							"type": "uint256"
						},
						{
							"internalType": "address",
							"name": "priceFeed",
							"type": "address"
						}
					],
					"stateMutability": "view",
					"type": "function"
				},
				{
					"inputs": [],
					"name": "totalDepositedUsd6",
					"outputs": [
						{
							"internalType": "uint256",
							"name": "",
							"type": "uint256"
						}
					],
					"stateMutability": "view",
					"type": "function"
				},
				{
					"inputs": [],
					"name": "withdrawCount",
					"outputs": [
						{
							"internalType": "uint256",
							"name": "",
							"type": "uint256"
						}
					],
					"stateMutability": "view",
					"type": "function"
				},
				{
					"inputs": [
						{
							"internalType": "uint256",
							"name": "amount",
							"type": "uint256"
						}
					],
					"name": "withdrawEth",
					"outputs": [],
					"stateMutability": "nonpayable",
					"type": "function"
				},
				{
					"inputs": [
						{
							"internalType": "address",
							"name": "token",
							"type": "address"
						},
						{
							"internalType": "uint256",
							"name": "amount",
							"type": "uint256"
						}
					],
					"name": "withdrawToken",
					"outputs": [],
					"stateMutability": "nonpayable",
					"type": "function"
				}
			],
			"devdoc": {
				"details": "Usa `AccessControl` (roles) + `ReentrancyGuard` + `SafeERC20` + oráculos Chainlink",
				"errors": {
					"AccessControlBadConfirmation()": [
						{
							"details": "The caller of a function is not the expected one. NOTE: Don't confuse with {AccessControlUnauthorizedAccount}."
						}
					],
					"AccessControlUnauthorizedAccount(address,bytes32)": [
						{
							"details": "The `account` is missing a role."
						}
					],
					"SafeERC20FailedOperation(address)": [
						{
							"details": "An operation with an ERC-20 token failed."
						}
					]
				},
				"events": {
					"RoleAdminChanged(bytes32,bytes32,bytes32)": {
						"details": "Emitted when `newAdminRole` is set as ``role``'s admin role, replacing `previousAdminRole` `DEFAULT_ADMIN_ROLE` is the starting admin for all roles, despite {RoleAdminChanged} not being emitted to signal this."
					},
					"RoleGranted(bytes32,address,address)": {
						"details": "Emitted when `account` is granted `role`. `sender` is the account that originated the contract call. This account bears the admin role (for the granted role). Expected in cases where the role was granted using the internal {AccessControl-_grantRole}."
					},
					"RoleRevoked(bytes32,address,address)": {
						"details": "Emitted when `account` is revoked `role`. `sender` is the account that originated the contract call:   - if using `revokeRole`, it is the admin role bearer   - if using `renounceRole`, it is the role bearer (i.e. `account`)"
					}
				},
				"kind": "dev",
				"methods": {
					"constructor": {
						"params": {
							"_bankCapUsd6": "Cap global del banco en USD con 6 decimales",
							"ethPriceFeed": "Dirección del oráculo Chainlink ETH/USD",
							"ethWithdrawLimit": "Límite por retiro en ETH (en wei)"
						}
					},
					"depositEth()": {
						"details": "Suma el valor en USD(6) al total y verifica que no supere el cap global"
					},
					"getRoleAdmin(bytes32)": {
						"details": "Returns the admin role that controls `role`. See {grantRole} and {revokeRole}. To change a role's admin, use {_setRoleAdmin}."
					},
					"grantRole(bytes32,address)": {
						"details": "Grants `role` to `account`. If `account` had not been already granted `role`, emits a {RoleGranted} event. Requirements: - the caller must have ``role``'s admin role. May emit a {RoleGranted} event."
					},
					"hasRole(bytes32,address)": {
						"details": "Returns `true` if `account` has been granted `role`."
					},
					"renounceRole(bytes32,address)": {
						"details": "Revokes `role` from the calling account. Roles are often managed via {grantRole} and {revokeRole}: this function's purpose is to provide a mechanism for accounts to lose their privileges if they are compromised (such as when a trusted device is misplaced). If the calling account had been revoked `role`, emits a {RoleRevoked} event. Requirements: - the caller must be `callerConfirmation`. May emit a {RoleRevoked} event."
					},
					"revokeRole(bytes32,address)": {
						"details": "Revokes `role` from `account`. If `account` had been granted `role`, emits a {RoleRevoked} event. Requirements: - the caller must have ``role``'s admin role. May emit a {RoleRevoked} event."
					},
					"setTokenConfig(address,bool,uint8,uint256,address)": {
						"details": "Solo `ROLE_ADMIN`"
					},
					"supportsInterface(bytes4)": {
						"details": "Returns true if this contract implements the interface defined by `interfaceId`. See the corresponding https://eips.ethereum.org/EIPS/eip-165#how-interfaces-are-identified[ERC section] to learn more about how these ids are created. This function call must use less than 30 000 gas."
					}
				},
				"title": "KipuBankV2 (OpenZeppelin edition)",
				"version": 1
			},
			"evm": {
				"assembly": "    /* \"src/KipuBankV2.sol\":1607:14416  contract KipuBankV2 is AccessControl, ReentrancyGuard {... */\n  mstore(0x40, 0xa0)\n    /* \"src/KipuBankV2.sol\":5106:5959  constructor(... */\n  callvalue\n  dup1\n  iszero\n  tag_1\n  jumpi\n  0x00\n  dup1\n  revert\ntag_1:\n  pop\n  mload(0x40)\n  sub(codesize, bytecodeSize)\n  dup1\n  bytecodeSize\n  dup4\n  codecopy\n  dup2\n  dup2\n  add\n  0x40\n  mstore\n  dup2\n  add\n  swap1\n  tag_2\n  swap2\n  swap1\n  tag_3\n  jump\t// in\ntag_2:\n    /* \"@openzeppelin/contracts/security/ReentrancyGuard.sol\":1716:1717  1 */\n  0x01\n    /* \"@openzeppelin/contracts/security/ReentrancyGuard.sol\":1821:1828  _status */\n  dup1\n    /* \"@openzeppelin/contracts/security/ReentrancyGuard.sol\":1821:1843  _status = _NOT_ENTERED */\n  dup2\n  swap1\n  sstore\n  pop\n    /* \"src/KipuBankV2.sol\":5253:5254  0 */\n  0x00\n    /* \"src/KipuBankV2.sol\":5237:5249  _bankCapUsd6 */\n  dup4\n    /* \"src/KipuBankV2.sol\":5237:5254  _bankCapUsd6 == 0 */\n  sub\n    /* \"src/KipuBankV2.sol\":5233:5275  if (_bankCapUsd6 == 0) revert ZeroAmount() */\n  tag_8\n  jumpi\n    /* \"src/KipuBankV2.sol\":5263:5275  ZeroAmount() */\n  mload(0x40)\n  0x1f2a200500000000000000000000000000000000000000000000000000000000\n  dup2\n  mstore\n  0x04\n  add\n  mload(0x40)\n  dup1\n  swap2\n  sub\n  swap1\n  revert\n    /* \"src/KipuBankV2.sol\":5233:5275  if (_bankCapUsd6 == 0) revert ZeroAmount() */\ntag_8:\n    /* \"src/KipuBankV2.sol\":5304:5316  _bankCapUsd6 */\n  dup3\n    /* \"src/KipuBankV2.sol\":5290:5316  bankCapUsd6 = _bankCapUsd6 */\n  0x80\n  dup2\n  dup2\n  mstore\n  pop\n  pop\n    /* \"src/KipuBankV2.sol\":5368:5410  _grantRole(DEFAULT_ADMIN_ROLE, msg.sender) */\n  tag_9\n    /* \"@openzeppelin/contracts/access/AccessControl.sol\":2241:2245  0x00 */\n  0x00\n    /* \"src/KipuBankV2.sol\":5379:5397  DEFAULT_ADMIN_ROLE */\n  dup1\n  shl\n    /* \"src/KipuBankV2.sol\":5399:5409  msg.sender */\n  caller\n    /* \"src/KipuBankV2.sol\":5368:5378  _grantRole */\n  shl(0x20, tag_10)\n    /* \"src/KipuBankV2.sol\":5368:5410  _grantRole(DEFAULT_ADMIN_ROLE, msg.sender) */\n  0x20\n  shr\n  jump\t// in\ntag_9:\n  pop\n    /* \"src/KipuBankV2.sol\":5481:5515  _grantRole(ROLE_ADMIN, msg.sender) */\n  tag_11\n    /* \"src/KipuBankV2.sol\":1999:2022  keccak256(\"ROLE_ADMIN\") */\n  0x2172861495e7b85edac73e3cd5fbb42dd675baadf627720e687bcfdaca025096\n    /* \"src/KipuBankV2.sol\":5504:5514  msg.sender */\n  caller\n    /* \"src/KipuBankV2.sol\":5481:5491  _grantRole */\n  shl(0x20, tag_10)\n    /* \"src/KipuBankV2.sol\":5481:5515  _grantRole(ROLE_ADMIN, msg.sender) */\n  0x20\n  shr\n  jump\t// in\ntag_11:\n  pop\n    /* \"src/KipuBankV2.sol\":5610:5632  TokenConfig memory cfg */\n  tag_12\n  tag_13\n  jump\t// in\ntag_12:\n    /* \"src/KipuBankV2.sol\":5659:5663  true */\n  0x01\n    /* \"src/KipuBankV2.sol\":5643:5646  cfg */\n  dup2\n    /* \"src/KipuBankV2.sol\":5643:5656  cfg.supported */\n  0x00\n  add\n    /* \"src/KipuBankV2.sol\":5643:5663  cfg.supported = true */\n  swap1\n  iszero\n  iszero\n  swap1\n  dup2\n  iszero\n  iszero\n  dup2\n  mstore\n  pop\n  pop\n    /* \"src/KipuBankV2.sol\":5689:5693  true */\n  0x01\n    /* \"src/KipuBankV2.sol\":5674:5677  cfg */\n  dup2\n    /* \"src/KipuBankV2.sol\":5674:5686  cfg.isNative */\n  0x20\n  add\n    /* \"src/KipuBankV2.sol\":5674:5693  cfg.isNative = true */\n  swap1\n  iszero\n  iszero\n  swap1\n  dup2\n  iszero\n  iszero\n  dup2\n  mstore\n  pop\n  pop\n    /* \"src/KipuBankV2.sol\":5724:5726  18 */\n  0x12\n    /* \"src/KipuBankV2.sol\":5704:5707  cfg */\n  dup2\n    /* \"src/KipuBankV2.sol\":5704:5721  cfg.tokenDecimals */\n  0x40\n  add\n    /* \"src/KipuBankV2.sol\":5704:5726  cfg.tokenDecimals = 18 */\n  swap1\n  0xff\n  and\n  swap1\n  dup2\n  0xff\n  and\n  dup2\n  mstore\n  pop\n  pop\n    /* \"src/KipuBankV2.sol\":5759:5775  ethWithdrawLimit */\n  dup2\n    /* \"src/KipuBankV2.sol\":5739:5742  cfg */\n  dup2\n    /* \"src/KipuBankV2.sol\":5739:5756  cfg.withdrawLimit */\n  0x60\n  add\n    /* \"src/KipuBankV2.sol\":5739:5775  cfg.withdrawLimit = ethWithdrawLimit */\n  dup2\n  dup2\n  mstore\n  pop\n  pop\n    /* \"src/KipuBankV2.sol\":5802:5814  ethPriceFeed */\n  dup3\n    /* \"src/KipuBankV2.sol\":5786:5789  cfg */\n  dup2\n    /* \"src/KipuBankV2.sol\":5786:5799  cfg.priceFeed */\n  0x80\n  add\n    /* \"src/KipuBankV2.sol\":5786:5814  cfg.priceFeed = ethPriceFeed */\n  swap1\n  0xffffffffffffffffffffffffffffffffffffffff\n  and\n  swap1\n  dup2\n  0xffffffffffffffffffffffffffffffffffffffff\n  and\n  dup2\n  mstore\n  pop\n  pop\n    /* \"src/KipuBankV2.sol\":5853:5856  cfg */\n  dup1\n    /* \"src/KipuBankV2.sol\":5825:5836  tokenConfig */\n  0x06\n    /* \"src/KipuBankV2.sol\":5825:5850  tokenConfig[NATIVE_TOKEN] */\n  0x00\n    /* \"src/KipuBankV2.sol\":2148:2149  0 */\n  dup1\n    /* \"src/KipuBankV2.sol\":5825:5850  tokenConfig[NATIVE_TOKEN] */\n  0xffffffffffffffffffffffffffffffffffffffff\n  and\n  0xffffffffffffffffffffffffffffffffffffffff\n  and\n  dup2\n  mstore\n  0x20\n  add\n  swap1\n  dup2\n  mstore\n  0x20\n  add\n  0x00\n  keccak256\n    /* \"src/KipuBankV2.sol\":5825:5856  tokenConfig[NATIVE_TOKEN] = cfg */\n  0x00\n  dup3\n  add\n  mload\n  dup2\n  0x00\n  add\n  exp(0x0100, 0x00)\n  dup2\n  sload\n  dup2\n  0xff\n  mul\n  not\n  and\n  swap1\n  dup4\n  iszero\n  iszero\n  mul\n  or\n  swap1\n  sstore\n  pop\n  0x20\n  dup3\n  add\n  mload\n  dup2\n  0x00\n  add\n  exp(0x0100, 0x01)\n  dup2\n  sload\n  dup2\n  0xff\n  mul\n  not\n  and\n  swap1\n  dup4\n  iszero\n  iszero\n  mul\n  or\n  swap1\n  sstore\n  pop\n  0x40\n  dup3\n  add\n  mload\n  dup2\n  0x00\n  add\n  exp(0x0100, 0x02)\n  dup2\n  sload\n  dup2\n  0xff\n  mul\n  not\n  and\n  swap1\n  dup4\n  0xff\n  and\n  mul\n  or\n  swap1\n  sstore\n  pop\n  0x60\n  dup3\n  add\n  mload\n  dup2\n  0x01\n  add\n  sstore\n  0x80\n  dup3\n  add\n  mload\n  dup2\n  0x02\n  add\n  exp(0x0100, 0x00)\n  dup2\n  sload\n  dup2\n  0xffffffffffffffffffffffffffffffffffffffff\n  mul\n  not\n  and\n  swap1\n  dup4\n  0xffffffffffffffffffffffffffffffffffffffff\n  and\n  mul\n  or\n  swap1\n  sstore\n  pop\n  swap1\n  pop\n  pop\n    /* \"src/KipuBankV2.sol\":2148:2149  0 */\n  0x00\n    /* \"src/KipuBankV2.sol\":5874:5951  TokenConfigured(NATIVE_TOKEN, true, true, 18, ethWithdrawLimit, ethPriceFeed) */\n  0xffffffffffffffffffffffffffffffffffffffff\n  and\n  0xceec6d18b470b58eabbfc22b7d771c54609acb2bbe777747424f6e9a5a9d5a25\n    /* \"src/KipuBankV2.sol\":5904:5908  true */\n  0x01\n    /* \"src/KipuBankV2.sol\":5910:5914  true */\n  dup1\n    /* \"src/KipuBankV2.sol\":5916:5918  18 */\n  0x12\n    /* \"src/KipuBankV2.sol\":5920:5936  ethWithdrawLimit */\n  dup7\n    /* \"src/KipuBankV2.sol\":5938:5950  ethPriceFeed */\n  dup9\n    /* \"src/KipuBankV2.sol\":5874:5951  TokenConfigured(NATIVE_TOKEN, true, true, 18, ethWithdrawLimit, ethPriceFeed) */\n  mload(0x40)\n  tag_14\n  swap6\n  swap5\n  swap4\n  swap3\n  swap2\n  swap1\n  tag_15\n  jump\t// in\ntag_14:\n  mload(0x40)\n  dup1\n  swap2\n  sub\n  swap1\n  log2\n    /* \"src/KipuBankV2.sol\":5222:5959  {... */\n  pop\n    /* \"src/KipuBankV2.sol\":5106:5959  constructor(... */\n  pop\n  pop\n  pop\n    /* \"src/KipuBankV2.sol\":1607:14416  contract KipuBankV2 is AccessControl, ReentrancyGuard {... */\n  jump(tag_16)\n    /* \"@openzeppelin/contracts/access/AccessControl.sol\":6155:6471  function _grantRole(bytes32 role, address account) internal virtual returns (bool) {... */\ntag_10:\n    /* \"@openzeppelin/contracts/access/AccessControl.sol\":6232:6236  bool */\n  0x00\n    /* \"@openzeppelin/contracts/access/AccessControl.sol\":6253:6275  hasRole(role, account) */\n  tag_18\n    /* \"@openzeppelin/contracts/access/AccessControl.sol\":6261:6265  role */\n  dup4\n    /* \"@openzeppelin/contracts/access/AccessControl.sol\":6267:6274  account */\n  dup4\n    /* \"@openzeppelin/contracts/access/AccessControl.sol\":6253:6260  hasRole */\n  shl(0x20, tag_19)\n    /* \"@openzeppelin/contracts/access/AccessControl.sol\":6253:6275  hasRole(role, account) */\n  0x20\n  shr\n  jump\t// in\ntag_18:\n    /* \"@openzeppelin/contracts/access/AccessControl.sol\":6248:6465  if (!hasRole(role, account)) {... */\n  tag_20\n  jumpi\n    /* \"@openzeppelin/contracts/access/AccessControl.sol\":6323:6327  true */\n  0x01\n    /* \"@openzeppelin/contracts/access/AccessControl.sol\":6291:6297  _roles */\n  0x00\n    /* \"@openzeppelin/contracts/access/AccessControl.sol\":6291:6303  _roles[role] */\n  dup1\n    /* \"@openzeppelin/contracts/access/AccessControl.sol\":6298:6302  role */\n  dup6\n    /* \"@openzeppelin/contracts/access/AccessControl.sol\":6291:6303  _roles[role] */\n  dup2\n  mstore\n  0x20\n  add\n  swap1\n  dup2\n  mstore\n  0x20\n  add\n  0x00\n  keccak256\n    /* \"@openzeppelin/contracts/access/AccessControl.sol\":6291:6311  _roles[role].hasRole */\n  0x00\n  add\n    /* \"@openzeppelin/contracts/access/AccessControl.sol\":6291:6320  _roles[role].hasRole[account] */\n  0x00\n    /* \"@openzeppelin/contracts/access/AccessControl.sol\":6312:6319  account */\n  dup5\n    /* \"@openzeppelin/contracts/access/AccessControl.sol\":6291:6320  _roles[role].hasRole[account] */\n  0xffffffffffffffffffffffffffffffffffffffff\n  and\n  0xffffffffffffffffffffffffffffffffffffffff\n  and\n  dup2\n  mstore\n  0x20\n  add\n  swap1\n  dup2\n  mstore\n  0x20\n  add\n  0x00\n  keccak256\n  0x00\n    /* \"@openzeppelin/contracts/access/AccessControl.sol\":6291:6327  _roles[role].hasRole[account] = true */\n  0x0100\n  exp\n  dup2\n  sload\n  dup2\n  0xff\n  mul\n  not\n  and\n  swap1\n  dup4\n  iszero\n  iszero\n  mul\n  or\n  swap1\n  sstore\n  pop\n    /* \"@openzeppelin/contracts/access/AccessControl.sol\":6373:6385  _msgSender() */\n  tag_21\n    /* \"@openzeppelin/contracts/access/AccessControl.sol\":6373:6383  _msgSender */\n  shl(0x20, tag_22)\n    /* \"@openzeppelin/contracts/access/AccessControl.sol\":6373:6385  _msgSender() */\n  0x20\n  shr\n  jump\t// in\ntag_21:\n    /* \"@openzeppelin/contracts/access/AccessControl.sol\":6346:6386  RoleGranted(role, account, _msgSender()) */\n  0xffffffffffffffffffffffffffffffffffffffff\n  and\n    /* \"@openzeppelin/contracts/access/AccessControl.sol\":6364:6371  account */\n  dup3\n    /* \"@openzeppelin/contracts/access/AccessControl.sol\":6346:6386  RoleGranted(role, account, _msgSender()) */\n  0xffffffffffffffffffffffffffffffffffffffff\n  and\n    /* \"@openzeppelin/contracts/access/AccessControl.sol\":6358:6362  role */\n  dup5\n    /* \"@openzeppelin/contracts/access/AccessControl.sol\":6346:6386  RoleGranted(role, account, _msgSender()) */\n  0x2f8788117e7eff1d82e926ec794901d17c78024a50270940304540a733656f0d\n  mload(0x40)\n  mload(0x40)\n  dup1\n  swap2\n  sub\n  swap1\n  log4\n    /* \"@openzeppelin/contracts/access/AccessControl.sol\":6407:6411  true */\n  0x01\n    /* \"@openzeppelin/contracts/access/AccessControl.sol\":6400:6411  return true */\n  swap1\n  pop\n  jump(tag_17)\n    /* \"@openzeppelin/contracts/access/AccessControl.sol\":6248:6465  if (!hasRole(role, account)) {... */\ntag_20:\n    /* \"@openzeppelin/contracts/access/AccessControl.sol\":6449:6454  false */\n  0x00\n    /* \"@openzeppelin/contracts/access/AccessControl.sol\":6442:6454  return false */\n  swap1\n  pop\n    /* \"@openzeppelin/contracts/access/AccessControl.sol\":6155:6471  function _grantRole(bytes32 role, address account) internal virtual returns (bool) {... */\ntag_17:\n  swap3\n  swap2\n  pop\n  pop\n  jump\t// out\n    /* \"@openzeppelin/contracts/access/AccessControl.sol\":2830:2966  function hasRole(bytes32 role, address account) public view virtual returns (bool) {... */\ntag_19:\n    /* \"@openzeppelin/contracts/access/AccessControl.sol\":2907:2911  bool */\n  0x00\n    /* \"@openzeppelin/contracts/access/AccessControl.sol\":2930:2936  _roles */\n  dup1\n    /* \"@openzeppelin/contracts/access/AccessControl.sol\":2930:2942  _roles[role] */\n  0x00\n    /* \"@openzeppelin/contracts/access/AccessControl.sol\":2937:2941  role */\n  dup5\n    /* \"@openzeppelin/contracts/access/AccessControl.sol\":2930:2942  _roles[role] */\n  dup2\n  mstore\n  0x20\n  add\n  swap1\n  dup2\n  mstore\n  0x20\n  add\n  0x00\n  keccak256\n    /* \"@openzeppelin/contracts/access/AccessControl.sol\":2930:2950  _roles[role].hasRole */\n  0x00\n  add\n    /* \"@openzeppelin/contracts/access/AccessControl.sol\":2930:2959  _roles[role].hasRole[account] */\n  0x00\n    /* \"@openzeppelin/contracts/access/AccessControl.sol\":2951:2958  account */\n  dup4\n    /* \"@openzeppelin/contracts/access/AccessControl.sol\":2930:2959  _roles[role].hasRole[account] */\n  0xffffffffffffffffffffffffffffffffffffffff\n  and\n  0xffffffffffffffffffffffffffffffffffffffff\n  and\n  dup2\n  mstore\n  0x20\n  add\n  swap1\n  dup2\n  mstore\n  0x20\n  add\n  0x00\n  keccak256\n  0x00\n  swap1\n  sload\n  swap1\n  0x0100\n  exp\n  swap1\n  div\n  0xff\n  and\n    /* \"@openzeppelin/contracts/access/AccessControl.sol\":2923:2959  return _roles[role].hasRole[account] */\n  swap1\n  pop\n    /* \"@openzeppelin/contracts/access/AccessControl.sol\":2830:2966  function hasRole(bytes32 role, address account) public view virtual returns (bool) {... */\n  swap3\n  swap2\n  pop\n  pop\n  jump\t// out\n    /* \"@openzeppelin/contracts/utils/Context.sol\":656:752  function _msgSender() internal view virtual returns (address) {... */\ntag_22:\n    /* \"@openzeppelin/contracts/utils/Context.sol\":709:716  address */\n  0x00\n    /* \"@openzeppelin/contracts/utils/Context.sol\":735:745  msg.sender */\n  caller\n    /* \"@openzeppelin/contracts/utils/Context.sol\":728:745  return msg.sender */\n  swap1\n  pop\n    /* \"@openzeppelin/contracts/utils/Context.sol\":656:752  function _msgSender() internal view virtual returns (address) {... */\n  swap1\n  jump\t// out\n    /* \"src/KipuBankV2.sol\":1607:14416  contract KipuBankV2 is AccessControl, ReentrancyGuard {... */\ntag_13:\n  mload(0x40)\n  dup1\n  0xa0\n  add\n  0x40\n  mstore\n  dup1\n  iszero(iszero(0x00))\n  dup2\n  mstore\n  0x20\n  add\n  iszero(iszero(0x00))\n  dup2\n  mstore\n  0x20\n  add\n  and(0xff, 0x00)\n  dup2\n  mstore\n  0x20\n  add\n  0x00\n  dup2\n  mstore\n  0x20\n  add\n  and(0xffffffffffffffffffffffffffffffffffffffff, 0x00)\n  dup2\n  mstore\n  pop\n  swap1\n  jump\t// out\n    /* \"#utility.yul\":88:205   */\ntag_27:\n    /* \"#utility.yul\":197:198   */\n  0x00\n    /* \"#utility.yul\":194:195   */\n  dup1\n    /* \"#utility.yul\":187:199   */\n  revert\n    /* \"#utility.yul\":334:411   */\ntag_29:\n    /* \"#utility.yul\":371:378   */\n  0x00\n    /* \"#utility.yul\":400:405   */\n  dup2\n    /* \"#utility.yul\":389:405   */\n  swap1\n  pop\n    /* \"#utility.yul\":334:411   */\n  swap2\n  swap1\n  pop\n  jump\t// out\n    /* \"#utility.yul\":417:539   */\ntag_30:\n    /* \"#utility.yul\":490:514   */\n  tag_51\n    /* \"#utility.yul\":508:513   */\n  dup2\n    /* \"#utility.yul\":490:514   */\n  tag_29\n  jump\t// in\ntag_51:\n    /* \"#utility.yul\":483:488   */\n  dup2\n    /* \"#utility.yul\":480:515   */\n  eq\n    /* \"#utility.yul\":470:533   */\n  tag_52\n  jumpi\n    /* \"#utility.yul\":529:530   */\n  0x00\n    /* \"#utility.yul\":526:527   */\n  dup1\n    /* \"#utility.yul\":519:531   */\n  revert\n    /* \"#utility.yul\":470:533   */\ntag_52:\n    /* \"#utility.yul\":417:539   */\n  pop\n  jump\t// out\n    /* \"#utility.yul\":545:688   */\ntag_31:\n    /* \"#utility.yul\":602:607   */\n  0x00\n    /* \"#utility.yul\":633:639   */\n  dup2\n    /* \"#utility.yul\":627:640   */\n  mload\n    /* \"#utility.yul\":618:640   */\n  swap1\n  pop\n    /* \"#utility.yul\":649:682   */\n  tag_54\n    /* \"#utility.yul\":676:681   */\n  dup2\n    /* \"#utility.yul\":649:682   */\n  tag_30\n  jump\t// in\ntag_54:\n    /* \"#utility.yul\":545:688   */\n  swap3\n  swap2\n  pop\n  pop\n  jump\t// out\n    /* \"#utility.yul\":694:820   */\ntag_32:\n    /* \"#utility.yul\":731:738   */\n  0x00\n    /* \"#utility.yul\":771:813   */\n  0xffffffffffffffffffffffffffffffffffffffff\n    /* \"#utility.yul\":764:769   */\n  dup3\n    /* \"#utility.yul\":760:814   */\n  and\n    /* \"#utility.yul\":749:814   */\n  swap1\n  pop\n    /* \"#utility.yul\":694:820   */\n  swap2\n  swap1\n  pop\n  jump\t// out\n    /* \"#utility.yul\":826:922   */\ntag_33:\n    /* \"#utility.yul\":863:870   */\n  0x00\n    /* \"#utility.yul\":892:916   */\n  tag_57\n    /* \"#utility.yul\":910:915   */\n  dup3\n    /* \"#utility.yul\":892:916   */\n  tag_32\n  jump\t// in\ntag_57:\n    /* \"#utility.yul\":881:916   */\n  swap1\n  pop\n    /* \"#utility.yul\":826:922   */\n  swap2\n  swap1\n  pop\n  jump\t// out\n    /* \"#utility.yul\":928:1050   */\ntag_34:\n    /* \"#utility.yul\":1001:1025   */\n  tag_59\n    /* \"#utility.yul\":1019:1024   */\n  dup2\n    /* \"#utility.yul\":1001:1025   */\n  tag_33\n  jump\t// in\ntag_59:\n    /* \"#utility.yul\":994:999   */\n  dup2\n    /* \"#utility.yul\":991:1026   */\n  eq\n    /* \"#utility.yul\":981:1044   */\n  tag_60\n  jumpi\n    /* \"#utility.yul\":1040:1041   */\n  0x00\n    /* \"#utility.yul\":1037:1038   */\n  dup1\n    /* \"#utility.yul\":1030:1042   */\n  revert\n    /* \"#utility.yul\":981:1044   */\ntag_60:\n    /* \"#utility.yul\":928:1050   */\n  pop\n  jump\t// out\n    /* \"#utility.yul\":1056:1199   */\ntag_35:\n    /* \"#utility.yul\":1113:1118   */\n  0x00\n    /* \"#utility.yul\":1144:1150   */\n  dup2\n    /* \"#utility.yul\":1138:1151   */\n  mload\n    /* \"#utility.yul\":1129:1151   */\n  swap1\n  pop\n    /* \"#utility.yul\":1160:1193   */\n  tag_62\n    /* \"#utility.yul\":1187:1192   */\n  dup2\n    /* \"#utility.yul\":1160:1193   */\n  tag_34\n  jump\t// in\ntag_62:\n    /* \"#utility.yul\":1056:1199   */\n  swap3\n  swap2\n  pop\n  pop\n  jump\t// out\n    /* \"#utility.yul\":1205:1868   */\ntag_3:\n    /* \"#utility.yul\":1293:1299   */\n  0x00\n    /* \"#utility.yul\":1301:1307   */\n  dup1\n    /* \"#utility.yul\":1309:1315   */\n  0x00\n    /* \"#utility.yul\":1358:1360   */\n  0x60\n    /* \"#utility.yul\":1346:1355   */\n  dup5\n    /* \"#utility.yul\":1337:1344   */\n  dup7\n    /* \"#utility.yul\":1333:1356   */\n  sub\n    /* \"#utility.yul\":1329:1361   */\n  slt\n    /* \"#utility.yul\":1326:1445   */\n  iszero\n  tag_64\n  jumpi\n    /* \"#utility.yul\":1364:1443   */\n  tag_65\n  tag_27\n  jump\t// in\ntag_65:\n    /* \"#utility.yul\":1326:1445   */\ntag_64:\n    /* \"#utility.yul\":1484:1485   */\n  0x00\n    /* \"#utility.yul\":1509:1573   */\n  tag_66\n    /* \"#utility.yul\":1565:1572   */\n  dup7\n    /* \"#utility.yul\":1556:1562   */\n  dup3\n    /* \"#utility.yul\":1545:1554   */\n  dup8\n    /* \"#utility.yul\":1541:1563   */\n  add\n    /* \"#utility.yul\":1509:1573   */\n  tag_31\n  jump\t// in\ntag_66:\n    /* \"#utility.yul\":1499:1573   */\n  swap4\n  pop\n    /* \"#utility.yul\":1455:1583   */\n  pop\n    /* \"#utility.yul\":1622:1624   */\n  0x20\n    /* \"#utility.yul\":1648:1712   */\n  tag_67\n    /* \"#utility.yul\":1704:1711   */\n  dup7\n    /* \"#utility.yul\":1695:1701   */\n  dup3\n    /* \"#utility.yul\":1684:1693   */\n  dup8\n    /* \"#utility.yul\":1680:1702   */\n  add\n    /* \"#utility.yul\":1648:1712   */\n  tag_35\n  jump\t// in\ntag_67:\n    /* \"#utility.yul\":1638:1712   */\n  swap3\n  pop\n    /* \"#utility.yul\":1593:1722   */\n  pop\n    /* \"#utility.yul\":1761:1763   */\n  0x40\n    /* \"#utility.yul\":1787:1851   */\n  tag_68\n    /* \"#utility.yul\":1843:1850   */\n  dup7\n    /* \"#utility.yul\":1834:1840   */\n  dup3\n    /* \"#utility.yul\":1823:1832   */\n  dup8\n    /* \"#utility.yul\":1819:1841   */\n  add\n    /* \"#utility.yul\":1787:1851   */\n  tag_31\n  jump\t// in\ntag_68:\n    /* \"#utility.yul\":1777:1851   */\n  swap2\n  pop\n    /* \"#utility.yul\":1732:1861   */\n  pop\n    /* \"#utility.yul\":1205:1868   */\n  swap3\n  pop\n  swap3\n  pop\n  swap3\n  jump\t// out\n    /* \"#utility.yul\":1874:1964   */\ntag_36:\n    /* \"#utility.yul\":1908:1915   */\n  0x00\n    /* \"#utility.yul\":1951:1956   */\n  dup2\n    /* \"#utility.yul\":1944:1957   */\n  iszero\n    /* \"#utility.yul\":1937:1958   */\n  iszero\n    /* \"#utility.yul\":1926:1958   */\n  swap1\n  pop\n    /* \"#utility.yul\":1874:1964   */\n  swap2\n  swap1\n  pop\n  jump\t// out\n    /* \"#utility.yul\":1970:2079   */\ntag_37:\n    /* \"#utility.yul\":2051:2072   */\n  tag_71\n    /* \"#utility.yul\":2066:2071   */\n  dup2\n    /* \"#utility.yul\":2051:2072   */\n  tag_36\n  jump\t// in\ntag_71:\n    /* \"#utility.yul\":2046:2049   */\n  dup3\n    /* \"#utility.yul\":2039:2073   */\n  mstore\n    /* \"#utility.yul\":1970:2079   */\n  pop\n  pop\n  jump\t// out\n    /* \"#utility.yul\":2085:2171   */\ntag_38:\n    /* \"#utility.yul\":2131:2138   */\n  0x00\n    /* \"#utility.yul\":2160:2165   */\n  dup2\n    /* \"#utility.yul\":2149:2165   */\n  swap1\n  pop\n    /* \"#utility.yul\":2085:2171   */\n  swap2\n  swap1\n  pop\n  jump\t// out\n    /* \"#utility.yul\":2177:2263   */\ntag_39:\n    /* \"#utility.yul\":2212:2219   */\n  0x00\n    /* \"#utility.yul\":2252:2256   */\n  0xff\n    /* \"#utility.yul\":2245:2250   */\n  dup3\n    /* \"#utility.yul\":2241:2257   */\n  and\n    /* \"#utility.yul\":2230:2257   */\n  swap1\n  pop\n    /* \"#utility.yul\":2177:2263   */\n  swap2\n  swap1\n  pop\n  jump\t// out\n    /* \"#utility.yul\":2269:2329   */\ntag_40:\n    /* \"#utility.yul\":2297:2300   */\n  0x00\n    /* \"#utility.yul\":2318:2323   */\n  dup2\n    /* \"#utility.yul\":2311:2323   */\n  swap1\n  pop\n    /* \"#utility.yul\":2269:2329   */\n  swap2\n  swap1\n  pop\n  jump\t// out\n    /* \"#utility.yul\":2335:2491   */\ntag_41:\n    /* \"#utility.yul\":2392:2401   */\n  0x00\n    /* \"#utility.yul\":2425:2485   */\n  tag_76\n    /* \"#utility.yul\":2441:2484   */\n  tag_77\n    /* \"#utility.yul\":2450:2483   */\n  tag_78\n    /* \"#utility.yul\":2477:2482   */\n  dup5\n    /* \"#utility.yul\":2450:2483   */\n  tag_38\n  jump\t// in\ntag_78:\n    /* \"#utility.yul\":2441:2484   */\n  tag_40\n  jump\t// in\ntag_77:\n    /* \"#utility.yul\":2425:2485   */\n  tag_39\n  jump\t// in\ntag_76:\n    /* \"#utility.yul\":2412:2485   */\n  swap1\n  pop\n    /* \"#utility.yul\":2335:2491   */\n  swap2\n  swap1\n  pop\n  jump\t// out\n    /* \"#utility.yul\":2497:2642   */\ntag_42:\n    /* \"#utility.yul\":2591:2635   */\n  tag_80\n    /* \"#utility.yul\":2629:2634   */\n  dup2\n    /* \"#utility.yul\":2591:2635   */\n  tag_41\n  jump\t// in\ntag_80:\n    /* \"#utility.yul\":2586:2589   */\n  dup3\n    /* \"#utility.yul\":2579:2636   */\n  mstore\n    /* \"#utility.yul\":2497:2642   */\n  pop\n  pop\n  jump\t// out\n    /* \"#utility.yul\":2648:2766   */\ntag_43:\n    /* \"#utility.yul\":2735:2759   */\n  tag_82\n    /* \"#utility.yul\":2753:2758   */\n  dup2\n    /* \"#utility.yul\":2735:2759   */\n  tag_29\n  jump\t// in\ntag_82:\n    /* \"#utility.yul\":2730:2733   */\n  dup3\n    /* \"#utility.yul\":2723:2760   */\n  mstore\n    /* \"#utility.yul\":2648:2766   */\n  pop\n  pop\n  jump\t// out\n    /* \"#utility.yul\":2772:2890   */\ntag_44:\n    /* \"#utility.yul\":2859:2883   */\n  tag_84\n    /* \"#utility.yul\":2877:2882   */\n  dup2\n    /* \"#utility.yul\":2859:2883   */\n  tag_33\n  jump\t// in\ntag_84:\n    /* \"#utility.yul\":2854:2857   */\n  dup3\n    /* \"#utility.yul\":2847:2884   */\n  mstore\n    /* \"#utility.yul\":2772:2890   */\n  pop\n  pop\n  jump\t// out\n    /* \"#utility.yul\":2896:3550   */\ntag_15:\n    /* \"#utility.yul\":3096:3100   */\n  0x00\n    /* \"#utility.yul\":3134:3137   */\n  0xa0\n    /* \"#utility.yul\":3123:3132   */\n  dup3\n    /* \"#utility.yul\":3119:3138   */\n  add\n    /* \"#utility.yul\":3111:3138   */\n  swap1\n  pop\n    /* \"#utility.yul\":3148:3213   */\n  tag_86\n    /* \"#utility.yul\":3210:3211   */\n  0x00\n    /* \"#utility.yul\":3199:3208   */\n  dup4\n    /* \"#utility.yul\":3195:3212   */\n  add\n    /* \"#utility.yul\":3186:3192   */\n  dup9\n    /* \"#utility.yul\":3148:3213   */\n  tag_37\n  jump\t// in\ntag_86:\n    /* \"#utility.yul\":3223:3289   */\n  tag_87\n    /* \"#utility.yul\":3285:3287   */\n  0x20\n    /* \"#utility.yul\":3274:3283   */\n  dup4\n    /* \"#utility.yul\":3270:3288   */\n  add\n    /* \"#utility.yul\":3261:3267   */\n  dup8\n    /* \"#utility.yul\":3223:3289   */\n  tag_37\n  jump\t// in\ntag_87:\n    /* \"#utility.yul\":3299:3378   */\n  tag_88\n    /* \"#utility.yul\":3374:3376   */\n  0x40\n    /* \"#utility.yul\":3363:3372   */\n  dup4\n    /* \"#utility.yul\":3359:3377   */\n  add\n    /* \"#utility.yul\":3350:3356   */\n  dup7\n    /* \"#utility.yul\":3299:3378   */\n  tag_42\n  jump\t// in\ntag_88:\n    /* \"#utility.yul\":3388:3460   */\n  tag_89\n    /* \"#utility.yul\":3456:3458   */\n  0x60\n    /* \"#utility.yul\":3445:3454   */\n  dup4\n    /* \"#utility.yul\":3441:3459   */\n  add\n    /* \"#utility.yul\":3432:3438   */\n  dup6\n    /* \"#utility.yul\":3388:3460   */\n  tag_43\n  jump\t// in\ntag_89:\n    /* \"#utility.yul\":3470:3543   */\n  tag_90\n    /* \"#utility.yul\":3538:3541   */\n  0x80\n    /* \"#utility.yul\":3527:3536   */\n  dup4\n    /* \"#utility.yul\":3523:3542   */\n  add\n    /* \"#utility.yul\":3514:3520   */\n  dup5\n    /* \"#utility.yul\":3470:3543   */\n  tag_44\n  jump\t// in\ntag_90:\n    /* \"#utility.yul\":2896:3550   */\n  swap7\n  swap6\n  pop\n  pop\n  pop\n  pop\n  pop\n  pop\n  jump\t// out\n    /* \"src/KipuBankV2.sol\":1607:14416  contract KipuBankV2 is AccessControl, ReentrancyGuard {... */\ntag_16:\n  mload(0x80)\n  codecopy(0x00, dataOffset(sub_0), dataSize(sub_0))\n  0x00\n  assignImmutable(\"0x3fd68d21223d6fc23edec694e1b0dd90d283ae600f00f762095afcbb0d71f155\")\n  return(0x00, dataSize(sub_0))\nstop\n\nsub_0: assembly {\n        /* \"src/KipuBankV2.sol\":1607:14416  contract KipuBankV2 is AccessControl, ReentrancyGuard {... */\n      mstore(0x40, 0x80)\n      jumpi(tag_1, lt(calldatasize, 0x04))\n      shr(0xe0, calldataload(0x00))\n      dup1\n      0x91d14854\n      gt\n      tag_24\n      jumpi\n      dup1\n      0xd391014b\n      gt\n      tag_25\n      jumpi\n      dup1\n      0xd391014b\n      eq\n      tag_18\n      jumpi\n      dup1\n      0xd547741f\n      eq\n      tag_19\n      jumpi\n      dup1\n      0xdcb6e250\n      eq\n      tag_20\n      jumpi\n      dup1\n      0xf8b2cb4f\n      eq\n      tag_21\n      jumpi\n      dup1\n      0xf9bda21f\n      eq\n      tag_22\n      jumpi\n      dup1\n      0xfe136c4e\n      eq\n      tag_23\n      jumpi\n      jump(tag_1)\n    tag_25:\n      dup1\n      0x91d14854\n      eq\n      tag_13\n      jumpi\n      dup1\n      0x9c50adee\n      eq\n      tag_14\n      jumpi\n      dup1\n      0x9e281a98\n      eq\n      tag_15\n      jumpi\n      dup1\n      0xa217fddf\n      eq\n      tag_16\n      jumpi\n      dup1\n      0xc311d049\n      eq\n      tag_17\n      jumpi\n      jump(tag_1)\n    tag_24:\n      dup1\n      0x2f6ee695\n      gt\n      tag_26\n      jumpi\n      dup1\n      0x2f6ee695\n      eq\n      tag_7\n      jumpi\n      dup1\n      0x31f7d964\n      eq\n      tag_8\n      jumpi\n      dup1\n      0x338b5dea\n      eq\n      tag_9\n      jumpi\n      dup1\n      0x36568abe\n      eq\n      tag_10\n      jumpi\n      dup1\n      0x439370b1\n      eq\n      tag_11\n      jumpi\n      dup1\n      0x4cc05a71\n      eq\n      tag_12\n      jumpi\n      jump(tag_1)\n    tag_26:\n      dup1\n      0x01ffc9a7\n      eq\n      tag_2\n      jumpi\n      dup1\n      0x248a9ca3\n      eq\n      tag_3\n      jumpi\n      dup1\n      0x29608ba6\n      eq\n      tag_4\n      jumpi\n      dup1\n      0x2dfdf0b5\n      eq\n      tag_5\n      jumpi\n      dup1\n      0x2f2ff15d\n      eq\n      tag_6\n      jumpi\n    tag_1:\n      0x00\n      dup1\n      revert\n        /* \"@openzeppelin/contracts/access/AccessControl.sol\":2541:2743  function supportsInterface(bytes4 interfaceId) public view virtual override returns (bool) {... */\n    tag_2:\n      callvalue\n      dup1\n      iszero\n      tag_27\n      jumpi\n      0x00\n      dup1\n      revert\n    tag_27:\n      pop\n      tag_28\n      0x04\n      dup1\n      calldatasize\n      sub\n      dup2\n      add\n      swap1\n      tag_29\n      swap2\n      swap1\n      tag_30\n      jump\t// in\n    tag_29:\n      tag_31\n      jump\t// in\n    tag_28:\n      mload(0x40)\n      tag_32\n      swap2\n      swap1\n      tag_33\n      jump\t// in\n    tag_32:\n      mload(0x40)\n      dup1\n      swap2\n      sub\n      swap1\n      return\n        /* \"@openzeppelin/contracts/access/AccessControl.sol\":3786:3906  function getRoleAdmin(bytes32 role) public view virtual returns (bytes32) {... */\n    tag_3:\n      callvalue\n      dup1\n      iszero\n      tag_34\n      jumpi\n      0x00\n      dup1\n      revert\n    tag_34:\n      pop\n      tag_35\n      0x04\n      dup1\n      calldatasize\n      sub\n      dup2\n      add\n      swap1\n      tag_36\n      swap2\n      swap1\n      tag_37\n      jump\t// in\n    tag_36:\n      tag_38\n      jump\t// in\n    tag_35:\n      mload(0x40)\n      tag_39\n      swap2\n      swap1\n      tag_40\n      jump\t// in\n    tag_39:\n      mload(0x40)\n      dup1\n      swap2\n      sub\n      swap1\n      return\n        /* \"src/KipuBankV2.sol\":2641:2674  uint256 public totalDepositedUsd6 */\n    tag_4:\n      callvalue\n      dup1\n      iszero\n      tag_41\n      jumpi\n      0x00\n      dup1\n      revert\n    tag_41:\n      pop\n      tag_42\n      tag_43\n      jump\t// in\n    tag_42:\n      mload(0x40)\n      tag_44\n      swap2\n      swap1\n      tag_45\n      jump\t// in\n    tag_44:\n      mload(0x40)\n      dup1\n      swap2\n      sub\n      swap1\n      return\n        /* \"src/KipuBankV2.sol\":2726:2753  uint256 public depositCount */\n    tag_5:\n      callvalue\n      dup1\n      iszero\n      tag_46\n      jumpi\n      0x00\n      dup1\n      revert\n    tag_46:\n      pop\n      tag_47\n      tag_48\n      jump\t// in\n    tag_47:\n      mload(0x40)\n      tag_49\n      swap2\n      swap1\n      tag_45\n      jump\t// in\n    tag_49:\n      mload(0x40)\n      dup1\n      swap2\n      sub\n      swap1\n      return\n        /* \"@openzeppelin/contracts/access/AccessControl.sol\":4202:4338  function grantRole(bytes32 role, address account) public virtual onlyRole(getRoleAdmin(role)) {... */\n    tag_6:\n      callvalue\n      dup1\n      iszero\n      tag_50\n      jumpi\n      0x00\n      dup1\n      revert\n    tag_50:\n      pop\n      tag_51\n      0x04\n      dup1\n      calldatasize\n      sub\n      dup2\n      add\n      swap1\n      tag_52\n      swap2\n      swap1\n      tag_53\n      jump\t// in\n    tag_52:\n      tag_54\n      jump\t// in\n    tag_51:\n      stop\n        /* \"src/KipuBankV2.sol\":2228:2266  uint8 public constant USD_DECIMALS = 6 */\n    tag_7:\n      callvalue\n      dup1\n      iszero\n      tag_55\n      jumpi\n      0x00\n      dup1\n      revert\n    tag_55:\n      pop\n      tag_56\n      tag_57\n      jump\t// in\n    tag_56:\n      mload(0x40)\n      tag_58\n      swap2\n      swap1\n      tag_59\n      jump\t// in\n    tag_58:\n      mload(0x40)\n      dup1\n      swap2\n      sub\n      swap1\n      return\n        /* \"src/KipuBankV2.sol\":2101:2150  address public constant NATIVE_TOKEN = address(0) */\n    tag_8:\n      callvalue\n      dup1\n      iszero\n      tag_60\n      jumpi\n      0x00\n      dup1\n      revert\n    tag_60:\n      pop\n      tag_61\n      tag_62\n      jump\t// in\n    tag_61:\n      mload(0x40)\n      tag_63\n      swap2\n      swap1\n      tag_64\n      jump\t// in\n    tag_63:\n      mload(0x40)\n      dup1\n      swap2\n      sub\n      swap1\n      return\n        /* \"src/KipuBankV2.sol\":9693:10512  function depositToken(address token, uint256 amount)... */\n    tag_9:\n      callvalue\n      dup1\n      iszero\n      tag_65\n      jumpi\n      0x00\n      dup1\n      revert\n    tag_65:\n      pop\n      tag_66\n      0x04\n      dup1\n      calldatasize\n      sub\n      dup2\n      add\n      swap1\n      tag_67\n      swap2\n      swap1\n      tag_68\n      jump\t// in\n    tag_67:\n      tag_69\n      jump\t// in\n    tag_66:\n      stop\n        /* \"@openzeppelin/contracts/access/AccessControl.sol\":5304:5549  function renounceRole(bytes32 role, address callerConfirmation) public virtual {... */\n    tag_10:\n      callvalue\n      dup1\n      iszero\n      tag_70\n      jumpi\n      0x00\n      dup1\n      revert\n    tag_70:\n      pop\n      tag_71\n      0x04\n      dup1\n      calldatasize\n      sub\n      dup2\n      add\n      swap1\n      tag_72\n      swap2\n      swap1\n      tag_53\n      jump\t// in\n    tag_72:\n      tag_73\n      jump\t// in\n    tag_71:\n      stop\n        /* \"src/KipuBankV2.sol\":8932:9632  function depositEth()... */\n    tag_11:\n      tag_74\n      tag_75\n      jump\t// in\n    tag_74:\n      stop\n        /* \"src/KipuBankV2.sol\":2760:2788  uint256 public withdrawCount */\n    tag_12:\n      callvalue\n      dup1\n      iszero\n      tag_76\n      jumpi\n      0x00\n      dup1\n      revert\n    tag_76:\n      pop\n      tag_77\n      tag_78\n      jump\t// in\n    tag_77:\n      mload(0x40)\n      tag_79\n      swap2\n      swap1\n      tag_45\n      jump\t// in\n    tag_79:\n      mload(0x40)\n      dup1\n      swap2\n      sub\n      swap1\n      return\n        /* \"@openzeppelin/contracts/access/AccessControl.sol\":2830:2966  function hasRole(bytes32 role, address account) public view virtual returns (bool) {... */\n    tag_13:\n      callvalue\n      dup1\n      iszero\n      tag_80\n      jumpi\n      0x00\n      dup1\n      revert\n    tag_80:\n      pop\n      tag_81\n      0x04\n      dup1\n      calldatasize\n      sub\n      dup2\n      add\n      swap1\n      tag_82\n      swap2\n      swap1\n      tag_53\n      jump\t// in\n    tag_82:\n      tag_83\n      jump\t// in\n    tag_81:\n      mload(0x40)\n      tag_84\n      swap2\n      swap1\n      tag_33\n      jump\t// in\n    tag_84:\n      mload(0x40)\n      dup1\n      swap2\n      sub\n      swap1\n      return\n        /* \"src/KipuBankV2.sol\":7364:8600  function setTokenConfig(... */\n    tag_14:\n      callvalue\n      dup1\n      iszero\n      tag_85\n      jumpi\n      0x00\n      dup1\n      revert\n    tag_85:\n      pop\n      tag_86\n      0x04\n      dup1\n      calldatasize\n      sub\n      dup2\n      add\n      swap1\n      tag_87\n      swap2\n      swap1\n      tag_88\n      jump\t// in\n    tag_87:\n      tag_89\n      jump\t// in\n    tag_86:\n      stop\n        /* \"src/KipuBankV2.sol\":11576:12272  function withdrawToken(address token, uint256 amount)... */\n    tag_15:\n      callvalue\n      dup1\n      iszero\n      tag_90\n      jumpi\n      0x00\n      dup1\n      revert\n    tag_90:\n      pop\n      tag_91\n      0x04\n      dup1\n      calldatasize\n      sub\n      dup2\n      add\n      swap1\n      tag_92\n      swap2\n      swap1\n      tag_68\n      jump\t// in\n    tag_92:\n      tag_93\n      jump\t// in\n    tag_91:\n      stop\n        /* \"@openzeppelin/contracts/access/AccessControl.sol\":2196:2245  bytes32 public constant DEFAULT_ADMIN_ROLE = 0x00 */\n    tag_16:\n      callvalue\n      dup1\n      iszero\n      tag_94\n      jumpi\n      0x00\n      dup1\n      revert\n    tag_94:\n      pop\n      tag_95\n      tag_96\n      jump\t// in\n    tag_95:\n      mload(0x40)\n      tag_97\n      swap2\n      swap1\n      tag_40\n      jump\t// in\n    tag_97:\n      mload(0x40)\n      dup1\n      swap2\n      sub\n      swap1\n      return\n        /* \"src/KipuBankV2.sol\":10755:11515  function withdrawEth(uint256 amount)... */\n    tag_17:\n      callvalue\n      dup1\n      iszero\n      tag_98\n      jumpi\n      0x00\n      dup1\n      revert\n    tag_98:\n      pop\n      tag_99\n      0x04\n      dup1\n      calldatasize\n      sub\n      dup2\n      add\n      swap1\n      tag_100\n      swap2\n      swap1\n      tag_101\n      jump\t// in\n    tag_100:\n      tag_102\n      jump\t// in\n    tag_99:\n      stop\n        /* \"src/KipuBankV2.sol\":1962:2022  bytes32 public constant ROLE_ADMIN = keccak256(\"ROLE_ADMIN\") */\n    tag_18:\n      callvalue\n      dup1\n      iszero\n      tag_103\n      jumpi\n      0x00\n      dup1\n      revert\n    tag_103:\n      pop\n      tag_104\n      tag_105\n      jump\t// in\n    tag_104:\n      mload(0x40)\n      tag_106\n      swap2\n      swap1\n      tag_40\n      jump\t// in\n    tag_106:\n      mload(0x40)\n      dup1\n      swap2\n      sub\n      swap1\n      return\n        /* \"@openzeppelin/contracts/access/AccessControl.sol\":4618:4756  function revokeRole(bytes32 role, address account) public virtual onlyRole(getRoleAdmin(role)) {... */\n    tag_19:\n      callvalue\n      dup1\n      iszero\n      tag_107\n      jumpi\n      0x00\n      dup1\n      revert\n    tag_107:\n      pop\n      tag_108\n      0x04\n      dup1\n      calldatasize\n      sub\n      dup2\n      add\n      swap1\n      tag_109\n      swap2\n      swap1\n      tag_53\n      jump\t// in\n    tag_109:\n      tag_110\n      jump\t// in\n    tag_108:\n      stop\n        /* \"src/KipuBankV2.sol\":12761:12935  function getUsdBalance(address token, address user) external view returns (uint256) {... */\n    tag_20:\n      callvalue\n      dup1\n      iszero\n      tag_111\n      jumpi\n      0x00\n      dup1\n      revert\n    tag_111:\n      pop\n      tag_112\n      0x04\n      dup1\n      calldatasize\n      sub\n      dup2\n      add\n      swap1\n      tag_113\n      swap2\n      swap1\n      tag_114\n      jump\t// in\n    tag_113:\n      tag_115\n      jump\t// in\n    tag_112:\n      mload(0x40)\n      tag_116\n      swap2\n      swap1\n      tag_45\n      jump\t// in\n    tag_116:\n      mload(0x40)\n      dup1\n      swap2\n      sub\n      swap1\n      return\n        /* \"src/KipuBankV2.sol\":12551:12671  function getBalance(address token) external view returns (uint256) {... */\n    tag_21:\n      callvalue\n      dup1\n      iszero\n      tag_117\n      jumpi\n      0x00\n      dup1\n      revert\n    tag_117:\n      pop\n      tag_118\n      0x04\n      dup1\n      calldatasize\n      sub\n      dup2\n      add\n      swap1\n      tag_119\n      swap2\n      swap1\n      tag_120\n      jump\t// in\n    tag_119:\n      tag_121\n      jump\t// in\n    tag_118:\n      mload(0x40)\n      tag_122\n      swap2\n      swap1\n      tag_45\n      jump\t// in\n    tag_122:\n      mload(0x40)\n      dup1\n      swap2\n      sub\n      swap1\n      return\n        /* \"src/KipuBankV2.sol\":2530:2566  uint256 public immutable bankCapUsd6 */\n    tag_22:\n      callvalue\n      dup1\n      iszero\n      tag_123\n      jumpi\n      0x00\n      dup1\n      revert\n    tag_123:\n      pop\n      tag_124\n      tag_125\n      jump\t// in\n    tag_124:\n      mload(0x40)\n      tag_126\n      swap2\n      swap1\n      tag_45\n      jump\t// in\n    tag_126:\n      mload(0x40)\n      dup1\n      swap2\n      sub\n      swap1\n      return\n        /* \"src/KipuBankV2.sol\":3010:3060  mapping(address => TokenConfig) public tokenConfig */\n    tag_23:\n      callvalue\n      dup1\n      iszero\n      tag_127\n      jumpi\n      0x00\n      dup1\n      revert\n    tag_127:\n      pop\n      tag_128\n      0x04\n      dup1\n      calldatasize\n      sub\n      dup2\n      add\n      swap1\n      tag_129\n      swap2\n      swap1\n      tag_120\n      jump\t// in\n    tag_129:\n      tag_130\n      jump\t// in\n    tag_128:\n      mload(0x40)\n      tag_131\n      swap6\n      swap5\n      swap4\n      swap3\n      swap2\n      swap1\n      tag_132\n      jump\t// in\n    tag_131:\n      mload(0x40)\n      dup1\n      swap2\n      sub\n      swap1\n      return\n        /* \"@openzeppelin/contracts/access/AccessControl.sol\":2541:2743  function supportsInterface(bytes4 interfaceId) public view virtual override returns (bool) {... */\n    tag_31:\n        /* \"@openzeppelin/contracts/access/AccessControl.sol\":2626:2630  bool */\n      0x00\n        /* \"@openzeppelin/contracts/access/AccessControl.sol\":2664:2696  type(IAccessControl).interfaceId */\n      0x7965db0b00000000000000000000000000000000000000000000000000000000\n        /* \"@openzeppelin/contracts/access/AccessControl.sol\":2649:2696  interfaceId == type(IAccessControl).interfaceId */\n      not(0xffffffffffffffffffffffffffffffffffffffffffffffffffffffff)\n      and\n        /* \"@openzeppelin/contracts/access/AccessControl.sol\":2649:2660  interfaceId */\n      dup3\n        /* \"@openzeppelin/contracts/access/AccessControl.sol\":2649:2696  interfaceId == type(IAccessControl).interfaceId */\n      not(0xffffffffffffffffffffffffffffffffffffffffffffffffffffffff)\n      and\n      eq\n        /* \"@openzeppelin/contracts/access/AccessControl.sol\":2649:2736  interfaceId == type(IAccessControl).interfaceId || super.supportsInterface(interfaceId) */\n      dup1\n      tag_134\n      jumpi\n      pop\n        /* \"@openzeppelin/contracts/access/AccessControl.sol\":2700:2736  super.supportsInterface(interfaceId) */\n      tag_135\n        /* \"@openzeppelin/contracts/access/AccessControl.sol\":2724:2735  interfaceId */\n      dup3\n        /* \"@openzeppelin/contracts/access/AccessControl.sol\":2700:2723  super.supportsInterface */\n      tag_136\n        /* \"@openzeppelin/contracts/access/AccessControl.sol\":2700:2736  super.supportsInterface(interfaceId) */\n      jump\t// in\n    tag_135:\n        /* \"@openzeppelin/contracts/access/AccessControl.sol\":2649:2736  interfaceId == type(IAccessControl).interfaceId || super.supportsInterface(interfaceId) */\n    tag_134:\n        /* \"@openzeppelin/contracts/access/AccessControl.sol\":2642:2736  return interfaceId == type(IAccessControl).interfaceId || super.supportsInterface(interfaceId) */\n      swap1\n      pop\n        /* \"@openzeppelin/contracts/access/AccessControl.sol\":2541:2743  function supportsInterface(bytes4 interfaceId) public view virtual override returns (bool) {... */\n      swap2\n      swap1\n      pop\n      jump\t// out\n        /* \"@openzeppelin/contracts/access/AccessControl.sol\":3786:3906  function getRoleAdmin(bytes32 role) public view virtual returns (bytes32) {... */\n    tag_38:\n        /* \"@openzeppelin/contracts/access/AccessControl.sol\":3851:3858  bytes32 */\n      0x00\n        /* \"@openzeppelin/contracts/access/AccessControl.sol\":3877:3883  _roles */\n      dup1\n        /* \"@openzeppelin/contracts/access/AccessControl.sol\":3877:3889  _roles[role] */\n      0x00\n        /* \"@openzeppelin/contracts/access/AccessControl.sol\":3884:3888  role */\n      dup4\n        /* \"@openzeppelin/contracts/access/AccessControl.sol\":3877:3889  _roles[role] */\n      dup2\n      mstore\n      0x20\n      add\n      swap1\n      dup2\n      mstore\n      0x20\n      add\n      0x00\n      keccak256\n        /* \"@openzeppelin/contracts/access/AccessControl.sol\":3877:3899  _roles[role].adminRole */\n      0x01\n      add\n      sload\n        /* \"@openzeppelin/contracts/access/AccessControl.sol\":3870:3899  return _roles[role].adminRole */\n      swap1\n      pop\n        /* \"@openzeppelin/contracts/access/AccessControl.sol\":3786:3906  function getRoleAdmin(bytes32 role) public view virtual returns (bytes32) {... */\n      swap2\n      swap1\n      pop\n      jump\t// out\n        /* \"src/KipuBankV2.sol\":2641:2674  uint256 public totalDepositedUsd6 */\n    tag_43:\n      sload(0x02)\n      dup2\n      jump\t// out\n        /* \"src/KipuBankV2.sol\":2726:2753  uint256 public depositCount */\n    tag_48:\n      sload(0x03)\n      dup2\n      jump\t// out\n        /* \"@openzeppelin/contracts/access/AccessControl.sol\":4202:4338  function grantRole(bytes32 role, address account) public virtual onlyRole(getRoleAdmin(role)) {... */\n    tag_54:\n        /* \"@openzeppelin/contracts/access/AccessControl.sol\":4276:4294  getRoleAdmin(role) */\n      tag_138\n        /* \"@openzeppelin/contracts/access/AccessControl.sol\":4289:4293  role */\n      dup3\n        /* \"@openzeppelin/contracts/access/AccessControl.sol\":4276:4288  getRoleAdmin */\n      tag_38\n        /* \"@openzeppelin/contracts/access/AccessControl.sol\":4276:4294  getRoleAdmin(role) */\n      jump\t// in\n    tag_138:\n        /* \"@openzeppelin/contracts/access/AccessControl.sol\":2473:2489  _checkRole(role) */\n      tag_140\n        /* \"@openzeppelin/contracts/access/AccessControl.sol\":2484:2488  role */\n      dup2\n        /* \"@openzeppelin/contracts/access/AccessControl.sol\":2473:2483  _checkRole */\n      tag_141\n        /* \"@openzeppelin/contracts/access/AccessControl.sol\":2473:2489  _checkRole(role) */\n      jump\t// in\n    tag_140:\n        /* \"@openzeppelin/contracts/access/AccessControl.sol\":4306:4331  _grantRole(role, account) */\n      tag_143\n        /* \"@openzeppelin/contracts/access/AccessControl.sol\":4317:4321  role */\n      dup4\n        /* \"@openzeppelin/contracts/access/AccessControl.sol\":4323:4330  account */\n      dup4\n        /* \"@openzeppelin/contracts/access/AccessControl.sol\":4306:4316  _grantRole */\n      tag_144\n        /* \"@openzeppelin/contracts/access/AccessControl.sol\":4306:4331  _grantRole(role, account) */\n      jump\t// in\n    tag_143:\n      pop\n        /* \"@openzeppelin/contracts/access/AccessControl.sol\":4202:4338  function grantRole(bytes32 role, address account) public virtual onlyRole(getRoleAdmin(role)) {... */\n      pop\n      pop\n      pop\n      jump\t// out\n        /* \"src/KipuBankV2.sol\":2228:2266  uint8 public constant USD_DECIMALS = 6 */\n    tag_57:\n        /* \"src/KipuBankV2.sol\":2265:2266  6 */\n      0x06\n        /* \"src/KipuBankV2.sol\":2228:2266  uint8 public constant USD_DECIMALS = 6 */\n      dup2\n      jump\t// out\n        /* \"src/KipuBankV2.sol\":2101:2150  address public constant NATIVE_TOKEN = address(0) */\n    tag_62:\n        /* \"src/KipuBankV2.sol\":2148:2149  0 */\n      0x00\n        /* \"src/KipuBankV2.sol\":2101:2150  address public constant NATIVE_TOKEN = address(0) */\n      dup2\n      jump\t// out\n        /* \"src/KipuBankV2.sol\":9693:10512  function depositToken(address token, uint256 amount)... */\n    tag_69:\n        /* \"@openzeppelin/contracts/security/ReentrancyGuard.sol\":2261:2282  _nonReentrantBefore() */\n      tag_146\n        /* \"@openzeppelin/contracts/security/ReentrancyGuard.sol\":2261:2280  _nonReentrantBefore */\n      tag_147\n        /* \"@openzeppelin/contracts/security/ReentrancyGuard.sol\":2261:2282  _nonReentrantBefore() */\n      jump\t// in\n    tag_146:\n        /* \"src/KipuBankV2.sol\":9803:9809  amount */\n      dup1\n        /* \"src/KipuBankV2.sol\":6279:6280  0 */\n      0x00\n        /* \"src/KipuBankV2.sol\":6269:6275  amount */\n      dup2\n        /* \"src/KipuBankV2.sol\":6269:6280  amount == 0 */\n      sub\n        /* \"src/KipuBankV2.sol\":6265:6301  if (amount == 0) revert ZeroAmount() */\n      tag_149\n      jumpi\n        /* \"src/KipuBankV2.sol\":6289:6301  ZeroAmount() */\n      mload(0x40)\n      0x1f2a200500000000000000000000000000000000000000000000000000000000\n      dup2\n      mstore\n      0x04\n      add\n      mload(0x40)\n      dup1\n      swap2\n      sub\n      swap1\n      revert\n        /* \"src/KipuBankV2.sol\":6265:6301  if (amount == 0) revert ZeroAmount() */\n    tag_149:\n        /* \"src/KipuBankV2.sol\":9830:9835  token */\n      dup3\n        /* \"src/KipuBankV2.sol\":2148:2149  0 */\n      0x00\n        /* \"src/KipuBankV2.sol\":6669:6690  token == NATIVE_TOKEN */\n      0xffffffffffffffffffffffffffffffffffffffff\n      and\n        /* \"src/KipuBankV2.sol\":6669:6674  token */\n      dup2\n        /* \"src/KipuBankV2.sol\":6669:6690  token == NATIVE_TOKEN */\n      0xffffffffffffffffffffffffffffffffffffffff\n      and\n      sub\n        /* \"src/KipuBankV2.sol\":6665:6722  if (token == NATIVE_TOKEN) revert UnsupportedToken(token) */\n      tag_151\n      jumpi\n        /* \"src/KipuBankV2.sol\":6716:6721  token */\n      dup1\n        /* \"src/KipuBankV2.sol\":6699:6722  UnsupportedToken(token) */\n      mload(0x40)\n      0xbf16aab600000000000000000000000000000000000000000000000000000000\n      dup2\n      mstore\n      0x04\n      add\n      tag_152\n      swap2\n      swap1\n      tag_64\n      jump\t// in\n    tag_152:\n      mload(0x40)\n      dup1\n      swap2\n      sub\n      swap1\n      revert\n        /* \"src/KipuBankV2.sol\":6665:6722  if (token == NATIVE_TOKEN) revert UnsupportedToken(token) */\n    tag_151:\n        /* \"src/KipuBankV2.sol\":9861:9866  token */\n      dup4\n        /* \"src/KipuBankV2.sol\":6449:6460  tokenConfig */\n      0x06\n        /* \"src/KipuBankV2.sol\":6449:6467  tokenConfig[token] */\n      0x00\n        /* \"src/KipuBankV2.sol\":6461:6466  token */\n      dup3\n        /* \"src/KipuBankV2.sol\":6449:6467  tokenConfig[token] */\n      0xffffffffffffffffffffffffffffffffffffffff\n      and\n      0xffffffffffffffffffffffffffffffffffffffff\n      and\n      dup2\n      mstore\n      0x20\n      add\n      swap1\n      dup2\n      mstore\n      0x20\n      add\n      0x00\n      keccak256\n        /* \"src/KipuBankV2.sol\":6449:6477  tokenConfig[token].supported */\n      0x00\n      add\n      0x00\n      swap1\n      sload\n      swap1\n      0x0100\n      exp\n      swap1\n      div\n      0xff\n      and\n        /* \"src/KipuBankV2.sol\":6444:6509  if (!tokenConfig[token].supported) revert UnsupportedToken(token) */\n      tag_154\n      jumpi\n        /* \"src/KipuBankV2.sol\":6503:6508  token */\n      dup1\n        /* \"src/KipuBankV2.sol\":6486:6509  UnsupportedToken(token) */\n      mload(0x40)\n      0xbf16aab600000000000000000000000000000000000000000000000000000000\n      dup2\n      mstore\n      0x04\n      add\n      tag_155\n      swap2\n      swap1\n      tag_64\n      jump\t// in\n    tag_155:\n      mload(0x40)\n      dup1\n      swap2\n      sub\n      swap1\n      revert\n        /* \"src/KipuBankV2.sol\":6444:6509  if (!tokenConfig[token].supported) revert UnsupportedToken(token) */\n    tag_154:\n        /* \"src/KipuBankV2.sol\":9937:9949  uint256 usd6 */\n      0x00\n        /* \"src/KipuBankV2.sol\":9952:9973  _toUsd(token, amount) */\n      tag_157\n        /* \"src/KipuBankV2.sol\":9959:9964  token */\n      dup7\n        /* \"src/KipuBankV2.sol\":9966:9972  amount */\n      dup7\n        /* \"src/KipuBankV2.sol\":9952:9958  _toUsd */\n      tag_158\n        /* \"src/KipuBankV2.sol\":9952:9973  _toUsd(token, amount) */\n      jump\t// in\n    tag_157:\n        /* \"src/KipuBankV2.sol\":9937:9973  uint256 usd6 = _toUsd(token, amount) */\n      swap1\n      pop\n        /* \"src/KipuBankV2.sol\":9984:10004  uint256 attemptedUsd */\n      0x00\n        /* \"src/KipuBankV2.sol\":10028:10032  usd6 */\n      dup2\n        /* \"src/KipuBankV2.sol\":10007:10025  totalDepositedUsd6 */\n      sload(0x02)\n        /* \"src/KipuBankV2.sol\":10007:10032  totalDepositedUsd6 + usd6 */\n      tag_159\n      swap2\n      swap1\n      tag_160\n      jump\t// in\n    tag_159:\n        /* \"src/KipuBankV2.sol\":9984:10032  uint256 attemptedUsd = totalDepositedUsd6 + usd6 */\n      swap1\n      pop\n        /* \"src/KipuBankV2.sol\":10062:10073  bankCapUsd6 */\n      immutable(\"0x3fd68d21223d6fc23edec694e1b0dd90d283ae600f00f762095afcbb0d71f155\")\n        /* \"src/KipuBankV2.sol\":10047:10059  attemptedUsd */\n      dup2\n        /* \"src/KipuBankV2.sol\":10047:10073  attemptedUsd > bankCapUsd6 */\n      gt\n        /* \"src/KipuBankV2.sol\":10043:10120  if (attemptedUsd > bankCapUsd6) revert CapExceeded(attemptedUsd, bankCapUsd6) */\n      iszero\n      tag_161\n      jumpi\n        /* \"src/KipuBankV2.sol\":10094:10106  attemptedUsd */\n      dup1\n        /* \"src/KipuBankV2.sol\":10108:10119  bankCapUsd6 */\n      immutable(\"0x3fd68d21223d6fc23edec694e1b0dd90d283ae600f00f762095afcbb0d71f155\")\n        /* \"src/KipuBankV2.sol\":10082:10120  CapExceeded(attemptedUsd, bankCapUsd6) */\n      mload(0x40)\n      0xf480e28500000000000000000000000000000000000000000000000000000000\n      dup2\n      mstore\n      0x04\n      add\n      tag_162\n      swap3\n      swap2\n      swap1\n      tag_163\n      jump\t// in\n    tag_162:\n      mload(0x40)\n      dup1\n      swap2\n      sub\n      swap1\n      revert\n        /* \"src/KipuBankV2.sol\":10043:10120  if (attemptedUsd > bankCapUsd6) revert CapExceeded(attemptedUsd, bankCapUsd6) */\n    tag_161:\n        /* \"src/KipuBankV2.sol\":10184:10190  amount */\n      dup6\n        /* \"src/KipuBankV2.sol\":10153:10161  balances */\n      0x05\n        /* \"src/KipuBankV2.sol\":10153:10168  balances[token] */\n      0x00\n        /* \"src/KipuBankV2.sol\":10162:10167  token */\n      dup10\n        /* \"src/KipuBankV2.sol\":10153:10168  balances[token] */\n      0xffffffffffffffffffffffffffffffffffffffff\n      and\n      0xffffffffffffffffffffffffffffffffffffffff\n      and\n      dup2\n      mstore\n      0x20\n      add\n      swap1\n      dup2\n      mstore\n      0x20\n      add\n      0x00\n      keccak256\n        /* \"src/KipuBankV2.sol\":10153:10180  balances[token][msg.sender] */\n      0x00\n        /* \"src/KipuBankV2.sol\":10169:10179  msg.sender */\n      caller\n        /* \"src/KipuBankV2.sol\":10153:10180  balances[token][msg.sender] */\n      0xffffffffffffffffffffffffffffffffffffffff\n      and\n      0xffffffffffffffffffffffffffffffffffffffff\n      and\n      dup2\n      mstore\n      0x20\n      add\n      swap1\n      dup2\n      mstore\n      0x20\n      add\n      0x00\n      keccak256\n      0x00\n        /* \"src/KipuBankV2.sol\":10153:10190  balances[token][msg.sender] += amount */\n      dup3\n      dup3\n      sload\n      tag_164\n      swap2\n      swap1\n      tag_160\n      jump\t// in\n    tag_164:\n      swap3\n      pop\n      pop\n      dup2\n      swap1\n      sstore\n      pop\n        /* \"src/KipuBankV2.sol\":10222:10234  attemptedUsd */\n      dup1\n        /* \"src/KipuBankV2.sol\":10201:10219  totalDepositedUsd6 */\n      0x02\n        /* \"src/KipuBankV2.sol\":10201:10234  totalDepositedUsd6 = attemptedUsd */\n      dup2\n      swap1\n      sstore\n      pop\n        /* \"src/KipuBankV2.sol\":10257:10269  depositCount */\n      0x03\n      0x00\n        /* \"src/KipuBankV2.sol\":10257:10271  depositCount++ */\n      dup2\n      sload\n      dup1\n      swap3\n      swap2\n      swap1\n      0x01\n      add\n      swap2\n      swap1\n      pop\n      sstore\n      pop\n        /* \"src/KipuBankV2.sol\":10334:10399  IERC20(token).safeTransferFrom(msg.sender, address(this), amount) */\n      tag_165\n        /* \"src/KipuBankV2.sol\":10365:10375  msg.sender */\n      caller\n        /* \"src/KipuBankV2.sol\":10385:10389  this */\n      address\n        /* \"src/KipuBankV2.sol\":10392:10398  amount */\n      dup9\n        /* \"src/KipuBankV2.sol\":10341:10346  token */\n      dup11\n        /* \"src/KipuBankV2.sol\":10334:10364  IERC20(token).safeTransferFrom */\n      0xffffffffffffffffffffffffffffffffffffffff\n      and\n      tag_166\n      swap1\n        /* \"src/KipuBankV2.sol\":10334:10399  IERC20(token).safeTransferFrom(msg.sender, address(this), amount) */\n      swap4\n      swap3\n      swap2\n      swap1\n      0xffffffff\n      and\n      jump\t// in\n    tag_165:\n        /* \"src/KipuBankV2.sol\":10450:10460  msg.sender */\n      caller\n        /* \"src/KipuBankV2.sol\":10435:10504  Deposit(token, msg.sender, amount, balances[token][msg.sender], usd6) */\n      0xffffffffffffffffffffffffffffffffffffffff\n      and\n        /* \"src/KipuBankV2.sol\":10443:10448  token */\n      dup8\n        /* \"src/KipuBankV2.sol\":10435:10504  Deposit(token, msg.sender, amount, balances[token][msg.sender], usd6) */\n      0xffffffffffffffffffffffffffffffffffffffff\n      and\n      0x4e2ca0515ed1aef1395f66b5303bb5d6f1bf9d61a353fa53f73f8ac9973fa9f6\n        /* \"src/KipuBankV2.sol\":10462:10468  amount */\n      dup9\n        /* \"src/KipuBankV2.sol\":10470:10478  balances */\n      0x05\n        /* \"src/KipuBankV2.sol\":10470:10485  balances[token] */\n      0x00\n        /* \"src/KipuBankV2.sol\":10479:10484  token */\n      dup13\n        /* \"src/KipuBankV2.sol\":10470:10485  balances[token] */\n      0xffffffffffffffffffffffffffffffffffffffff\n      and\n      0xffffffffffffffffffffffffffffffffffffffff\n      and\n      dup2\n      mstore\n      0x20\n      add\n      swap1\n      dup2\n      mstore\n      0x20\n      add\n      0x00\n      keccak256\n        /* \"src/KipuBankV2.sol\":10470:10497  balances[token][msg.sender] */\n      0x00\n        /* \"src/KipuBankV2.sol\":10486:10496  msg.sender */\n      caller\n        /* \"src/KipuBankV2.sol\":10470:10497  balances[token][msg.sender] */\n      0xffffffffffffffffffffffffffffffffffffffff\n      and\n      0xffffffffffffffffffffffffffffffffffffffff\n      and\n      dup2\n      mstore\n      0x20\n      add\n      swap1\n      dup2\n      mstore\n      0x20\n      add\n      0x00\n      keccak256\n      sload\n        /* \"src/KipuBankV2.sol\":10499:10503  usd6 */\n      dup7\n        /* \"src/KipuBankV2.sol\":10435:10504  Deposit(token, msg.sender, amount, balances[token][msg.sender], usd6) */\n      mload(0x40)\n      tag_167\n      swap4\n      swap3\n      swap2\n      swap1\n      tag_168\n      jump\t// in\n    tag_167:\n      mload(0x40)\n      dup1\n      swap2\n      sub\n      swap1\n      log3\n        /* \"src/KipuBankV2.sol\":9873:10512  {... */\n      pop\n      pop\n        /* \"src/KipuBankV2.sol\":6733:6734  _ */\n      pop\n        /* \"src/KipuBankV2.sol\":6312:6313  _ */\n      pop\n        /* \"@openzeppelin/contracts/security/ReentrancyGuard.sol\":2292:2293  _ */\n      pop\n        /* \"@openzeppelin/contracts/security/ReentrancyGuard.sol\":2303:2323  _nonReentrantAfter() */\n      tag_169\n        /* \"@openzeppelin/contracts/security/ReentrancyGuard.sol\":2303:2321  _nonReentrantAfter */\n      tag_170\n        /* \"@openzeppelin/contracts/security/ReentrancyGuard.sol\":2303:2323  _nonReentrantAfter() */\n      jump\t// in\n    tag_169:\n        /* \"src/KipuBankV2.sol\":9693:10512  function depositToken(address token, uint256 amount)... */\n      pop\n      pop\n      jump\t// out\n        /* \"@openzeppelin/contracts/access/AccessControl.sol\":5304:5549  function renounceRole(bytes32 role, address callerConfirmation) public virtual {... */\n    tag_73:\n        /* \"@openzeppelin/contracts/access/AccessControl.sol\":5419:5431  _msgSender() */\n      tag_172\n        /* \"@openzeppelin/contracts/access/AccessControl.sol\":5419:5429  _msgSender */\n      tag_173\n        /* \"@openzeppelin/contracts/access/AccessControl.sol\":5419:5431  _msgSender() */\n      jump\t// in\n    tag_172:\n        /* \"@openzeppelin/contracts/access/AccessControl.sol\":5397:5431  callerConfirmation != _msgSender() */\n      0xffffffffffffffffffffffffffffffffffffffff\n      and\n        /* \"@openzeppelin/contracts/access/AccessControl.sol\":5397:5415  callerConfirmation */\n      dup2\n        /* \"@openzeppelin/contracts/access/AccessControl.sol\":5397:5431  callerConfirmation != _msgSender() */\n      0xffffffffffffffffffffffffffffffffffffffff\n      and\n      eq\n        /* \"@openzeppelin/contracts/access/AccessControl.sol\":5393:5495  if (callerConfirmation != _msgSender()) {... */\n      tag_174\n      jumpi\n        /* \"@openzeppelin/contracts/access/AccessControl.sol\":5454:5484  AccessControlBadConfirmation() */\n      mload(0x40)\n      0x6697b23200000000000000000000000000000000000000000000000000000000\n      dup2\n      mstore\n      0x04\n      add\n      mload(0x40)\n      dup1\n      swap2\n      sub\n      swap1\n      revert\n        /* \"@openzeppelin/contracts/access/AccessControl.sol\":5393:5495  if (callerConfirmation != _msgSender()) {... */\n    tag_174:\n        /* \"@openzeppelin/contracts/access/AccessControl.sol\":5505:5542  _revokeRole(role, callerConfirmation) */\n      tag_175\n        /* \"@openzeppelin/contracts/access/AccessControl.sol\":5517:5521  role */\n      dup3\n        /* \"@openzeppelin/contracts/access/AccessControl.sol\":5523:5541  callerConfirmation */\n      dup3\n        /* \"@openzeppelin/contracts/access/AccessControl.sol\":5505:5516  _revokeRole */\n      tag_176\n        /* \"@openzeppelin/contracts/access/AccessControl.sol\":5505:5542  _revokeRole(role, callerConfirmation) */\n      jump\t// in\n    tag_175:\n      pop\n        /* \"@openzeppelin/contracts/access/AccessControl.sol\":5304:5549  function renounceRole(bytes32 role, address callerConfirmation) public virtual {... */\n      pop\n      pop\n      jump\t// out\n        /* \"src/KipuBankV2.sol\":8932:9632  function depositEth()... */\n    tag_75:\n        /* \"@openzeppelin/contracts/security/ReentrancyGuard.sol\":2261:2282  _nonReentrantBefore() */\n      tag_178\n        /* \"@openzeppelin/contracts/security/ReentrancyGuard.sol\":2261:2280  _nonReentrantBefore */\n      tag_147\n        /* \"@openzeppelin/contracts/security/ReentrancyGuard.sol\":2261:2282  _nonReentrantBefore() */\n      jump\t// in\n    tag_178:\n        /* \"src/KipuBankV2.sol\":9028:9037  msg.value */\n      callvalue\n        /* \"src/KipuBankV2.sol\":6279:6280  0 */\n      0x00\n        /* \"src/KipuBankV2.sol\":6269:6275  amount */\n      dup2\n        /* \"src/KipuBankV2.sol\":6269:6280  amount == 0 */\n      sub\n        /* \"src/KipuBankV2.sol\":6265:6301  if (amount == 0) revert ZeroAmount() */\n      tag_180\n      jumpi\n        /* \"src/KipuBankV2.sol\":6289:6301  ZeroAmount() */\n      mload(0x40)\n      0x1f2a200500000000000000000000000000000000000000000000000000000000\n      dup2\n      mstore\n      0x04\n      add\n      mload(0x40)\n      dup1\n      swap2\n      sub\n      swap1\n      revert\n        /* \"src/KipuBankV2.sol\":6265:6301  if (amount == 0) revert ZeroAmount() */\n    tag_180:\n        /* \"src/KipuBankV2.sol\":2148:2149  0 */\n      0x00\n        /* \"src/KipuBankV2.sol\":6449:6460  tokenConfig */\n      0x06\n        /* \"src/KipuBankV2.sol\":6449:6467  tokenConfig[token] */\n      0x00\n        /* \"src/KipuBankV2.sol\":6461:6466  token */\n      dup3\n        /* \"src/KipuBankV2.sol\":6449:6467  tokenConfig[token] */\n      0xffffffffffffffffffffffffffffffffffffffff\n      and\n      0xffffffffffffffffffffffffffffffffffffffff\n      and\n      dup2\n      mstore\n      0x20\n      add\n      swap1\n      dup2\n      mstore\n      0x20\n      add\n      0x00\n      keccak256\n        /* \"src/KipuBankV2.sol\":6449:6477  tokenConfig[token].supported */\n      0x00\n      add\n      0x00\n      swap1\n      sload\n      swap1\n      0x0100\n      exp\n      swap1\n      div\n      0xff\n      and\n        /* \"src/KipuBankV2.sol\":6444:6509  if (!tokenConfig[token].supported) revert UnsupportedToken(token) */\n      tag_182\n      jumpi\n        /* \"src/KipuBankV2.sol\":6503:6508  token */\n      dup1\n        /* \"src/KipuBankV2.sol\":6486:6509  UnsupportedToken(token) */\n      mload(0x40)\n      0xbf16aab600000000000000000000000000000000000000000000000000000000\n      dup2\n      mstore\n      0x04\n      add\n      tag_183\n      swap2\n      swap1\n      tag_64\n      jump\t// in\n    tag_183:\n      mload(0x40)\n      dup1\n      swap2\n      sub\n      swap1\n      revert\n        /* \"src/KipuBankV2.sol\":6444:6509  if (!tokenConfig[token].supported) revert UnsupportedToken(token) */\n    tag_182:\n        /* \"src/KipuBankV2.sol\":9146:9158  uint256 usd6 */\n      0x00\n        /* \"src/KipuBankV2.sol\":9161:9192  _toUsd(NATIVE_TOKEN, msg.value) */\n      tag_185\n        /* \"src/KipuBankV2.sol\":2148:2149  0 */\n      0x00\n        /* \"src/KipuBankV2.sol\":9182:9191  msg.value */\n      callvalue\n        /* \"src/KipuBankV2.sol\":9161:9167  _toUsd */\n      tag_158\n        /* \"src/KipuBankV2.sol\":9161:9192  _toUsd(NATIVE_TOKEN, msg.value) */\n      jump\t// in\n    tag_185:\n        /* \"src/KipuBankV2.sol\":9146:9192  uint256 usd6 = _toUsd(NATIVE_TOKEN, msg.value) */\n      swap1\n      pop\n        /* \"src/KipuBankV2.sol\":9203:9223  uint256 attemptedUsd */\n      0x00\n        /* \"src/KipuBankV2.sol\":9247:9251  usd6 */\n      dup2\n        /* \"src/KipuBankV2.sol\":9226:9244  totalDepositedUsd6 */\n      sload(0x02)\n        /* \"src/KipuBankV2.sol\":9226:9251  totalDepositedUsd6 + usd6 */\n      tag_186\n      swap2\n      swap1\n      tag_160\n      jump\t// in\n    tag_186:\n        /* \"src/KipuBankV2.sol\":9203:9251  uint256 attemptedUsd = totalDepositedUsd6 + usd6 */\n      swap1\n      pop\n        /* \"src/KipuBankV2.sol\":9281:9292  bankCapUsd6 */\n      immutable(\"0x3fd68d21223d6fc23edec694e1b0dd90d283ae600f00f762095afcbb0d71f155\")\n        /* \"src/KipuBankV2.sol\":9266:9278  attemptedUsd */\n      dup2\n        /* \"src/KipuBankV2.sol\":9266:9292  attemptedUsd > bankCapUsd6 */\n      gt\n        /* \"src/KipuBankV2.sol\":9262:9339  if (attemptedUsd > bankCapUsd6) revert CapExceeded(attemptedUsd, bankCapUsd6) */\n      iszero\n      tag_187\n      jumpi\n        /* \"src/KipuBankV2.sol\":9313:9325  attemptedUsd */\n      dup1\n        /* \"src/KipuBankV2.sol\":9327:9338  bankCapUsd6 */\n      immutable(\"0x3fd68d21223d6fc23edec694e1b0dd90d283ae600f00f762095afcbb0d71f155\")\n        /* \"src/KipuBankV2.sol\":9301:9339  CapExceeded(attemptedUsd, bankCapUsd6) */\n      mload(0x40)\n      0xf480e28500000000000000000000000000000000000000000000000000000000\n      dup2\n      mstore\n      0x04\n      add\n      tag_188\n      swap3\n      swap2\n      swap1\n      tag_163\n      jump\t// in\n    tag_188:\n      mload(0x40)\n      dup1\n      swap2\n      sub\n      swap1\n      revert\n        /* \"src/KipuBankV2.sol\":9262:9339  if (attemptedUsd > bankCapUsd6) revert CapExceeded(attemptedUsd, bankCapUsd6) */\n    tag_187:\n        /* \"src/KipuBankV2.sol\":9410:9419  msg.value */\n      callvalue\n        /* \"src/KipuBankV2.sol\":9372:9380  balances */\n      0x05\n        /* \"src/KipuBankV2.sol\":9372:9394  balances[NATIVE_TOKEN] */\n      0x00\n        /* \"src/KipuBankV2.sol\":2148:2149  0 */\n      dup1\n        /* \"src/KipuBankV2.sol\":9372:9394  balances[NATIVE_TOKEN] */\n      0xffffffffffffffffffffffffffffffffffffffff\n      and\n      0xffffffffffffffffffffffffffffffffffffffff\n      and\n      dup2\n      mstore\n      0x20\n      add\n      swap1\n      dup2\n      mstore\n      0x20\n      add\n      0x00\n      keccak256\n        /* \"src/KipuBankV2.sol\":9372:9406  balances[NATIVE_TOKEN][msg.sender] */\n      0x00\n        /* \"src/KipuBankV2.sol\":9395:9405  msg.sender */\n      caller\n        /* \"src/KipuBankV2.sol\":9372:9406  balances[NATIVE_TOKEN][msg.sender] */\n      0xffffffffffffffffffffffffffffffffffffffff\n      and\n      0xffffffffffffffffffffffffffffffffffffffff\n      and\n      dup2\n      mstore\n      0x20\n      add\n      swap1\n      dup2\n      mstore\n      0x20\n      add\n      0x00\n      keccak256\n      0x00\n        /* \"src/KipuBankV2.sol\":9372:9419  balances[NATIVE_TOKEN][msg.sender] += msg.value */\n      dup3\n      dup3\n      sload\n      tag_189\n      swap2\n      swap1\n      tag_160\n      jump\t// in\n    tag_189:\n      swap3\n      pop\n      pop\n      dup2\n      swap1\n      sstore\n      pop\n        /* \"src/KipuBankV2.sol\":9451:9463  attemptedUsd */\n      dup1\n        /* \"src/KipuBankV2.sol\":9430:9448  totalDepositedUsd6 */\n      0x02\n        /* \"src/KipuBankV2.sol\":9430:9463  totalDepositedUsd6 = attemptedUsd */\n      dup2\n      swap1\n      sstore\n      pop\n        /* \"src/KipuBankV2.sol\":9486:9498  depositCount */\n      0x03\n      0x00\n        /* \"src/KipuBankV2.sol\":9486:9500  depositCount++ */\n      dup2\n      sload\n      dup1\n      swap3\n      swap2\n      swap1\n      0x01\n      add\n      swap2\n      swap1\n      pop\n      sstore\n      pop\n        /* \"src/KipuBankV2.sol\":9560:9570  msg.sender */\n      caller\n        /* \"src/KipuBankV2.sol\":9538:9624  Deposit(NATIVE_TOKEN, msg.sender, msg.value, balances[NATIVE_TOKEN][msg.sender], usd6) */\n      0xffffffffffffffffffffffffffffffffffffffff\n      and\n        /* \"src/KipuBankV2.sol\":2148:2149  0 */\n      0x00\n        /* \"src/KipuBankV2.sol\":9538:9624  Deposit(NATIVE_TOKEN, msg.sender, msg.value, balances[NATIVE_TOKEN][msg.sender], usd6) */\n      0xffffffffffffffffffffffffffffffffffffffff\n      and\n      0x4e2ca0515ed1aef1395f66b5303bb5d6f1bf9d61a353fa53f73f8ac9973fa9f6\n        /* \"src/KipuBankV2.sol\":9572:9581  msg.value */\n      callvalue\n        /* \"src/KipuBankV2.sol\":9583:9591  balances */\n      0x05\n        /* \"src/KipuBankV2.sol\":9583:9605  balances[NATIVE_TOKEN] */\n      0x00\n        /* \"src/KipuBankV2.sol\":2148:2149  0 */\n      dup1\n        /* \"src/KipuBankV2.sol\":9583:9605  balances[NATIVE_TOKEN] */\n      0xffffffffffffffffffffffffffffffffffffffff\n      and\n      0xffffffffffffffffffffffffffffffffffffffff\n      and\n      dup2\n      mstore\n      0x20\n      add\n      swap1\n      dup2\n      mstore\n      0x20\n      add\n      0x00\n      keccak256\n        /* \"src/KipuBankV2.sol\":9583:9617  balances[NATIVE_TOKEN][msg.sender] */\n      0x00\n        /* \"src/KipuBankV2.sol\":9606:9616  msg.sender */\n      caller\n        /* \"src/KipuBankV2.sol\":9583:9617  balances[NATIVE_TOKEN][msg.sender] */\n      0xffffffffffffffffffffffffffffffffffffffff\n      and\n      0xffffffffffffffffffffffffffffffffffffffff\n      and\n      dup2\n      mstore\n      0x20\n      add\n      swap1\n      dup2\n      mstore\n      0x20\n      add\n      0x00\n      keccak256\n      sload\n        /* \"src/KipuBankV2.sol\":9619:9623  usd6 */\n      dup7\n        /* \"src/KipuBankV2.sol\":9538:9624  Deposit(NATIVE_TOKEN, msg.sender, msg.value, balances[NATIVE_TOKEN][msg.sender], usd6) */\n      mload(0x40)\n      tag_190\n      swap4\n      swap3\n      swap2\n      swap1\n      tag_168\n      jump\t// in\n    tag_190:\n      mload(0x40)\n      dup1\n      swap2\n      sub\n      swap1\n      log3\n        /* \"src/KipuBankV2.sol\":9082:9632  {... */\n      pop\n      pop\n        /* \"src/KipuBankV2.sol\":6312:6313  _ */\n      pop\n        /* \"@openzeppelin/contracts/security/ReentrancyGuard.sol\":2292:2293  _ */\n      pop\n        /* \"@openzeppelin/contracts/security/ReentrancyGuard.sol\":2303:2323  _nonReentrantAfter() */\n      tag_191\n        /* \"@openzeppelin/contracts/security/ReentrancyGuard.sol\":2303:2321  _nonReentrantAfter */\n      tag_170\n        /* \"@openzeppelin/contracts/security/ReentrancyGuard.sol\":2303:2323  _nonReentrantAfter() */\n      jump\t// in\n    tag_191:\n        /* \"src/KipuBankV2.sol\":8932:9632  function depositEth()... */\n      jump\t// out\n        /* \"src/KipuBankV2.sol\":2760:2788  uint256 public withdrawCount */\n    tag_78:\n      sload(0x04)\n      dup2\n      jump\t// out\n        /* \"@openzeppelin/contracts/access/AccessControl.sol\":2830:2966  function hasRole(bytes32 role, address account) public view virtual returns (bool) {... */\n    tag_83:\n        /* \"@openzeppelin/contracts/access/AccessControl.sol\":2907:2911  bool */\n      0x00\n        /* \"@openzeppelin/contracts/access/AccessControl.sol\":2930:2936  _roles */\n      dup1\n        /* \"@openzeppelin/contracts/access/AccessControl.sol\":2930:2942  _roles[role] */\n      0x00\n        /* \"@openzeppelin/contracts/access/AccessControl.sol\":2937:2941  role */\n      dup5\n        /* \"@openzeppelin/contracts/access/AccessControl.sol\":2930:2942  _roles[role] */\n      dup2\n      mstore\n      0x20\n      add\n      swap1\n      dup2\n      mstore\n      0x20\n      add\n      0x00\n      keccak256\n        /* \"@openzeppelin/contracts/access/AccessControl.sol\":2930:2950  _roles[role].hasRole */\n      0x00\n      add\n        /* \"@openzeppelin/contracts/access/AccessControl.sol\":2930:2959  _roles[role].hasRole[account] */\n      0x00\n        /* \"@openzeppelin/contracts/access/AccessControl.sol\":2951:2958  account */\n      dup4\n        /* \"@openzeppelin/contracts/access/AccessControl.sol\":2930:2959  _roles[role].hasRole[account] */\n      0xffffffffffffffffffffffffffffffffffffffff\n      and\n      0xffffffffffffffffffffffffffffffffffffffff\n      and\n      dup2\n      mstore\n      0x20\n      add\n      swap1\n      dup2\n      mstore\n      0x20\n      add\n      0x00\n      keccak256\n      0x00\n      swap1\n      sload\n      swap1\n      0x0100\n      exp\n      swap1\n      div\n      0xff\n      and\n        /* \"@openzeppelin/contracts/access/AccessControl.sol\":2923:2959  return _roles[role].hasRole[account] */\n      swap1\n      pop\n        /* \"@openzeppelin/contracts/access/AccessControl.sol\":2830:2966  function hasRole(bytes32 role, address account) public view virtual returns (bool) {... */\n      swap3\n      swap2\n      pop\n      pop\n      jump\t// out\n        /* \"src/KipuBankV2.sol\":7364:8600  function setTokenConfig(... */\n    tag_89:\n        /* \"src/KipuBankV2.sol\":1999:2022  keccak256(\"ROLE_ADMIN\") */\n      0x2172861495e7b85edac73e3cd5fbb42dd675baadf627720e687bcfdaca025096\n        /* \"@openzeppelin/contracts/access/AccessControl.sol\":2473:2489  _checkRole(role) */\n      tag_194\n        /* \"@openzeppelin/contracts/access/AccessControl.sol\":2484:2488  role */\n      dup2\n        /* \"@openzeppelin/contracts/access/AccessControl.sol\":2473:2483  _checkRole */\n      tag_141\n        /* \"@openzeppelin/contracts/access/AccessControl.sol\":2473:2489  _checkRole(role) */\n      jump\t// in\n    tag_194:\n        /* \"src/KipuBankV2.sol\":2148:2149  0 */\n      0x00\n        /* \"src/KipuBankV2.sol\":7579:7600  token == NATIVE_TOKEN */\n      0xffffffffffffffffffffffffffffffffffffffff\n      and\n        /* \"src/KipuBankV2.sol\":7579:7584  token */\n      dup7\n        /* \"src/KipuBankV2.sol\":7579:7600  token == NATIVE_TOKEN */\n      0xffffffffffffffffffffffffffffffffffffffff\n      and\n      sub\n        /* \"src/KipuBankV2.sol\":7575:7632  if (token == NATIVE_TOKEN) revert UnsupportedToken(token) */\n      tag_196\n      jumpi\n        /* \"src/KipuBankV2.sol\":7626:7631  token */\n      dup6\n        /* \"src/KipuBankV2.sol\":7609:7632  UnsupportedToken(token) */\n      mload(0x40)\n      0xbf16aab600000000000000000000000000000000000000000000000000000000\n      dup2\n      mstore\n      0x04\n      add\n      tag_197\n      swap2\n      swap1\n      tag_64\n      jump\t// in\n    tag_197:\n      mload(0x40)\n      dup1\n      swap2\n      sub\n      swap1\n      revert\n        /* \"src/KipuBankV2.sol\":7575:7632  if (token == NATIVE_TOKEN) revert UnsupportedToken(token) */\n    tag_196:\n        /* \"src/KipuBankV2.sol\":7645:7668  TokenConfig storage cfg */\n      0x00\n        /* \"src/KipuBankV2.sol\":7671:7682  tokenConfig */\n      0x06\n        /* \"src/KipuBankV2.sol\":7671:7689  tokenConfig[token] */\n      0x00\n        /* \"src/KipuBankV2.sol\":7683:7688  token */\n      dup9\n        /* \"src/KipuBankV2.sol\":7671:7689  tokenConfig[token] */\n      0xffffffffffffffffffffffffffffffffffffffff\n      and\n      0xffffffffffffffffffffffffffffffffffffffff\n      and\n      dup2\n      mstore\n      0x20\n      add\n      swap1\n      dup2\n      mstore\n      0x20\n      add\n      0x00\n      keccak256\n        /* \"src/KipuBankV2.sol\":7645:7689  TokenConfig storage cfg = tokenConfig[token] */\n      swap1\n      pop\n        /* \"src/KipuBankV2.sol\":7718:7727  supported */\n      dup6\n        /* \"src/KipuBankV2.sol\":7700:7703  cfg */\n      dup2\n        /* \"src/KipuBankV2.sol\":7700:7713  cfg.supported */\n      0x00\n      add\n      0x00\n        /* \"src/KipuBankV2.sol\":7700:7727  cfg.supported   = supported */\n      0x0100\n      exp\n      dup2\n      sload\n      dup2\n      0xff\n      mul\n      not\n      and\n      swap1\n      dup4\n      iszero\n      iszero\n      mul\n      or\n      swap1\n      sstore\n      pop\n        /* \"src/KipuBankV2.sol\":7756:7761  false */\n      0x00\n        /* \"src/KipuBankV2.sol\":7738:7741  cfg */\n      dup2\n        /* \"src/KipuBankV2.sol\":7738:7750  cfg.isNative */\n      0x00\n      add\n      0x01\n        /* \"src/KipuBankV2.sol\":7738:7761  cfg.isNative    = false */\n      0x0100\n      exp\n      dup2\n      sload\n      dup2\n      0xff\n      mul\n      not\n      and\n      swap1\n      dup4\n      iszero\n      iszero\n      mul\n      or\n      swap1\n      sstore\n      pop\n        /* \"src/KipuBankV2.sol\":7881:7882  0 */\n      0x00\n        /* \"src/KipuBankV2.sol\":7864:7877  tokenDecimals */\n      dup6\n        /* \"src/KipuBankV2.sol\":7864:7882  tokenDecimals == 0 */\n      0xff\n      and\n      sub\n        /* \"src/KipuBankV2.sol\":7860:8315  if (tokenDecimals == 0) {... */\n      tag_198\n      jumpi\n        /* \"src/KipuBankV2.sol\":8001:8006  token */\n      dup7\n        /* \"src/KipuBankV2.sol\":7986:8016  IERC20Metadata(token).decimals */\n      0xffffffffffffffffffffffffffffffffffffffff\n      and\n      0x313ce567\n        /* \"src/KipuBankV2.sol\":7986:8018  IERC20Metadata(token).decimals() */\n      mload(0x40)\n      dup2\n      0xffffffff\n      and\n      0xe0\n      shl\n      dup2\n      mstore\n      0x04\n      add\n      0x20\n      mload(0x40)\n      dup1\n      dup4\n      sub\n      dup2\n      dup7\n      gas\n      staticcall\n      swap3\n      pop\n      pop\n      pop\n      dup1\n      iszero\n      tag_199\n      jumpi\n      pop\n      mload(0x40)\n      returndatasize\n      not(0x1f)\n      0x1f\n      dup3\n      add\n      and\n      dup3\n      add\n      dup1\n      0x40\n      mstore\n      pop\n      dup2\n      add\n      swap1\n      tag_200\n      swap2\n      swap1\n      tag_201\n      jump\t// in\n    tag_200:\n      0x01\n    tag_199:\n        /* \"src/KipuBankV2.sol\":7982:8238  try IERC20Metadata(token).decimals() returns (uint8 dec) {... */\n      tag_202\n      jumpi\n        /* \"src/KipuBankV2.sol\":8220:8222  18 */\n      0x12\n        /* \"src/KipuBankV2.sol\":8200:8203  cfg */\n      dup2\n        /* \"src/KipuBankV2.sol\":8200:8217  cfg.tokenDecimals */\n      0x00\n      add\n      0x02\n        /* \"src/KipuBankV2.sol\":8200:8222  cfg.tokenDecimals = 18 */\n      0x0100\n      exp\n      dup2\n      sload\n      dup2\n      0xff\n      mul\n      not\n      and\n      swap1\n      dup4\n      0xff\n      and\n      mul\n      or\n      swap1\n      sstore\n      pop\n        /* \"src/KipuBankV2.sol\":7982:8238  try IERC20Metadata(token).decimals() returns (uint8 dec) {... */\n      jump(tag_206)\n    tag_202:\n        /* \"src/KipuBankV2.sol\":8078:8081  dec */\n      dup1\n        /* \"src/KipuBankV2.sol\":8058:8061  cfg */\n      dup3\n        /* \"src/KipuBankV2.sol\":8058:8075  cfg.tokenDecimals */\n      0x00\n      add\n      0x02\n        /* \"src/KipuBankV2.sol\":8058:8081  cfg.tokenDecimals = dec */\n      0x0100\n      exp\n      dup2\n      sload\n      dup2\n      0xff\n      mul\n      not\n      and\n      swap1\n      dup4\n      0xff\n      and\n      mul\n      or\n      swap1\n      sstore\n      pop\n        /* \"src/KipuBankV2.sol\":8019:8097  returns (uint8 dec) {... */\n      pop\n        /* \"src/KipuBankV2.sol\":7982:8238  try IERC20Metadata(token).decimals() returns (uint8 dec) {... */\n    tag_206:\n        /* \"src/KipuBankV2.sol\":7860:8315  if (tokenDecimals == 0) {... */\n      jump(tag_207)\n    tag_198:\n        /* \"src/KipuBankV2.sol\":8290:8303  tokenDecimals */\n      dup5\n        /* \"src/KipuBankV2.sol\":8270:8273  cfg */\n      dup2\n        /* \"src/KipuBankV2.sol\":8270:8287  cfg.tokenDecimals */\n      0x00\n      add\n      0x02\n        /* \"src/KipuBankV2.sol\":8270:8303  cfg.tokenDecimals = tokenDecimals */\n      0x0100\n      exp\n      dup2\n      sload\n      dup2\n      0xff\n      mul\n      not\n      and\n      swap1\n      dup4\n      0xff\n      and\n      mul\n      or\n      swap1\n      sstore\n      pop\n        /* \"src/KipuBankV2.sol\":7860:8315  if (tokenDecimals == 0) {... */\n    tag_207:\n        /* \"src/KipuBankV2.sol\":8347:8360  withdrawLimit */\n      dup4\n        /* \"src/KipuBankV2.sol\":8327:8330  cfg */\n      dup2\n        /* \"src/KipuBankV2.sol\":8327:8344  cfg.withdrawLimit */\n      0x01\n      add\n        /* \"src/KipuBankV2.sol\":8327:8360  cfg.withdrawLimit = withdrawLimit */\n      dup2\n      swap1\n      sstore\n      pop\n        /* \"src/KipuBankV2.sol\":8391:8400  priceFeed */\n      dup3\n        /* \"src/KipuBankV2.sol\":8371:8374  cfg */\n      dup2\n        /* \"src/KipuBankV2.sol\":8371:8384  cfg.priceFeed */\n      0x02\n      add\n      0x00\n        /* \"src/KipuBankV2.sol\":8371:8400  cfg.priceFeed     = priceFeed */\n      0x0100\n      exp\n      dup2\n      sload\n      dup2\n      0xffffffffffffffffffffffffffffffffffffffff\n      mul\n      not\n      and\n      swap1\n      dup4\n      0xffffffffffffffffffffffffffffffffffffffff\n      and\n      mul\n      or\n      swap1\n      sstore\n      pop\n        /* \"src/KipuBankV2.sol\":8448:8453  token */\n      dup7\n        /* \"src/KipuBankV2.sol\":8418:8592  TokenConfigured(... */\n      0xffffffffffffffffffffffffffffffffffffffff\n      and\n      0xceec6d18b470b58eabbfc22b7d771c54609acb2bbe777747424f6e9a5a9d5a25\n        /* \"src/KipuBankV2.sol\":8468:8477  supported */\n      dup8\n        /* \"src/KipuBankV2.sol\":8492:8497  false */\n      0x00\n        /* \"src/KipuBankV2.sol\":8512:8515  cfg */\n      dup5\n        /* \"src/KipuBankV2.sol\":8512:8529  cfg.tokenDecimals */\n      0x00\n      add\n      0x02\n      swap1\n      sload\n      swap1\n      0x0100\n      exp\n      swap1\n      div\n      0xff\n      and\n        /* \"src/KipuBankV2.sol\":8544:8557  withdrawLimit */\n      dup9\n        /* \"src/KipuBankV2.sol\":8572:8581  priceFeed */\n      dup9\n        /* \"src/KipuBankV2.sol\":8418:8592  TokenConfigured(... */\n      mload(0x40)\n      tag_208\n      swap6\n      swap5\n      swap4\n      swap3\n      swap2\n      swap1\n      tag_132\n      jump\t// in\n    tag_208:\n      mload(0x40)\n      dup1\n      swap2\n      sub\n      swap1\n      log2\n        /* \"src/KipuBankV2.sol\":7564:8600  {... */\n      pop\n        /* \"src/KipuBankV2.sol\":7364:8600  function setTokenConfig(... */\n      pop\n      pop\n      pop\n      pop\n      pop\n      pop\n      jump\t// out\n        /* \"src/KipuBankV2.sol\":11576:12272  function withdrawToken(address token, uint256 amount)... */\n    tag_93:\n        /* \"@openzeppelin/contracts/security/ReentrancyGuard.sol\":2261:2282  _nonReentrantBefore() */\n      tag_210\n        /* \"@openzeppelin/contracts/security/ReentrancyGuard.sol\":2261:2280  _nonReentrantBefore */\n      tag_147\n        /* \"@openzeppelin/contracts/security/ReentrancyGuard.sol\":2261:2282  _nonReentrantBefore() */\n      jump\t// in\n    tag_210:\n        /* \"src/KipuBankV2.sol\":11687:11693  amount */\n      dup1\n        /* \"src/KipuBankV2.sol\":6279:6280  0 */\n      0x00\n        /* \"src/KipuBankV2.sol\":6269:6275  amount */\n      dup2\n        /* \"src/KipuBankV2.sol\":6269:6280  amount == 0 */\n      sub\n        /* \"src/KipuBankV2.sol\":6265:6301  if (amount == 0) revert ZeroAmount() */\n      tag_212\n      jumpi\n        /* \"src/KipuBankV2.sol\":6289:6301  ZeroAmount() */\n      mload(0x40)\n      0x1f2a200500000000000000000000000000000000000000000000000000000000\n      dup2\n      mstore\n      0x04\n      add\n      mload(0x40)\n      dup1\n      swap2\n      sub\n      swap1\n      revert\n        /* \"src/KipuBankV2.sol\":6265:6301  if (amount == 0) revert ZeroAmount() */\n    tag_212:\n        /* \"src/KipuBankV2.sol\":11714:11719  token */\n      dup3\n        /* \"src/KipuBankV2.sol\":2148:2149  0 */\n      0x00\n        /* \"src/KipuBankV2.sol\":6669:6690  token == NATIVE_TOKEN */\n      0xffffffffffffffffffffffffffffffffffffffff\n      and\n        /* \"src/KipuBankV2.sol\":6669:6674  token */\n      dup2\n        /* \"src/KipuBankV2.sol\":6669:6690  token == NATIVE_TOKEN */\n      0xffffffffffffffffffffffffffffffffffffffff\n      and\n      sub\n        /* \"src/KipuBankV2.sol\":6665:6722  if (token == NATIVE_TOKEN) revert UnsupportedToken(token) */\n      tag_214\n      jumpi\n        /* \"src/KipuBankV2.sol\":6716:6721  token */\n      dup1\n        /* \"src/KipuBankV2.sol\":6699:6722  UnsupportedToken(token) */\n      mload(0x40)\n      0xbf16aab600000000000000000000000000000000000000000000000000000000\n      dup2\n      mstore\n      0x04\n      add\n      tag_215\n      swap2\n      swap1\n      tag_64\n      jump\t// in\n    tag_215:\n      mload(0x40)\n      dup1\n      swap2\n      sub\n      swap1\n      revert\n        /* \"src/KipuBankV2.sol\":6665:6722  if (token == NATIVE_TOKEN) revert UnsupportedToken(token) */\n    tag_214:\n        /* \"src/KipuBankV2.sol\":11745:11750  token */\n      dup4\n        /* \"src/KipuBankV2.sol\":6449:6460  tokenConfig */\n      0x06\n        /* \"src/KipuBankV2.sol\":6449:6467  tokenConfig[token] */\n      0x00\n        /* \"src/KipuBankV2.sol\":6461:6466  token */\n      dup3\n        /* \"src/KipuBankV2.sol\":6449:6467  tokenConfig[token] */\n      0xffffffffffffffffffffffffffffffffffffffff\n      and\n      0xffffffffffffffffffffffffffffffffffffffff\n      and\n      dup2\n      mstore\n      0x20\n      add\n      swap1\n      dup2\n      mstore\n      0x20\n      add\n      0x00\n      keccak256\n        /* \"src/KipuBankV2.sol\":6449:6477  tokenConfig[token].supported */\n      0x00\n      add\n      0x00\n      swap1\n      sload\n      swap1\n      0x0100\n      exp\n      swap1\n      div\n      0xff\n      and\n        /* \"src/KipuBankV2.sol\":6444:6509  if (!tokenConfig[token].supported) revert UnsupportedToken(token) */\n      tag_217\n      jumpi\n        /* \"src/KipuBankV2.sol\":6503:6508  token */\n      dup1\n        /* \"src/KipuBankV2.sol\":6486:6509  UnsupportedToken(token) */\n      mload(0x40)\n      0xbf16aab600000000000000000000000000000000000000000000000000000000\n      dup2\n      mstore\n      0x04\n      add\n      tag_218\n      swap2\n      swap1\n      tag_64\n      jump\t// in\n    tag_218:\n      mload(0x40)\n      dup1\n      swap2\n      sub\n      swap1\n      revert\n        /* \"src/KipuBankV2.sol\":6444:6509  if (!tokenConfig[token].supported) revert UnsupportedToken(token) */\n    tag_217:\n        /* \"src/KipuBankV2.sol\":11780:11785  token */\n      dup5\n        /* \"src/KipuBankV2.sol\":11787:11793  amount */\n      dup5\n        /* \"src/KipuBankV2.sol\":6906:6928  TokenConfig memory cfg */\n      0x00\n        /* \"src/KipuBankV2.sol\":6931:6942  tokenConfig */\n      0x06\n        /* \"src/KipuBankV2.sol\":6931:6949  tokenConfig[token] */\n      0x00\n        /* \"src/KipuBankV2.sol\":6943:6948  token */\n      dup5\n        /* \"src/KipuBankV2.sol\":6931:6949  tokenConfig[token] */\n      0xffffffffffffffffffffffffffffffffffffffff\n      and\n      0xffffffffffffffffffffffffffffffffffffffff\n      and\n      dup2\n      mstore\n      0x20\n      add\n      swap1\n      dup2\n      mstore\n      0x20\n      add\n      0x00\n      keccak256\n        /* \"src/KipuBankV2.sol\":6906:6949  TokenConfig memory cfg = tokenConfig[token] */\n      mload(0x40)\n      dup1\n      0xa0\n      add\n      0x40\n      mstore\n      swap1\n      dup2\n      0x00\n      dup3\n      add\n      0x00\n      swap1\n      sload\n      swap1\n      0x0100\n      exp\n      swap1\n      div\n      0xff\n      and\n      iszero\n      iszero\n      iszero\n      iszero\n      dup2\n      mstore\n      0x20\n      add\n      0x00\n      dup3\n      add\n      0x01\n      swap1\n      sload\n      swap1\n      0x0100\n      exp\n      swap1\n      div\n      0xff\n      and\n      iszero\n      iszero\n      iszero\n      iszero\n      dup2\n      mstore\n      0x20\n      add\n      0x00\n      dup3\n      add\n      0x02\n      swap1\n      sload\n      swap1\n      0x0100\n      exp\n      swap1\n      div\n      0xff\n      and\n      0xff\n      and\n      0xff\n      and\n      dup2\n      mstore\n      0x20\n      add\n      0x01\n      dup3\n      add\n      sload\n      dup2\n      mstore\n      0x20\n      add\n      0x02\n      dup3\n      add\n      0x00\n      swap1\n      sload\n      swap1\n      0x0100\n      exp\n      swap1\n      div\n      0xffffffffffffffffffffffffffffffffffffffff\n      and\n      0xffffffffffffffffffffffffffffffffffffffff\n      and\n      0xffffffffffffffffffffffffffffffffffffffff\n      and\n      dup2\n      mstore\n      pop\n      pop\n      swap1\n      pop\n        /* \"src/KipuBankV2.sol\":6973:6976  cfg */\n      dup1\n        /* \"src/KipuBankV2.sol\":6973:6990  cfg.withdrawLimit */\n      0x60\n      add\n      mload\n        /* \"src/KipuBankV2.sol\":6964:6970  amount */\n      dup3\n        /* \"src/KipuBankV2.sol\":6964:6990  amount > cfg.withdrawLimit */\n      gt\n        /* \"src/KipuBankV2.sol\":6960:7047  if (amount > cfg.withdrawLimit) revert WithdrawLimitExceeded(amount, cfg.withdrawLimit) */\n      iszero\n      tag_220\n      jumpi\n        /* \"src/KipuBankV2.sol\":7021:7027  amount */\n      dup2\n        /* \"src/KipuBankV2.sol\":7029:7032  cfg */\n      dup2\n        /* \"src/KipuBankV2.sol\":7029:7046  cfg.withdrawLimit */\n      0x60\n      add\n      mload\n        /* \"src/KipuBankV2.sol\":6999:7047  WithdrawLimitExceeded(amount, cfg.withdrawLimit) */\n      mload(0x40)\n      0x016d0ef100000000000000000000000000000000000000000000000000000000\n      dup2\n      mstore\n      0x04\n      add\n      tag_221\n      swap3\n      swap2\n      swap1\n      tag_163\n      jump\t// in\n    tag_221:\n      mload(0x40)\n      dup1\n      swap2\n      sub\n      swap1\n      revert\n        /* \"src/KipuBankV2.sol\":6960:7047  if (amount > cfg.withdrawLimit) revert WithdrawLimitExceeded(amount, cfg.withdrawLimit) */\n    tag_220:\n        /* \"src/KipuBankV2.sol\":11811:11826  uint256 userBal */\n      0x00\n        /* \"src/KipuBankV2.sol\":11829:11837  balances */\n      0x05\n        /* \"src/KipuBankV2.sol\":11829:11844  balances[token] */\n      0x00\n        /* \"src/KipuBankV2.sol\":11838:11843  token */\n      dup11\n        /* \"src/KipuBankV2.sol\":11829:11844  balances[token] */\n      0xffffffffffffffffffffffffffffffffffffffff\n      and\n      0xffffffffffffffffffffffffffffffffffffffff\n      and\n      dup2\n      mstore\n      0x20\n      add\n      swap1\n      dup2\n      mstore\n      0x20\n      add\n      0x00\n      keccak256\n        /* \"src/KipuBankV2.sol\":11829:11856  balances[token][msg.sender] */\n      0x00\n        /* \"src/KipuBankV2.sol\":11845:11855  msg.sender */\n      caller\n        /* \"src/KipuBankV2.sol\":11829:11856  balances[token][msg.sender] */\n      0xffffffffffffffffffffffffffffffffffffffff\n      and\n      0xffffffffffffffffffffffffffffffffffffffff\n      and\n      dup2\n      mstore\n      0x20\n      add\n      swap1\n      dup2\n      mstore\n      0x20\n      add\n      0x00\n      keccak256\n      sload\n        /* \"src/KipuBankV2.sol\":11811:11856  uint256 userBal = balances[token][msg.sender] */\n      swap1\n      pop\n        /* \"src/KipuBankV2.sol\":11881:11887  amount */\n      dup8\n        /* \"src/KipuBankV2.sol\":11871:11878  userBal */\n      dup2\n        /* \"src/KipuBankV2.sol\":11871:11887  userBal < amount */\n      lt\n        /* \"src/KipuBankV2.sol\":11867:11932  if (userBal < amount) revert InsufficientBalance(userBal, amount) */\n      iszero\n      tag_223\n      jumpi\n        /* \"src/KipuBankV2.sol\":11916:11923  userBal */\n      dup1\n        /* \"src/KipuBankV2.sol\":11925:11931  amount */\n      dup9\n        /* \"src/KipuBankV2.sol\":11896:11932  InsufficientBalance(userBal, amount) */\n      mload(0x40)\n      0xcf47918100000000000000000000000000000000000000000000000000000000\n      dup2\n      mstore\n      0x04\n      add\n      tag_224\n      swap3\n      swap2\n      swap1\n      tag_163\n      jump\t// in\n    tag_224:\n      mload(0x40)\n      dup1\n      swap2\n      sub\n      swap1\n      revert\n        /* \"src/KipuBankV2.sol\":11867:11932  if (userBal < amount) revert InsufficientBalance(userBal, amount) */\n    tag_223:\n        /* \"src/KipuBankV2.sol\":12005:12011  amount */\n      dup8\n        /* \"src/KipuBankV2.sol\":11995:12002  userBal */\n      dup2\n        /* \"src/KipuBankV2.sol\":11995:12011  userBal - amount */\n      tag_225\n      swap2\n      swap1\n      tag_226\n      jump\t// in\n    tag_225:\n        /* \"src/KipuBankV2.sol\":11965:11973  balances */\n      0x05\n        /* \"src/KipuBankV2.sol\":11965:11980  balances[token] */\n      0x00\n        /* \"src/KipuBankV2.sol\":11974:11979  token */\n      dup12\n        /* \"src/KipuBankV2.sol\":11965:11980  balances[token] */\n      0xffffffffffffffffffffffffffffffffffffffff\n      and\n      0xffffffffffffffffffffffffffffffffffffffff\n      and\n      dup2\n      mstore\n      0x20\n      add\n      swap1\n      dup2\n      mstore\n      0x20\n      add\n      0x00\n      keccak256\n        /* \"src/KipuBankV2.sol\":11965:11992  balances[token][msg.sender] */\n      0x00\n        /* \"src/KipuBankV2.sol\":11981:11991  msg.sender */\n      caller\n        /* \"src/KipuBankV2.sol\":11965:11992  balances[token][msg.sender] */\n      0xffffffffffffffffffffffffffffffffffffffff\n      and\n      0xffffffffffffffffffffffffffffffffffffffff\n      and\n      dup2\n      mstore\n      0x20\n      add\n      swap1\n      dup2\n      mstore\n      0x20\n      add\n      0x00\n      keccak256\n        /* \"src/KipuBankV2.sol\":11965:12011  balances[token][msg.sender] = userBal - amount */\n      dup2\n      swap1\n      sstore\n      pop\n        /* \"src/KipuBankV2.sol\":12034:12047  withdrawCount */\n      0x04\n      0x00\n        /* \"src/KipuBankV2.sol\":12034:12049  withdrawCount++ */\n      dup2\n      sload\n      dup1\n      swap3\n      swap2\n      swap1\n      0x01\n      add\n      swap2\n      swap1\n      pop\n      sstore\n      pop\n        /* \"src/KipuBankV2.sol\":12113:12159  IERC20(token).safeTransfer(msg.sender, amount) */\n      tag_227\n        /* \"src/KipuBankV2.sol\":12140:12150  msg.sender */\n      caller\n        /* \"src/KipuBankV2.sol\":12152:12158  amount */\n      dup10\n        /* \"src/KipuBankV2.sol\":12120:12125  token */\n      dup12\n        /* \"src/KipuBankV2.sol\":12113:12139  IERC20(token).safeTransfer */\n      0xffffffffffffffffffffffffffffffffffffffff\n      and\n      tag_228\n      swap1\n        /* \"src/KipuBankV2.sol\":12113:12159  IERC20(token).safeTransfer(msg.sender, amount) */\n      swap3\n      swap2\n      swap1\n      0xffffffff\n      and\n      jump\t// in\n    tag_227:\n        /* \"src/KipuBankV2.sol\":12193:12203  msg.sender */\n      caller\n        /* \"src/KipuBankV2.sol\":12177:12264  Withdraw(token, msg.sender, amount, balances[token][msg.sender], _toUsd(token, amount)) */\n      0xffffffffffffffffffffffffffffffffffffffff\n      and\n        /* \"src/KipuBankV2.sol\":12186:12191  token */\n      dup10\n        /* \"src/KipuBankV2.sol\":12177:12264  Withdraw(token, msg.sender, amount, balances[token][msg.sender], _toUsd(token, amount)) */\n      0xffffffffffffffffffffffffffffffffffffffff\n      and\n      0xebff2602b3f468259e1e99f613fed6691f3a6526effe6ef3e768ba7ae7a36c4f\n        /* \"src/KipuBankV2.sol\":12205:12211  amount */\n      dup11\n        /* \"src/KipuBankV2.sol\":12213:12221  balances */\n      0x05\n        /* \"src/KipuBankV2.sol\":12213:12228  balances[token] */\n      0x00\n        /* \"src/KipuBankV2.sol\":12222:12227  token */\n      dup15\n        /* \"src/KipuBankV2.sol\":12213:12228  balances[token] */\n      0xffffffffffffffffffffffffffffffffffffffff\n      and\n      0xffffffffffffffffffffffffffffffffffffffff\n      and\n      dup2\n      mstore\n      0x20\n      add\n      swap1\n      dup2\n      mstore\n      0x20\n      add\n      0x00\n      keccak256\n        /* \"src/KipuBankV2.sol\":12213:12240  balances[token][msg.sender] */\n      0x00\n        /* \"src/KipuBankV2.sol\":12229:12239  msg.sender */\n      caller\n        /* \"src/KipuBankV2.sol\":12213:12240  balances[token][msg.sender] */\n      0xffffffffffffffffffffffffffffffffffffffff\n      and\n      0xffffffffffffffffffffffffffffffffffffffff\n      and\n      dup2\n      mstore\n      0x20\n      add\n      swap1\n      dup2\n      mstore\n      0x20\n      add\n      0x00\n      keccak256\n      sload\n        /* \"src/KipuBankV2.sol\":12242:12263  _toUsd(token, amount) */\n      tag_229\n        /* \"src/KipuBankV2.sol\":12249:12254  token */\n      dup15\n        /* \"src/KipuBankV2.sol\":12256:12262  amount */\n      dup15\n        /* \"src/KipuBankV2.sol\":12242:12248  _toUsd */\n      tag_158\n        /* \"src/KipuBankV2.sol\":12242:12263  _toUsd(token, amount) */\n      jump\t// in\n    tag_229:\n        /* \"src/KipuBankV2.sol\":12177:12264  Withdraw(token, msg.sender, amount, balances[token][msg.sender], _toUsd(token, amount)) */\n      mload(0x40)\n      tag_230\n      swap4\n      swap3\n      swap2\n      swap1\n      tag_168\n      jump\t// in\n    tag_230:\n      mload(0x40)\n      dup1\n      swap2\n      sub\n      swap1\n      log3\n        /* \"src/KipuBankV2.sol\":11800:12272  {... */\n      pop\n        /* \"src/KipuBankV2.sol\":6895:7067  {... */\n      pop\n        /* \"src/KipuBankV2.sol\":6520:6521  _ */\n      pop\n      pop\n        /* \"src/KipuBankV2.sol\":6733:6734  _ */\n      pop\n        /* \"src/KipuBankV2.sol\":6312:6313  _ */\n      pop\n        /* \"@openzeppelin/contracts/security/ReentrancyGuard.sol\":2292:2293  _ */\n      pop\n        /* \"@openzeppelin/contracts/security/ReentrancyGuard.sol\":2303:2323  _nonReentrantAfter() */\n      tag_231\n        /* \"@openzeppelin/contracts/security/ReentrancyGuard.sol\":2303:2321  _nonReentrantAfter */\n      tag_170\n        /* \"@openzeppelin/contracts/security/ReentrancyGuard.sol\":2303:2323  _nonReentrantAfter() */\n      jump\t// in\n    tag_231:\n        /* \"src/KipuBankV2.sol\":11576:12272  function withdrawToken(address token, uint256 amount)... */\n      pop\n      pop\n      jump\t// out\n        /* \"@openzeppelin/contracts/access/AccessControl.sol\":2196:2245  bytes32 public constant DEFAULT_ADMIN_ROLE = 0x00 */\n    tag_96:\n        /* \"@openzeppelin/contracts/access/AccessControl.sol\":2241:2245  0x00 */\n      0x00\n        /* \"@openzeppelin/contracts/access/AccessControl.sol\":2196:2245  bytes32 public constant DEFAULT_ADMIN_ROLE = 0x00 */\n      dup1\n      shl\n      dup2\n      jump\t// out\n        /* \"src/KipuBankV2.sol\":10755:11515  function withdrawEth(uint256 amount)... */\n    tag_102:\n        /* \"@openzeppelin/contracts/security/ReentrancyGuard.sol\":2261:2282  _nonReentrantBefore() */\n      tag_233\n        /* \"@openzeppelin/contracts/security/ReentrancyGuard.sol\":2261:2280  _nonReentrantBefore */\n      tag_147\n        /* \"@openzeppelin/contracts/security/ReentrancyGuard.sol\":2261:2282  _nonReentrantBefore() */\n      jump\t// in\n    tag_233:\n        /* \"src/KipuBankV2.sol\":10849:10855  amount */\n      dup1\n        /* \"src/KipuBankV2.sol\":6279:6280  0 */\n      0x00\n        /* \"src/KipuBankV2.sol\":6269:6275  amount */\n      dup2\n        /* \"src/KipuBankV2.sol\":6269:6280  amount == 0 */\n      sub\n        /* \"src/KipuBankV2.sol\":6265:6301  if (amount == 0) revert ZeroAmount() */\n      tag_235\n      jumpi\n        /* \"src/KipuBankV2.sol\":6289:6301  ZeroAmount() */\n      mload(0x40)\n      0x1f2a200500000000000000000000000000000000000000000000000000000000\n      dup2\n      mstore\n      0x04\n      add\n      mload(0x40)\n      dup1\n      swap2\n      sub\n      swap1\n      revert\n        /* \"src/KipuBankV2.sol\":6265:6301  if (amount == 0) revert ZeroAmount() */\n    tag_235:\n        /* \"src/KipuBankV2.sol\":2148:2149  0 */\n      0x00\n        /* \"src/KipuBankV2.sol\":6449:6460  tokenConfig */\n      0x06\n        /* \"src/KipuBankV2.sol\":6449:6467  tokenConfig[token] */\n      0x00\n        /* \"src/KipuBankV2.sol\":6461:6466  token */\n      dup3\n        /* \"src/KipuBankV2.sol\":6449:6467  tokenConfig[token] */\n      0xffffffffffffffffffffffffffffffffffffffff\n      and\n      0xffffffffffffffffffffffffffffffffffffffff\n      and\n      dup2\n      mstore\n      0x20\n      add\n      swap1\n      dup2\n      mstore\n      0x20\n      add\n      0x00\n      keccak256\n        /* \"src/KipuBankV2.sol\":6449:6477  tokenConfig[token].supported */\n      0x00\n      add\n      0x00\n      swap1\n      sload\n      swap1\n      0x0100\n      exp\n      swap1\n      div\n      0xff\n      and\n        /* \"src/KipuBankV2.sol\":6444:6509  if (!tokenConfig[token].supported) revert UnsupportedToken(token) */\n      tag_237\n      jumpi\n        /* \"src/KipuBankV2.sol\":6503:6508  token */\n      dup1\n        /* \"src/KipuBankV2.sol\":6486:6509  UnsupportedToken(token) */\n      mload(0x40)\n      0xbf16aab600000000000000000000000000000000000000000000000000000000\n      dup2\n      mstore\n      0x04\n      add\n      tag_238\n      swap2\n      swap1\n      tag_64\n      jump\t// in\n    tag_238:\n      mload(0x40)\n      dup1\n      swap2\n      sub\n      swap1\n      revert\n        /* \"src/KipuBankV2.sol\":6444:6509  if (!tokenConfig[token].supported) revert UnsupportedToken(token) */\n    tag_237:\n        /* \"src/KipuBankV2.sol\":2148:2149  0 */\n      0x00\n        /* \"src/KipuBankV2.sol\":10937:10943  amount */\n      dup4\n        /* \"src/KipuBankV2.sol\":6906:6928  TokenConfig memory cfg */\n      0x00\n        /* \"src/KipuBankV2.sol\":6931:6942  tokenConfig */\n      0x06\n        /* \"src/KipuBankV2.sol\":6931:6949  tokenConfig[token] */\n      0x00\n        /* \"src/KipuBankV2.sol\":6943:6948  token */\n      dup5\n        /* \"src/KipuBankV2.sol\":6931:6949  tokenConfig[token] */\n      0xffffffffffffffffffffffffffffffffffffffff\n      and\n      0xffffffffffffffffffffffffffffffffffffffff\n      and\n      dup2\n      mstore\n      0x20\n      add\n      swap1\n      dup2\n      mstore\n      0x20\n      add\n      0x00\n      keccak256\n        /* \"src/KipuBankV2.sol\":6906:6949  TokenConfig memory cfg = tokenConfig[token] */\n      mload(0x40)\n      dup1\n      0xa0\n      add\n      0x40\n      mstore\n      swap1\n      dup2\n      0x00\n      dup3\n      add\n      0x00\n      swap1\n      sload\n      swap1\n      0x0100\n      exp\n      swap1\n      div\n      0xff\n      and\n      iszero\n      iszero\n      iszero\n      iszero\n      dup2\n      mstore\n      0x20\n      add\n      0x00\n      dup3\n      add\n      0x01\n      swap1\n      sload\n      swap1\n      0x0100\n      exp\n      swap1\n      div\n      0xff\n      and\n      iszero\n      iszero\n      iszero\n      iszero\n      dup2\n      mstore\n      0x20\n      add\n      0x00\n      dup3\n      add\n      0x02\n      swap1\n      sload\n      swap1\n      0x0100\n      exp\n      swap1\n      div\n      0xff\n      and\n      0xff\n      and\n      0xff\n      and\n      dup2\n      mstore\n      0x20\n      add\n      0x01\n      dup3\n      add\n      sload\n      dup2\n      mstore\n      0x20\n      add\n      0x02\n      dup3\n      add\n      0x00\n      swap1\n      sload\n      swap1\n      0x0100\n      exp\n      swap1\n      div\n      0xffffffffffffffffffffffffffffffffffffffff\n      and\n      0xffffffffffffffffffffffffffffffffffffffff\n      and\n      0xffffffffffffffffffffffffffffffffffffffff\n      and\n      dup2\n      mstore\n      pop\n      pop\n      swap1\n      pop\n        /* \"src/KipuBankV2.sol\":6973:6976  cfg */\n      dup1\n        /* \"src/KipuBankV2.sol\":6973:6990  cfg.withdrawLimit */\n      0x60\n      add\n      mload\n        /* \"src/KipuBankV2.sol\":6964:6970  amount */\n      dup3\n        /* \"src/KipuBankV2.sol\":6964:6990  amount > cfg.withdrawLimit */\n      gt\n        /* \"src/KipuBankV2.sol\":6960:7047  if (amount > cfg.withdrawLimit) revert WithdrawLimitExceeded(amount, cfg.withdrawLimit) */\n      iszero\n      tag_240\n      jumpi\n        /* \"src/KipuBankV2.sol\":7021:7027  amount */\n      dup2\n        /* \"src/KipuBankV2.sol\":7029:7032  cfg */\n      dup2\n        /* \"src/KipuBankV2.sol\":7029:7046  cfg.withdrawLimit */\n      0x60\n      add\n      mload\n        /* \"src/KipuBankV2.sol\":6999:7047  WithdrawLimitExceeded(amount, cfg.withdrawLimit) */\n      mload(0x40)\n      0x016d0ef100000000000000000000000000000000000000000000000000000000\n      dup2\n      mstore\n      0x04\n      add\n      tag_241\n      swap3\n      swap2\n      swap1\n      tag_163\n      jump\t// in\n    tag_241:\n      mload(0x40)\n      dup1\n      swap2\n      sub\n      swap1\n      revert\n        /* \"src/KipuBankV2.sol\":6960:7047  if (amount > cfg.withdrawLimit) revert WithdrawLimitExceeded(amount, cfg.withdrawLimit) */\n    tag_240:\n        /* \"src/KipuBankV2.sol\":10961:10976  uint256 userBal */\n      0x00\n        /* \"src/KipuBankV2.sol\":10979:10987  balances */\n      0x05\n        /* \"src/KipuBankV2.sol\":10979:11001  balances[NATIVE_TOKEN] */\n      0x00\n        /* \"src/KipuBankV2.sol\":2148:2149  0 */\n      dup1\n        /* \"src/KipuBankV2.sol\":10979:11001  balances[NATIVE_TOKEN] */\n      0xffffffffffffffffffffffffffffffffffffffff\n      and\n      0xffffffffffffffffffffffffffffffffffffffff\n      and\n      dup2\n      mstore\n      0x20\n      add\n      swap1\n      dup2\n      mstore\n      0x20\n      add\n      0x00\n      keccak256\n        /* \"src/KipuBankV2.sol\":10979:11013  balances[NATIVE_TOKEN][msg.sender] */\n      0x00\n        /* \"src/KipuBankV2.sol\":11002:11012  msg.sender */\n      caller\n        /* \"src/KipuBankV2.sol\":10979:11013  balances[NATIVE_TOKEN][msg.sender] */\n      0xffffffffffffffffffffffffffffffffffffffff\n      and\n      0xffffffffffffffffffffffffffffffffffffffff\n      and\n      dup2\n      mstore\n      0x20\n      add\n      swap1\n      dup2\n      mstore\n      0x20\n      add\n      0x00\n      keccak256\n      sload\n        /* \"src/KipuBankV2.sol\":10961:11013  uint256 userBal = balances[NATIVE_TOKEN][msg.sender] */\n      swap1\n      pop\n        /* \"src/KipuBankV2.sol\":11038:11044  amount */\n      dup7\n        /* \"src/KipuBankV2.sol\":11028:11035  userBal */\n      dup2\n        /* \"src/KipuBankV2.sol\":11028:11044  userBal < amount */\n      lt\n        /* \"src/KipuBankV2.sol\":11024:11089  if (userBal < amount) revert InsufficientBalance(userBal, amount) */\n      iszero\n      tag_243\n      jumpi\n        /* \"src/KipuBankV2.sol\":11073:11080  userBal */\n      dup1\n        /* \"src/KipuBankV2.sol\":11082:11088  amount */\n      dup8\n        /* \"src/KipuBankV2.sol\":11053:11089  InsufficientBalance(userBal, amount) */\n      mload(0x40)\n      0xcf47918100000000000000000000000000000000000000000000000000000000\n      dup2\n      mstore\n      0x04\n      add\n      tag_244\n      swap3\n      swap2\n      swap1\n      tag_163\n      jump\t// in\n    tag_244:\n      mload(0x40)\n      dup1\n      swap2\n      sub\n      swap1\n      revert\n        /* \"src/KipuBankV2.sol\":11024:11089  if (userBal < amount) revert InsufficientBalance(userBal, amount) */\n    tag_243:\n        /* \"src/KipuBankV2.sol\":11169:11175  amount */\n      dup7\n        /* \"src/KipuBankV2.sol\":11159:11166  userBal */\n      dup2\n        /* \"src/KipuBankV2.sol\":11159:11175  userBal - amount */\n      tag_245\n      swap2\n      swap1\n      tag_226\n      jump\t// in\n    tag_245:\n        /* \"src/KipuBankV2.sol\":11122:11130  balances */\n      0x05\n        /* \"src/KipuBankV2.sol\":11122:11144  balances[NATIVE_TOKEN] */\n      0x00\n        /* \"src/KipuBankV2.sol\":2148:2149  0 */\n      dup1\n        /* \"src/KipuBankV2.sol\":11122:11144  balances[NATIVE_TOKEN] */\n      0xffffffffffffffffffffffffffffffffffffffff\n      and\n      0xffffffffffffffffffffffffffffffffffffffff\n      and\n      dup2\n      mstore\n      0x20\n      add\n      swap1\n      dup2\n      mstore\n      0x20\n      add\n      0x00\n      keccak256\n        /* \"src/KipuBankV2.sol\":11122:11156  balances[NATIVE_TOKEN][msg.sender] */\n      0x00\n        /* \"src/KipuBankV2.sol\":11145:11155  msg.sender */\n      caller\n        /* \"src/KipuBankV2.sol\":11122:11156  balances[NATIVE_TOKEN][msg.sender] */\n      0xffffffffffffffffffffffffffffffffffffffff\n      and\n      0xffffffffffffffffffffffffffffffffffffffff\n      and\n      dup2\n      mstore\n      0x20\n      add\n      swap1\n      dup2\n      mstore\n      0x20\n      add\n      0x00\n      keccak256\n        /* \"src/KipuBankV2.sol\":11122:11175  balances[NATIVE_TOKEN][msg.sender] = userBal - amount */\n      dup2\n      swap1\n      sstore\n      pop\n        /* \"src/KipuBankV2.sol\":11198:11211  withdrawCount */\n      0x04\n      0x00\n        /* \"src/KipuBankV2.sol\":11198:11213  withdrawCount++ */\n      dup2\n      sload\n      dup1\n      swap3\n      swap2\n      swap1\n      0x01\n      add\n      swap2\n      swap1\n      pop\n      sstore\n      pop\n        /* \"src/KipuBankV2.sol\":11284:11293  bool sent */\n      0x00\n        /* \"src/KipuBankV2.sol\":11299:11309  msg.sender */\n      caller\n        /* \"src/KipuBankV2.sol\":11299:11314  msg.sender.call */\n      0xffffffffffffffffffffffffffffffffffffffff\n      and\n        /* \"src/KipuBankV2.sol\":11322:11328  amount */\n      dup9\n        /* \"src/KipuBankV2.sol\":11299:11333  msg.sender.call{value: amount}(\"\") */\n      mload(0x40)\n      tag_246\n      swap1\n      tag_247\n      jump\t// in\n    tag_246:\n      0x00\n      mload(0x40)\n      dup1\n      dup4\n      sub\n      dup2\n      dup6\n      dup8\n      gas\n      call\n      swap3\n      pop\n      pop\n      pop\n      returndatasize\n      dup1\n      0x00\n      dup2\n      eq\n      tag_250\n      jumpi\n      mload(0x40)\n      swap2\n      pop\n      and(add(returndatasize, 0x3f), not(0x1f))\n      dup3\n      add\n      0x40\n      mstore\n      returndatasize\n      dup3\n      mstore\n      returndatasize\n      0x00\n      0x20\n      dup5\n      add\n      returndatacopy\n      jump(tag_249)\n    tag_250:\n      0x60\n      swap2\n      pop\n    tag_249:\n      pop\n        /* \"src/KipuBankV2.sol\":11283:11333  (bool sent, ) = msg.sender.call{value: amount}(\"\") */\n      pop\n      swap1\n      pop\n        /* \"src/KipuBankV2.sol\":11349:11353  sent */\n      dup1\n        /* \"src/KipuBankV2.sol\":11344:11381  if (!sent) revert EthTransferFailed() */\n      tag_251\n      jumpi\n        /* \"src/KipuBankV2.sol\":11362:11381  EthTransferFailed() */\n      mload(0x40)\n      0x6d963f8800000000000000000000000000000000000000000000000000000000\n      dup2\n      mstore\n      0x04\n      add\n      mload(0x40)\n      dup1\n      swap2\n      sub\n      swap1\n      revert\n        /* \"src/KipuBankV2.sol\":11344:11381  if (!sent) revert EthTransferFailed() */\n    tag_251:\n        /* \"src/KipuBankV2.sol\":11422:11432  msg.sender */\n      caller\n        /* \"src/KipuBankV2.sol\":11399:11507  Withdraw(NATIVE_TOKEN, msg.sender, amount, balances[NATIVE_TOKEN][msg.sender], _toUsd(NATIVE_TOKEN, amount)) */\n      0xffffffffffffffffffffffffffffffffffffffff\n      and\n        /* \"src/KipuBankV2.sol\":2148:2149  0 */\n      0x00\n        /* \"src/KipuBankV2.sol\":11399:11507  Withdraw(NATIVE_TOKEN, msg.sender, amount, balances[NATIVE_TOKEN][msg.sender], _toUsd(NATIVE_TOKEN, amount)) */\n      0xffffffffffffffffffffffffffffffffffffffff\n      and\n      0xebff2602b3f468259e1e99f613fed6691f3a6526effe6ef3e768ba7ae7a36c4f\n        /* \"src/KipuBankV2.sol\":11434:11440  amount */\n      dup11\n        /* \"src/KipuBankV2.sol\":11442:11450  balances */\n      0x05\n        /* \"src/KipuBankV2.sol\":11442:11464  balances[NATIVE_TOKEN] */\n      0x00\n        /* \"src/KipuBankV2.sol\":2148:2149  0 */\n      dup1\n        /* \"src/KipuBankV2.sol\":11442:11464  balances[NATIVE_TOKEN] */\n      0xffffffffffffffffffffffffffffffffffffffff\n      and\n      0xffffffffffffffffffffffffffffffffffffffff\n      and\n      dup2\n      mstore\n      0x20\n      add\n      swap1\n      dup2\n      mstore\n      0x20\n      add\n      0x00\n      keccak256\n        /* \"src/KipuBankV2.sol\":11442:11476  balances[NATIVE_TOKEN][msg.sender] */\n      0x00\n        /* \"src/KipuBankV2.sol\":11465:11475  msg.sender */\n      caller\n        /* \"src/KipuBankV2.sol\":11442:11476  balances[NATIVE_TOKEN][msg.sender] */\n      0xffffffffffffffffffffffffffffffffffffffff\n      and\n      0xffffffffffffffffffffffffffffffffffffffff\n      and\n      dup2\n      mstore\n      0x20\n      add\n      swap1\n      dup2\n      mstore\n      0x20\n      add\n      0x00\n      keccak256\n      sload\n        /* \"src/KipuBankV2.sol\":11478:11506  _toUsd(NATIVE_TOKEN, amount) */\n      tag_252\n        /* \"src/KipuBankV2.sol\":2148:2149  0 */\n      0x00\n        /* \"src/KipuBankV2.sol\":11499:11505  amount */\n      dup15\n        /* \"src/KipuBankV2.sol\":11478:11484  _toUsd */\n      tag_158\n        /* \"src/KipuBankV2.sol\":11478:11506  _toUsd(NATIVE_TOKEN, amount) */\n      jump\t// in\n    tag_252:\n        /* \"src/KipuBankV2.sol\":11399:11507  Withdraw(NATIVE_TOKEN, msg.sender, amount, balances[NATIVE_TOKEN][msg.sender], _toUsd(NATIVE_TOKEN, amount)) */\n      mload(0x40)\n      tag_253\n      swap4\n      swap3\n      swap2\n      swap1\n      tag_168\n      jump\t// in\n    tag_253:\n      mload(0x40)\n      dup1\n      swap2\n      sub\n      swap1\n      log3\n        /* \"src/KipuBankV2.sol\":10950:11515  {... */\n      pop\n      pop\n        /* \"src/KipuBankV2.sol\":6895:7067  {... */\n      pop\n        /* \"src/KipuBankV2.sol\":6520:6521  _ */\n      pop\n      pop\n        /* \"src/KipuBankV2.sol\":6312:6313  _ */\n      pop\n        /* \"@openzeppelin/contracts/security/ReentrancyGuard.sol\":2292:2293  _ */\n      pop\n        /* \"@openzeppelin/contracts/security/ReentrancyGuard.sol\":2303:2323  _nonReentrantAfter() */\n      tag_254\n        /* \"@openzeppelin/contracts/security/ReentrancyGuard.sol\":2303:2321  _nonReentrantAfter */\n      tag_170\n        /* \"@openzeppelin/contracts/security/ReentrancyGuard.sol\":2303:2323  _nonReentrantAfter() */\n      jump\t// in\n    tag_254:\n        /* \"src/KipuBankV2.sol\":10755:11515  function withdrawEth(uint256 amount)... */\n      pop\n      jump\t// out\n        /* \"src/KipuBankV2.sol\":1962:2022  bytes32 public constant ROLE_ADMIN = keccak256(\"ROLE_ADMIN\") */\n    tag_105:\n        /* \"src/KipuBankV2.sol\":1999:2022  keccak256(\"ROLE_ADMIN\") */\n      0x2172861495e7b85edac73e3cd5fbb42dd675baadf627720e687bcfdaca025096\n        /* \"src/KipuBankV2.sol\":1962:2022  bytes32 public constant ROLE_ADMIN = keccak256(\"ROLE_ADMIN\") */\n      dup2\n      jump\t// out\n        /* \"@openzeppelin/contracts/access/AccessControl.sol\":4618:4756  function revokeRole(bytes32 role, address account) public virtual onlyRole(getRoleAdmin(role)) {... */\n    tag_110:\n        /* \"@openzeppelin/contracts/access/AccessControl.sol\":4693:4711  getRoleAdmin(role) */\n      tag_255\n        /* \"@openzeppelin/contracts/access/AccessControl.sol\":4706:4710  role */\n      dup3\n        /* \"@openzeppelin/contracts/access/AccessControl.sol\":4693:4705  getRoleAdmin */\n      tag_38\n        /* \"@openzeppelin/contracts/access/AccessControl.sol\":4693:4711  getRoleAdmin(role) */\n      jump\t// in\n    tag_255:\n        /* \"@openzeppelin/contracts/access/AccessControl.sol\":2473:2489  _checkRole(role) */\n      tag_257\n        /* \"@openzeppelin/contracts/access/AccessControl.sol\":2484:2488  role */\n      dup2\n        /* \"@openzeppelin/contracts/access/AccessControl.sol\":2473:2483  _checkRole */\n      tag_141\n        /* \"@openzeppelin/contracts/access/AccessControl.sol\":2473:2489  _checkRole(role) */\n      jump\t// in\n    tag_257:\n        /* \"@openzeppelin/contracts/access/AccessControl.sol\":4723:4749  _revokeRole(role, account) */\n      tag_259\n        /* \"@openzeppelin/contracts/access/AccessControl.sol\":4735:4739  role */\n      dup4\n        /* \"@openzeppelin/contracts/access/AccessControl.sol\":4741:4748  account */\n      dup4\n        /* \"@openzeppelin/contracts/access/AccessControl.sol\":4723:4734  _revokeRole */\n      tag_176\n        /* \"@openzeppelin/contracts/access/AccessControl.sol\":4723:4749  _revokeRole(role, account) */\n      jump\t// in\n    tag_259:\n      pop\n        /* \"@openzeppelin/contracts/access/AccessControl.sol\":4618:4756  function revokeRole(bytes32 role, address account) public virtual onlyRole(getRoleAdmin(role)) {... */\n      pop\n      pop\n      pop\n      jump\t// out\n        /* \"src/KipuBankV2.sol\":12761:12935  function getUsdBalance(address token, address user) external view returns (uint256) {... */\n    tag_115:\n        /* \"src/KipuBankV2.sol\":12836:12843  uint256 */\n      0x00\n        /* \"src/KipuBankV2.sol\":12856:12867  uint256 amt */\n      dup1\n        /* \"src/KipuBankV2.sol\":12870:12878  balances */\n      0x05\n        /* \"src/KipuBankV2.sol\":12870:12885  balances[token] */\n      0x00\n        /* \"src/KipuBankV2.sol\":12879:12884  token */\n      dup6\n        /* \"src/KipuBankV2.sol\":12870:12885  balances[token] */\n      0xffffffffffffffffffffffffffffffffffffffff\n      and\n      0xffffffffffffffffffffffffffffffffffffffff\n      and\n      dup2\n      mstore\n      0x20\n      add\n      swap1\n      dup2\n      mstore\n      0x20\n      add\n      0x00\n      keccak256\n        /* \"src/KipuBankV2.sol\":12870:12891  balances[token][user] */\n      0x00\n        /* \"src/KipuBankV2.sol\":12886:12890  user */\n      dup5\n        /* \"src/KipuBankV2.sol\":12870:12891  balances[token][user] */\n      0xffffffffffffffffffffffffffffffffffffffff\n      and\n      0xffffffffffffffffffffffffffffffffffffffff\n      and\n      dup2\n      mstore\n      0x20\n      add\n      swap1\n      dup2\n      mstore\n      0x20\n      add\n      0x00\n      keccak256\n      sload\n        /* \"src/KipuBankV2.sol\":12856:12891  uint256 amt = balances[token][user] */\n      swap1\n      pop\n        /* \"src/KipuBankV2.sol\":12909:12927  _toUsd(token, amt) */\n      tag_261\n        /* \"src/KipuBankV2.sol\":12916:12921  token */\n      dup5\n        /* \"src/KipuBankV2.sol\":12923:12926  amt */\n      dup3\n        /* \"src/KipuBankV2.sol\":12909:12915  _toUsd */\n      tag_158\n        /* \"src/KipuBankV2.sol\":12909:12927  _toUsd(token, amt) */\n      jump\t// in\n    tag_261:\n        /* \"src/KipuBankV2.sol\":12902:12927  return _toUsd(token, amt) */\n      swap2\n      pop\n      pop\n        /* \"src/KipuBankV2.sol\":12761:12935  function getUsdBalance(address token, address user) external view returns (uint256) {... */\n      swap3\n      swap2\n      pop\n      pop\n      jump\t// out\n        /* \"src/KipuBankV2.sol\":12551:12671  function getBalance(address token) external view returns (uint256) {... */\n    tag_121:\n        /* \"src/KipuBankV2.sol\":12609:12616  uint256 */\n      0x00\n        /* \"src/KipuBankV2.sol\":12636:12644  balances */\n      0x05\n        /* \"src/KipuBankV2.sol\":12636:12651  balances[token] */\n      0x00\n        /* \"src/KipuBankV2.sol\":12645:12650  token */\n      dup4\n        /* \"src/KipuBankV2.sol\":12636:12651  balances[token] */\n      0xffffffffffffffffffffffffffffffffffffffff\n      and\n      0xffffffffffffffffffffffffffffffffffffffff\n      and\n      dup2\n      mstore\n      0x20\n      add\n      swap1\n      dup2\n      mstore\n      0x20\n      add\n      0x00\n      keccak256\n        /* \"src/KipuBankV2.sol\":12636:12663  balances[token][msg.sender] */\n      0x00\n        /* \"src/KipuBankV2.sol\":12652:12662  msg.sender */\n      caller\n        /* \"src/KipuBankV2.sol\":12636:12663  balances[token][msg.sender] */\n      0xffffffffffffffffffffffffffffffffffffffff\n      and\n      0xffffffffffffffffffffffffffffffffffffffff\n      and\n      dup2\n      mstore\n      0x20\n      add\n      swap1\n      dup2\n      mstore\n      0x20\n      add\n      0x00\n      keccak256\n      sload\n        /* \"src/KipuBankV2.sol\":12629:12663  return balances[token][msg.sender] */\n      swap1\n      pop\n        /* \"src/KipuBankV2.sol\":12551:12671  function getBalance(address token) external view returns (uint256) {... */\n      swap2\n      swap1\n      pop\n      jump\t// out\n        /* \"src/KipuBankV2.sol\":2530:2566  uint256 public immutable bankCapUsd6 */\n    tag_125:\n      immutable(\"0x3fd68d21223d6fc23edec694e1b0dd90d283ae600f00f762095afcbb0d71f155\")\n      dup2\n      jump\t// out\n        /* \"src/KipuBankV2.sol\":3010:3060  mapping(address => TokenConfig) public tokenConfig */\n    tag_130:\n      mstore(0x20, 0x06)\n      dup1\n      0x00\n      mstore\n      keccak256(0x00, 0x40)\n      0x00\n      swap2\n      pop\n      swap1\n      pop\n      dup1\n      0x00\n      add\n      0x00\n      swap1\n      sload\n      swap1\n      0x0100\n      exp\n      swap1\n      div\n      0xff\n      and\n      swap1\n      dup1\n      0x00\n      add\n      0x01\n      swap1\n      sload\n      swap1\n      0x0100\n      exp\n      swap1\n      div\n      0xff\n      and\n      swap1\n      dup1\n      0x00\n      add\n      0x02\n      swap1\n      sload\n      swap1\n      0x0100\n      exp\n      swap1\n      div\n      0xff\n      and\n      swap1\n      dup1\n      0x01\n      add\n      sload\n      swap1\n      dup1\n      0x02\n      add\n      0x00\n      swap1\n      sload\n      swap1\n      0x0100\n      exp\n      swap1\n      div\n      0xffffffffffffffffffffffffffffffffffffffff\n      and\n      swap1\n      pop\n      dup6\n      jump\t// out\n        /* \"@openzeppelin/contracts/utils/introspection/ERC165.sol\":730:876  function supportsInterface(bytes4 interfaceId) public view virtual returns (bool) {... */\n    tag_136:\n        /* \"@openzeppelin/contracts/utils/introspection/ERC165.sol\":806:810  bool */\n      0x00\n        /* \"@openzeppelin/contracts/utils/introspection/ERC165.sol\":844:869  type(IERC165).interfaceId */\n      0x01ffc9a700000000000000000000000000000000000000000000000000000000\n        /* \"@openzeppelin/contracts/utils/introspection/ERC165.sol\":829:869  interfaceId == type(IERC165).interfaceId */\n      not(0xffffffffffffffffffffffffffffffffffffffffffffffffffffffff)\n      and\n        /* \"@openzeppelin/contracts/utils/introspection/ERC165.sol\":829:840  interfaceId */\n      dup3\n        /* \"@openzeppelin/contracts/utils/introspection/ERC165.sol\":829:869  interfaceId == type(IERC165).interfaceId */\n      not(0xffffffffffffffffffffffffffffffffffffffffffffffffffffffff)\n      and\n      eq\n        /* \"@openzeppelin/contracts/utils/introspection/ERC165.sol\":822:869  return interfaceId == type(IERC165).interfaceId */\n      swap1\n      pop\n        /* \"@openzeppelin/contracts/utils/introspection/ERC165.sol\":730:876  function supportsInterface(bytes4 interfaceId) public view virtual returns (bool) {... */\n      swap2\n      swap1\n      pop\n      jump\t// out\n        /* \"@openzeppelin/contracts/access/AccessControl.sol\":3175:3278  function _checkRole(bytes32 role) internal view virtual {... */\n    tag_141:\n        /* \"@openzeppelin/contracts/access/AccessControl.sol\":3241:3271  _checkRole(role, _msgSender()) */\n      tag_265\n        /* \"@openzeppelin/contracts/access/AccessControl.sol\":3252:3256  role */\n      dup2\n        /* \"@openzeppelin/contracts/access/AccessControl.sol\":3258:3270  _msgSender() */\n      tag_266\n        /* \"@openzeppelin/contracts/access/AccessControl.sol\":3258:3268  _msgSender */\n      tag_173\n        /* \"@openzeppelin/contracts/access/AccessControl.sol\":3258:3270  _msgSender() */\n      jump\t// in\n    tag_266:\n        /* \"@openzeppelin/contracts/access/AccessControl.sol\":3241:3251  _checkRole */\n      tag_267\n        /* \"@openzeppelin/contracts/access/AccessControl.sol\":3241:3271  _checkRole(role, _msgSender()) */\n      jump\t// in\n    tag_265:\n        /* \"@openzeppelin/contracts/access/AccessControl.sol\":3175:3278  function _checkRole(bytes32 role) internal view virtual {... */\n      pop\n      jump\t// out\n        /* \"@openzeppelin/contracts/access/AccessControl.sol\":6155:6471  function _grantRole(bytes32 role, address account) internal virtual returns (bool) {... */\n    tag_144:\n        /* \"@openzeppelin/contracts/access/AccessControl.sol\":6232:6236  bool */\n      0x00\n        /* \"@openzeppelin/contracts/access/AccessControl.sol\":6253:6275  hasRole(role, account) */\n      tag_269\n        /* \"@openzeppelin/contracts/access/AccessControl.sol\":6261:6265  role */\n      dup4\n        /* \"@openzeppelin/contracts/access/AccessControl.sol\":6267:6274  account */\n      dup4\n        /* \"@openzeppelin/contracts/access/AccessControl.sol\":6253:6260  hasRole */\n      tag_83\n        /* \"@openzeppelin/contracts/access/AccessControl.sol\":6253:6275  hasRole(role, account) */\n      jump\t// in\n    tag_269:\n        /* \"@openzeppelin/contracts/access/AccessControl.sol\":6248:6465  if (!hasRole(role, account)) {... */\n      tag_270\n      jumpi\n        /* \"@openzeppelin/contracts/access/AccessControl.sol\":6323:6327  true */\n      0x01\n        /* \"@openzeppelin/contracts/access/AccessControl.sol\":6291:6297  _roles */\n      0x00\n        /* \"@openzeppelin/contracts/access/AccessControl.sol\":6291:6303  _roles[role] */\n      dup1\n        /* \"@openzeppelin/contracts/access/AccessControl.sol\":6298:6302  role */\n      dup6\n        /* \"@openzeppelin/contracts/access/AccessControl.sol\":6291:6303  _roles[role] */\n      dup2\n      mstore\n      0x20\n      add\n      swap1\n      dup2\n      mstore\n      0x20\n      add\n      0x00\n      keccak256\n        /* \"@openzeppelin/contracts/access/AccessControl.sol\":6291:6311  _roles[role].hasRole */\n      0x00\n      add\n        /* \"@openzeppelin/contracts/access/AccessControl.sol\":6291:6320  _roles[role].hasRole[account] */\n      0x00\n        /* \"@openzeppelin/contracts/access/AccessControl.sol\":6312:6319  account */\n      dup5\n        /* \"@openzeppelin/contracts/access/AccessControl.sol\":6291:6320  _roles[role].hasRole[account] */\n      0xffffffffffffffffffffffffffffffffffffffff\n      and\n      0xffffffffffffffffffffffffffffffffffffffff\n      and\n      dup2\n      mstore\n      0x20\n      add\n      swap1\n      dup2\n      mstore\n      0x20\n      add\n      0x00\n      keccak256\n      0x00\n        /* \"@openzeppelin/contracts/access/AccessControl.sol\":6291:6327  _roles[role].hasRole[account] = true */\n      0x0100\n      exp\n      dup2\n      sload\n      dup2\n      0xff\n      mul\n      not\n      and\n      swap1\n      dup4\n      iszero\n      iszero\n      mul\n      or\n      swap1\n      sstore\n      pop\n        /* \"@openzeppelin/contracts/access/AccessControl.sol\":6373:6385  _msgSender() */\n      tag_271\n        /* \"@openzeppelin/contracts/access/AccessControl.sol\":6373:6383  _msgSender */\n      tag_173\n        /* \"@openzeppelin/contracts/access/AccessControl.sol\":6373:6385  _msgSender() */\n      jump\t// in\n    tag_271:\n        /* \"@openzeppelin/contracts/access/AccessControl.sol\":6346:6386  RoleGranted(role, account, _msgSender()) */\n      0xffffffffffffffffffffffffffffffffffffffff\n      and\n        /* \"@openzeppelin/contracts/access/AccessControl.sol\":6364:6371  account */\n      dup3\n        /* \"@openzeppelin/contracts/access/AccessControl.sol\":6346:6386  RoleGranted(role, account, _msgSender()) */\n      0xffffffffffffffffffffffffffffffffffffffff\n      and\n        /* \"@openzeppelin/contracts/access/AccessControl.sol\":6358:6362  role */\n      dup5\n        /* \"@openzeppelin/contracts/access/AccessControl.sol\":6346:6386  RoleGranted(role, account, _msgSender()) */\n      0x2f8788117e7eff1d82e926ec794901d17c78024a50270940304540a733656f0d\n      mload(0x40)\n      mload(0x40)\n      dup1\n      swap2\n      sub\n      swap1\n      log4\n        /* \"@openzeppelin/contracts/access/AccessControl.sol\":6407:6411  true */\n      0x01\n        /* \"@openzeppelin/contracts/access/AccessControl.sol\":6400:6411  return true */\n      swap1\n      pop\n      jump(tag_268)\n        /* \"@openzeppelin/contracts/access/AccessControl.sol\":6248:6465  if (!hasRole(role, account)) {... */\n    tag_270:\n        /* \"@openzeppelin/contracts/access/AccessControl.sol\":6449:6454  false */\n      0x00\n        /* \"@openzeppelin/contracts/access/AccessControl.sol\":6442:6454  return false */\n      swap1\n      pop\n        /* \"@openzeppelin/contracts/access/AccessControl.sol\":6155:6471  function _grantRole(bytes32 role, address account) internal virtual returns (bool) {... */\n    tag_268:\n      swap3\n      swap2\n      pop\n      pop\n      jump\t// out\n        /* \"@openzeppelin/contracts/security/ReentrancyGuard.sol\":2336:2623  function _nonReentrantBefore() private {... */\n    tag_147:\n        /* \"@openzeppelin/contracts/security/ReentrancyGuard.sol\":1759:1760  2 */\n      0x02\n        /* \"@openzeppelin/contracts/security/ReentrancyGuard.sol\":2468:2475  _status */\n      sload(0x01)\n        /* \"@openzeppelin/contracts/security/ReentrancyGuard.sol\":2468:2487  _status != _ENTERED */\n      sub\n        /* \"@openzeppelin/contracts/security/ReentrancyGuard.sol\":2460:2523  require(_status != _ENTERED, \"ReentrancyGuard: reentrant call\") */\n      tag_274\n      jumpi\n      mload(0x40)\n      0x08c379a000000000000000000000000000000000000000000000000000000000\n      dup2\n      mstore\n      0x04\n      add\n      tag_275\n      swap1\n      tag_276\n      jump\t// in\n    tag_275:\n      mload(0x40)\n      dup1\n      swap2\n      sub\n      swap1\n      revert\n    tag_274:\n        /* \"@openzeppelin/contracts/security/ReentrancyGuard.sol\":1759:1760  2 */\n      0x02\n        /* \"@openzeppelin/contracts/security/ReentrancyGuard.sol\":2598:2605  _status */\n      0x01\n        /* \"@openzeppelin/contracts/security/ReentrancyGuard.sol\":2598:2616  _status = _ENTERED */\n      dup2\n      swap1\n      sstore\n      pop\n        /* \"@openzeppelin/contracts/security/ReentrancyGuard.sol\":2336:2623  function _nonReentrantBefore() private {... */\n      jump\t// out\n        /* \"src/KipuBankV2.sol\":13218:14413  function _toUsd(address token, uint256 amount) internal view returns (uint256 usd6) {... */\n    tag_158:\n        /* \"src/KipuBankV2.sol\":13288:13300  uint256 usd6 */\n      0x00\n        /* \"src/KipuBankV2.sol\":13327:13328  0 */\n      dup1\n        /* \"src/KipuBankV2.sol\":13317:13323  amount */\n      dup3\n        /* \"src/KipuBankV2.sol\":13317:13328  amount == 0 */\n      sub\n        /* \"src/KipuBankV2.sol\":13313:13338  if (amount == 0) return 0 */\n      tag_278\n      jumpi\n        /* \"src/KipuBankV2.sol\":13337:13338  0 */\n      0x00\n        /* \"src/KipuBankV2.sol\":13330:13338  return 0 */\n      swap1\n      pop\n      jump(tag_277)\n        /* \"src/KipuBankV2.sol\":13313:13338  if (amount == 0) return 0 */\n    tag_278:\n        /* \"src/KipuBankV2.sol\":13349:13371  TokenConfig memory cfg */\n      0x00\n        /* \"src/KipuBankV2.sol\":13374:13385  tokenConfig */\n      0x06\n        /* \"src/KipuBankV2.sol\":13374:13392  tokenConfig[token] */\n      0x00\n        /* \"src/KipuBankV2.sol\":13386:13391  token */\n      dup6\n        /* \"src/KipuBankV2.sol\":13374:13392  tokenConfig[token] */\n      0xffffffffffffffffffffffffffffffffffffffff\n      and\n      0xffffffffffffffffffffffffffffffffffffffff\n      and\n      dup2\n      mstore\n      0x20\n      add\n      swap1\n      dup2\n      mstore\n      0x20\n      add\n      0x00\n      keccak256\n        /* \"src/KipuBankV2.sol\":13349:13392  TokenConfig memory cfg = tokenConfig[token] */\n      mload(0x40)\n      dup1\n      0xa0\n      add\n      0x40\n      mstore\n      swap1\n      dup2\n      0x00\n      dup3\n      add\n      0x00\n      swap1\n      sload\n      swap1\n      0x0100\n      exp\n      swap1\n      div\n      0xff\n      and\n      iszero\n      iszero\n      iszero\n      iszero\n      dup2\n      mstore\n      0x20\n      add\n      0x00\n      dup3\n      add\n      0x01\n      swap1\n      sload\n      swap1\n      0x0100\n      exp\n      swap1\n      div\n      0xff\n      and\n      iszero\n      iszero\n      iszero\n      iszero\n      dup2\n      mstore\n      0x20\n      add\n      0x00\n      dup3\n      add\n      0x02\n      swap1\n      sload\n      swap1\n      0x0100\n      exp\n      swap1\n      div\n      0xff\n      and\n      0xff\n      and\n      0xff\n      and\n      dup2\n      mstore\n      0x20\n      add\n      0x01\n      dup3\n      add\n      sload\n      dup2\n      mstore\n      0x20\n      add\n      0x02\n      dup3\n      add\n      0x00\n      swap1\n      sload\n      swap1\n      0x0100\n      exp\n      swap1\n      div\n      0xffffffffffffffffffffffffffffffffffffffff\n      and\n      0xffffffffffffffffffffffffffffffffffffffff\n      and\n      0xffffffffffffffffffffffffffffffffffffffff\n      and\n      dup2\n      mstore\n      pop\n      pop\n      swap1\n      pop\n        /* \"src/KipuBankV2.sol\":13403:13415  address feed */\n      0x00\n        /* \"src/KipuBankV2.sol\":13418:13421  cfg */\n      dup2\n        /* \"src/KipuBankV2.sol\":13418:13431  cfg.priceFeed */\n      0x80\n      add\n      mload\n        /* \"src/KipuBankV2.sol\":13403:13431  address feed = cfg.priceFeed */\n      swap1\n      pop\n        /* \"src/KipuBankV2.sol\":13462:13463  0 */\n      0x00\n        /* \"src/KipuBankV2.sol\":13446:13464  feed == address(0) */\n      0xffffffffffffffffffffffffffffffffffffffff\n      and\n        /* \"src/KipuBankV2.sol\":13446:13450  feed */\n      dup2\n        /* \"src/KipuBankV2.sol\":13446:13464  feed == address(0) */\n      0xffffffffffffffffffffffffffffffffffffffff\n      and\n      sub\n        /* \"src/KipuBankV2.sol\":13442:13495  if (feed == address(0)) revert PriceFeedNotSet(token) */\n      tag_279\n      jumpi\n        /* \"src/KipuBankV2.sol\":13489:13494  token */\n      dup5\n        /* \"src/KipuBankV2.sol\":13473:13495  PriceFeedNotSet(token) */\n      mload(0x40)\n      0x8a7a791d00000000000000000000000000000000000000000000000000000000\n      dup2\n      mstore\n      0x04\n      add\n      tag_280\n      swap2\n      swap1\n      tag_64\n      jump\t// in\n    tag_280:\n      mload(0x40)\n      dup1\n      swap2\n      sub\n      swap1\n      revert\n        /* \"src/KipuBankV2.sol\":13442:13495  if (feed == address(0)) revert PriceFeedNotSet(token) */\n    tag_279:\n        /* \"src/KipuBankV2.sol\":13548:13560  int256 price */\n      0x00\n        /* \"src/KipuBankV2.sol\":13590:13594  feed */\n      dup2\n        /* \"src/KipuBankV2.sol\":13568:13611  AggregatorV3Interface(feed).latestRoundData */\n      0xffffffffffffffffffffffffffffffffffffffff\n      and\n      0xfeaf968c\n        /* \"src/KipuBankV2.sol\":13568:13613  AggregatorV3Interface(feed).latestRoundData() */\n      mload(0x40)\n      dup2\n      0xffffffff\n      and\n      0xe0\n      shl\n      dup2\n      mstore\n      0x04\n      add\n      0xa0\n      mload(0x40)\n      dup1\n      dup4\n      sub\n      dup2\n      dup7\n      gas\n      staticcall\n      iszero\n      dup1\n      iszero\n      tag_282\n      jumpi\n      returndatasize\n      0x00\n      dup1\n      returndatacopy\n      revert(0x00, returndatasize)\n    tag_282:\n      pop\n      pop\n      pop\n      pop\n      mload(0x40)\n      returndatasize\n      not(0x1f)\n      0x1f\n      dup3\n      add\n      and\n      dup3\n      add\n      dup1\n      0x40\n      mstore\n      pop\n      dup2\n      add\n      swap1\n      tag_283\n      swap2\n      swap1\n      tag_284\n      jump\t// in\n    tag_283:\n        /* \"src/KipuBankV2.sol\":13545:13613  (, int256 price,, ,) = AggregatorV3Interface(feed).latestRoundData() */\n      pop\n      pop\n      pop\n      swap2\n      pop\n      pop\n        /* \"src/KipuBankV2.sol\":13637:13638  0 */\n      0x00\n        /* \"src/KipuBankV2.sol\":13628:13633  price */\n      dup2\n        /* \"src/KipuBankV2.sol\":13628:13638  price <= 0 */\n      sgt\n        /* \"src/KipuBankV2.sol\":13624:13662  if (price <= 0) revert PriceNegative() */\n      tag_285\n      jumpi\n        /* \"src/KipuBankV2.sol\":13647:13662  PriceNegative() */\n      mload(0x40)\n      0x4fd58d4b00000000000000000000000000000000000000000000000000000000\n      dup2\n      mstore\n      0x04\n      add\n      mload(0x40)\n      dup1\n      swap2\n      sub\n      swap1\n      revert\n        /* \"src/KipuBankV2.sol\":13624:13662  if (price <= 0) revert PriceNegative() */\n    tag_285:\n        /* \"src/KipuBankV2.sol\":13675:13694  uint8 priceDecimals */\n      0x00\n        /* \"src/KipuBankV2.sol\":13719:13723  feed */\n      dup3\n        /* \"src/KipuBankV2.sol\":13697:13733  AggregatorV3Interface(feed).decimals */\n      0xffffffffffffffffffffffffffffffffffffffff\n      and\n      0x313ce567\n        /* \"src/KipuBankV2.sol\":13697:13735  AggregatorV3Interface(feed).decimals() */\n      mload(0x40)\n      dup2\n      0xffffffff\n      and\n      0xe0\n      shl\n      dup2\n      mstore\n      0x04\n      add\n      0x20\n      mload(0x40)\n      dup1\n      dup4\n      sub\n      dup2\n      dup7\n      gas\n      staticcall\n      iszero\n      dup1\n      iszero\n      tag_287\n      jumpi\n      returndatasize\n      0x00\n      dup1\n      returndatacopy\n      revert(0x00, returndatasize)\n    tag_287:\n      pop\n      pop\n      pop\n      pop\n      mload(0x40)\n      returndatasize\n      not(0x1f)\n      0x1f\n      dup3\n      add\n      and\n      dup3\n      add\n      dup1\n      0x40\n      mstore\n      pop\n      dup2\n      add\n      swap1\n      tag_288\n      swap2\n      swap1\n      tag_201\n      jump\t// in\n    tag_288:\n        /* \"src/KipuBankV2.sol\":13675:13735  uint8 priceDecimals = AggregatorV3Interface(feed).decimals() */\n      swap1\n      pop\n        /* \"src/KipuBankV2.sol\":13824:13841  uint256 numerator */\n      0x00\n        /* \"src/KipuBankV2.sol\":13861:13866  price */\n      dup3\n        /* \"src/KipuBankV2.sol\":13844:13850  amount */\n      dup8\n        /* \"src/KipuBankV2.sol\":13844:13867  amount * uint256(price) */\n      tag_289\n      swap2\n      swap1\n      tag_290\n      jump\t// in\n    tag_289:\n        /* \"src/KipuBankV2.sol\":13824:13867  uint256 numerator = amount * uint256(price) */\n      swap1\n      pop\n        /* \"src/KipuBankV2.sol\":13963:13964  0 */\n      0x00\n        /* \"src/KipuBankV2.sol\":13947:13960  priceDecimals */\n      dup3\n        /* \"src/KipuBankV2.sol\":13947:13964  priceDecimals > 0 */\n      0xff\n      and\n      gt\n        /* \"src/KipuBankV2.sol\":13943:14038  if (priceDecimals > 0) {... */\n      iszero\n      tag_291\n      jumpi\n        /* \"src/KipuBankV2.sol\":14012:14025  priceDecimals */\n      dup2\n        /* \"src/KipuBankV2.sol\":14006:14008  10 */\n      0x0a\n        /* \"src/KipuBankV2.sol\":14006:14025  10 ** priceDecimals */\n      tag_292\n      swap2\n      swap1\n      tag_293\n      jump\t// in\n    tag_292:\n        /* \"src/KipuBankV2.sol\":13993:14002  numerator */\n      dup2\n        /* \"src/KipuBankV2.sol\":13993:14026  numerator / (10 ** priceDecimals) */\n      tag_294\n      swap2\n      swap1\n      tag_295\n      jump\t// in\n    tag_294:\n        /* \"src/KipuBankV2.sol\":13981:14026  numerator = numerator / (10 ** priceDecimals) */\n      swap1\n      pop\n        /* \"src/KipuBankV2.sol\":13943:14038  if (priceDecimals > 0) {... */\n    tag_291:\n        /* \"src/KipuBankV2.sol\":2265:2266  6 */\n      0x06\n        /* \"src/KipuBankV2.sol\":14117:14150  cfg.tokenDecimals >= USD_DECIMALS */\n      0xff\n      and\n        /* \"src/KipuBankV2.sol\":14117:14120  cfg */\n      dup6\n        /* \"src/KipuBankV2.sol\":14117:14134  cfg.tokenDecimals */\n      0x40\n      add\n      mload\n        /* \"src/KipuBankV2.sol\":14117:14150  cfg.tokenDecimals >= USD_DECIMALS */\n      0xff\n      and\n      lt\n        /* \"src/KipuBankV2.sol\":14113:14406  if (cfg.tokenDecimals >= USD_DECIMALS) {... */\n      tag_296\n      jumpi\n        /* \"src/KipuBankV2.sol\":14167:14181  uint256 factor */\n      0x00\n        /* \"src/KipuBankV2.sol\":2265:2266  6 */\n      0x06\n        /* \"src/KipuBankV2.sol\":14191:14194  cfg */\n      dup7\n        /* \"src/KipuBankV2.sol\":14191:14208  cfg.tokenDecimals */\n      0x40\n      add\n      mload\n        /* \"src/KipuBankV2.sol\":14191:14223  cfg.tokenDecimals - USD_DECIMALS */\n      tag_297\n      swap2\n      swap1\n      tag_298\n      jump\t// in\n    tag_297:\n        /* \"src/KipuBankV2.sol\":14184:14186  10 */\n      0x0a\n        /* \"src/KipuBankV2.sol\":14184:14224  10 ** (cfg.tokenDecimals - USD_DECIMALS) */\n      tag_299\n      swap2\n      swap1\n      tag_293\n      jump\t// in\n    tag_299:\n        /* \"src/KipuBankV2.sol\":14167:14224  uint256 factor = 10 ** (cfg.tokenDecimals - USD_DECIMALS) */\n      swap1\n      pop\n        /* \"src/KipuBankV2.sol\":14258:14264  factor */\n      dup1\n        /* \"src/KipuBankV2.sol\":14246:14255  numerator */\n      dup3\n        /* \"src/KipuBankV2.sol\":14246:14264  numerator / factor */\n      tag_300\n      swap2\n      swap1\n      tag_295\n      jump\t// in\n    tag_300:\n        /* \"src/KipuBankV2.sol\":14239:14264  usd6 = numerator / factor */\n      swap7\n      pop\n        /* \"src/KipuBankV2.sol\":14152:14276  {... */\n      pop\n        /* \"src/KipuBankV2.sol\":14113:14406  if (cfg.tokenDecimals >= USD_DECIMALS) {... */\n      jump(tag_301)\n    tag_296:\n        /* \"src/KipuBankV2.sol\":14297:14311  uint256 factor */\n      0x00\n        /* \"src/KipuBankV2.sol\":14336:14339  cfg */\n      dup6\n        /* \"src/KipuBankV2.sol\":14336:14353  cfg.tokenDecimals */\n      0x40\n      add\n      mload\n        /* \"src/KipuBankV2.sol\":2265:2266  6 */\n      0x06\n        /* \"src/KipuBankV2.sol\":14321:14353  USD_DECIMALS - cfg.tokenDecimals */\n      tag_302\n      swap2\n      swap1\n      tag_298\n      jump\t// in\n    tag_302:\n        /* \"src/KipuBankV2.sol\":14314:14316  10 */\n      0x0a\n        /* \"src/KipuBankV2.sol\":14314:14354  10 ** (USD_DECIMALS - cfg.tokenDecimals) */\n      tag_303\n      swap2\n      swap1\n      tag_293\n      jump\t// in\n    tag_303:\n        /* \"src/KipuBankV2.sol\":14297:14354  uint256 factor = 10 ** (USD_DECIMALS - cfg.tokenDecimals) */\n      swap1\n      pop\n        /* \"src/KipuBankV2.sol\":14388:14394  factor */\n      dup1\n        /* \"src/KipuBankV2.sol\":14376:14385  numerator */\n      dup3\n        /* \"src/KipuBankV2.sol\":14376:14394  numerator * factor */\n      tag_304\n      swap2\n      swap1\n      tag_290\n      jump\t// in\n    tag_304:\n        /* \"src/KipuBankV2.sol\":14369:14394  usd6 = numerator * factor */\n      swap7\n      pop\n        /* \"src/KipuBankV2.sol\":14282:14406  {... */\n      pop\n        /* \"src/KipuBankV2.sol\":14113:14406  if (cfg.tokenDecimals >= USD_DECIMALS) {... */\n    tag_301:\n        /* \"src/KipuBankV2.sol\":13302:14413  {... */\n      pop\n      pop\n      pop\n      pop\n      pop\n        /* \"src/KipuBankV2.sol\":13218:14413  function _toUsd(address token, uint256 amount) internal view returns (uint256 usd6) {... */\n    tag_277:\n      swap3\n      swap2\n      pop\n      pop\n      jump\t// out\n        /* \"@openzeppelin/contracts/token/ERC20/utils/SafeERC20.sol\":1618:1806  function safeTransferFrom(IERC20 token, address from, address to, uint256 value) internal {... */\n    tag_166:\n        /* \"@openzeppelin/contracts/token/ERC20/utils/SafeERC20.sol\":1718:1799  _callOptionalReturn(token, abi.encodeCall(token.transferFrom, (from, to, value))) */\n      tag_306\n        /* \"@openzeppelin/contracts/token/ERC20/utils/SafeERC20.sol\":1738:1743  token */\n      dup5\n        /* \"@openzeppelin/contracts/token/ERC20/utils/SafeERC20.sol\":1760:1765  token */\n      dup6\n        /* \"@openzeppelin/contracts/token/ERC20/utils/SafeERC20.sol\":1760:1778  token.transferFrom */\n      0xffffffffffffffffffffffffffffffffffffffff\n      and\n      0x23b872dd\n        /* \"@openzeppelin/contracts/token/ERC20/utils/SafeERC20.sol\":1781:1785  from */\n      dup7\n        /* \"@openzeppelin/contracts/token/ERC20/utils/SafeERC20.sol\":1787:1789  to */\n      dup7\n        /* \"@openzeppelin/contracts/token/ERC20/utils/SafeERC20.sol\":1791:1796  value */\n      dup7\n        /* \"@openzeppelin/contracts/token/ERC20/utils/SafeERC20.sol\":1745:1798  abi.encodeCall(token.transferFrom, (from, to, value)) */\n      add(0x24, mload(0x40))\n      tag_307\n      swap4\n      swap3\n      swap2\n      swap1\n      tag_308\n      jump\t// in\n    tag_307:\n      mload(0x40)\n      0x20\n      dup2\n      dup4\n      sub\n      sub\n      dup2\n      mstore\n      swap1\n      0x40\n      mstore\n      swap2\n      pop\n      0xe0\n      shl\n      0x20\n      dup3\n      add\n      dup1\n      mload\n      0xffffffffffffffffffffffffffffffffffffffffffffffffffffffff\n      dup4\n      dup2\n      dup4\n      and\n      or\n      dup4\n      mstore\n      pop\n      pop\n      pop\n      pop\n        /* \"@openzeppelin/contracts/token/ERC20/utils/SafeERC20.sol\":1718:1737  _callOptionalReturn */\n      tag_309\n        /* \"@openzeppelin/contracts/token/ERC20/utils/SafeERC20.sol\":1718:1799  _callOptionalReturn(token, abi.encodeCall(token.transferFrom, (from, to, value))) */\n      jump\t// in\n    tag_306:\n        /* \"@openzeppelin/contracts/token/ERC20/utils/SafeERC20.sol\":1618:1806  function safeTransferFrom(IERC20 token, address from, address to, uint256 value) internal {... */\n      pop\n      pop\n      pop\n      pop\n      jump\t// out\n        /* \"@openzeppelin/contracts/security/ReentrancyGuard.sol\":2629:2838  function _nonReentrantAfter() private {... */\n    tag_170:\n        /* \"@openzeppelin/contracts/security/ReentrancyGuard.sol\":1716:1717  1 */\n      0x01\n        /* \"@openzeppelin/contracts/security/ReentrancyGuard.sol\":2809:2816  _status */\n      dup1\n        /* \"@openzeppelin/contracts/security/ReentrancyGuard.sol\":2809:2831  _status = _NOT_ENTERED */\n      dup2\n      swap1\n      sstore\n      pop\n        /* \"@openzeppelin/contracts/security/ReentrancyGuard.sol\":2629:2838  function _nonReentrantAfter() private {... */\n      jump\t// out\n        /* \"@openzeppelin/contracts/utils/Context.sol\":656:752  function _msgSender() internal view virtual returns (address) {... */\n    tag_173:\n        /* \"@openzeppelin/contracts/utils/Context.sol\":709:716  address */\n      0x00\n        /* \"@openzeppelin/contracts/utils/Context.sol\":735:745  msg.sender */\n      caller\n        /* \"@openzeppelin/contracts/utils/Context.sol\":728:745  return msg.sender */\n      swap1\n      pop\n        /* \"@openzeppelin/contracts/utils/Context.sol\":656:752  function _msgSender() internal view virtual returns (address) {... */\n      swap1\n      jump\t// out\n        /* \"@openzeppelin/contracts/access/AccessControl.sol\":6708:7025  function _revokeRole(bytes32 role, address account) internal virtual returns (bool) {... */\n    tag_176:\n        /* \"@openzeppelin/contracts/access/AccessControl.sol\":6786:6790  bool */\n      0x00\n        /* \"@openzeppelin/contracts/access/AccessControl.sol\":6806:6828  hasRole(role, account) */\n      tag_313\n        /* \"@openzeppelin/contracts/access/AccessControl.sol\":6814:6818  role */\n      dup4\n        /* \"@openzeppelin/contracts/access/AccessControl.sol\":6820:6827  account */\n      dup4\n        /* \"@openzeppelin/contracts/access/AccessControl.sol\":6806:6813  hasRole */\n      tag_83\n        /* \"@openzeppelin/contracts/access/AccessControl.sol\":6806:6828  hasRole(role, account) */\n      jump\t// in\n    tag_313:\n        /* \"@openzeppelin/contracts/access/AccessControl.sol\":6802:7019  if (hasRole(role, account)) {... */\n      iszero\n      tag_314\n      jumpi\n        /* \"@openzeppelin/contracts/access/AccessControl.sol\":6876:6881  false */\n      0x00\n        /* \"@openzeppelin/contracts/access/AccessControl.sol\":6844:6850  _roles */\n      dup1\n        /* \"@openzeppelin/contracts/access/AccessControl.sol\":6844:6856  _roles[role] */\n      0x00\n        /* \"@openzeppelin/contracts/access/AccessControl.sol\":6851:6855  role */\n      dup6\n        /* \"@openzeppelin/contracts/access/AccessControl.sol\":6844:6856  _roles[role] */\n      dup2\n      mstore\n      0x20\n      add\n      swap1\n      dup2\n      mstore\n      0x20\n      add\n      0x00\n      keccak256\n        /* \"@openzeppelin/contracts/access/AccessControl.sol\":6844:6864  _roles[role].hasRole */\n      0x00\n      add\n        /* \"@openzeppelin/contracts/access/AccessControl.sol\":6844:6873  _roles[role].hasRole[account] */\n      0x00\n        /* \"@openzeppelin/contracts/access/AccessControl.sol\":6865:6872  account */\n      dup5\n        /* \"@openzeppelin/contracts/access/AccessControl.sol\":6844:6873  _roles[role].hasRole[account] */\n      0xffffffffffffffffffffffffffffffffffffffff\n      and\n      0xffffffffffffffffffffffffffffffffffffffff\n      and\n      dup2\n      mstore\n      0x20\n      add\n      swap1\n      dup2\n      mstore\n      0x20\n      add\n      0x00\n      keccak256\n      0x00\n        /* \"@openzeppelin/contracts/access/AccessControl.sol\":6844:6881  _roles[role].hasRole[account] = false */\n      0x0100\n      exp\n      dup2\n      sload\n      dup2\n      0xff\n      mul\n      not\n      and\n      swap1\n      dup4\n      iszero\n      iszero\n      mul\n      or\n      swap1\n      sstore\n      pop\n        /* \"@openzeppelin/contracts/access/AccessControl.sol\":6927:6939  _msgSender() */\n      tag_315\n        /* \"@openzeppelin/contracts/access/AccessControl.sol\":6927:6937  _msgSender */\n      tag_173\n        /* \"@openzeppelin/contracts/access/AccessControl.sol\":6927:6939  _msgSender() */\n      jump\t// in\n    tag_315:\n        /* \"@openzeppelin/contracts/access/AccessControl.sol\":6900:6940  RoleRevoked(role, account, _msgSender()) */\n      0xffffffffffffffffffffffffffffffffffffffff\n      and\n        /* \"@openzeppelin/contracts/access/AccessControl.sol\":6918:6925  account */\n      dup3\n        /* \"@openzeppelin/contracts/access/AccessControl.sol\":6900:6940  RoleRevoked(role, account, _msgSender()) */\n      0xffffffffffffffffffffffffffffffffffffffff\n      and\n        /* \"@openzeppelin/contracts/access/AccessControl.sol\":6912:6916  role */\n      dup5\n        /* \"@openzeppelin/contracts/access/AccessControl.sol\":6900:6940  RoleRevoked(role, account, _msgSender()) */\n      0xf6391f5c32d9c69d2a47ea670b442974b53935d1edc7fd64eb21e047a839171b\n      mload(0x40)\n      mload(0x40)\n      dup1\n      swap2\n      sub\n      swap1\n      log4\n        /* \"@openzeppelin/contracts/access/AccessControl.sol\":6961:6965  true */\n      0x01\n        /* \"@openzeppelin/contracts/access/AccessControl.sol\":6954:6965  return true */\n      swap1\n      pop\n      jump(tag_312)\n        /* \"@openzeppelin/contracts/access/AccessControl.sol\":6802:7019  if (hasRole(role, account)) {... */\n    tag_314:\n        /* \"@openzeppelin/contracts/access/AccessControl.sol\":7003:7008  false */\n      0x00\n        /* \"@openzeppelin/contracts/access/AccessControl.sol\":6996:7008  return false */\n      swap1\n      pop\n        /* \"@openzeppelin/contracts/access/AccessControl.sol\":6708:7025  function _revokeRole(bytes32 role, address account) internal virtual returns (bool) {... */\n    tag_312:\n      swap3\n      swap2\n      pop\n      pop\n      jump\t// out\n        /* \"@openzeppelin/contracts/token/ERC20/utils/SafeERC20.sol\":1219:1379  function safeTransfer(IERC20 token, address to, uint256 value) internal {... */\n    tag_228:\n        /* \"@openzeppelin/contracts/token/ERC20/utils/SafeERC20.sol\":1301:1372  _callOptionalReturn(token, abi.encodeCall(token.transfer, (to, value))) */\n      tag_318\n        /* \"@openzeppelin/contracts/token/ERC20/utils/SafeERC20.sol\":1321:1326  token */\n      dup4\n        /* \"@openzeppelin/contracts/token/ERC20/utils/SafeERC20.sol\":1343:1348  token */\n      dup5\n        /* \"@openzeppelin/contracts/token/ERC20/utils/SafeERC20.sol\":1343:1357  token.transfer */\n      0xffffffffffffffffffffffffffffffffffffffff\n      and\n      0xa9059cbb\n        /* \"@openzeppelin/contracts/token/ERC20/utils/SafeERC20.sol\":1360:1362  to */\n      dup6\n        /* \"@openzeppelin/contracts/token/ERC20/utils/SafeERC20.sol\":1364:1369  value */\n      dup6\n        /* \"@openzeppelin/contracts/token/ERC20/utils/SafeERC20.sol\":1328:1371  abi.encodeCall(token.transfer, (to, value)) */\n      add(0x24, mload(0x40))\n      tag_319\n      swap3\n      swap2\n      swap1\n      tag_320\n      jump\t// in\n    tag_319:\n      mload(0x40)\n      0x20\n      dup2\n      dup4\n      sub\n      sub\n      dup2\n      mstore\n      swap1\n      0x40\n      mstore\n      swap2\n      pop\n      0xe0\n      shl\n      0x20\n      dup3\n      add\n      dup1\n      mload\n      0xffffffffffffffffffffffffffffffffffffffffffffffffffffffff\n      dup4\n      dup2\n      dup4\n      and\n      or\n      dup4\n      mstore\n      pop\n      pop\n      pop\n      pop\n        /* \"@openzeppelin/contracts/token/ERC20/utils/SafeERC20.sol\":1301:1320  _callOptionalReturn */\n      tag_309\n        /* \"@openzeppelin/contracts/token/ERC20/utils/SafeERC20.sol\":1301:1372  _callOptionalReturn(token, abi.encodeCall(token.transfer, (to, value))) */\n      jump\t// in\n    tag_318:\n        /* \"@openzeppelin/contracts/token/ERC20/utils/SafeERC20.sol\":1219:1379  function safeTransfer(IERC20 token, address to, uint256 value) internal {... */\n      pop\n      pop\n      pop\n      jump\t// out\n        /* \"@openzeppelin/contracts/access/AccessControl.sol\":3408:3605  function _checkRole(bytes32 role, address account) internal view virtual {... */\n    tag_267:\n        /* \"@openzeppelin/contracts/access/AccessControl.sol\":3496:3518  hasRole(role, account) */\n      tag_322\n        /* \"@openzeppelin/contracts/access/AccessControl.sol\":3504:3508  role */\n      dup3\n        /* \"@openzeppelin/contracts/access/AccessControl.sol\":3510:3517  account */\n      dup3\n        /* \"@openzeppelin/contracts/access/AccessControl.sol\":3496:3503  hasRole */\n      tag_83\n        /* \"@openzeppelin/contracts/access/AccessControl.sol\":3496:3518  hasRole(role, account) */\n      jump\t// in\n    tag_322:\n        /* \"@openzeppelin/contracts/access/AccessControl.sol\":3491:3599  if (!hasRole(role, account)) {... */\n      tag_323\n      jumpi\n        /* \"@openzeppelin/contracts/access/AccessControl.sol\":3574:3581  account */\n      dup1\n        /* \"@openzeppelin/contracts/access/AccessControl.sol\":3583:3587  role */\n      dup3\n        /* \"@openzeppelin/contracts/access/AccessControl.sol\":3541:3588  AccessControlUnauthorizedAccount(account, role) */\n      mload(0x40)\n      0xe2517d3f00000000000000000000000000000000000000000000000000000000\n      dup2\n      mstore\n      0x04\n      add\n      tag_324\n      swap3\n      swap2\n      swap1\n      tag_325\n      jump\t// in\n    tag_324:\n      mload(0x40)\n      dup1\n      swap2\n      sub\n      swap1\n      revert\n        /* \"@openzeppelin/contracts/access/AccessControl.sol\":3491:3599  if (!hasRole(role, account)) {... */\n    tag_323:\n        /* \"@openzeppelin/contracts/access/AccessControl.sol\":3408:3605  function _checkRole(bytes32 role, address account) internal view virtual {... */\n      pop\n      pop\n      jump\t// out\n        /* \"@openzeppelin/contracts/token/ERC20/utils/SafeERC20.sol\":8370:9090  function _callOptionalReturn(IERC20 token, bytes memory data) private {... */\n    tag_309:\n        /* \"@openzeppelin/contracts/token/ERC20/utils/SafeERC20.sol\":8450:8468  uint256 returnSize */\n      0x00\n        /* \"@openzeppelin/contracts/token/ERC20/utils/SafeERC20.sol\":8478:8497  uint256 returnValue */\n      dup1\n        /* \"@openzeppelin/contracts/token/ERC20/utils/SafeERC20.sol\":8616:8620  0x20 */\n      0x20\n        /* \"@openzeppelin/contracts/token/ERC20/utils/SafeERC20.sol\":8613:8614  0 */\n      0x00\n        /* \"@openzeppelin/contracts/token/ERC20/utils/SafeERC20.sol\":8606:8610  data */\n      dup5\n        /* \"@openzeppelin/contracts/token/ERC20/utils/SafeERC20.sol\":8600:8611  mload(data) */\n      mload\n        /* \"@openzeppelin/contracts/token/ERC20/utils/SafeERC20.sol\":8593:8597  0x20 */\n      0x20\n        /* \"@openzeppelin/contracts/token/ERC20/utils/SafeERC20.sol\":8587:8591  data */\n      dup7\n        /* \"@openzeppelin/contracts/token/ERC20/utils/SafeERC20.sol\":8583:8598  add(data, 0x20) */\n      add\n        /* \"@openzeppelin/contracts/token/ERC20/utils/SafeERC20.sol\":8580:8581  0 */\n      0x00\n        /* \"@openzeppelin/contracts/token/ERC20/utils/SafeERC20.sol\":8573:8578  token */\n      dup9\n        /* \"@openzeppelin/contracts/token/ERC20/utils/SafeERC20.sol\":8566:8571  gas() */\n      gas\n        /* \"@openzeppelin/contracts/token/ERC20/utils/SafeERC20.sol\":8561:8621  call(gas(), token, 0, add(data, 0x20), mload(data), 0, 0x20) */\n      call\n        /* \"@openzeppelin/contracts/token/ERC20/utils/SafeERC20.sol\":8673:8680  success */\n      dup1\n        /* \"@openzeppelin/contracts/token/ERC20/utils/SafeERC20.sol\":8663:8839  if iszero(success) {... */\n      tag_327\n      jumpi\n        /* \"@openzeppelin/contracts/token/ERC20/utils/SafeERC20.sol\":8717:8721  0x40 */\n      0x40\n        /* \"@openzeppelin/contracts/token/ERC20/utils/SafeERC20.sol\":8711:8722  mload(0x40) */\n      mload\n        /* \"@openzeppelin/contracts/token/ERC20/utils/SafeERC20.sol\":8762:8778  returndatasize() */\n      returndatasize\n        /* \"@openzeppelin/contracts/token/ERC20/utils/SafeERC20.sol\":8759:8760  0 */\n      0x00\n        /* \"@openzeppelin/contracts/token/ERC20/utils/SafeERC20.sol\":8754:8757  ptr */\n      dup3\n        /* \"@openzeppelin/contracts/token/ERC20/utils/SafeERC20.sol\":8739:8779  returndatacopy(ptr, 0, returndatasize()) */\n      returndatacopy\n        /* \"@openzeppelin/contracts/token/ERC20/utils/SafeERC20.sol\":8808:8824  returndatasize() */\n      returndatasize\n        /* \"@openzeppelin/contracts/token/ERC20/utils/SafeERC20.sol\":8803:8806  ptr */\n      dup2\n        /* \"@openzeppelin/contracts/token/ERC20/utils/SafeERC20.sol\":8796:8825  revert(ptr, returndatasize()) */\n      revert\n        /* \"@openzeppelin/contracts/token/ERC20/utils/SafeERC20.sol\":8663:8839  if iszero(success) {... */\n    tag_327:\n        /* \"@openzeppelin/contracts/token/ERC20/utils/SafeERC20.sol\":8866:8882  returndatasize() */\n      returndatasize\n        /* \"@openzeppelin/contracts/token/ERC20/utils/SafeERC20.sol\":8852:8882  returnSize := returndatasize() */\n      swap3\n      pop\n        /* \"@openzeppelin/contracts/token/ERC20/utils/SafeERC20.sol\":8916:8917  0 */\n      0x00\n        /* \"@openzeppelin/contracts/token/ERC20/utils/SafeERC20.sol\":8910:8918  mload(0) */\n      mload\n        /* \"@openzeppelin/contracts/token/ERC20/utils/SafeERC20.sol\":8895:8918  returnValue := mload(0) */\n      swap2\n      pop\n        /* \"@openzeppelin/contracts/token/ERC20/utils/SafeERC20.sol\":8532:8928  {... */\n      pop\n        /* \"@openzeppelin/contracts/token/ERC20/utils/SafeERC20.sol\":8956:8957  0 */\n      0x00\n        /* \"@openzeppelin/contracts/token/ERC20/utils/SafeERC20.sol\":8942:8952  returnSize */\n      dup3\n        /* \"@openzeppelin/contracts/token/ERC20/utils/SafeERC20.sol\":8942:8957  returnSize == 0 */\n      eq\n        /* \"@openzeppelin/contracts/token/ERC20/utils/SafeERC20.sol\":8942:9010  returnSize == 0 ? address(token).code.length == 0 : returnValue != 1 */\n      tag_328\n      jumpi\n        /* \"@openzeppelin/contracts/token/ERC20/utils/SafeERC20.sol\":9009:9010  1 */\n      0x01\n        /* \"@openzeppelin/contracts/token/ERC20/utils/SafeERC20.sol\":8994:9005  returnValue */\n      dup2\n        /* \"@openzeppelin/contracts/token/ERC20/utils/SafeERC20.sol\":8994:9010  returnValue != 1 */\n      eq\n      iszero\n        /* \"@openzeppelin/contracts/token/ERC20/utils/SafeERC20.sol\":8942:9010  returnSize == 0 ? address(token).code.length == 0 : returnValue != 1 */\n      jump(tag_329)\n    tag_328:\n        /* \"@openzeppelin/contracts/token/ERC20/utils/SafeERC20.sol\":8990:8991  0 */\n      0x00\n        /* \"@openzeppelin/contracts/token/ERC20/utils/SafeERC20.sol\":8968:8973  token */\n      dup5\n        /* \"@openzeppelin/contracts/token/ERC20/utils/SafeERC20.sol\":8960:8986  address(token).code.length */\n      0xffffffffffffffffffffffffffffffffffffffff\n      and\n      extcodesize\n        /* \"@openzeppelin/contracts/token/ERC20/utils/SafeERC20.sol\":8960:8991  address(token).code.length == 0 */\n      eq\n        /* \"@openzeppelin/contracts/token/ERC20/utils/SafeERC20.sol\":8942:9010  returnSize == 0 ? address(token).code.length == 0 : returnValue != 1 */\n    tag_329:\n        /* \"@openzeppelin/contracts/token/ERC20/utils/SafeERC20.sol\":8938:9084  if (returnSize == 0 ? address(token).code.length == 0 : returnValue != 1) {... */\n      iszero\n      tag_330\n      jumpi\n        /* \"@openzeppelin/contracts/token/ERC20/utils/SafeERC20.sol\":9066:9071  token */\n      dup4\n        /* \"@openzeppelin/contracts/token/ERC20/utils/SafeERC20.sol\":9033:9073  SafeERC20FailedOperation(address(token)) */\n      mload(0x40)\n      0x5274afe700000000000000000000000000000000000000000000000000000000\n      dup2\n      mstore\n      0x04\n      add\n      tag_331\n      swap2\n      swap1\n      tag_64\n      jump\t// in\n    tag_331:\n      mload(0x40)\n      dup1\n      swap2\n      sub\n      swap1\n      revert\n        /* \"@openzeppelin/contracts/token/ERC20/utils/SafeERC20.sol\":8938:9084  if (returnSize == 0 ? address(token).code.length == 0 : returnValue != 1) {... */\n    tag_330:\n        /* \"@openzeppelin/contracts/token/ERC20/utils/SafeERC20.sol\":8440:9090  {... */\n      pop\n      pop\n        /* \"@openzeppelin/contracts/token/ERC20/utils/SafeERC20.sol\":8370:9090  function _callOptionalReturn(IERC20 token, bytes memory data) private {... */\n      pop\n      pop\n      jump\t// out\n        /* \"#utility.yul\":88:205   */\n    tag_333:\n        /* \"#utility.yul\":197:198   */\n      0x00\n        /* \"#utility.yul\":194:195   */\n      dup1\n        /* \"#utility.yul\":187:199   */\n      revert\n        /* \"#utility.yul\":334:483   */\n    tag_335:\n        /* \"#utility.yul\":370:377   */\n      0x00\n        /* \"#utility.yul\":410:476   */\n      0xffffffff00000000000000000000000000000000000000000000000000000000\n        /* \"#utility.yul\":403:408   */\n      dup3\n        /* \"#utility.yul\":399:477   */\n      and\n        /* \"#utility.yul\":388:477   */\n      swap1\n      pop\n        /* \"#utility.yul\":334:483   */\n      swap2\n      swap1\n      pop\n      jump\t// out\n        /* \"#utility.yul\":489:609   */\n    tag_336:\n        /* \"#utility.yul\":561:584   */\n      tag_384\n        /* \"#utility.yul\":578:583   */\n      dup2\n        /* \"#utility.yul\":561:584   */\n      tag_335\n      jump\t// in\n    tag_384:\n        /* \"#utility.yul\":554:559   */\n      dup2\n        /* \"#utility.yul\":551:585   */\n      eq\n        /* \"#utility.yul\":541:603   */\n      tag_385\n      jumpi\n        /* \"#utility.yul\":599:600   */\n      0x00\n        /* \"#utility.yul\":596:597   */\n      dup1\n        /* \"#utility.yul\":589:601   */\n      revert\n        /* \"#utility.yul\":541:603   */\n    tag_385:\n        /* \"#utility.yul\":489:609   */\n      pop\n      jump\t// out\n        /* \"#utility.yul\":615:752   */\n    tag_337:\n        /* \"#utility.yul\":660:665   */\n      0x00\n        /* \"#utility.yul\":698:704   */\n      dup2\n        /* \"#utility.yul\":685:705   */\n      calldataload\n        /* \"#utility.yul\":676:705   */\n      swap1\n      pop\n        /* \"#utility.yul\":714:746   */\n      tag_387\n        /* \"#utility.yul\":740:745   */\n      dup2\n        /* \"#utility.yul\":714:746   */\n      tag_336\n      jump\t// in\n    tag_387:\n        /* \"#utility.yul\":615:752   */\n      swap3\n      swap2\n      pop\n      pop\n      jump\t// out\n        /* \"#utility.yul\":758:1085   */\n    tag_30:\n        /* \"#utility.yul\":816:822   */\n      0x00\n        /* \"#utility.yul\":865:867   */\n      0x20\n        /* \"#utility.yul\":853:862   */\n      dup3\n        /* \"#utility.yul\":844:851   */\n      dup5\n        /* \"#utility.yul\":840:863   */\n      sub\n        /* \"#utility.yul\":836:868   */\n      slt\n        /* \"#utility.yul\":833:952   */\n      iszero\n      tag_389\n      jumpi\n        /* \"#utility.yul\":871:950   */\n      tag_390\n      tag_333\n      jump\t// in\n    tag_390:\n        /* \"#utility.yul\":833:952   */\n    tag_389:\n        /* \"#utility.yul\":991:992   */\n      0x00\n        /* \"#utility.yul\":1016:1068   */\n      tag_391\n        /* \"#utility.yul\":1060:1067   */\n      dup5\n        /* \"#utility.yul\":1051:1057   */\n      dup3\n        /* \"#utility.yul\":1040:1049   */\n      dup6\n        /* \"#utility.yul\":1036:1058   */\n      add\n        /* \"#utility.yul\":1016:1068   */\n      tag_337\n      jump\t// in\n    tag_391:\n        /* \"#utility.yul\":1006:1068   */\n      swap2\n      pop\n        /* \"#utility.yul\":962:1078   */\n      pop\n        /* \"#utility.yul\":758:1085   */\n      swap3\n      swap2\n      pop\n      pop\n      jump\t// out\n        /* \"#utility.yul\":1091:1181   */\n    tag_338:\n        /* \"#utility.yul\":1125:1132   */\n      0x00\n        /* \"#utility.yul\":1168:1173   */\n      dup2\n        /* \"#utility.yul\":1161:1174   */\n      iszero\n        /* \"#utility.yul\":1154:1175   */\n      iszero\n        /* \"#utility.yul\":1143:1175   */\n      swap1\n      pop\n        /* \"#utility.yul\":1091:1181   */\n      swap2\n      swap1\n      pop\n      jump\t// out\n        /* \"#utility.yul\":1187:1296   */\n    tag_339:\n        /* \"#utility.yul\":1268:1289   */\n      tag_394\n        /* \"#utility.yul\":1283:1288   */\n      dup2\n        /* \"#utility.yul\":1268:1289   */\n      tag_338\n      jump\t// in\n    tag_394:\n        /* \"#utility.yul\":1263:1266   */\n      dup3\n        /* \"#utility.yul\":1256:1290   */\n      mstore\n        /* \"#utility.yul\":1187:1296   */\n      pop\n      pop\n      jump\t// out\n        /* \"#utility.yul\":1302:1512   */\n    tag_33:\n        /* \"#utility.yul\":1389:1393   */\n      0x00\n        /* \"#utility.yul\":1427:1429   */\n      0x20\n        /* \"#utility.yul\":1416:1425   */\n      dup3\n        /* \"#utility.yul\":1412:1430   */\n      add\n        /* \"#utility.yul\":1404:1430   */\n      swap1\n      pop\n        /* \"#utility.yul\":1440:1505   */\n      tag_396\n        /* \"#utility.yul\":1502:1503   */\n      0x00\n        /* \"#utility.yul\":1491:1500   */\n      dup4\n        /* \"#utility.yul\":1487:1504   */\n      add\n        /* \"#utility.yul\":1478:1484   */\n      dup5\n        /* \"#utility.yul\":1440:1505   */\n      tag_339\n      jump\t// in\n    tag_396:\n        /* \"#utility.yul\":1302:1512   */\n      swap3\n      swap2\n      pop\n      pop\n      jump\t// out\n        /* \"#utility.yul\":1518:1595   */\n    tag_340:\n        /* \"#utility.yul\":1555:1562   */\n      0x00\n        /* \"#utility.yul\":1584:1589   */\n      dup2\n        /* \"#utility.yul\":1573:1589   */\n      swap1\n      pop\n        /* \"#utility.yul\":1518:1595   */\n      swap2\n      swap1\n      pop\n      jump\t// out\n        /* \"#utility.yul\":1601:1723   */\n    tag_341:\n        /* \"#utility.yul\":1674:1698   */\n      tag_399\n        /* \"#utility.yul\":1692:1697   */\n      dup2\n        /* \"#utility.yul\":1674:1698   */\n      tag_340\n      jump\t// in\n    tag_399:\n        /* \"#utility.yul\":1667:1672   */\n      dup2\n        /* \"#utility.yul\":1664:1699   */\n      eq\n        /* \"#utility.yul\":1654:1717   */\n      tag_400\n      jumpi\n        /* \"#utility.yul\":1713:1714   */\n      0x00\n        /* \"#utility.yul\":1710:1711   */\n      dup1\n        /* \"#utility.yul\":1703:1715   */\n      revert\n        /* \"#utility.yul\":1654:1717   */\n    tag_400:\n        /* \"#utility.yul\":1601:1723   */\n      pop\n      jump\t// out\n        /* \"#utility.yul\":1729:1868   */\n    tag_342:\n        /* \"#utility.yul\":1775:1780   */\n      0x00\n        /* \"#utility.yul\":1813:1819   */\n      dup2\n        /* \"#utility.yul\":1800:1820   */\n      calldataload\n        /* \"#utility.yul\":1791:1820   */\n      swap1\n      pop\n        /* \"#utility.yul\":1829:1862   */\n      tag_402\n        /* \"#utility.yul\":1856:1861   */\n      dup2\n        /* \"#utility.yul\":1829:1862   */\n      tag_341\n      jump\t// in\n    tag_402:\n        /* \"#utility.yul\":1729:1868   */\n      swap3\n      swap2\n      pop\n      pop\n      jump\t// out\n        /* \"#utility.yul\":1874:2203   */\n    tag_37:\n        /* \"#utility.yul\":1933:1939   */\n      0x00\n        /* \"#utility.yul\":1982:1984   */\n      0x20\n        /* \"#utility.yul\":1970:1979   */\n      dup3\n        /* \"#utility.yul\":1961:1968   */\n      dup5\n        /* \"#utility.yul\":1957:1980   */\n      sub\n        /* \"#utility.yul\":1953:1985   */\n      slt\n        /* \"#utility.yul\":1950:2069   */\n      iszero\n      tag_404\n      jumpi\n        /* \"#utility.yul\":1988:2067   */\n      tag_405\n      tag_333\n      jump\t// in\n    tag_405:\n        /* \"#utility.yul\":1950:2069   */\n    tag_404:\n        /* \"#utility.yul\":2108:2109   */\n      0x00\n        /* \"#utility.yul\":2133:2186   */\n      tag_406\n        /* \"#utility.yul\":2178:2185   */\n      dup5\n        /* \"#utility.yul\":2169:2175   */\n      dup3\n        /* \"#utility.yul\":2158:2167   */\n      dup6\n        /* \"#utility.yul\":2154:2176   */\n      add\n        /* \"#utility.yul\":2133:2186   */\n      tag_342\n      jump\t// in\n    tag_406:\n        /* \"#utility.yul\":2123:2186   */\n      swap2\n      pop\n        /* \"#utility.yul\":2079:2196   */\n      pop\n        /* \"#utility.yul\":1874:2203   */\n      swap3\n      swap2\n      pop\n      pop\n      jump\t// out\n        /* \"#utility.yul\":2209:2327   */\n    tag_343:\n        /* \"#utility.yul\":2296:2320   */\n      tag_408\n        /* \"#utility.yul\":2314:2319   */\n      dup2\n        /* \"#utility.yul\":2296:2320   */\n      tag_340\n      jump\t// in\n    tag_408:\n        /* \"#utility.yul\":2291:2294   */\n      dup3\n        /* \"#utility.yul\":2284:2321   */\n      mstore\n        /* \"#utility.yul\":2209:2327   */\n      pop\n      pop\n      jump\t// out\n        /* \"#utility.yul\":2333:2555   */\n    tag_40:\n        /* \"#utility.yul\":2426:2430   */\n      0x00\n        /* \"#utility.yul\":2464:2466   */\n      0x20\n        /* \"#utility.yul\":2453:2462   */\n      dup3\n        /* \"#utility.yul\":2449:2467   */\n      add\n        /* \"#utility.yul\":2441:2467   */\n      swap1\n      pop\n        /* \"#utility.yul\":2477:2548   */\n      tag_410\n        /* \"#utility.yul\":2545:2546   */\n      0x00\n        /* \"#utility.yul\":2534:2543   */\n      dup4\n        /* \"#utility.yul\":2530:2547   */\n      add\n        /* \"#utility.yul\":2521:2527   */\n      dup5\n        /* \"#utility.yul\":2477:2548   */\n      tag_343\n      jump\t// in\n    tag_410:\n        /* \"#utility.yul\":2333:2555   */\n      swap3\n      swap2\n      pop\n      pop\n      jump\t// out\n        /* \"#utility.yul\":2561:2638   */\n    tag_344:\n        /* \"#utility.yul\":2598:2605   */\n      0x00\n        /* \"#utility.yul\":2627:2632   */\n      dup2\n        /* \"#utility.yul\":2616:2632   */\n      swap1\n      pop\n        /* \"#utility.yul\":2561:2638   */\n      swap2\n      swap1\n      pop\n      jump\t// out\n        /* \"#utility.yul\":2644:2762   */\n    tag_345:\n        /* \"#utility.yul\":2731:2755   */\n      tag_413\n        /* \"#utility.yul\":2749:2754   */\n      dup2\n        /* \"#utility.yul\":2731:2755   */\n      tag_344\n      jump\t// in\n    tag_413:\n        /* \"#utility.yul\":2726:2729   */\n      dup3\n        /* \"#utility.yul\":2719:2756   */\n      mstore\n        /* \"#utility.yul\":2644:2762   */\n      pop\n      pop\n      jump\t// out\n        /* \"#utility.yul\":2768:2990   */\n    tag_45:\n        /* \"#utility.yul\":2861:2865   */\n      0x00\n        /* \"#utility.yul\":2899:2901   */\n      0x20\n        /* \"#utility.yul\":2888:2897   */\n      dup3\n        /* \"#utility.yul\":2884:2902   */\n      add\n        /* \"#utility.yul\":2876:2902   */\n      swap1\n      pop\n        /* \"#utility.yul\":2912:2983   */\n      tag_415\n        /* \"#utility.yul\":2980:2981   */\n      0x00\n        /* \"#utility.yul\":2969:2978   */\n      dup4\n        /* \"#utility.yul\":2965:2982   */\n      add\n        /* \"#utility.yul\":2956:2962   */\n      dup5\n        /* \"#utility.yul\":2912:2983   */\n      tag_345\n      jump\t// in\n    tag_415:\n        /* \"#utility.yul\":2768:2990   */\n      swap3\n      swap2\n      pop\n      pop\n      jump\t// out\n        /* \"#utility.yul\":2996:3122   */\n    tag_346:\n        /* \"#utility.yul\":3033:3040   */\n      0x00\n        /* \"#utility.yul\":3073:3115   */\n      0xffffffffffffffffffffffffffffffffffffffff\n        /* \"#utility.yul\":3066:3071   */\n      dup3\n        /* \"#utility.yul\":3062:3116   */\n      and\n        /* \"#utility.yul\":3051:3116   */\n      swap1\n      pop\n        /* \"#utility.yul\":2996:3122   */\n      swap2\n      swap1\n      pop\n      jump\t// out\n        /* \"#utility.yul\":3128:3224   */\n    tag_347:\n        /* \"#utility.yul\":3165:3172   */\n      0x00\n        /* \"#utility.yul\":3194:3218   */\n      tag_418\n        /* \"#utility.yul\":3212:3217   */\n      dup3\n        /* \"#utility.yul\":3194:3218   */\n      tag_346\n      jump\t// in\n    tag_418:\n        /* \"#utility.yul\":3183:3218   */\n      swap1\n      pop\n        /* \"#utility.yul\":3128:3224   */\n      swap2\n      swap1\n      pop\n      jump\t// out\n        /* \"#utility.yul\":3230:3352   */\n    tag_348:\n        /* \"#utility.yul\":3303:3327   */\n      tag_420\n        /* \"#utility.yul\":3321:3326   */\n      dup2\n        /* \"#utility.yul\":3303:3327   */\n      tag_347\n      jump\t// in\n    tag_420:\n        /* \"#utility.yul\":3296:3301   */\n      dup2\n        /* \"#utility.yul\":3293:3328   */\n      eq\n        /* \"#utility.yul\":3283:3346   */\n      tag_421\n      jumpi\n        /* \"#utility.yul\":3342:3343   */\n      0x00\n        /* \"#utility.yul\":3339:3340   */\n      dup1\n        /* \"#utility.yul\":3332:3344   */\n      revert\n        /* \"#utility.yul\":3283:3346   */\n    tag_421:\n        /* \"#utility.yul\":3230:3352   */\n      pop\n      jump\t// out\n        /* \"#utility.yul\":3358:3497   */\n    tag_349:\n        /* \"#utility.yul\":3404:3409   */\n      0x00\n        /* \"#utility.yul\":3442:3448   */\n      dup2\n        /* \"#utility.yul\":3429:3449   */\n      calldataload\n        /* \"#utility.yul\":3420:3449   */\n      swap1\n      pop\n        /* \"#utility.yul\":3458:3491   */\n      tag_423\n        /* \"#utility.yul\":3485:3490   */\n      dup2\n        /* \"#utility.yul\":3458:3491   */\n      tag_348\n      jump\t// in\n    tag_423:\n        /* \"#utility.yul\":3358:3497   */\n      swap3\n      swap2\n      pop\n      pop\n      jump\t// out\n        /* \"#utility.yul\":3503:3977   */\n    tag_53:\n        /* \"#utility.yul\":3571:3577   */\n      0x00\n        /* \"#utility.yul\":3579:3585   */\n      dup1\n        /* \"#utility.yul\":3628:3630   */\n      0x40\n        /* \"#utility.yul\":3616:3625   */\n      dup4\n        /* \"#utility.yul\":3607:3614   */\n      dup6\n        /* \"#utility.yul\":3603:3626   */\n      sub\n        /* \"#utility.yul\":3599:3631   */\n      slt\n        /* \"#utility.yul\":3596:3715   */\n      iszero\n      tag_425\n      jumpi\n        /* \"#utility.yul\":3634:3713   */\n      tag_426\n      tag_333\n      jump\t// in\n    tag_426:\n        /* \"#utility.yul\":3596:3715   */\n    tag_425:\n        /* \"#utility.yul\":3754:3755   */\n      0x00\n        /* \"#utility.yul\":3779:3832   */\n      tag_427\n        /* \"#utility.yul\":3824:3831   */\n      dup6\n        /* \"#utility.yul\":3815:3821   */\n      dup3\n        /* \"#utility.yul\":3804:3813   */\n      dup7\n        /* \"#utility.yul\":3800:3822   */\n      add\n        /* \"#utility.yul\":3779:3832   */\n      tag_342\n      jump\t// in\n    tag_427:\n        /* \"#utility.yul\":3769:3832   */\n      swap3\n      pop\n        /* \"#utility.yul\":3725:3842   */\n      pop\n        /* \"#utility.yul\":3881:3883   */\n      0x20\n        /* \"#utility.yul\":3907:3960   */\n      tag_428\n        /* \"#utility.yul\":3952:3959   */\n      dup6\n        /* \"#utility.yul\":3943:3949   */\n      dup3\n        /* \"#utility.yul\":3932:3941   */\n      dup7\n        /* \"#utility.yul\":3928:3950   */\n      add\n        /* \"#utility.yul\":3907:3960   */\n      tag_349\n      jump\t// in\n    tag_428:\n        /* \"#utility.yul\":3897:3960   */\n      swap2\n      pop\n        /* \"#utility.yul\":3852:3970   */\n      pop\n        /* \"#utility.yul\":3503:3977   */\n      swap3\n      pop\n      swap3\n      swap1\n      pop\n      jump\t// out\n        /* \"#utility.yul\":3983:4069   */\n    tag_350:\n        /* \"#utility.yul\":4018:4025   */\n      0x00\n        /* \"#utility.yul\":4058:4062   */\n      0xff\n        /* \"#utility.yul\":4051:4056   */\n      dup3\n        /* \"#utility.yul\":4047:4063   */\n      and\n        /* \"#utility.yul\":4036:4063   */\n      swap1\n      pop\n        /* \"#utility.yul\":3983:4069   */\n      swap2\n      swap1\n      pop\n      jump\t// out\n        /* \"#utility.yul\":4075:4187   */\n    tag_351:\n        /* \"#utility.yul\":4158:4180   */\n      tag_431\n        /* \"#utility.yul\":4174:4179   */\n      dup2\n        /* \"#utility.yul\":4158:4180   */\n      tag_350\n      jump\t// in\n    tag_431:\n        /* \"#utility.yul\":4153:4156   */\n      dup3\n        /* \"#utility.yul\":4146:4181   */\n      mstore\n        /* \"#utility.yul\":4075:4187   */\n      pop\n      pop\n      jump\t// out\n        /* \"#utility.yul\":4193:4407   */\n    tag_59:\n        /* \"#utility.yul\":4282:4286   */\n      0x00\n        /* \"#utility.yul\":4320:4322   */\n      0x20\n        /* \"#utility.yul\":4309:4318   */\n      dup3\n        /* \"#utility.yul\":4305:4323   */\n      add\n        /* \"#utility.yul\":4297:4323   */\n      swap1\n      pop\n        /* \"#utility.yul\":4333:4400   */\n      tag_433\n        /* \"#utility.yul\":4397:4398   */\n      0x00\n        /* \"#utility.yul\":4386:4395   */\n      dup4\n        /* \"#utility.yul\":4382:4399   */\n      add\n        /* \"#utility.yul\":4373:4379   */\n      dup5\n        /* \"#utility.yul\":4333:4400   */\n      tag_351\n      jump\t// in\n    tag_433:\n        /* \"#utility.yul\":4193:4407   */\n      swap3\n      swap2\n      pop\n      pop\n      jump\t// out\n        /* \"#utility.yul\":4413:4531   */\n    tag_352:\n        /* \"#utility.yul\":4500:4524   */\n      tag_435\n        /* \"#utility.yul\":4518:4523   */\n      dup2\n        /* \"#utility.yul\":4500:4524   */\n      tag_347\n      jump\t// in\n    tag_435:\n        /* \"#utility.yul\":4495:4498   */\n      dup3\n        /* \"#utility.yul\":4488:4525   */\n      mstore\n        /* \"#utility.yul\":4413:4531   */\n      pop\n      pop\n      jump\t// out\n        /* \"#utility.yul\":4537:4759   */\n    tag_64:\n        /* \"#utility.yul\":4630:4634   */\n      0x00\n        /* \"#utility.yul\":4668:4670   */\n      0x20\n        /* \"#utility.yul\":4657:4666   */\n      dup3\n        /* \"#utility.yul\":4653:4671   */\n      add\n        /* \"#utility.yul\":4645:4671   */\n      swap1\n      pop\n        /* \"#utility.yul\":4681:4752   */\n      tag_437\n        /* \"#utility.yul\":4749:4750   */\n      0x00\n        /* \"#utility.yul\":4738:4747   */\n      dup4\n        /* \"#utility.yul\":4734:4751   */\n      add\n        /* \"#utility.yul\":4725:4731   */\n      dup5\n        /* \"#utility.yul\":4681:4752   */\n      tag_352\n      jump\t// in\n    tag_437:\n        /* \"#utility.yul\":4537:4759   */\n      swap3\n      swap2\n      pop\n      pop\n      jump\t// out\n        /* \"#utility.yul\":4765:4887   */\n    tag_353:\n        /* \"#utility.yul\":4838:4862   */\n      tag_439\n        /* \"#utility.yul\":4856:4861   */\n      dup2\n        /* \"#utility.yul\":4838:4862   */\n      tag_344\n      jump\t// in\n    tag_439:\n        /* \"#utility.yul\":4831:4836   */\n      dup2\n        /* \"#utility.yul\":4828:4863   */\n      eq\n        /* \"#utility.yul\":4818:4881   */\n      tag_440\n      jumpi\n        /* \"#utility.yul\":4877:4878   */\n      0x00\n        /* \"#utility.yul\":4874:4875   */\n      dup1\n        /* \"#utility.yul\":4867:4879   */\n      revert\n        /* \"#utility.yul\":4818:4881   */\n    tag_440:\n        /* \"#utility.yul\":4765:4887   */\n      pop\n      jump\t// out\n        /* \"#utility.yul\":4893:5032   */\n    tag_354:\n        /* \"#utility.yul\":4939:4944   */\n      0x00\n        /* \"#utility.yul\":4977:4983   */\n      dup2\n        /* \"#utility.yul\":4964:4984   */\n      calldataload\n        /* \"#utility.yul\":4955:4984   */\n      swap1\n      pop\n        /* \"#utility.yul\":4993:5026   */\n      tag_442\n        /* \"#utility.yul\":5020:5025   */\n      dup2\n        /* \"#utility.yul\":4993:5026   */\n      tag_353\n      jump\t// in\n    tag_442:\n        /* \"#utility.yul\":4893:5032   */\n      swap3\n      swap2\n      pop\n      pop\n      jump\t// out\n        /* \"#utility.yul\":5038:5512   */\n    tag_68:\n        /* \"#utility.yul\":5106:5112   */\n      0x00\n        /* \"#utility.yul\":5114:5120   */\n      dup1\n        /* \"#utility.yul\":5163:5165   */\n      0x40\n        /* \"#utility.yul\":5151:5160   */\n      dup4\n        /* \"#utility.yul\":5142:5149   */\n      dup6\n        /* \"#utility.yul\":5138:5161   */\n      sub\n        /* \"#utility.yul\":5134:5166   */\n      slt\n        /* \"#utility.yul\":5131:5250   */\n      iszero\n      tag_444\n      jumpi\n        /* \"#utility.yul\":5169:5248   */\n      tag_445\n      tag_333\n      jump\t// in\n    tag_445:\n        /* \"#utility.yul\":5131:5250   */\n    tag_444:\n        /* \"#utility.yul\":5289:5290   */\n      0x00\n        /* \"#utility.yul\":5314:5367   */\n      tag_446\n        /* \"#utility.yul\":5359:5366   */\n      dup6\n        /* \"#utility.yul\":5350:5356   */\n      dup3\n        /* \"#utility.yul\":5339:5348   */\n      dup7\n        /* \"#utility.yul\":5335:5357   */\n      add\n        /* \"#utility.yul\":5314:5367   */\n      tag_349\n      jump\t// in\n    tag_446:\n        /* \"#utility.yul\":5304:5367   */\n      swap3\n      pop\n        /* \"#utility.yul\":5260:5377   */\n      pop\n        /* \"#utility.yul\":5416:5418   */\n      0x20\n        /* \"#utility.yul\":5442:5495   */\n      tag_447\n        /* \"#utility.yul\":5487:5494   */\n      dup6\n        /* \"#utility.yul\":5478:5484   */\n      dup3\n        /* \"#utility.yul\":5467:5476   */\n      dup7\n        /* \"#utility.yul\":5463:5485   */\n      add\n        /* \"#utility.yul\":5442:5495   */\n      tag_354\n      jump\t// in\n    tag_447:\n        /* \"#utility.yul\":5432:5495   */\n      swap2\n      pop\n        /* \"#utility.yul\":5387:5505   */\n      pop\n        /* \"#utility.yul\":5038:5512   */\n      swap3\n      pop\n      swap3\n      swap1\n      pop\n      jump\t// out\n        /* \"#utility.yul\":5518:5634   */\n    tag_355:\n        /* \"#utility.yul\":5588:5609   */\n      tag_449\n        /* \"#utility.yul\":5603:5608   */\n      dup2\n        /* \"#utility.yul\":5588:5609   */\n      tag_338\n      jump\t// in\n    tag_449:\n        /* \"#utility.yul\":5581:5586   */\n      dup2\n        /* \"#utility.yul\":5578:5610   */\n      eq\n        /* \"#utility.yul\":5568:5628   */\n      tag_450\n      jumpi\n        /* \"#utility.yul\":5624:5625   */\n      0x00\n        /* \"#utility.yul\":5621:5622   */\n      dup1\n        /* \"#utility.yul\":5614:5626   */\n      revert\n        /* \"#utility.yul\":5568:5628   */\n    tag_450:\n        /* \"#utility.yul\":5518:5634   */\n      pop\n      jump\t// out\n        /* \"#utility.yul\":5640:5773   */\n    tag_356:\n        /* \"#utility.yul\":5683:5688   */\n      0x00\n        /* \"#utility.yul\":5721:5727   */\n      dup2\n        /* \"#utility.yul\":5708:5728   */\n      calldataload\n        /* \"#utility.yul\":5699:5728   */\n      swap1\n      pop\n        /* \"#utility.yul\":5737:5767   */\n      tag_452\n        /* \"#utility.yul\":5761:5766   */\n      dup2\n        /* \"#utility.yul\":5737:5767   */\n      tag_355\n      jump\t// in\n    tag_452:\n        /* \"#utility.yul\":5640:5773   */\n      swap3\n      swap2\n      pop\n      pop\n      jump\t// out\n        /* \"#utility.yul\":5779:5897   */\n    tag_357:\n        /* \"#utility.yul\":5850:5872   */\n      tag_454\n        /* \"#utility.yul\":5866:5871   */\n      dup2\n        /* \"#utility.yul\":5850:5872   */\n      tag_350\n      jump\t// in\n    tag_454:\n        /* \"#utility.yul\":5843:5848   */\n      dup2\n        /* \"#utility.yul\":5840:5873   */\n      eq\n        /* \"#utility.yul\":5830:5891   */\n      tag_455\n      jumpi\n        /* \"#utility.yul\":5887:5888   */\n      0x00\n        /* \"#utility.yul\":5884:5885   */\n      dup1\n        /* \"#utility.yul\":5877:5889   */\n      revert\n        /* \"#utility.yul\":5830:5891   */\n    tag_455:\n        /* \"#utility.yul\":5779:5897   */\n      pop\n      jump\t// out\n        /* \"#utility.yul\":5903:6038   */\n    tag_358:\n        /* \"#utility.yul\":5947:5952   */\n      0x00\n        /* \"#utility.yul\":5985:5991   */\n      dup2\n        /* \"#utility.yul\":5972:5992   */\n      calldataload\n        /* \"#utility.yul\":5963:5992   */\n      swap1\n      pop\n        /* \"#utility.yul\":6001:6032   */\n      tag_457\n        /* \"#utility.yul\":6026:6031   */\n      dup2\n        /* \"#utility.yul\":6001:6032   */\n      tag_357\n      jump\t// in\n    tag_457:\n        /* \"#utility.yul\":5903:6038   */\n      swap3\n      swap2\n      pop\n      pop\n      jump\t// out\n        /* \"#utility.yul\":6044:6945   */\n    tag_88:\n        /* \"#utility.yul\":6134:6140   */\n      0x00\n        /* \"#utility.yul\":6142:6148   */\n      dup1\n        /* \"#utility.yul\":6150:6156   */\n      0x00\n        /* \"#utility.yul\":6158:6164   */\n      dup1\n        /* \"#utility.yul\":6166:6172   */\n      0x00\n        /* \"#utility.yul\":6215:6218   */\n      0xa0\n        /* \"#utility.yul\":6203:6212   */\n      dup7\n        /* \"#utility.yul\":6194:6201   */\n      dup9\n        /* \"#utility.yul\":6190:6213   */\n      sub\n        /* \"#utility.yul\":6186:6219   */\n      slt\n        /* \"#utility.yul\":6183:6303   */\n      iszero\n      tag_459\n      jumpi\n        /* \"#utility.yul\":6222:6301   */\n      tag_460\n      tag_333\n      jump\t// in\n    tag_460:\n        /* \"#utility.yul\":6183:6303   */\n    tag_459:\n        /* \"#utility.yul\":6342:6343   */\n      0x00\n        /* \"#utility.yul\":6367:6420   */\n      tag_461\n        /* \"#utility.yul\":6412:6419   */\n      dup9\n        /* \"#utility.yul\":6403:6409   */\n      dup3\n        /* \"#utility.yul\":6392:6401   */\n      dup10\n        /* \"#utility.yul\":6388:6410   */\n      add\n        /* \"#utility.yul\":6367:6420   */\n      tag_349\n      jump\t// in\n    tag_461:\n        /* \"#utility.yul\":6357:6420   */\n      swap6\n      pop\n        /* \"#utility.yul\":6313:6430   */\n      pop\n        /* \"#utility.yul\":6469:6471   */\n      0x20\n        /* \"#utility.yul\":6495:6545   */\n      tag_462\n        /* \"#utility.yul\":6537:6544   */\n      dup9\n        /* \"#utility.yul\":6528:6534   */\n      dup3\n        /* \"#utility.yul\":6517:6526   */\n      dup10\n        /* \"#utility.yul\":6513:6535   */\n      add\n        /* \"#utility.yul\":6495:6545   */\n      tag_356\n      jump\t// in\n    tag_462:\n        /* \"#utility.yul\":6485:6545   */\n      swap5\n      pop\n        /* \"#utility.yul\":6440:6555   */\n      pop\n        /* \"#utility.yul\":6594:6596   */\n      0x40\n        /* \"#utility.yul\":6620:6671   */\n      tag_463\n        /* \"#utility.yul\":6663:6670   */\n      dup9\n        /* \"#utility.yul\":6654:6660   */\n      dup3\n        /* \"#utility.yul\":6643:6652   */\n      dup10\n        /* \"#utility.yul\":6639:6661   */\n      add\n        /* \"#utility.yul\":6620:6671   */\n      tag_358\n      jump\t// in\n    tag_463:\n        /* \"#utility.yul\":6610:6671   */\n      swap4\n      pop\n        /* \"#utility.yul\":6565:6681   */\n      pop\n        /* \"#utility.yul\":6720:6722   */\n      0x60\n        /* \"#utility.yul\":6746:6799   */\n      tag_464\n        /* \"#utility.yul\":6791:6798   */\n      dup9\n        /* \"#utility.yul\":6782:6788   */\n      dup3\n        /* \"#utility.yul\":6771:6780   */\n      dup10\n        /* \"#utility.yul\":6767:6789   */\n      add\n        /* \"#utility.yul\":6746:6799   */\n      tag_354\n      jump\t// in\n    tag_464:\n        /* \"#utility.yul\":6736:6799   */\n      swap3\n      pop\n        /* \"#utility.yul\":6691:6809   */\n      pop\n        /* \"#utility.yul\":6848:6851   */\n      0x80\n        /* \"#utility.yul\":6875:6928   */\n      tag_465\n        /* \"#utility.yul\":6920:6927   */\n      dup9\n        /* \"#utility.yul\":6911:6917   */\n      dup3\n        /* \"#utility.yul\":6900:6909   */\n      dup10\n        /* \"#utility.yul\":6896:6918   */\n      add\n        /* \"#utility.yul\":6875:6928   */\n      tag_349\n      jump\t// in\n    tag_465:\n        /* \"#utility.yul\":6865:6928   */\n      swap2\n      pop\n        /* \"#utility.yul\":6819:6938   */\n      pop\n        /* \"#utility.yul\":6044:6945   */\n      swap3\n      swap6\n      pop\n      swap3\n      swap6\n      swap1\n      swap4\n      pop\n      jump\t// out\n        /* \"#utility.yul\":6951:7280   */\n    tag_101:\n        /* \"#utility.yul\":7010:7016   */\n      0x00\n        /* \"#utility.yul\":7059:7061   */\n      0x20\n        /* \"#utility.yul\":7047:7056   */\n      dup3\n        /* \"#utility.yul\":7038:7045   */\n      dup5\n        /* \"#utility.yul\":7034:7057   */\n      sub\n        /* \"#utility.yul\":7030:7062   */\n      slt\n        /* \"#utility.yul\":7027:7146   */\n      iszero\n      tag_467\n      jumpi\n        /* \"#utility.yul\":7065:7144   */\n      tag_468\n      tag_333\n      jump\t// in\n    tag_468:\n        /* \"#utility.yul\":7027:7146   */\n    tag_467:\n        /* \"#utility.yul\":7185:7186   */\n      0x00\n        /* \"#utility.yul\":7210:7263   */\n      tag_469\n        /* \"#utility.yul\":7255:7262   */\n      dup5\n        /* \"#utility.yul\":7246:7252   */\n      dup3\n        /* \"#utility.yul\":7235:7244   */\n      dup6\n        /* \"#utility.yul\":7231:7253   */\n      add\n        /* \"#utility.yul\":7210:7263   */\n      tag_354\n      jump\t// in\n    tag_469:\n        /* \"#utility.yul\":7200:7263   */\n      swap2\n      pop\n        /* \"#utility.yul\":7156:7273   */\n      pop\n        /* \"#utility.yul\":6951:7280   */\n      swap3\n      swap2\n      pop\n      pop\n      jump\t// out\n        /* \"#utility.yul\":7286:7760   */\n    tag_114:\n        /* \"#utility.yul\":7354:7360   */\n      0x00\n        /* \"#utility.yul\":7362:7368   */\n      dup1\n        /* \"#utility.yul\":7411:7413   */\n      0x40\n        /* \"#utility.yul\":7399:7408   */\n      dup4\n        /* \"#utility.yul\":7390:7397   */\n      dup6\n        /* \"#utility.yul\":7386:7409   */\n      sub\n        /* \"#utility.yul\":7382:7414   */\n      slt\n        /* \"#utility.yul\":7379:7498   */\n      iszero\n      tag_471\n      jumpi\n        /* \"#utility.yul\":7417:7496   */\n      tag_472\n      tag_333\n      jump\t// in\n    tag_472:\n        /* \"#utility.yul\":7379:7498   */\n    tag_471:\n        /* \"#utility.yul\":7537:7538   */\n      0x00\n        /* \"#utility.yul\":7562:7615   */\n      tag_473\n        /* \"#utility.yul\":7607:7614   */\n      dup6\n        /* \"#utility.yul\":7598:7604   */\n      dup3\n        /* \"#utility.yul\":7587:7596   */\n      dup7\n        /* \"#utility.yul\":7583:7605   */\n      add\n        /* \"#utility.yul\":7562:7615   */\n      tag_349\n      jump\t// in\n    tag_473:\n        /* \"#utility.yul\":7552:7615   */\n      swap3\n      pop\n        /* \"#utility.yul\":7508:7625   */\n      pop\n        /* \"#utility.yul\":7664:7666   */\n      0x20\n        /* \"#utility.yul\":7690:7743   */\n      tag_474\n        /* \"#utility.yul\":7735:7742   */\n      dup6\n        /* \"#utility.yul\":7726:7732   */\n      dup3\n        /* \"#utility.yul\":7715:7724   */\n      dup7\n        /* \"#utility.yul\":7711:7733   */\n      add\n        /* \"#utility.yul\":7690:7743   */\n      tag_349\n      jump\t// in\n    tag_474:\n        /* \"#utility.yul\":7680:7743   */\n      swap2\n      pop\n        /* \"#utility.yul\":7635:7753   */\n      pop\n        /* \"#utility.yul\":7286:7760   */\n      swap3\n      pop\n      swap3\n      swap1\n      pop\n      jump\t// out\n        /* \"#utility.yul\":7766:8095   */\n    tag_120:\n        /* \"#utility.yul\":7825:7831   */\n      0x00\n        /* \"#utility.yul\":7874:7876   */\n      0x20\n        /* \"#utility.yul\":7862:7871   */\n      dup3\n        /* \"#utility.yul\":7853:7860   */\n      dup5\n        /* \"#utility.yul\":7849:7872   */\n      sub\n        /* \"#utility.yul\":7845:7877   */\n      slt\n        /* \"#utility.yul\":7842:7961   */\n      iszero\n      tag_476\n      jumpi\n        /* \"#utility.yul\":7880:7959   */\n      tag_477\n      tag_333\n      jump\t// in\n    tag_477:\n        /* \"#utility.yul\":7842:7961   */\n    tag_476:\n        /* \"#utility.yul\":8000:8001   */\n      0x00\n        /* \"#utility.yul\":8025:8078   */\n      tag_478\n        /* \"#utility.yul\":8070:8077   */\n      dup5\n        /* \"#utility.yul\":8061:8067   */\n      dup3\n        /* \"#utility.yul\":8050:8059   */\n      dup6\n        /* \"#utility.yul\":8046:8068   */\n      add\n        /* \"#utility.yul\":8025:8078   */\n      tag_349\n      jump\t// in\n    tag_478:\n        /* \"#utility.yul\":8015:8078   */\n      swap2\n      pop\n        /* \"#utility.yul\":7971:8088   */\n      pop\n        /* \"#utility.yul\":7766:8095   */\n      swap3\n      swap2\n      pop\n      pop\n      jump\t// out\n        /* \"#utility.yul\":8101:8733   */\n    tag_132:\n        /* \"#utility.yul\":8290:8294   */\n      0x00\n        /* \"#utility.yul\":8328:8331   */\n      0xa0\n        /* \"#utility.yul\":8317:8326   */\n      dup3\n        /* \"#utility.yul\":8313:8332   */\n      add\n        /* \"#utility.yul\":8305:8332   */\n      swap1\n      pop\n        /* \"#utility.yul\":8342:8407   */\n      tag_480\n        /* \"#utility.yul\":8404:8405   */\n      0x00\n        /* \"#utility.yul\":8393:8402   */\n      dup4\n        /* \"#utility.yul\":8389:8406   */\n      add\n        /* \"#utility.yul\":8380:8386   */\n      dup9\n        /* \"#utility.yul\":8342:8407   */\n      tag_339\n      jump\t// in\n    tag_480:\n        /* \"#utility.yul\":8417:8483   */\n      tag_481\n        /* \"#utility.yul\":8479:8481   */\n      0x20\n        /* \"#utility.yul\":8468:8477   */\n      dup4\n        /* \"#utility.yul\":8464:8482   */\n      add\n        /* \"#utility.yul\":8455:8461   */\n      dup8\n        /* \"#utility.yul\":8417:8483   */\n      tag_339\n      jump\t// in\n    tag_481:\n        /* \"#utility.yul\":8493:8561   */\n      tag_482\n        /* \"#utility.yul\":8557:8559   */\n      0x40\n        /* \"#utility.yul\":8546:8555   */\n      dup4\n        /* \"#utility.yul\":8542:8560   */\n      add\n        /* \"#utility.yul\":8533:8539   */\n      dup7\n        /* \"#utility.yul\":8493:8561   */\n      tag_351\n      jump\t// in\n    tag_482:\n        /* \"#utility.yul\":8571:8643   */\n      tag_483\n        /* \"#utility.yul\":8639:8641   */\n      0x60\n        /* \"#utility.yul\":8628:8637   */\n      dup4\n        /* \"#utility.yul\":8624:8642   */\n      add\n        /* \"#utility.yul\":8615:8621   */\n      dup6\n        /* \"#utility.yul\":8571:8643   */\n      tag_345\n      jump\t// in\n    tag_483:\n        /* \"#utility.yul\":8653:8726   */\n      tag_484\n        /* \"#utility.yul\":8721:8724   */\n      0x80\n        /* \"#utility.yul\":8710:8719   */\n      dup4\n        /* \"#utility.yul\":8706:8725   */\n      add\n        /* \"#utility.yul\":8697:8703   */\n      dup5\n        /* \"#utility.yul\":8653:8726   */\n      tag_352\n      jump\t// in\n    tag_484:\n        /* \"#utility.yul\":8101:8733   */\n      swap7\n      swap6\n      pop\n      pop\n      pop\n      pop\n      pop\n      pop\n      jump\t// out\n        /* \"#utility.yul\":8739:8919   */\n    tag_359:\n        /* \"#utility.yul\":8787:8864   */\n      0x4e487b7100000000000000000000000000000000000000000000000000000000\n        /* \"#utility.yul\":8784:8785   */\n      0x00\n        /* \"#utility.yul\":8777:8865   */\n      mstore\n        /* \"#utility.yul\":8884:8888   */\n      0x11\n        /* \"#utility.yul\":8881:8882   */\n      0x04\n        /* \"#utility.yul\":8874:8889   */\n      mstore\n        /* \"#utility.yul\":8908:8912   */\n      0x24\n        /* \"#utility.yul\":8905:8906   */\n      0x00\n        /* \"#utility.yul\":8898:8913   */\n      revert\n        /* \"#utility.yul\":8925:9116   */\n    tag_160:\n        /* \"#utility.yul\":8965:8968   */\n      0x00\n        /* \"#utility.yul\":8984:9004   */\n      tag_487\n        /* \"#utility.yul\":9002:9003   */\n      dup3\n        /* \"#utility.yul\":8984:9004   */\n      tag_344\n      jump\t// in\n    tag_487:\n        /* \"#utility.yul\":8979:9004   */\n      swap2\n      pop\n        /* \"#utility.yul\":9018:9038   */\n      tag_488\n        /* \"#utility.yul\":9036:9037   */\n      dup4\n        /* \"#utility.yul\":9018:9038   */\n      tag_344\n      jump\t// in\n    tag_488:\n        /* \"#utility.yul\":9013:9038   */\n      swap3\n      pop\n        /* \"#utility.yul\":9061:9062   */\n      dup3\n        /* \"#utility.yul\":9058:9059   */\n      dup3\n        /* \"#utility.yul\":9054:9063   */\n      add\n        /* \"#utility.yul\":9047:9063   */\n      swap1\n      pop\n        /* \"#utility.yul\":9082:9085   */\n      dup1\n        /* \"#utility.yul\":9079:9080   */\n      dup3\n        /* \"#utility.yul\":9076:9086   */\n      gt\n        /* \"#utility.yul\":9073:9109   */\n      iszero\n      tag_489\n      jumpi\n        /* \"#utility.yul\":9089:9107   */\n      tag_490\n      tag_359\n      jump\t// in\n    tag_490:\n        /* \"#utility.yul\":9073:9109   */\n    tag_489:\n        /* \"#utility.yul\":8925:9116   */\n      swap3\n      swap2\n      pop\n      pop\n      jump\t// out\n        /* \"#utility.yul\":9122:9454   */\n    tag_163:\n        /* \"#utility.yul\":9243:9247   */\n      0x00\n        /* \"#utility.yul\":9281:9283   */\n      0x40\n        /* \"#utility.yul\":9270:9279   */\n      dup3\n        /* \"#utility.yul\":9266:9284   */\n      add\n        /* \"#utility.yul\":9258:9284   */\n      swap1\n      pop\n        /* \"#utility.yul\":9294:9365   */\n      tag_492\n        /* \"#utility.yul\":9362:9363   */\n      0x00\n        /* \"#utility.yul\":9351:9360   */\n      dup4\n        /* \"#utility.yul\":9347:9364   */\n      add\n        /* \"#utility.yul\":9338:9344   */\n      dup6\n        /* \"#utility.yul\":9294:9365   */\n      tag_345\n      jump\t// in\n    tag_492:\n        /* \"#utility.yul\":9375:9447   */\n      tag_493\n        /* \"#utility.yul\":9443:9445   */\n      0x20\n        /* \"#utility.yul\":9432:9441   */\n      dup4\n        /* \"#utility.yul\":9428:9446   */\n      add\n        /* \"#utility.yul\":9419:9425   */\n      dup5\n        /* \"#utility.yul\":9375:9447   */\n      tag_345\n      jump\t// in\n    tag_493:\n        /* \"#utility.yul\":9122:9454   */\n      swap4\n      swap3\n      pop\n      pop\n      pop\n      jump\t// out\n        /* \"#utility.yul\":9460:9902   */\n    tag_168:\n        /* \"#utility.yul\":9609:9613   */\n      0x00\n        /* \"#utility.yul\":9647:9649   */\n      0x60\n        /* \"#utility.yul\":9636:9645   */\n      dup3\n        /* \"#utility.yul\":9632:9650   */\n      add\n        /* \"#utility.yul\":9624:9650   */\n      swap1\n      pop\n        /* \"#utility.yul\":9660:9731   */\n      tag_495\n        /* \"#utility.yul\":9728:9729   */\n      0x00\n        /* \"#utility.yul\":9717:9726   */\n      dup4\n        /* \"#utility.yul\":9713:9730   */\n      add\n        /* \"#utility.yul\":9704:9710   */\n      dup7\n        /* \"#utility.yul\":9660:9731   */\n      tag_345\n      jump\t// in\n    tag_495:\n        /* \"#utility.yul\":9741:9813   */\n      tag_496\n        /* \"#utility.yul\":9809:9811   */\n      0x20\n        /* \"#utility.yul\":9798:9807   */\n      dup4\n        /* \"#utility.yul\":9794:9812   */\n      add\n        /* \"#utility.yul\":9785:9791   */\n      dup6\n        /* \"#utility.yul\":9741:9813   */\n      tag_345\n      jump\t// in\n    tag_496:\n        /* \"#utility.yul\":9823:9895   */\n      tag_497\n        /* \"#utility.yul\":9891:9893   */\n      0x40\n        /* \"#utility.yul\":9880:9889   */\n      dup4\n        /* \"#utility.yul\":9876:9894   */\n      add\n        /* \"#utility.yul\":9867:9873   */\n      dup5\n        /* \"#utility.yul\":9823:9895   */\n      tag_345\n      jump\t// in\n    tag_497:\n        /* \"#utility.yul\":9460:9902   */\n      swap5\n      swap4\n      pop\n      pop\n      pop\n      pop\n      jump\t// out\n        /* \"#utility.yul\":9908:10047   */\n    tag_360:\n        /* \"#utility.yul\":9963:9968   */\n      0x00\n        /* \"#utility.yul\":9994:10000   */\n      dup2\n        /* \"#utility.yul\":9988:10001   */\n      mload\n        /* \"#utility.yul\":9979:10001   */\n      swap1\n      pop\n        /* \"#utility.yul\":10010:10041   */\n      tag_499\n        /* \"#utility.yul\":10035:10040   */\n      dup2\n        /* \"#utility.yul\":10010:10041   */\n      tag_357\n      jump\t// in\n    tag_499:\n        /* \"#utility.yul\":9908:10047   */\n      swap3\n      swap2\n      pop\n      pop\n      jump\t// out\n        /* \"#utility.yul\":10053:10400   */\n    tag_201:\n        /* \"#utility.yul\":10121:10127   */\n      0x00\n        /* \"#utility.yul\":10170:10172   */\n      0x20\n        /* \"#utility.yul\":10158:10167   */\n      dup3\n        /* \"#utility.yul\":10149:10156   */\n      dup5\n        /* \"#utility.yul\":10145:10168   */\n      sub\n        /* \"#utility.yul\":10141:10173   */\n      slt\n        /* \"#utility.yul\":10138:10257   */\n      iszero\n      tag_501\n      jumpi\n        /* \"#utility.yul\":10176:10255   */\n      tag_502\n      tag_333\n      jump\t// in\n    tag_502:\n        /* \"#utility.yul\":10138:10257   */\n    tag_501:\n        /* \"#utility.yul\":10296:10297   */\n      0x00\n        /* \"#utility.yul\":10321:10383   */\n      tag_503\n        /* \"#utility.yul\":10375:10382   */\n      dup5\n        /* \"#utility.yul\":10366:10372   */\n      dup3\n        /* \"#utility.yul\":10355:10364   */\n      dup6\n        /* \"#utility.yul\":10351:10373   */\n      add\n        /* \"#utility.yul\":10321:10383   */\n      tag_360\n      jump\t// in\n    tag_503:\n        /* \"#utility.yul\":10311:10383   */\n      swap2\n      pop\n        /* \"#utility.yul\":10267:10393   */\n      pop\n        /* \"#utility.yul\":10053:10400   */\n      swap3\n      swap2\n      pop\n      pop\n      jump\t// out\n        /* \"#utility.yul\":10406:10600   */\n    tag_226:\n        /* \"#utility.yul\":10446:10450   */\n      0x00\n        /* \"#utility.yul\":10466:10486   */\n      tag_505\n        /* \"#utility.yul\":10484:10485   */\n      dup3\n        /* \"#utility.yul\":10466:10486   */\n      tag_344\n      jump\t// in\n    tag_505:\n        /* \"#utility.yul\":10461:10486   */\n      swap2\n      pop\n        /* \"#utility.yul\":10500:10520   */\n      tag_506\n        /* \"#utility.yul\":10518:10519   */\n      dup4\n        /* \"#utility.yul\":10500:10520   */\n      tag_344\n      jump\t// in\n    tag_506:\n        /* \"#utility.yul\":10495:10520   */\n      swap3\n      pop\n        /* \"#utility.yul\":10544:10545   */\n      dup3\n        /* \"#utility.yul\":10541:10542   */\n      dup3\n        /* \"#utility.yul\":10537:10546   */\n      sub\n        /* \"#utility.yul\":10529:10546   */\n      swap1\n      pop\n        /* \"#utility.yul\":10568:10569   */\n      dup2\n        /* \"#utility.yul\":10562:10566   */\n      dup2\n        /* \"#utility.yul\":10559:10570   */\n      gt\n        /* \"#utility.yul\":10556:10593   */\n      iszero\n      tag_507\n      jumpi\n        /* \"#utility.yul\":10573:10591   */\n      tag_508\n      tag_359\n      jump\t// in\n    tag_508:\n        /* \"#utility.yul\":10556:10593   */\n    tag_507:\n        /* \"#utility.yul\":10406:10600   */\n      swap3\n      swap2\n      pop\n      pop\n      jump\t// out\n        /* \"#utility.yul\":10606:10753   */\n    tag_361:\n        /* \"#utility.yul\":10707:10718   */\n      0x00\n        /* \"#utility.yul\":10744:10747   */\n      dup2\n        /* \"#utility.yul\":10729:10747   */\n      swap1\n      pop\n        /* \"#utility.yul\":10606:10753   */\n      swap3\n      swap2\n      pop\n      pop\n      jump\t// out\n        /* \"#utility.yul\":10759:10873   */\n    tag_362:\n      pop\n      jump\t// out\n        /* \"#utility.yul\":10879:11277   */\n    tag_363:\n        /* \"#utility.yul\":11038:11041   */\n      0x00\n        /* \"#utility.yul\":11059:11142   */\n      tag_512\n        /* \"#utility.yul\":11140:11141   */\n      0x00\n        /* \"#utility.yul\":11135:11138   */\n      dup4\n        /* \"#utility.yul\":11059:11142   */\n      tag_361\n      jump\t// in\n    tag_512:\n        /* \"#utility.yul\":11052:11142   */\n      swap2\n      pop\n        /* \"#utility.yul\":11151:11244   */\n      tag_513\n        /* \"#utility.yul\":11240:11243   */\n      dup3\n        /* \"#utility.yul\":11151:11244   */\n      tag_362\n      jump\t// in\n    tag_513:\n        /* \"#utility.yul\":11269:11270   */\n      0x00\n        /* \"#utility.yul\":11264:11267   */\n      dup3\n        /* \"#utility.yul\":11260:11271   */\n      add\n        /* \"#utility.yul\":11253:11271   */\n      swap1\n      pop\n        /* \"#utility.yul\":10879:11277   */\n      swap2\n      swap1\n      pop\n      jump\t// out\n        /* \"#utility.yul\":11283:11662   */\n    tag_247:\n        /* \"#utility.yul\":11467:11470   */\n      0x00\n        /* \"#utility.yul\":11489:11636   */\n      tag_515\n        /* \"#utility.yul\":11632:11635   */\n      dup3\n        /* \"#utility.yul\":11489:11636   */\n      tag_363\n      jump\t// in\n    tag_515:\n        /* \"#utility.yul\":11482:11636   */\n      swap2\n      pop\n        /* \"#utility.yul\":11653:11656   */\n      dup2\n        /* \"#utility.yul\":11646:11656   */\n      swap1\n      pop\n        /* \"#utility.yul\":11283:11662   */\n      swap2\n      swap1\n      pop\n      jump\t// out\n        /* \"#utility.yul\":11668:11837   */\n    tag_364:\n        /* \"#utility.yul\":11752:11763   */\n      0x00\n        /* \"#utility.yul\":11786:11792   */\n      dup3\n        /* \"#utility.yul\":11781:11784   */\n      dup3\n        /* \"#utility.yul\":11774:11793   */\n      mstore\n        /* \"#utility.yul\":11826:11830   */\n      0x20\n        /* \"#utility.yul\":11821:11824   */\n      dup3\n        /* \"#utility.yul\":11817:11831   */\n      add\n        /* \"#utility.yul\":11802:11831   */\n      swap1\n      pop\n        /* \"#utility.yul\":11668:11837   */\n      swap3\n      swap2\n      pop\n      pop\n      jump\t// out\n        /* \"#utility.yul\":11843:12024   */\n    tag_365:\n        /* \"#utility.yul\":11983:12016   */\n      0x5265656e7472616e637947756172643a207265656e7472616e742063616c6c00\n        /* \"#utility.yul\":11979:11980   */\n      0x00\n        /* \"#utility.yul\":11971:11977   */\n      dup3\n        /* \"#utility.yul\":11967:11981   */\n      add\n        /* \"#utility.yul\":11960:12017   */\n      mstore\n        /* \"#utility.yul\":11843:12024   */\n      pop\n      jump\t// out\n        /* \"#utility.yul\":12030:12396   */\n    tag_366:\n        /* \"#utility.yul\":12172:12175   */\n      0x00\n        /* \"#utility.yul\":12193:12260   */\n      tag_519\n        /* \"#utility.yul\":12257:12259   */\n      0x1f\n        /* \"#utility.yul\":12252:12255   */\n      dup4\n        /* \"#utility.yul\":12193:12260   */\n      tag_364\n      jump\t// in\n    tag_519:\n        /* \"#utility.yul\":12186:12260   */\n      swap2\n      pop\n        /* \"#utility.yul\":12269:12362   */\n      tag_520\n        /* \"#utility.yul\":12358:12361   */\n      dup3\n        /* \"#utility.yul\":12269:12362   */\n      tag_365\n      jump\t// in\n    tag_520:\n        /* \"#utility.yul\":12387:12389   */\n      0x20\n        /* \"#utility.yul\":12382:12385   */\n      dup3\n        /* \"#utility.yul\":12378:12390   */\n      add\n        /* \"#utility.yul\":12371:12390   */\n      swap1\n      pop\n        /* \"#utility.yul\":12030:12396   */\n      swap2\n      swap1\n      pop\n      jump\t// out\n        /* \"#utility.yul\":12402:12821   */\n    tag_276:\n        /* \"#utility.yul\":12568:12572   */\n      0x00\n        /* \"#utility.yul\":12606:12608   */\n      0x20\n        /* \"#utility.yul\":12595:12604   */\n      dup3\n        /* \"#utility.yul\":12591:12609   */\n      add\n        /* \"#utility.yul\":12583:12609   */\n      swap1\n      pop\n        /* \"#utility.yul\":12655:12664   */\n      dup2\n        /* \"#utility.yul\":12649:12653   */\n      dup2\n        /* \"#utility.yul\":12645:12665   */\n      sub\n        /* \"#utility.yul\":12641:12642   */\n      0x00\n        /* \"#utility.yul\":12630:12639   */\n      dup4\n        /* \"#utility.yul\":12626:12643   */\n      add\n        /* \"#utility.yul\":12619:12666   */\n      mstore\n        /* \"#utility.yul\":12683:12814   */\n      tag_522\n        /* \"#utility.yul\":12809:12813   */\n      dup2\n        /* \"#utility.yul\":12683:12814   */\n      tag_366\n      jump\t// in\n    tag_522:\n        /* \"#utility.yul\":12675:12814   */\n      swap1\n      pop\n        /* \"#utility.yul\":12402:12821   */\n      swap2\n      swap1\n      pop\n      jump\t// out\n        /* \"#utility.yul\":12827:12932   */\n    tag_367:\n        /* \"#utility.yul\":12863:12870   */\n      0x00\n        /* \"#utility.yul\":12903:12925   */\n      0xffffffffffffffffffff\n        /* \"#utility.yul\":12896:12901   */\n      dup3\n        /* \"#utility.yul\":12892:12926   */\n      and\n        /* \"#utility.yul\":12881:12926   */\n      swap1\n      pop\n        /* \"#utility.yul\":12827:12932   */\n      swap2\n      swap1\n      pop\n      jump\t// out\n        /* \"#utility.yul\":12938:13058   */\n    tag_368:\n        /* \"#utility.yul\":13010:13033   */\n      tag_525\n        /* \"#utility.yul\":13027:13032   */\n      dup2\n        /* \"#utility.yul\":13010:13033   */\n      tag_367\n      jump\t// in\n    tag_525:\n        /* \"#utility.yul\":13003:13008   */\n      dup2\n        /* \"#utility.yul\":13000:13034   */\n      eq\n        /* \"#utility.yul\":12990:13052   */\n      tag_526\n      jumpi\n        /* \"#utility.yul\":13048:13049   */\n      0x00\n        /* \"#utility.yul\":13045:13046   */\n      dup1\n        /* \"#utility.yul\":13038:13050   */\n      revert\n        /* \"#utility.yul\":12990:13052   */\n    tag_526:\n        /* \"#utility.yul\":12938:13058   */\n      pop\n      jump\t// out\n        /* \"#utility.yul\":13064:13205   */\n    tag_369:\n        /* \"#utility.yul\":13120:13125   */\n      0x00\n        /* \"#utility.yul\":13151:13157   */\n      dup2\n        /* \"#utility.yul\":13145:13158   */\n      mload\n        /* \"#utility.yul\":13136:13158   */\n      swap1\n      pop\n        /* \"#utility.yul\":13167:13199   */\n      tag_528\n        /* \"#utility.yul\":13193:13198   */\n      dup2\n        /* \"#utility.yul\":13167:13199   */\n      tag_368\n      jump\t// in\n    tag_528:\n        /* \"#utility.yul\":13064:13205   */\n      swap3\n      swap2\n      pop\n      pop\n      jump\t// out\n        /* \"#utility.yul\":13211:13287   */\n    tag_370:\n        /* \"#utility.yul\":13247:13254   */\n      0x00\n        /* \"#utility.yul\":13276:13281   */\n      dup2\n        /* \"#utility.yul\":13265:13281   */\n      swap1\n      pop\n        /* \"#utility.yul\":13211:13287   */\n      swap2\n      swap1\n      pop\n      jump\t// out\n        /* \"#utility.yul\":13293:13413   */\n    tag_371:\n        /* \"#utility.yul\":13365:13388   */\n      tag_531\n        /* \"#utility.yul\":13382:13387   */\n      dup2\n        /* \"#utility.yul\":13365:13388   */\n      tag_370\n      jump\t// in\n    tag_531:\n        /* \"#utility.yul\":13358:13363   */\n      dup2\n        /* \"#utility.yul\":13355:13389   */\n      eq\n        /* \"#utility.yul\":13345:13407   */\n      tag_532\n      jumpi\n        /* \"#utility.yul\":13403:13404   */\n      0x00\n        /* \"#utility.yul\":13400:13401   */\n      dup1\n        /* \"#utility.yul\":13393:13405   */\n      revert\n        /* \"#utility.yul\":13345:13407   */\n    tag_532:\n        /* \"#utility.yul\":13293:13413   */\n      pop\n      jump\t// out\n        /* \"#utility.yul\":13419:13560   */\n    tag_372:\n        /* \"#utility.yul\":13475:13480   */\n      0x00\n        /* \"#utility.yul\":13506:13512   */\n      dup2\n        /* \"#utility.yul\":13500:13513   */\n      mload\n        /* \"#utility.yul\":13491:13513   */\n      swap1\n      pop\n        /* \"#utility.yul\":13522:13554   */\n      tag_534\n        /* \"#utility.yul\":13548:13553   */\n      dup2\n        /* \"#utility.yul\":13522:13554   */\n      tag_371\n      jump\t// in\n    tag_534:\n        /* \"#utility.yul\":13419:13560   */\n      swap3\n      swap2\n      pop\n      pop\n      jump\t// out\n        /* \"#utility.yul\":13566:13709   */\n    tag_373:\n        /* \"#utility.yul\":13623:13628   */\n      0x00\n        /* \"#utility.yul\":13654:13660   */\n      dup2\n        /* \"#utility.yul\":13648:13661   */\n      mload\n        /* \"#utility.yul\":13639:13661   */\n      swap1\n      pop\n        /* \"#utility.yul\":13670:13703   */\n      tag_536\n        /* \"#utility.yul\":13697:13702   */\n      dup2\n        /* \"#utility.yul\":13670:13703   */\n      tag_353\n      jump\t// in\n    tag_536:\n        /* \"#utility.yul\":13566:13709   */\n      swap3\n      swap2\n      pop\n      pop\n      jump\t// out\n        /* \"#utility.yul\":13715:14686   */\n    tag_284:\n        /* \"#utility.yul\":13818:13824   */\n      0x00\n        /* \"#utility.yul\":13826:13832   */\n      dup1\n        /* \"#utility.yul\":13834:13840   */\n      0x00\n        /* \"#utility.yul\":13842:13848   */\n      dup1\n        /* \"#utility.yul\":13850:13856   */\n      0x00\n        /* \"#utility.yul\":13899:13902   */\n      0xa0\n        /* \"#utility.yul\":13887:13896   */\n      dup7\n        /* \"#utility.yul\":13878:13885   */\n      dup9\n        /* \"#utility.yul\":13874:13897   */\n      sub\n        /* \"#utility.yul\":13870:13903   */\n      slt\n        /* \"#utility.yul\":13867:13987   */\n      iszero\n      tag_538\n      jumpi\n        /* \"#utility.yul\":13906:13985   */\n      tag_539\n      tag_333\n      jump\t// in\n    tag_539:\n        /* \"#utility.yul\":13867:13987   */\n    tag_538:\n        /* \"#utility.yul\":14026:14027   */\n      0x00\n        /* \"#utility.yul\":14051:14114   */\n      tag_540\n        /* \"#utility.yul\":14106:14113   */\n      dup9\n        /* \"#utility.yul\":14097:14103   */\n      dup3\n        /* \"#utility.yul\":14086:14095   */\n      dup10\n        /* \"#utility.yul\":14082:14104   */\n      add\n        /* \"#utility.yul\":14051:14114   */\n      tag_369\n      jump\t// in\n    tag_540:\n        /* \"#utility.yul\":14041:14114   */\n      swap6\n      pop\n        /* \"#utility.yul\":13997:14124   */\n      pop\n        /* \"#utility.yul\":14163:14165   */\n      0x20\n        /* \"#utility.yul\":14189:14252   */\n      tag_541\n        /* \"#utility.yul\":14244:14251   */\n      dup9\n        /* \"#utility.yul\":14235:14241   */\n      dup3\n        /* \"#utility.yul\":14224:14233   */\n      dup10\n        /* \"#utility.yul\":14220:14242   */\n      add\n        /* \"#utility.yul\":14189:14252   */\n      tag_372\n      jump\t// in\n    tag_541:\n        /* \"#utility.yul\":14179:14252   */\n      swap5\n      pop\n        /* \"#utility.yul\":14134:14262   */\n      pop\n        /* \"#utility.yul\":14301:14303   */\n      0x40\n        /* \"#utility.yul\":14327:14391   */\n      tag_542\n        /* \"#utility.yul\":14383:14390   */\n      dup9\n        /* \"#utility.yul\":14374:14380   */\n      dup3\n        /* \"#utility.yul\":14363:14372   */\n      dup10\n        /* \"#utility.yul\":14359:14381   */\n      add\n        /* \"#utility.yul\":14327:14391   */\n      tag_373\n      jump\t// in\n    tag_542:\n        /* \"#utility.yul\":14317:14391   */\n      swap4\n      pop\n        /* \"#utility.yul\":14272:14401   */\n      pop\n        /* \"#utility.yul\":14440:14442   */\n      0x60\n        /* \"#utility.yul\":14466:14530   */\n      tag_543\n        /* \"#utility.yul\":14522:14529   */\n      dup9\n        /* \"#utility.yul\":14513:14519   */\n      dup3\n        /* \"#utility.yul\":14502:14511   */\n      dup10\n        /* \"#utility.yul\":14498:14520   */\n      add\n        /* \"#utility.yul\":14466:14530   */\n      tag_373\n      jump\t// in\n    tag_543:\n        /* \"#utility.yul\":14456:14530   */\n      swap3\n      pop\n        /* \"#utility.yul\":14411:14540   */\n      pop\n        /* \"#utility.yul\":14579:14582   */\n      0x80\n        /* \"#utility.yul\":14606:14669   */\n      tag_544\n        /* \"#utility.yul\":14661:14668   */\n      dup9\n        /* \"#utility.yul\":14652:14658   */\n      dup3\n        /* \"#utility.yul\":14641:14650   */\n      dup10\n        /* \"#utility.yul\":14637:14659   */\n      add\n        /* \"#utility.yul\":14606:14669   */\n      tag_369\n      jump\t// in\n    tag_544:\n        /* \"#utility.yul\":14596:14669   */\n      swap2\n      pop\n        /* \"#utility.yul\":14550:14679   */\n      pop\n        /* \"#utility.yul\":13715:14686   */\n      swap3\n      swap6\n      pop\n      swap3\n      swap6\n      swap1\n      swap4\n      pop\n      jump\t// out\n        /* \"#utility.yul\":14692:15102   */\n    tag_290:\n        /* \"#utility.yul\":14732:14739   */\n      0x00\n        /* \"#utility.yul\":14755:14775   */\n      tag_546\n        /* \"#utility.yul\":14773:14774   */\n      dup3\n        /* \"#utility.yul\":14755:14775   */\n      tag_344\n      jump\t// in\n    tag_546:\n        /* \"#utility.yul\":14750:14775   */\n      swap2\n      pop\n        /* \"#utility.yul\":14789:14809   */\n      tag_547\n        /* \"#utility.yul\":14807:14808   */\n      dup4\n        /* \"#utility.yul\":14789:14809   */\n      tag_344\n      jump\t// in\n    tag_547:\n        /* \"#utility.yul\":14784:14809   */\n      swap3\n      pop\n        /* \"#utility.yul\":14844:14845   */\n      dup3\n        /* \"#utility.yul\":14841:14842   */\n      dup3\n        /* \"#utility.yul\":14837:14846   */\n      mul\n        /* \"#utility.yul\":14866:14896   */\n      tag_548\n        /* \"#utility.yul\":14884:14895   */\n      dup2\n        /* \"#utility.yul\":14866:14896   */\n      tag_344\n      jump\t// in\n    tag_548:\n        /* \"#utility.yul\":14855:14896   */\n      swap2\n      pop\n        /* \"#utility.yul\":15045:15046   */\n      dup3\n        /* \"#utility.yul\":15036:15043   */\n      dup3\n        /* \"#utility.yul\":15032:15047   */\n      div\n        /* \"#utility.yul\":15029:15030   */\n      dup5\n        /* \"#utility.yul\":15026:15048   */\n      eq\n        /* \"#utility.yul\":15006:15007   */\n      dup4\n        /* \"#utility.yul\":14999:15008   */\n      iszero\n        /* \"#utility.yul\":14979:15062   */\n      or\n        /* \"#utility.yul\":14956:15095   */\n      tag_549\n      jumpi\n        /* \"#utility.yul\":15075:15093   */\n      tag_550\n      tag_359\n      jump\t// in\n    tag_550:\n        /* \"#utility.yul\":14956:15095   */\n    tag_549:\n        /* \"#utility.yul\":14740:15102   */\n      pop\n        /* \"#utility.yul\":14692:15102   */\n      swap3\n      swap2\n      pop\n      pop\n      jump\t// out\n        /* \"#utility.yul\":15108:15210   */\n    tag_374:\n        /* \"#utility.yul\":15150:15158   */\n      0x00\n        /* \"#utility.yul\":15197:15202   */\n      dup2\n        /* \"#utility.yul\":15194:15195   */\n      0x01\n        /* \"#utility.yul\":15190:15203   */\n      shr\n        /* \"#utility.yul\":15169:15203   */\n      swap1\n      pop\n        /* \"#utility.yul\":15108:15210   */\n      swap2\n      swap1\n      pop\n      jump\t// out\n        /* \"#utility.yul\":15216:16064   */\n    tag_375:\n        /* \"#utility.yul\":15277:15282   */\n      0x00\n        /* \"#utility.yul\":15284:15288   */\n      dup1\n        /* \"#utility.yul\":15308:15314   */\n      dup3\n        /* \"#utility.yul\":15299:15314   */\n      swap2\n      pop\n        /* \"#utility.yul\":15332:15337   */\n      dup4\n        /* \"#utility.yul\":15323:15337   */\n      swap1\n      pop\n        /* \"#utility.yul\":15346:16058   */\n    tag_553:\n        /* \"#utility.yul\":15367:15368   */\n      0x01\n        /* \"#utility.yul\":15357:15365   */\n      dup6\n        /* \"#utility.yul\":15354:15369   */\n      gt\n        /* \"#utility.yul\":15346:16058   */\n      iszero\n      tag_555\n      jumpi\n        /* \"#utility.yul\":15462:15466   */\n      dup1\n        /* \"#utility.yul\":15457:15460   */\n      dup7\n        /* \"#utility.yul\":15453:15467   */\n      div\n        /* \"#utility.yul\":15447:15451   */\n      dup2\n        /* \"#utility.yul\":15444:15468   */\n      gt\n        /* \"#utility.yul\":15441:15491   */\n      iszero\n      tag_556\n      jumpi\n        /* \"#utility.yul\":15471:15489   */\n      tag_557\n      tag_359\n      jump\t// in\n    tag_557:\n        /* \"#utility.yul\":15441:15491   */\n    tag_556:\n        /* \"#utility.yul\":15521:15522   */\n      0x01\n        /* \"#utility.yul\":15511:15519   */\n      dup6\n        /* \"#utility.yul\":15507:15523   */\n      and\n        /* \"#utility.yul\":15504:15955   */\n      iszero\n      tag_558\n      jumpi\n        /* \"#utility.yul\":15936:15940   */\n      dup1\n        /* \"#utility.yul\":15929:15934   */\n      dup3\n        /* \"#utility.yul\":15925:15941   */\n      mul\n        /* \"#utility.yul\":15916:15941   */\n      swap2\n      pop\n        /* \"#utility.yul\":15504:15955   */\n    tag_558:\n        /* \"#utility.yul\":15986:15990   */\n      dup1\n        /* \"#utility.yul\":15980:15984   */\n      dup2\n        /* \"#utility.yul\":15976:15991   */\n      mul\n        /* \"#utility.yul\":15968:15991   */\n      swap1\n      pop\n        /* \"#utility.yul\":16016:16048   */\n      tag_559\n        /* \"#utility.yul\":16039:16047   */\n      dup6\n        /* \"#utility.yul\":16016:16048   */\n      tag_374\n      jump\t// in\n    tag_559:\n        /* \"#utility.yul\":16004:16048   */\n      swap5\n      pop\n        /* \"#utility.yul\":15346:16058   */\n      jump(tag_553)\n    tag_555:\n        /* \"#utility.yul\":15216:16064   */\n      swap5\n      pop\n      swap5\n      swap3\n      pop\n      pop\n      pop\n      jump\t// out\n        /* \"#utility.yul\":16070:17143   */\n    tag_376:\n        /* \"#utility.yul\":16124:16129   */\n      0x00\n        /* \"#utility.yul\":16315:16323   */\n      dup3\n        /* \"#utility.yul\":16305:16345   */\n      tag_561\n      jumpi\n        /* \"#utility.yul\":16336:16337   */\n      0x01\n        /* \"#utility.yul\":16327:16337   */\n      swap1\n      pop\n        /* \"#utility.yul\":16338:16343   */\n      jump(tag_560)\n        /* \"#utility.yul\":16305:16345   */\n    tag_561:\n        /* \"#utility.yul\":16364:16368   */\n      dup2\n        /* \"#utility.yul\":16354:16390   */\n      tag_562\n      jumpi\n        /* \"#utility.yul\":16381:16382   */\n      0x00\n        /* \"#utility.yul\":16372:16382   */\n      swap1\n      pop\n        /* \"#utility.yul\":16383:16388   */\n      jump(tag_560)\n        /* \"#utility.yul\":16354:16390   */\n    tag_562:\n        /* \"#utility.yul\":16450:16454   */\n      dup2\n        /* \"#utility.yul\":16498:16499   */\n      0x01\n        /* \"#utility.yul\":16493:16520   */\n      dup2\n      eq\n      tag_564\n      jumpi\n        /* \"#utility.yul\":16534:16535   */\n      0x02\n        /* \"#utility.yul\":16529:16720   */\n      dup2\n      eq\n      tag_565\n      jumpi\n        /* \"#utility.yul\":16443:16720   */\n      jump(tag_563)\n        /* \"#utility.yul\":16493:16520   */\n    tag_564:\n        /* \"#utility.yul\":16511:16512   */\n      0x01\n        /* \"#utility.yul\":16502:16512   */\n      swap2\n      pop\n        /* \"#utility.yul\":16513:16518   */\n      pop\n      jump(tag_560)\n        /* \"#utility.yul\":16529:16720   */\n    tag_565:\n        /* \"#utility.yul\":16574:16577   */\n      0xff\n        /* \"#utility.yul\":16564:16572   */\n      dup5\n        /* \"#utility.yul\":16561:16578   */\n      gt\n        /* \"#utility.yul\":16558:16601   */\n      iszero\n      tag_566\n      jumpi\n        /* \"#utility.yul\":16581:16599   */\n      tag_567\n      tag_359\n      jump\t// in\n    tag_567:\n        /* \"#utility.yul\":16558:16601   */\n    tag_566:\n        /* \"#utility.yul\":16630:16638   */\n      dup4\n        /* \"#utility.yul\":16627:16628   */\n      0x02\n        /* \"#utility.yul\":16623:16639   */\n      exp\n        /* \"#utility.yul\":16614:16639   */\n      swap2\n      pop\n        /* \"#utility.yul\":16665:16668   */\n      dup5\n        /* \"#utility.yul\":16658:16663   */\n      dup3\n        /* \"#utility.yul\":16655:16669   */\n      gt\n        /* \"#utility.yul\":16652:16692   */\n      iszero\n      tag_568\n      jumpi\n        /* \"#utility.yul\":16672:16690   */\n      tag_569\n      tag_359\n      jump\t// in\n    tag_569:\n        /* \"#utility.yul\":16652:16692   */\n    tag_568:\n        /* \"#utility.yul\":16705:16710   */\n      pop\n      jump(tag_560)\n        /* \"#utility.yul\":16443:16720   */\n    tag_563:\n      pop\n        /* \"#utility.yul\":16829:16831   */\n      0x20\n        /* \"#utility.yul\":16819:16827   */\n      dup4\n        /* \"#utility.yul\":16816:16832   */\n      lt\n        /* \"#utility.yul\":16810:16813   */\n      0x0133\n        /* \"#utility.yul\":16804:16808   */\n      dup4\n        /* \"#utility.yul\":16801:16814   */\n      lt\n        /* \"#utility.yul\":16797:16833   */\n      and\n        /* \"#utility.yul\":16779:16781   */\n      0x4e\n        /* \"#utility.yul\":16769:16777   */\n      dup5\n        /* \"#utility.yul\":16766:16782   */\n      lt\n        /* \"#utility.yul\":16761:16763   */\n      0x0b\n        /* \"#utility.yul\":16755:16759   */\n      dup5\n        /* \"#utility.yul\":16752:16764   */\n      lt\n        /* \"#utility.yul\":16748:16783   */\n      and\n        /* \"#utility.yul\":16732:16843   */\n      or\n        /* \"#utility.yul\":16729:16975   */\n      iszero\n      tag_570\n      jumpi\n        /* \"#utility.yul\":16885:16893   */\n      dup3\n        /* \"#utility.yul\":16879:16883   */\n      dup3\n        /* \"#utility.yul\":16875:16894   */\n      exp\n        /* \"#utility.yul\":16866:16894   */\n      swap1\n      pop\n        /* \"#utility.yul\":16920:16923   */\n      dup4\n        /* \"#utility.yul\":16913:16918   */\n      dup2\n        /* \"#utility.yul\":16910:16924   */\n      gt\n        /* \"#utility.yul\":16907:16947   */\n      iszero\n      tag_571\n      jumpi\n        /* \"#utility.yul\":16927:16945   */\n      tag_572\n      tag_359\n      jump\t// in\n    tag_572:\n        /* \"#utility.yul\":16907:16947   */\n    tag_571:\n        /* \"#utility.yul\":16960:16965   */\n      jump(tag_560)\n        /* \"#utility.yul\":16729:16975   */\n    tag_570:\n        /* \"#utility.yul\":17000:17042   */\n      tag_573\n        /* \"#utility.yul\":17038:17041   */\n      dup5\n        /* \"#utility.yul\":17028:17036   */\n      dup5\n        /* \"#utility.yul\":17022:17026   */\n      dup5\n        /* \"#utility.yul\":17019:17020   */\n      0x01\n        /* \"#utility.yul\":17000:17042   */\n      tag_375\n      jump\t// in\n    tag_573:\n        /* \"#utility.yul\":16985:17042   */\n      swap3\n      pop\n      swap1\n      pop\n        /* \"#utility.yul\":17074:17078   */\n      dup2\n        /* \"#utility.yul\":17069:17072   */\n      dup5\n        /* \"#utility.yul\":17065:17079   */\n      div\n        /* \"#utility.yul\":17058:17063   */\n      dup2\n        /* \"#utility.yul\":17055:17080   */\n      gt\n        /* \"#utility.yul\":17052:17103   */\n      iszero\n      tag_574\n      jumpi\n        /* \"#utility.yul\":17083:17101   */\n      tag_575\n      tag_359\n      jump\t// in\n    tag_575:\n        /* \"#utility.yul\":17052:17103   */\n    tag_574:\n        /* \"#utility.yul\":17132:17136   */\n      dup2\n        /* \"#utility.yul\":17125:17130   */\n      dup2\n        /* \"#utility.yul\":17121:17137   */\n      mul\n        /* \"#utility.yul\":17112:17137   */\n      swap1\n      pop\n        /* \"#utility.yul\":16070:17143   */\n    tag_560:\n      swap4\n      swap3\n      pop\n      pop\n      pop\n      jump\t// out\n        /* \"#utility.yul\":17149:17430   */\n    tag_293:\n        /* \"#utility.yul\":17207:17212   */\n      0x00\n        /* \"#utility.yul\":17231:17254   */\n      tag_577\n        /* \"#utility.yul\":17249:17253   */\n      dup3\n        /* \"#utility.yul\":17231:17254   */\n      tag_344\n      jump\t// in\n    tag_577:\n        /* \"#utility.yul\":17223:17254   */\n      swap2\n      pop\n        /* \"#utility.yul\":17275:17300   */\n      tag_578\n        /* \"#utility.yul\":17291:17299   */\n      dup4\n        /* \"#utility.yul\":17275:17300   */\n      tag_350\n      jump\t// in\n    tag_578:\n        /* \"#utility.yul\":17263:17300   */\n      swap3\n      pop\n        /* \"#utility.yul\":17319:17423   */\n      tag_579\n        /* \"#utility.yul\":17356:17422   */\n      0xffffffffffffffffffffffffffffffffffffffffffffffffffffffffffffffff\n        /* \"#utility.yul\":17346:17354   */\n      dup5\n        /* \"#utility.yul\":17340:17344   */\n      dup5\n        /* \"#utility.yul\":17319:17423   */\n      tag_376\n      jump\t// in\n    tag_579:\n        /* \"#utility.yul\":17310:17423   */\n      swap1\n      pop\n        /* \"#utility.yul\":17149:17430   */\n      swap3\n      swap2\n      pop\n      pop\n      jump\t// out\n        /* \"#utility.yul\":17436:17616   */\n    tag_377:\n        /* \"#utility.yul\":17484:17561   */\n      0x4e487b7100000000000000000000000000000000000000000000000000000000\n        /* \"#utility.yul\":17481:17482   */\n      0x00\n        /* \"#utility.yul\":17474:17562   */\n      mstore\n        /* \"#utility.yul\":17581:17585   */\n      0x12\n        /* \"#utility.yul\":17578:17579   */\n      0x04\n        /* \"#utility.yul\":17571:17586   */\n      mstore\n        /* \"#utility.yul\":17605:17609   */\n      0x24\n        /* \"#utility.yul\":17602:17603   */\n      0x00\n        /* \"#utility.yul\":17595:17610   */\n      revert\n        /* \"#utility.yul\":17622:17807   */\n    tag_295:\n        /* \"#utility.yul\":17662:17663   */\n      0x00\n        /* \"#utility.yul\":17679:17699   */\n      tag_582\n        /* \"#utility.yul\":17697:17698   */\n      dup3\n        /* \"#utility.yul\":17679:17699   */\n      tag_344\n      jump\t// in\n    tag_582:\n        /* \"#utility.yul\":17674:17699   */\n      swap2\n      pop\n        /* \"#utility.yul\":17713:17733   */\n      tag_583\n        /* \"#utility.yul\":17731:17732   */\n      dup4\n        /* \"#utility.yul\":17713:17733   */\n      tag_344\n      jump\t// in\n    tag_583:\n        /* \"#utility.yul\":17708:17733   */\n      swap3\n      pop\n        /* \"#utility.yul\":17752:17753   */\n      dup3\n        /* \"#utility.yul\":17742:17777   */\n      tag_584\n      jumpi\n        /* \"#utility.yul\":17757:17775   */\n      tag_585\n      tag_377\n      jump\t// in\n    tag_585:\n        /* \"#utility.yul\":17742:17777   */\n    tag_584:\n        /* \"#utility.yul\":17799:17800   */\n      dup3\n        /* \"#utility.yul\":17796:17797   */\n      dup3\n        /* \"#utility.yul\":17792:17801   */\n      div\n        /* \"#utility.yul\":17787:17801   */\n      swap1\n      pop\n        /* \"#utility.yul\":17622:17807   */\n      swap3\n      swap2\n      pop\n      pop\n      jump\t// out\n        /* \"#utility.yul\":17813:18004   */\n    tag_298:\n        /* \"#utility.yul\":17851:17855   */\n      0x00\n        /* \"#utility.yul\":17871:17889   */\n      tag_587\n        /* \"#utility.yul\":17887:17888   */\n      dup3\n        /* \"#utility.yul\":17871:17889   */\n      tag_350\n      jump\t// in\n    tag_587:\n        /* \"#utility.yul\":17866:17889   */\n      swap2\n      pop\n        /* \"#utility.yul\":17903:17921   */\n      tag_588\n        /* \"#utility.yul\":17919:17920   */\n      dup4\n        /* \"#utility.yul\":17903:17921   */\n      tag_350\n      jump\t// in\n    tag_588:\n        /* \"#utility.yul\":17898:17921   */\n      swap3\n      pop\n        /* \"#utility.yul\":17945:17946   */\n      dup3\n        /* \"#utility.yul\":17942:17943   */\n      dup3\n        /* \"#utility.yul\":17938:17947   */\n      sub\n        /* \"#utility.yul\":17930:17947   */\n      swap1\n      pop\n        /* \"#utility.yul\":17969:17973   */\n      0xff\n        /* \"#utility.yul\":17963:17967   */\n      dup2\n        /* \"#utility.yul\":17960:17974   */\n      gt\n        /* \"#utility.yul\":17957:17997   */\n      iszero\n      tag_589\n      jumpi\n        /* \"#utility.yul\":17977:17995   */\n      tag_590\n      tag_359\n      jump\t// in\n    tag_590:\n        /* \"#utility.yul\":17957:17997   */\n    tag_589:\n        /* \"#utility.yul\":17813:18004   */\n      swap3\n      swap2\n      pop\n      pop\n      jump\t// out\n        /* \"#utility.yul\":18010:18452   */\n    tag_308:\n        /* \"#utility.yul\":18159:18163   */\n      0x00\n        /* \"#utility.yul\":18197:18199   */\n      0x60\n        /* \"#utility.yul\":18186:18195   */\n      dup3\n        /* \"#utility.yul\":18182:18200   */\n      add\n        /* \"#utility.yul\":18174:18200   */\n      swap1\n      pop\n        /* \"#utility.yul\":18210:18281   */\n      tag_592\n        /* \"#utility.yul\":18278:18279   */\n      0x00\n        /* \"#utility.yul\":18267:18276   */\n      dup4\n        /* \"#utility.yul\":18263:18280   */\n      add\n        /* \"#utility.yul\":18254:18260   */\n      dup7\n        /* \"#utility.yul\":18210:18281   */\n      tag_352\n      jump\t// in\n    tag_592:\n        /* \"#utility.yul\":18291:18363   */\n      tag_593\n        /* \"#utility.yul\":18359:18361   */\n      0x20\n        /* \"#utility.yul\":18348:18357   */\n      dup4\n        /* \"#utility.yul\":18344:18362   */\n      add\n        /* \"#utility.yul\":18335:18341   */\n      dup6\n        /* \"#utility.yul\":18291:18363   */\n      tag_352\n      jump\t// in\n    tag_593:\n        /* \"#utility.yul\":18373:18445   */\n      tag_594\n        /* \"#utility.yul\":18441:18443   */\n      0x40\n        /* \"#utility.yul\":18430:18439   */\n      dup4\n        /* \"#utility.yul\":18426:18444   */\n      add\n        /* \"#utility.yul\":18417:18423   */\n      dup5\n        /* \"#utility.yul\":18373:18445   */\n      tag_345\n      jump\t// in\n    tag_594:\n        /* \"#utility.yul\":18010:18452   */\n      swap5\n      swap4\n      pop\n      pop\n      pop\n      pop\n      jump\t// out\n        /* \"#utility.yul\":18458:18790   */\n    tag_320:\n        /* \"#utility.yul\":18579:18583   */\n      0x00\n        /* \"#utility.yul\":18617:18619   */\n      0x40\n        /* \"#utility.yul\":18606:18615   */\n      dup3\n        /* \"#utility.yul\":18602:18620   */\n      add\n        /* \"#utility.yul\":18594:18620   */\n      swap1\n      pop\n        /* \"#utility.yul\":18630:18701   */\n      tag_596\n        /* \"#utility.yul\":18698:18699   */\n      0x00\n        /* \"#utility.yul\":18687:18696   */\n      dup4\n        /* \"#utility.yul\":18683:18700   */\n      add\n        /* \"#utility.yul\":18674:18680   */\n      dup6\n        /* \"#utility.yul\":18630:18701   */\n      tag_352\n      jump\t// in\n    tag_596:\n        /* \"#utility.yul\":18711:18783   */\n      tag_597\n        /* \"#utility.yul\":18779:18781   */\n      0x20\n        /* \"#utility.yul\":18768:18777   */\n      dup4\n        /* \"#utility.yul\":18764:18782   */\n      add\n        /* \"#utility.yul\":18755:18761   */\n      dup5\n        /* \"#utility.yul\":18711:18783   */\n      tag_345\n      jump\t// in\n    tag_597:\n        /* \"#utility.yul\":18458:18790   */\n      swap4\n      swap3\n      pop\n      pop\n      pop\n      jump\t// out\n        /* \"#utility.yul\":18796:19128   */\n    tag_325:\n        /* \"#utility.yul\":18917:18921   */\n      0x00\n        /* \"#utility.yul\":18955:18957   */\n      0x40\n        /* \"#utility.yul\":18944:18953   */\n      dup3\n        /* \"#utility.yul\":18940:18958   */\n      add\n        /* \"#utility.yul\":18932:18958   */\n      swap1\n      pop\n        /* \"#utility.yul\":18968:19039   */\n      tag_599\n        /* \"#utility.yul\":19036:19037   */\n      0x00\n        /* \"#utility.yul\":19025:19034   */\n      dup4\n        /* \"#utility.yul\":19021:19038   */\n      add\n        /* \"#utility.yul\":19012:19018   */\n      dup6\n        /* \"#utility.yul\":18968:19039   */\n      tag_352\n      jump\t// in\n    tag_599:\n        /* \"#utility.yul\":19049:19121   */\n      tag_600\n        /* \"#utility.yul\":19117:19119   */\n      0x20\n        /* \"#utility.yul\":19106:19115   */\n      dup4\n        /* \"#utility.yul\":19102:19120   */\n      add\n        /* \"#utility.yul\":19093:19099   */\n      dup5\n        /* \"#utility.yul\":19049:19121   */\n      tag_343\n      jump\t// in\n    tag_600:\n        /* \"#utility.yul\":18796:19128   */\n      swap4\n      swap3\n      pop\n      pop\n      pop\n      jump\t// out\n\n    auxdata: 0xa264697066735822122069601f4bfdead2f9b62145d9c35aba2095c1dd3372d55863d615de5ef69cae4264736f6c634300081a0033\n}\n",
				"bytecode": {
					"linkReferences": {},
					"object": "60a060405234801561000f575f80fd5b5060405161349f38038061349f833981810160405281019061003191906104c0565b600180819055505f8303610071576040517f1f2a200500000000000000000000000000000000000000000000000000000000815260040160405180910390fd5b826080818152505061008b5f801b3361028960201b60201c565b506100bc7f2172861495e7b85edac73e3cd5fbb42dd675baadf627720e687bcfdaca0250963361028960201b60201c565b506100c56103e8565b6001815f01901515908115158152505060018160200190151590811515815250506012816040019060ff16908160ff16815250508181606001818152505082816080019073ffffffffffffffffffffffffffffffffffffffff16908173ffffffffffffffffffffffffffffffffffffffff16815250508060065f8073ffffffffffffffffffffffffffffffffffffffff1673ffffffffffffffffffffffffffffffffffffffff1681526020019081526020015f205f820151815f015f6101000a81548160ff0219169083151502179055506020820151815f0160016101000a81548160ff0219169083151502179055506040820151815f0160026101000a81548160ff021916908360ff160217905550606082015181600101556080820151816002015f6101000a81548173ffffffffffffffffffffffffffffffffffffffff021916908373ffffffffffffffffffffffffffffffffffffffff1602179055509050505f73ffffffffffffffffffffffffffffffffffffffff167fceec6d18b470b58eabbfc22b7d771c54609acb2bbe777747424f6e9a5a9d5a2560018060128688604051610278959493929190610596565b60405180910390a2505050506105e7565b5f61029a838361037e60201b60201c565b6103745760015f808581526020019081526020015f205f015f8473ffffffffffffffffffffffffffffffffffffffff1673ffffffffffffffffffffffffffffffffffffffff1681526020019081526020015f205f6101000a81548160ff0219169083151502179055506103116103e160201b60201c565b73ffffffffffffffffffffffffffffffffffffffff168273ffffffffffffffffffffffffffffffffffffffff16847f2f8788117e7eff1d82e926ec794901d17c78024a50270940304540a733656f0d60405160405180910390a460019050610378565b5f90505b92915050565b5f805f8481526020019081526020015f205f015f8373ffffffffffffffffffffffffffffffffffffffff1673ffffffffffffffffffffffffffffffffffffffff1681526020019081526020015f205f9054906101000a900460ff16905092915050565b5f33905090565b6040518060a001604052805f151581526020015f151581526020015f60ff1681526020015f81526020015f73ffffffffffffffffffffffffffffffffffffffff1681525090565b5f80fd5b5f819050919050565b61044581610433565b811461044f575f80fd5b50565b5f815190506104608161043c565b92915050565b5f73ffffffffffffffffffffffffffffffffffffffff82169050919050565b5f61048f82610466565b9050919050565b61049f81610485565b81146104a9575f80fd5b50565b5f815190506104ba81610496565b92915050565b5f805f606084860312156104d7576104d661042f565b5b5f6104e486828701610452565b93505060206104f5868287016104ac565b925050604061050686828701610452565b9150509250925092565b5f8115159050919050565b61052481610510565b82525050565b5f819050919050565b5f60ff82169050919050565b5f819050919050565b5f61056261055d6105588461052a565b61053f565b610533565b9050919050565b61057281610548565b82525050565b61058181610433565b82525050565b61059081610485565b82525050565b5f60a0820190506105a95f83018861051b565b6105b6602083018761051b565b6105c36040830186610569565b6105d06060830185610578565b6105dd6080830184610587565b9695505050505050565b608051612e8461061b5f395f81816107430152818161076c01528181610af801528181610b210152611b9b0152612e845ff3fe608060405260043610610134575f3560e01c806391d14854116100aa578063d391014b1161006e578063d391014b146103e2578063d547741f1461040c578063dcb6e25014610434578063f8b2cb4f14610470578063f9bda21f146104ac578063fe136c4e146104d657610134565b806391d14854146103045780639c50adee146103405780639e281a9814610368578063a217fddf14610390578063c311d049146103ba57610134565b80632f6ee695116100fc5780632f6ee6951461022c57806331f7d96414610256578063338b5dea1461028057806336568abe146102a8578063439370b1146102d05780634cc05a71146102da57610134565b806301ffc9a714610138578063248a9ca31461017457806329608ba6146101b05780632dfdf0b5146101da5780632f2ff15d14610204575b5f80fd5b348015610143575f80fd5b5061015e6004803603810190610159919061247b565b610516565b60405161016b91906124c0565b60405180910390f35b34801561017f575f80fd5b5061019a6004803603810190610195919061250c565b61058f565b6040516101a79190612546565b60405180910390f35b3480156101bb575f80fd5b506101c46105ab565b6040516101d19190612577565b60405180910390f35b3480156101e5575f80fd5b506101ee6105b1565b6040516101fb9190612577565b60405180910390f35b34801561020f575f80fd5b5061022a600480360381019061022591906125ea565b6105b7565b005b348015610237575f80fd5b506102406105d9565b60405161024d9190612643565b60405180910390f35b348015610261575f80fd5b5061026a6105de565b604051610277919061266b565b60405180910390f35b34801561028b575f80fd5b506102a660048036038101906102a191906126ae565b6105e2565b005b3480156102b3575f80fd5b506102ce60048036038101906102c991906125ea565b61098d565b005b6102d8610a08565b005b3480156102e5575f80fd5b506102ee610d12565b6040516102fb9190612577565b60405180910390f35b34801561030f575f80fd5b5061032a600480360381019061032591906125ea565b610d18565b60405161033791906124c0565b60405180910390f35b34801561034b575f80fd5b5061036660048036038101906103619190612740565b610d7b565b005b348015610373575f80fd5b5061038e600480360381019061038991906126ae565b61101c565b005b34801561039b575f80fd5b506103a461152b565b6040516103b19190612546565b60405180910390f35b3480156103c5575f80fd5b506103e060048036038101906103db91906127b7565b611531565b005b3480156103ed575f80fd5b506103f6611a42565b6040516104039190612546565b60405180910390f35b348015610417575f80fd5b50610432600480360381019061042d91906125ea565b611a66565b005b34801561043f575f80fd5b5061045a600480360381019061045591906127e2565b611a88565b6040516104679190612577565b60405180910390f35b34801561047b575f80fd5b5061049660048036038101906104919190612820565b611b18565b6040516104a39190612577565b60405180910390f35b3480156104b7575f80fd5b506104c0611b99565b6040516104cd9190612577565b60405180910390f35b3480156104e1575f80fd5b506104fc60048036038101906104f79190612820565b611bbd565b60405161050d95949392919061284b565b60405180910390f35b5f7f7965db0b000000000000000000000000000000000000000000000000000000007bffffffffffffffffffffffffffffffffffffffffffffffffffffffff1916827bffffffffffffffffffffffffffffffffffffffffffffffffffffffff19161480610588575061058782611c32565b5b9050919050565b5f805f8381526020019081526020015f20600101549050919050565b60025481565b60035481565b6105c08261058f565b6105c981611c9b565b6105d38383611caf565b50505050565b600681565b5f81565b6105ea611d98565b805f8103610624576040517f1f2a200500000000000000000000000000000000000000000000000000000000815260040160405180910390fd5b825f73ffffffffffffffffffffffffffffffffffffffff168173ffffffffffffffffffffffffffffffffffffffff160361069557806040517fbf16aab600000000000000000000000000000000000000000000000000000000815260040161068c919061266b565b60405180910390fd5b8360065f8273ffffffffffffffffffffffffffffffffffffffff1673ffffffffffffffffffffffffffffffffffffffff1681526020019081526020015f205f015f9054906101000a900460ff1661072357806040517fbf16aab600000000000000000000000000000000000000000000000000000000815260040161071a919061266b565b60405180910390fd5b5f61072e8686611de7565b90505f8160025461073f91906128c9565b90507f00000000000000000000000000000000000000000000000000000000000000008111156107c857807f00000000000000000000000000000000000000000000000000000000000000006040517ff480e2850000000000000000000000000000000000000000000000000000000081526004016107bf9291906128fc565b60405180910390fd5b8560055f8973ffffffffffffffffffffffffffffffffffffffff1673ffffffffffffffffffffffffffffffffffffffff1681526020019081526020015f205f3373ffffffffffffffffffffffffffffffffffffffff1673ffffffffffffffffffffffffffffffffffffffff1681526020019081526020015f205f82825461084f91906128c9565b925050819055508060028190555060035f815480929190600101919050555061089b3330888a73ffffffffffffffffffffffffffffffffffffffff1661213c909392919063ffffffff16565b3373ffffffffffffffffffffffffffffffffffffffff168773ffffffffffffffffffffffffffffffffffffffff167f4e2ca0515ed1aef1395f66b5303bb5d6f1bf9d61a353fa53f73f8ac9973fa9f68860055f8c73ffffffffffffffffffffffffffffffffffffffff1673ffffffffffffffffffffffffffffffffffffffff1681526020019081526020015f205f3373ffffffffffffffffffffffffffffffffffffffff1673ffffffffffffffffffffffffffffffffffffffff1681526020019081526020015f20548660405161097493929190612923565b60405180910390a350505050506109896121be565b5050565b6109956121c7565b73ffffffffffffffffffffffffffffffffffffffff168173ffffffffffffffffffffffffffffffffffffffff16146109f9576040517f6697b23200000000000000000000000000000000000000000000000000000000815260040160405180910390fd5b610a0382826121ce565b505050565b610a10611d98565b345f8103610a4a576040517f1f2a200500000000000000000000000000000000000000000000000000000000815260040160405180910390fd5b5f60065f8273ffffffffffffffffffffffffffffffffffffffff1673ffffffffffffffffffffffffffffffffffffffff1681526020019081526020015f205f015f9054906101000a900460ff16610ad857806040517fbf16aab6000000000000000000000000000000000000000000000000000000008152600401610acf919061266b565b60405180910390fd5b5f610ae35f34611de7565b90505f81600254610af491906128c9565b90507f0000000000000000000000000000000000000000000000000000000000000000811115610b7d57807f00000000000000000000000000000000000000000000000000000000000000006040517ff480e285000000000000000000000000000000000000000000000000000000008152600401610b749291906128fc565b60405180910390fd5b3460055f8073ffffffffffffffffffffffffffffffffffffffff1673ffffffffffffffffffffffffffffffffffffffff1681526020019081526020015f205f3373ffffffffffffffffffffffffffffffffffffffff1673ffffffffffffffffffffffffffffffffffffffff1681526020019081526020015f205f828254610c0491906128c9565b925050819055508060028190555060035f81548092919060010191905055503373ffffffffffffffffffffffffffffffffffffffff165f73ffffffffffffffffffffffffffffffffffffffff167f4e2ca0515ed1aef1395f66b5303bb5d6f1bf9d61a353fa53f73f8ac9973fa9f63460055f8073ffffffffffffffffffffffffffffffffffffffff1673ffffffffffffffffffffffffffffffffffffffff1681526020019081526020015f205f3373ffffffffffffffffffffffffffffffffffffffff1673ffffffffffffffffffffffffffffffffffffffff1681526020019081526020015f205486604051610cfc93929190612923565b60405180910390a350505050610d106121be565b565b60045481565b5f805f8481526020019081526020015f205f015f8373ffffffffffffffffffffffffffffffffffffffff1673ffffffffffffffffffffffffffffffffffffffff1681526020019081526020015f205f9054906101000a900460ff16905092915050565b7f2172861495e7b85edac73e3cd5fbb42dd675baadf627720e687bcfdaca025096610da581611c9b565b5f73ffffffffffffffffffffffffffffffffffffffff168673ffffffffffffffffffffffffffffffffffffffff1603610e1557856040517fbf16aab6000000000000000000000000000000000000000000000000000000008152600401610e0c919061266b565b60405180910390fd5b5f60065f8873ffffffffffffffffffffffffffffffffffffffff1673ffffffffffffffffffffffffffffffffffffffff1681526020019081526020015f20905085815f015f6101000a81548160ff0219169083151502179055505f815f0160016101000a81548160ff0219169083151502179055505f8560ff1603610f45578673ffffffffffffffffffffffffffffffffffffffff1663313ce5676040518163ffffffff1660e01b8152600401602060405180830381865afa925050508015610efc57506040513d601f19601f82011682018060405250810190610ef9919061296c565b60015b610f22576012815f0160026101000a81548160ff021916908360ff160217905550610f40565b80825f0160026101000a81548160ff021916908360ff160217905550505b610f62565b84815f0160026101000a81548160ff021916908360ff1602179055505b83816001018190555082816002015f6101000a81548173ffffffffffffffffffffffffffffffffffffffff021916908373ffffffffffffffffffffffffffffffffffffffff1602179055508673ffffffffffffffffffffffffffffffffffffffff167fceec6d18b470b58eabbfc22b7d771c54609acb2bbe777747424f6e9a5a9d5a25875f845f0160029054906101000a900460ff16888860405161100b95949392919061284b565b60405180910390a250505050505050565b611024611d98565b805f810361105e576040517f1f2a200500000000000000000000000000000000000000000000000000000000815260040160405180910390fd5b825f73ffffffffffffffffffffffffffffffffffffffff168173ffffffffffffffffffffffffffffffffffffffff16036110cf57806040517fbf16aab60000000000000000000000000000000000000000000000000000000081526004016110c6919061266b565b60405180910390fd5b8360065f8273ffffffffffffffffffffffffffffffffffffffff1673ffffffffffffffffffffffffffffffffffffffff1681526020019081526020015f205f015f9054906101000a900460ff1661115d57806040517fbf16aab6000000000000000000000000000000000000000000000000000000008152600401611154919061266b565b60405180910390fd5b84845f60065f8473ffffffffffffffffffffffffffffffffffffffff1673ffffffffffffffffffffffffffffffffffffffff1681526020019081526020015f206040518060a00160405290815f82015f9054906101000a900460ff161515151581526020015f820160019054906101000a900460ff161515151581526020015f820160029054906101000a900460ff1660ff1660ff16815260200160018201548152602001600282015f9054906101000a900473ffffffffffffffffffffffffffffffffffffffff1673ffffffffffffffffffffffffffffffffffffffff1673ffffffffffffffffffffffffffffffffffffffff1681525050905080606001518211156112a7578181606001516040517f016d0ef100000000000000000000000000000000000000000000000000000000815260040161129e9291906128fc565b60405180910390fd5b5f60055f8a73ffffffffffffffffffffffffffffffffffffffff1673ffffffffffffffffffffffffffffffffffffffff1681526020019081526020015f205f3373ffffffffffffffffffffffffffffffffffffffff1673ffffffffffffffffffffffffffffffffffffffff1681526020019081526020015f205490508781101561136a5780886040517fcf4791810000000000000000000000000000000000000000000000000000000081526004016113619291906128fc565b60405180910390fd5b87816113769190612997565b60055f8b73ffffffffffffffffffffffffffffffffffffffff1673ffffffffffffffffffffffffffffffffffffffff1681526020019081526020015f205f3373ffffffffffffffffffffffffffffffffffffffff1673ffffffffffffffffffffffffffffffffffffffff1681526020019081526020015f208190555060045f815480929190600101919050555061142e33898b73ffffffffffffffffffffffffffffffffffffffff166122b79092919063ffffffff16565b3373ffffffffffffffffffffffffffffffffffffffff168973ffffffffffffffffffffffffffffffffffffffff167febff2602b3f468259e1e99f613fed6691f3a6526effe6ef3e768ba7ae7a36c4f8a60055f8e73ffffffffffffffffffffffffffffffffffffffff1673ffffffffffffffffffffffffffffffffffffffff1681526020019081526020015f205f3373ffffffffffffffffffffffffffffffffffffffff1673ffffffffffffffffffffffffffffffffffffffff1681526020019081526020015f20546115018e8e611de7565b60405161151093929190612923565b60405180910390a3505050505050506115276121be565b5050565b5f801b81565b611539611d98565b805f8103611573576040517f1f2a200500000000000000000000000000000000000000000000000000000000815260040160405180910390fd5b5f60065f8273ffffffffffffffffffffffffffffffffffffffff1673ffffffffffffffffffffffffffffffffffffffff1681526020019081526020015f205f015f9054906101000a900460ff1661160157806040517fbf16aab60000000000000000000000000000000000000000000000000000000081526004016115f8919061266b565b60405180910390fd5b5f835f60065f8473ffffffffffffffffffffffffffffffffffffffff1673ffffffffffffffffffffffffffffffffffffffff1681526020019081526020015f206040518060a00160405290815f82015f9054906101000a900460ff161515151581526020015f820160019054906101000a900460ff161515151581526020015f820160029054906101000a900460ff1660ff1660ff16815260200160018201548152602001600282015f9054906101000a900473ffffffffffffffffffffffffffffffffffffffff1673ffffffffffffffffffffffffffffffffffffffff1673ffffffffffffffffffffffffffffffffffffffff16815250509050806060015182111561174b578181606001516040517f016d0ef10000000000000000000000000000000000000000000000000000000081526004016117429291906128fc565b60405180910390fd5b5f60055f8073ffffffffffffffffffffffffffffffffffffffff1673ffffffffffffffffffffffffffffffffffffffff1681526020019081526020015f205f3373ffffffffffffffffffffffffffffffffffffffff1673ffffffffffffffffffffffffffffffffffffffff1681526020019081526020015f205490508681101561180e5780876040517fcf4791810000000000000000000000000000000000000000000000000000000081526004016118059291906128fc565b60405180910390fd5b868161181a9190612997565b60055f8073ffffffffffffffffffffffffffffffffffffffff1673ffffffffffffffffffffffffffffffffffffffff1681526020019081526020015f205f3373ffffffffffffffffffffffffffffffffffffffff1673ffffffffffffffffffffffffffffffffffffffff1681526020019081526020015f208190555060045f81548092919060010191905055505f3373ffffffffffffffffffffffffffffffffffffffff16886040516118cc906129f7565b5f6040518083038185875af1925050503d805f8114611906576040519150601f19603f3d011682016040523d82523d5f602084013e61190b565b606091505b5050905080611946576040517f6d963f8800000000000000000000000000000000000000000000000000000000815260040160405180910390fd5b3373ffffffffffffffffffffffffffffffffffffffff165f73ffffffffffffffffffffffffffffffffffffffff167febff2602b3f468259e1e99f613fed6691f3a6526effe6ef3e768ba7ae7a36c4f8a60055f8073ffffffffffffffffffffffffffffffffffffffff1673ffffffffffffffffffffffffffffffffffffffff1681526020019081526020015f205f3373ffffffffffffffffffffffffffffffffffffffff1673ffffffffffffffffffffffffffffffffffffffff1681526020019081526020015f2054611a195f8e611de7565b604051611a2893929190612923565b60405180910390a350505050505050611a3f6121be565b50565b7f2172861495e7b85edac73e3cd5fbb42dd675baadf627720e687bcfdaca02509681565b611a6f8261058f565b611a7881611c9b565b611a8283836121ce565b50505050565b5f8060055f8573ffffffffffffffffffffffffffffffffffffffff1673ffffffffffffffffffffffffffffffffffffffff1681526020019081526020015f205f8473ffffffffffffffffffffffffffffffffffffffff1673ffffffffffffffffffffffffffffffffffffffff1681526020019081526020015f20549050611b0f8482611de7565b91505092915050565b5f60055f8373ffffffffffffffffffffffffffffffffffffffff1673ffffffffffffffffffffffffffffffffffffffff1681526020019081526020015f205f3373ffffffffffffffffffffffffffffffffffffffff1673ffffffffffffffffffffffffffffffffffffffff1681526020019081526020015f20549050919050565b7f000000000000000000000000000000000000000000000000000000000000000081565b6006602052805f5260405f205f91509050805f015f9054906101000a900460ff1690805f0160019054906101000a900460ff1690805f0160029054906101000a900460ff1690806001015490806002015f9054906101000a900473ffffffffffffffffffffffffffffffffffffffff16905085565b5f7f01ffc9a7000000000000000000000000000000000000000000000000000000007bffffffffffffffffffffffffffffffffffffffffffffffffffffffff1916827bffffffffffffffffffffffffffffffffffffffffffffffffffffffff1916149050919050565b611cac81611ca76121c7565b612336565b50565b5f611cba8383610d18565b611d8e5760015f808581526020019081526020015f205f015f8473ffffffffffffffffffffffffffffffffffffffff1673ffffffffffffffffffffffffffffffffffffffff1681526020019081526020015f205f6101000a81548160ff021916908315150217905550611d2b6121c7565b73ffffffffffffffffffffffffffffffffffffffff168273ffffffffffffffffffffffffffffffffffffffff16847f2f8788117e7eff1d82e926ec794901d17c78024a50270940304540a733656f0d60405160405180910390a460019050611d92565b5f90505b92915050565b600260015403611ddd576040517f08c379a0000000000000000000000000000000000000000000000000000000008152600401611dd490612a65565b60405180910390fd5b6002600181905550565b5f808203611df7575f9050612136565b5f60065f8573ffffffffffffffffffffffffffffffffffffffff1673ffffffffffffffffffffffffffffffffffffffff1681526020019081526020015f206040518060a00160405290815f82015f9054906101000a900460ff161515151581526020015f820160019054906101000a900460ff161515151581526020015f820160029054906101000a900460ff1660ff1660ff16815260200160018201548152602001600282015f9054906101000a900473ffffffffffffffffffffffffffffffffffffffff1673ffffffffffffffffffffffffffffffffffffffff1673ffffffffffffffffffffffffffffffffffffffff168152505090505f816080015190505f73ffffffffffffffffffffffffffffffffffffffff168173ffffffffffffffffffffffffffffffffffffffff1603611f6857846040517f8a7a791d000000000000000000000000000000000000000000000000000000008152600401611f5f919061266b565b60405180910390fd5b5f8173ffffffffffffffffffffffffffffffffffffffff1663feaf968c6040518163ffffffff1660e01b815260040160a060405180830381865afa158015611fb2573d5f803e3d5ffd5b505050506040513d601f19601f82011682018060405250810190611fd69190612b09565b5050509150505f8113612015576040517f4fd58d4b00000000000000000000000000000000000000000000000000000000815260040160405180910390fd5b5f8273ffffffffffffffffffffffffffffffffffffffff1663313ce5676040518163ffffffff1660e01b8152600401602060405180830381865afa15801561205f573d5f803e3d5ffd5b505050506040513d601f19601f82011682018060405250810190612083919061296c565b90505f82876120929190612b80565b90505f8260ff1611156120ba5781600a6120ac9190612cf0565b816120b79190612d67565b90505b600660ff16856040015160ff1610612100575f600686604001516120de9190612d97565b600a6120ea9190612cf0565b905080826120f89190612d67565b965050612130565b5f856040015160066121129190612d97565b600a61211e9190612cf0565b9050808261212c9190612b80565b9650505b50505050505b92915050565b6121b8848573ffffffffffffffffffffffffffffffffffffffff166323b872dd86868660405160240161217193929190612dcb565b604051602081830303815290604052915060e01b6020820180517bffffffffffffffffffffffffffffffffffffffffffffffffffffffff8381831617835250505050612387565b50505050565b60018081905550565b5f33905090565b5f6121d98383610d18565b156122ad575f805f8581526020019081526020015f205f015f8473ffffffffffffffffffffffffffffffffffffffff1673ffffffffffffffffffffffffffffffffffffffff1681526020019081526020015f205f6101000a81548160ff02191690831515021790555061224a6121c7565b73ffffffffffffffffffffffffffffffffffffffff168273ffffffffffffffffffffffffffffffffffffffff16847ff6391f5c32d9c69d2a47ea670b442974b53935d1edc7fd64eb21e047a839171b60405160405180910390a4600190506122b1565b5f90505b92915050565b612331838473ffffffffffffffffffffffffffffffffffffffff1663a9059cbb85856040516024016122ea929190612e00565b604051602081830303815290604052915060e01b6020820180517bffffffffffffffffffffffffffffffffffffffffffffffffffffffff8381831617835250505050612387565b505050565b6123408282610d18565b6123835780826040517fe2517d3f00000000000000000000000000000000000000000000000000000000815260040161237a929190612e27565b60405180910390fd5b5050565b5f8060205f8451602086015f885af1806123a6576040513d5f823e3d81fd5b3d92505f519150505f82146123bf5760018114156123da565b5f8473ffffffffffffffffffffffffffffffffffffffff163b145b1561241c57836040517f5274afe7000000000000000000000000000000000000000000000000000000008152600401612413919061266b565b60405180910390fd5b50505050565b5f80fd5b5f7fffffffff0000000000000000000000000000000000000000000000000000000082169050919050565b61245a81612426565b8114612464575f80fd5b50565b5f8135905061247581612451565b92915050565b5f602082840312156124905761248f612422565b5b5f61249d84828501612467565b91505092915050565b5f8115159050919050565b6124ba816124a6565b82525050565b5f6020820190506124d35f8301846124b1565b92915050565b5f819050919050565b6124eb816124d9565b81146124f5575f80fd5b50565b5f81359050612506816124e2565b92915050565b5f6020828403121561252157612520612422565b5b5f61252e848285016124f8565b91505092915050565b612540816124d9565b82525050565b5f6020820190506125595f830184612537565b92915050565b5f819050919050565b6125718161255f565b82525050565b5f60208201905061258a5f830184612568565b92915050565b5f73ffffffffffffffffffffffffffffffffffffffff82169050919050565b5f6125b982612590565b9050919050565b6125c9816125af565b81146125d3575f80fd5b50565b5f813590506125e4816125c0565b92915050565b5f8060408385031215612600576125ff612422565b5b5f61260d858286016124f8565b925050602061261e858286016125d6565b9150509250929050565b5f60ff82169050919050565b61263d81612628565b82525050565b5f6020820190506126565f830184612634565b92915050565b612665816125af565b82525050565b5f60208201905061267e5f83018461265c565b92915050565b61268d8161255f565b8114612697575f80fd5b50565b5f813590506126a881612684565b92915050565b5f80604083850312156126c4576126c3612422565b5b5f6126d1858286016125d6565b92505060206126e28582860161269a565b9150509250929050565b6126f5816124a6565b81146126ff575f80fd5b50565b5f81359050612710816126ec565b92915050565b61271f81612628565b8114612729575f80fd5b50565b5f8135905061273a81612716565b92915050565b5f805f805f60a0868803121561275957612758612422565b5b5f612766888289016125d6565b955050602061277788828901612702565b94505060406127888882890161272c565b93505060606127998882890161269a565b92505060806127aa888289016125d6565b9150509295509295909350565b5f602082840312156127cc576127cb612422565b5b5f6127d98482850161269a565b91505092915050565b5f80604083850312156127f8576127f7612422565b5b5f612805858286016125d6565b9250506020612816858286016125d6565b9150509250929050565b5f6020828403121561283557612834612422565b5b5f612842848285016125d6565b91505092915050565b5f60a08201905061285e5f8301886124b1565b61286b60208301876124b1565b6128786040830186612634565b6128856060830185612568565b612892608083018461265c565b9695505050505050565b7f4e487b71000000000000000000000000000000000000000000000000000000005f52601160045260245ffd5b5f6128d38261255f565b91506128de8361255f565b92508282019050808211156128f6576128f561289c565b5b92915050565b5f60408201905061290f5f830185612568565b61291c6020830184612568565b9392505050565b5f6060820190506129365f830186612568565b6129436020830185612568565b6129506040830184612568565b949350505050565b5f8151905061296681612716565b92915050565b5f6020828403121561298157612980612422565b5b5f61298e84828501612958565b91505092915050565b5f6129a18261255f565b91506129ac8361255f565b92508282039050818111156129c4576129c361289c565b5b92915050565b5f81905092915050565b50565b5f6129e25f836129ca565b91506129ed826129d4565b5f82019050919050565b5f612a01826129d7565b9150819050919050565b5f82825260208201905092915050565b7f5265656e7472616e637947756172643a207265656e7472616e742063616c6c005f82015250565b5f612a4f601f83612a0b565b9150612a5a82612a1b565b602082019050919050565b5f6020820190508181035f830152612a7c81612a43565b9050919050565b5f69ffffffffffffffffffff82169050919050565b612aa181612a83565b8114612aab575f80fd5b50565b5f81519050612abc81612a98565b92915050565b5f819050919050565b612ad481612ac2565b8114612ade575f80fd5b50565b5f81519050612aef81612acb565b92915050565b5f81519050612b0381612684565b92915050565b5f805f805f60a08688031215612b2257612b21612422565b5b5f612b2f88828901612aae565b9550506020612b4088828901612ae1565b9450506040612b5188828901612af5565b9350506060612b6288828901612af5565b9250506080612b7388828901612aae565b9150509295509295909350565b5f612b8a8261255f565b9150612b958361255f565b9250828202612ba38161255f565b91508282048414831517612bba57612bb961289c565b5b5092915050565b5f8160011c9050919050565b5f808291508390505b6001851115612c1657808604811115612bf257612bf161289c565b5b6001851615612c015780820291505b8081029050612c0f85612bc1565b9450612bd6565b94509492505050565b5f82612c2e5760019050612ce9565b81612c3b575f9050612ce9565b8160018114612c515760028114612c5b57612c8a565b6001915050612ce9565b60ff841115612c6d57612c6c61289c565b5b8360020a915084821115612c8457612c8361289c565b5b50612ce9565b5060208310610133831016604e8410600b8410161715612cbf5782820a905083811115612cba57612cb961289c565b5b612ce9565b612ccc8484846001612bcd565b92509050818404811115612ce357612ce261289c565b5b81810290505b9392505050565b5f612cfa8261255f565b9150612d0583612628565b9250612d327fffffffffffffffffffffffffffffffffffffffffffffffffffffffffffffffff8484612c1f565b905092915050565b7f4e487b71000000000000000000000000000000000000000000000000000000005f52601260045260245ffd5b5f612d718261255f565b9150612d7c8361255f565b925082612d8c57612d8b612d3a565b5b828204905092915050565b5f612da182612628565b9150612dac83612628565b9250828203905060ff811115612dc557612dc461289c565b5b92915050565b5f606082019050612dde5f83018661265c565b612deb602083018561265c565b612df86040830184612568565b949350505050565b5f604082019050612e135f83018561265c565b612e206020830184612568565b9392505050565b5f604082019050612e3a5f83018561265c565b612e476020830184612537565b939250505056fea264697066735822122069601f4bfdead2f9b62145d9c35aba2095c1dd3372d55863d615de5ef69cae4264736f6c634300081a0033",
					"opcodes": "PUSH1 0xA0 PUSH1 0x40 MSTORE CALLVALUE DUP1 ISZERO PUSH2 0xF JUMPI PUSH0 DUP1 REVERT JUMPDEST POP PUSH1 0x40 MLOAD PUSH2 0x349F CODESIZE SUB DUP1 PUSH2 0x349F DUP4 CODECOPY DUP2 DUP2 ADD PUSH1 0x40 MSTORE DUP2 ADD SWAP1 PUSH2 0x31 SWAP2 SWAP1 PUSH2 0x4C0 JUMP JUMPDEST PUSH1 0x1 DUP1 DUP2 SWAP1 SSTORE POP PUSH0 DUP4 SUB PUSH2 0x71 JUMPI PUSH1 0x40 MLOAD PUSH32 0x1F2A200500000000000000000000000000000000000000000000000000000000 DUP2 MSTORE PUSH1 0x4 ADD PUSH1 0x40 MLOAD DUP1 SWAP2 SUB SWAP1 REVERT JUMPDEST DUP3 PUSH1 0x80 DUP2 DUP2 MSTORE POP POP PUSH2 0x8B PUSH0 DUP1 SHL CALLER PUSH2 0x289 PUSH1 0x20 SHL PUSH1 0x20 SHR JUMP JUMPDEST POP PUSH2 0xBC PUSH32 0x2172861495E7B85EDAC73E3CD5FBB42DD675BAADF627720E687BCFDACA025096 CALLER PUSH2 0x289 PUSH1 0x20 SHL PUSH1 0x20 SHR JUMP JUMPDEST POP PUSH2 0xC5 PUSH2 0x3E8 JUMP JUMPDEST PUSH1 0x1 DUP2 PUSH0 ADD SWAP1 ISZERO ISZERO SWAP1 DUP2 ISZERO ISZERO DUP2 MSTORE POP POP PUSH1 0x1 DUP2 PUSH1 0x20 ADD SWAP1 ISZERO ISZERO SWAP1 DUP2 ISZERO ISZERO DUP2 MSTORE POP POP PUSH1 0x12 DUP2 PUSH1 0x40 ADD SWAP1 PUSH1 0xFF AND SWAP1 DUP2 PUSH1 0xFF AND DUP2 MSTORE POP POP DUP2 DUP2 PUSH1 0x60 ADD DUP2 DUP2 MSTORE POP POP DUP3 DUP2 PUSH1 0x80 ADD SWAP1 PUSH20 0xFFFFFFFFFFFFFFFFFFFFFFFFFFFFFFFFFFFFFFFF AND SWAP1 DUP2 PUSH20 0xFFFFFFFFFFFFFFFFFFFFFFFFFFFFFFFFFFFFFFFF AND DUP2 MSTORE POP POP DUP1 PUSH1 0x6 PUSH0 DUP1 PUSH20 0xFFFFFFFFFFFFFFFFFFFFFFFFFFFFFFFFFFFFFFFF AND PUSH20 0xFFFFFFFFFFFFFFFFFFFFFFFFFFFFFFFFFFFFFFFF AND DUP2 MSTORE PUSH1 0x20 ADD SWAP1 DUP2 MSTORE PUSH1 0x20 ADD PUSH0 KECCAK256 PUSH0 DUP3 ADD MLOAD DUP2 PUSH0 ADD PUSH0 PUSH2 0x100 EXP DUP2 SLOAD DUP2 PUSH1 0xFF MUL NOT AND SWAP1 DUP4 ISZERO ISZERO MUL OR SWAP1 SSTORE POP PUSH1 0x20 DUP3 ADD MLOAD DUP2 PUSH0 ADD PUSH1 0x1 PUSH2 0x100 EXP DUP2 SLOAD DUP2 PUSH1 0xFF MUL NOT AND SWAP1 DUP4 ISZERO ISZERO MUL OR SWAP1 SSTORE POP PUSH1 0x40 DUP3 ADD MLOAD DUP2 PUSH0 ADD PUSH1 0x2 PUSH2 0x100 EXP DUP2 SLOAD DUP2 PUSH1 0xFF MUL NOT AND SWAP1 DUP4 PUSH1 0xFF AND MUL OR SWAP1 SSTORE POP PUSH1 0x60 DUP3 ADD MLOAD DUP2 PUSH1 0x1 ADD SSTORE PUSH1 0x80 DUP3 ADD MLOAD DUP2 PUSH1 0x2 ADD PUSH0 PUSH2 0x100 EXP DUP2 SLOAD DUP2 PUSH20 0xFFFFFFFFFFFFFFFFFFFFFFFFFFFFFFFFFFFFFFFF MUL NOT AND SWAP1 DUP4 PUSH20 0xFFFFFFFFFFFFFFFFFFFFFFFFFFFFFFFFFFFFFFFF AND MUL OR SWAP1 SSTORE POP SWAP1 POP POP PUSH0 PUSH20 0xFFFFFFFFFFFFFFFFFFFFFFFFFFFFFFFFFFFFFFFF AND PUSH32 0xCEEC6D18B470B58EABBFC22B7D771C54609ACB2BBE777747424F6E9A5A9D5A25 PUSH1 0x1 DUP1 PUSH1 0x12 DUP7 DUP9 PUSH1 0x40 MLOAD PUSH2 0x278 SWAP6 SWAP5 SWAP4 SWAP3 SWAP2 SWAP1 PUSH2 0x596 JUMP JUMPDEST PUSH1 0x40 MLOAD DUP1 SWAP2 SUB SWAP1 LOG2 POP POP POP POP PUSH2 0x5E7 JUMP JUMPDEST PUSH0 PUSH2 0x29A DUP4 DUP4 PUSH2 0x37E PUSH1 0x20 SHL PUSH1 0x20 SHR JUMP JUMPDEST PUSH2 0x374 JUMPI PUSH1 0x1 PUSH0 DUP1 DUP6 DUP2 MSTORE PUSH1 0x20 ADD SWAP1 DUP2 MSTORE PUSH1 0x20 ADD PUSH0 KECCAK256 PUSH0 ADD PUSH0 DUP5 PUSH20 0xFFFFFFFFFFFFFFFFFFFFFFFFFFFFFFFFFFFFFFFF AND PUSH20 0xFFFFFFFFFFFFFFFFFFFFFFFFFFFFFFFFFFFFFFFF AND DUP2 MSTORE PUSH1 0x20 ADD SWAP1 DUP2 MSTORE PUSH1 0x20 ADD PUSH0 KECCAK256 PUSH0 PUSH2 0x100 EXP DUP2 SLOAD DUP2 PUSH1 0xFF MUL NOT AND SWAP1 DUP4 ISZERO ISZERO MUL OR SWAP1 SSTORE POP PUSH2 0x311 PUSH2 0x3E1 PUSH1 0x20 SHL PUSH1 0x20 SHR JUMP JUMPDEST PUSH20 0xFFFFFFFFFFFFFFFFFFFFFFFFFFFFFFFFFFFFFFFF AND DUP3 PUSH20 0xFFFFFFFFFFFFFFFFFFFFFFFFFFFFFFFFFFFFFFFF AND DUP5 PUSH32 0x2F8788117E7EFF1D82E926EC794901D17C78024A50270940304540A733656F0D PUSH1 0x40 MLOAD PUSH1 0x40 MLOAD DUP1 SWAP2 SUB SWAP1 LOG4 PUSH1 0x1 SWAP1 POP PUSH2 0x378 JUMP JUMPDEST PUSH0 SWAP1 POP JUMPDEST SWAP3 SWAP2 POP POP JUMP JUMPDEST PUSH0 DUP1 PUSH0 DUP5 DUP2 MSTORE PUSH1 0x20 ADD SWAP1 DUP2 MSTORE PUSH1 0x20 ADD PUSH0 KECCAK256 PUSH0 ADD PUSH0 DUP4 PUSH20 0xFFFFFFFFFFFFFFFFFFFFFFFFFFFFFFFFFFFFFFFF AND PUSH20 0xFFFFFFFFFFFFFFFFFFFFFFFFFFFFFFFFFFFFFFFF AND DUP2 MSTORE PUSH1 0x20 ADD SWAP1 DUP2 MSTORE PUSH1 0x20 ADD PUSH0 KECCAK256 PUSH0 SWAP1 SLOAD SWAP1 PUSH2 0x100 EXP SWAP1 DIV PUSH1 0xFF AND SWAP1 POP SWAP3 SWAP2 POP POP JUMP JUMPDEST PUSH0 CALLER SWAP1 POP SWAP1 JUMP JUMPDEST PUSH1 0x40 MLOAD DUP1 PUSH1 0xA0 ADD PUSH1 0x40 MSTORE DUP1 PUSH0 ISZERO ISZERO DUP2 MSTORE PUSH1 0x20 ADD PUSH0 ISZERO ISZERO DUP2 MSTORE PUSH1 0x20 ADD PUSH0 PUSH1 0xFF AND DUP2 MSTORE PUSH1 0x20 ADD PUSH0 DUP2 MSTORE PUSH1 0x20 ADD PUSH0 PUSH20 0xFFFFFFFFFFFFFFFFFFFFFFFFFFFFFFFFFFFFFFFF AND DUP2 MSTORE POP SWAP1 JUMP JUMPDEST PUSH0 DUP1 REVERT JUMPDEST PUSH0 DUP2 SWAP1 POP SWAP2 SWAP1 POP JUMP JUMPDEST PUSH2 0x445 DUP2 PUSH2 0x433 JUMP JUMPDEST DUP2 EQ PUSH2 0x44F JUMPI PUSH0 DUP1 REVERT JUMPDEST POP JUMP JUMPDEST PUSH0 DUP2 MLOAD SWAP1 POP PUSH2 0x460 DUP2 PUSH2 0x43C JUMP JUMPDEST SWAP3 SWAP2 POP POP JUMP JUMPDEST PUSH0 PUSH20 0xFFFFFFFFFFFFFFFFFFFFFFFFFFFFFFFFFFFFFFFF DUP3 AND SWAP1 POP SWAP2 SWAP1 POP JUMP JUMPDEST PUSH0 PUSH2 0x48F DUP3 PUSH2 0x466 JUMP JUMPDEST SWAP1 POP SWAP2 SWAP1 POP JUMP JUMPDEST PUSH2 0x49F DUP2 PUSH2 0x485 JUMP JUMPDEST DUP2 EQ PUSH2 0x4A9 JUMPI PUSH0 DUP1 REVERT JUMPDEST POP JUMP JUMPDEST PUSH0 DUP2 MLOAD SWAP1 POP PUSH2 0x4BA DUP2 PUSH2 0x496 JUMP JUMPDEST SWAP3 SWAP2 POP POP JUMP JUMPDEST PUSH0 DUP1 PUSH0 PUSH1 0x60 DUP5 DUP7 SUB SLT ISZERO PUSH2 0x4D7 JUMPI PUSH2 0x4D6 PUSH2 0x42F JUMP JUMPDEST JUMPDEST PUSH0 PUSH2 0x4E4 DUP7 DUP3 DUP8 ADD PUSH2 0x452 JUMP JUMPDEST SWAP4 POP POP PUSH1 0x20 PUSH2 0x4F5 DUP7 DUP3 DUP8 ADD PUSH2 0x4AC JUMP JUMPDEST SWAP3 POP POP PUSH1 0x40 PUSH2 0x506 DUP7 DUP3 DUP8 ADD PUSH2 0x452 JUMP JUMPDEST SWAP2 POP POP SWAP3 POP SWAP3 POP SWAP3 JUMP JUMPDEST PUSH0 DUP2 ISZERO ISZERO SWAP1 POP SWAP2 SWAP1 POP JUMP JUMPDEST PUSH2 0x524 DUP2 PUSH2 0x510 JUMP JUMPDEST DUP3 MSTORE POP POP JUMP JUMPDEST PUSH0 DUP2 SWAP1 POP SWAP2 SWAP1 POP JUMP JUMPDEST PUSH0 PUSH1 0xFF DUP3 AND SWAP1 POP SWAP2 SWAP1 POP JUMP JUMPDEST PUSH0 DUP2 SWAP1 POP SWAP2 SWAP1 POP JUMP JUMPDEST PUSH0 PUSH2 0x562 PUSH2 0x55D PUSH2 0x558 DUP5 PUSH2 0x52A JUMP JUMPDEST PUSH2 0x53F JUMP JUMPDEST PUSH2 0x533 JUMP JUMPDEST SWAP1 POP SWAP2 SWAP1 POP JUMP JUMPDEST PUSH2 0x572 DUP2 PUSH2 0x548 JUMP JUMPDEST DUP3 MSTORE POP POP JUMP JUMPDEST PUSH2 0x581 DUP2 PUSH2 0x433 JUMP JUMPDEST DUP3 MSTORE POP POP JUMP JUMPDEST PUSH2 0x590 DUP2 PUSH2 0x485 JUMP JUMPDEST DUP3 MSTORE POP POP JUMP JUMPDEST PUSH0 PUSH1 0xA0 DUP3 ADD SWAP1 POP PUSH2 0x5A9 PUSH0 DUP4 ADD DUP9 PUSH2 0x51B JUMP JUMPDEST PUSH2 0x5B6 PUSH1 0x20 DUP4 ADD DUP8 PUSH2 0x51B JUMP JUMPDEST PUSH2 0x5C3 PUSH1 0x40 DUP4 ADD DUP7 PUSH2 0x569 JUMP JUMPDEST PUSH2 0x5D0 PUSH1 0x60 DUP4 ADD DUP6 PUSH2 0x578 JUMP JUMPDEST PUSH2 0x5DD PUSH1 0x80 DUP4 ADD DUP5 PUSH2 0x587 JUMP JUMPDEST SWAP7 SWAP6 POP POP POP POP POP POP JUMP JUMPDEST PUSH1 0x80 MLOAD PUSH2 0x2E84 PUSH2 0x61B PUSH0 CODECOPY PUSH0 DUP2 DUP2 PUSH2 0x743 ADD MSTORE DUP2 DUP2 PUSH2 0x76C ADD MSTORE DUP2 DUP2 PUSH2 0xAF8 ADD MSTORE DUP2 DUP2 PUSH2 0xB21 ADD MSTORE PUSH2 0x1B9B ADD MSTORE PUSH2 0x2E84 PUSH0 RETURN INVALID PUSH1 0x80 PUSH1 0x40 MSTORE PUSH1 0x4 CALLDATASIZE LT PUSH2 0x134 JUMPI PUSH0 CALLDATALOAD PUSH1 0xE0 SHR DUP1 PUSH4 0x91D14854 GT PUSH2 0xAA JUMPI DUP1 PUSH4 0xD391014B GT PUSH2 0x6E JUMPI DUP1 PUSH4 0xD391014B EQ PUSH2 0x3E2 JUMPI DUP1 PUSH4 0xD547741F EQ PUSH2 0x40C JUMPI DUP1 PUSH4 0xDCB6E250 EQ PUSH2 0x434 JUMPI DUP1 PUSH4 0xF8B2CB4F EQ PUSH2 0x470 JUMPI DUP1 PUSH4 0xF9BDA21F EQ PUSH2 0x4AC JUMPI DUP1 PUSH4 0xFE136C4E EQ PUSH2 0x4D6 JUMPI PUSH2 0x134 JUMP JUMPDEST DUP1 PUSH4 0x91D14854 EQ PUSH2 0x304 JUMPI DUP1 PUSH4 0x9C50ADEE EQ PUSH2 0x340 JUMPI DUP1 PUSH4 0x9E281A98 EQ PUSH2 0x368 JUMPI DUP1 PUSH4 0xA217FDDF EQ PUSH2 0x390 JUMPI DUP1 PUSH4 0xC311D049 EQ PUSH2 0x3BA JUMPI PUSH2 0x134 JUMP JUMPDEST DUP1 PUSH4 0x2F6EE695 GT PUSH2 0xFC JUMPI DUP1 PUSH4 0x2F6EE695 EQ PUSH2 0x22C JUMPI DUP1 PUSH4 0x31F7D964 EQ PUSH2 0x256 JUMPI DUP1 PUSH4 0x338B5DEA EQ PUSH2 0x280 JUMPI DUP1 PUSH4 0x36568ABE EQ PUSH2 0x2A8 JUMPI DUP1 PUSH4 0x439370B1 EQ PUSH2 0x2D0 JUMPI DUP1 PUSH4 0x4CC05A71 EQ PUSH2 0x2DA JUMPI PUSH2 0x134 JUMP JUMPDEST DUP1 PUSH4 0x1FFC9A7 EQ PUSH2 0x138 JUMPI DUP1 PUSH4 0x248A9CA3 EQ PUSH2 0x174 JUMPI DUP1 PUSH4 0x29608BA6 EQ PUSH2 0x1B0 JUMPI DUP1 PUSH4 0x2DFDF0B5 EQ PUSH2 0x1DA JUMPI DUP1 PUSH4 0x2F2FF15D EQ PUSH2 0x204 JUMPI JUMPDEST PUSH0 DUP1 REVERT JUMPDEST CALLVALUE DUP1 ISZERO PUSH2 0x143 JUMPI PUSH0 DUP1 REVERT JUMPDEST POP PUSH2 0x15E PUSH1 0x4 DUP1 CALLDATASIZE SUB DUP2 ADD SWAP1 PUSH2 0x159 SWAP2 SWAP1 PUSH2 0x247B JUMP JUMPDEST PUSH2 0x516 JUMP JUMPDEST PUSH1 0x40 MLOAD PUSH2 0x16B SWAP2 SWAP1 PUSH2 0x24C0 JUMP JUMPDEST PUSH1 0x40 MLOAD DUP1 SWAP2 SUB SWAP1 RETURN JUMPDEST CALLVALUE DUP1 ISZERO PUSH2 0x17F JUMPI PUSH0 DUP1 REVERT JUMPDEST POP PUSH2 0x19A PUSH1 0x4 DUP1 CALLDATASIZE SUB DUP2 ADD SWAP1 PUSH2 0x195 SWAP2 SWAP1 PUSH2 0x250C JUMP JUMPDEST PUSH2 0x58F JUMP JUMPDEST PUSH1 0x40 MLOAD PUSH2 0x1A7 SWAP2 SWAP1 PUSH2 0x2546 JUMP JUMPDEST PUSH1 0x40 MLOAD DUP1 SWAP2 SUB SWAP1 RETURN JUMPDEST CALLVALUE DUP1 ISZERO PUSH2 0x1BB JUMPI PUSH0 DUP1 REVERT JUMPDEST POP PUSH2 0x1C4 PUSH2 0x5AB JUMP JUMPDEST PUSH1 0x40 MLOAD PUSH2 0x1D1 SWAP2 SWAP1 PUSH2 0x2577 JUMP JUMPDEST PUSH1 0x40 MLOAD DUP1 SWAP2 SUB SWAP1 RETURN JUMPDEST CALLVALUE DUP1 ISZERO PUSH2 0x1E5 JUMPI PUSH0 DUP1 REVERT JUMPDEST POP PUSH2 0x1EE PUSH2 0x5B1 JUMP JUMPDEST PUSH1 0x40 MLOAD PUSH2 0x1FB SWAP2 SWAP1 PUSH2 0x2577 JUMP JUMPDEST PUSH1 0x40 MLOAD DUP1 SWAP2 SUB SWAP1 RETURN JUMPDEST CALLVALUE DUP1 ISZERO PUSH2 0x20F JUMPI PUSH0 DUP1 REVERT JUMPDEST POP PUSH2 0x22A PUSH1 0x4 DUP1 CALLDATASIZE SUB DUP2 ADD SWAP1 PUSH2 0x225 SWAP2 SWAP1 PUSH2 0x25EA JUMP JUMPDEST PUSH2 0x5B7 JUMP JUMPDEST STOP JUMPDEST CALLVALUE DUP1 ISZERO PUSH2 0x237 JUMPI PUSH0 DUP1 REVERT JUMPDEST POP PUSH2 0x240 PUSH2 0x5D9 JUMP JUMPDEST PUSH1 0x40 MLOAD PUSH2 0x24D SWAP2 SWAP1 PUSH2 0x2643 JUMP JUMPDEST PUSH1 0x40 MLOAD DUP1 SWAP2 SUB SWAP1 RETURN JUMPDEST CALLVALUE DUP1 ISZERO PUSH2 0x261 JUMPI PUSH0 DUP1 REVERT JUMPDEST POP PUSH2 0x26A PUSH2 0x5DE JUMP JUMPDEST PUSH1 0x40 MLOAD PUSH2 0x277 SWAP2 SWAP1 PUSH2 0x266B JUMP JUMPDEST PUSH1 0x40 MLOAD DUP1 SWAP2 SUB SWAP1 RETURN JUMPDEST CALLVALUE DUP1 ISZERO PUSH2 0x28B JUMPI PUSH0 DUP1 REVERT JUMPDEST POP PUSH2 0x2A6 PUSH1 0x4 DUP1 CALLDATASIZE SUB DUP2 ADD SWAP1 PUSH2 0x2A1 SWAP2 SWAP1 PUSH2 0x26AE JUMP JUMPDEST PUSH2 0x5E2 JUMP JUMPDEST STOP JUMPDEST CALLVALUE DUP1 ISZERO PUSH2 0x2B3 JUMPI PUSH0 DUP1 REVERT JUMPDEST POP PUSH2 0x2CE PUSH1 0x4 DUP1 CALLDATASIZE SUB DUP2 ADD SWAP1 PUSH2 0x2C9 SWAP2 SWAP1 PUSH2 0x25EA JUMP JUMPDEST PUSH2 0x98D JUMP JUMPDEST STOP JUMPDEST PUSH2 0x2D8 PUSH2 0xA08 JUMP JUMPDEST STOP JUMPDEST CALLVALUE DUP1 ISZERO PUSH2 0x2E5 JUMPI PUSH0 DUP1 REVERT JUMPDEST POP PUSH2 0x2EE PUSH2 0xD12 JUMP JUMPDEST PUSH1 0x40 MLOAD PUSH2 0x2FB SWAP2 SWAP1 PUSH2 0x2577 JUMP JUMPDEST PUSH1 0x40 MLOAD DUP1 SWAP2 SUB SWAP1 RETURN JUMPDEST CALLVALUE DUP1 ISZERO PUSH2 0x30F JUMPI PUSH0 DUP1 REVERT JUMPDEST POP PUSH2 0x32A PUSH1 0x4 DUP1 CALLDATASIZE SUB DUP2 ADD SWAP1 PUSH2 0x325 SWAP2 SWAP1 PUSH2 0x25EA JUMP JUMPDEST PUSH2 0xD18 JUMP JUMPDEST PUSH1 0x40 MLOAD PUSH2 0x337 SWAP2 SWAP1 PUSH2 0x24C0 JUMP JUMPDEST PUSH1 0x40 MLOAD DUP1 SWAP2 SUB SWAP1 RETURN JUMPDEST CALLVALUE DUP1 ISZERO PUSH2 0x34B JUMPI PUSH0 DUP1 REVERT JUMPDEST POP PUSH2 0x366 PUSH1 0x4 DUP1 CALLDATASIZE SUB DUP2 ADD SWAP1 PUSH2 0x361 SWAP2 SWAP1 PUSH2 0x2740 JUMP JUMPDEST PUSH2 0xD7B JUMP JUMPDEST STOP JUMPDEST CALLVALUE DUP1 ISZERO PUSH2 0x373 JUMPI PUSH0 DUP1 REVERT JUMPDEST POP PUSH2 0x38E PUSH1 0x4 DUP1 CALLDATASIZE SUB DUP2 ADD SWAP1 PUSH2 0x389 SWAP2 SWAP1 PUSH2 0x26AE JUMP JUMPDEST PUSH2 0x101C JUMP JUMPDEST STOP JUMPDEST CALLVALUE DUP1 ISZERO PUSH2 0x39B JUMPI PUSH0 DUP1 REVERT JUMPDEST POP PUSH2 0x3A4 PUSH2 0x152B JUMP JUMPDEST PUSH1 0x40 MLOAD PUSH2 0x3B1 SWAP2 SWAP1 PUSH2 0x2546 JUMP JUMPDEST PUSH1 0x40 MLOAD DUP1 SWAP2 SUB SWAP1 RETURN JUMPDEST CALLVALUE DUP1 ISZERO PUSH2 0x3C5 JUMPI PUSH0 DUP1 REVERT JUMPDEST POP PUSH2 0x3E0 PUSH1 0x4 DUP1 CALLDATASIZE SUB DUP2 ADD SWAP1 PUSH2 0x3DB SWAP2 SWAP1 PUSH2 0x27B7 JUMP JUMPDEST PUSH2 0x1531 JUMP JUMPDEST STOP JUMPDEST CALLVALUE DUP1 ISZERO PUSH2 0x3ED JUMPI PUSH0 DUP1 REVERT JUMPDEST POP PUSH2 0x3F6 PUSH2 0x1A42 JUMP JUMPDEST PUSH1 0x40 MLOAD PUSH2 0x403 SWAP2 SWAP1 PUSH2 0x2546 JUMP JUMPDEST PUSH1 0x40 MLOAD DUP1 SWAP2 SUB SWAP1 RETURN JUMPDEST CALLVALUE DUP1 ISZERO PUSH2 0x417 JUMPI PUSH0 DUP1 REVERT JUMPDEST POP PUSH2 0x432 PUSH1 0x4 DUP1 CALLDATASIZE SUB DUP2 ADD SWAP1 PUSH2 0x42D SWAP2 SWAP1 PUSH2 0x25EA JUMP JUMPDEST PUSH2 0x1A66 JUMP JUMPDEST STOP JUMPDEST CALLVALUE DUP1 ISZERO PUSH2 0x43F JUMPI PUSH0 DUP1 REVERT JUMPDEST POP PUSH2 0x45A PUSH1 0x4 DUP1 CALLDATASIZE SUB DUP2 ADD SWAP1 PUSH2 0x455 SWAP2 SWAP1 PUSH2 0x27E2 JUMP JUMPDEST PUSH2 0x1A88 JUMP JUMPDEST PUSH1 0x40 MLOAD PUSH2 0x467 SWAP2 SWAP1 PUSH2 0x2577 JUMP JUMPDEST PUSH1 0x40 MLOAD DUP1 SWAP2 SUB SWAP1 RETURN JUMPDEST CALLVALUE DUP1 ISZERO PUSH2 0x47B JUMPI PUSH0 DUP1 REVERT JUMPDEST POP PUSH2 0x496 PUSH1 0x4 DUP1 CALLDATASIZE SUB DUP2 ADD SWAP1 PUSH2 0x491 SWAP2 SWAP1 PUSH2 0x2820 JUMP JUMPDEST PUSH2 0x1B18 JUMP JUMPDEST PUSH1 0x40 MLOAD PUSH2 0x4A3 SWAP2 SWAP1 PUSH2 0x2577 JUMP JUMPDEST PUSH1 0x40 MLOAD DUP1 SWAP2 SUB SWAP1 RETURN JUMPDEST CALLVALUE DUP1 ISZERO PUSH2 0x4B7 JUMPI PUSH0 DUP1 REVERT JUMPDEST POP PUSH2 0x4C0 PUSH2 0x1B99 JUMP JUMPDEST PUSH1 0x40 MLOAD PUSH2 0x4CD SWAP2 SWAP1 PUSH2 0x2577 JUMP JUMPDEST PUSH1 0x40 MLOAD DUP1 SWAP2 SUB SWAP1 RETURN JUMPDEST CALLVALUE DUP1 ISZERO PUSH2 0x4E1 JUMPI PUSH0 DUP1 REVERT JUMPDEST POP PUSH2 0x4FC PUSH1 0x4 DUP1 CALLDATASIZE SUB DUP2 ADD SWAP1 PUSH2 0x4F7 SWAP2 SWAP1 PUSH2 0x2820 JUMP JUMPDEST PUSH2 0x1BBD JUMP JUMPDEST PUSH1 0x40 MLOAD PUSH2 0x50D SWAP6 SWAP5 SWAP4 SWAP3 SWAP2 SWAP1 PUSH2 0x284B JUMP JUMPDEST PUSH1 0x40 MLOAD DUP1 SWAP2 SUB SWAP1 RETURN JUMPDEST PUSH0 PUSH32 0x7965DB0B00000000000000000000000000000000000000000000000000000000 PUSH28 0xFFFFFFFFFFFFFFFFFFFFFFFFFFFFFFFFFFFFFFFFFFFFFFFFFFFFFFFF NOT AND DUP3 PUSH28 0xFFFFFFFFFFFFFFFFFFFFFFFFFFFFFFFFFFFFFFFFFFFFFFFFFFFFFFFF NOT AND EQ DUP1 PUSH2 0x588 JUMPI POP PUSH2 0x587 DUP3 PUSH2 0x1C32 JUMP JUMPDEST JUMPDEST SWAP1 POP SWAP2 SWAP1 POP JUMP JUMPDEST PUSH0 DUP1 PUSH0 DUP4 DUP2 MSTORE PUSH1 0x20 ADD SWAP1 DUP2 MSTORE PUSH1 0x20 ADD PUSH0 KECCAK256 PUSH1 0x1 ADD SLOAD SWAP1 POP SWAP2 SWAP1 POP JUMP JUMPDEST PUSH1 0x2 SLOAD DUP2 JUMP JUMPDEST PUSH1 0x3 SLOAD DUP2 JUMP JUMPDEST PUSH2 0x5C0 DUP3 PUSH2 0x58F JUMP JUMPDEST PUSH2 0x5C9 DUP2 PUSH2 0x1C9B JUMP JUMPDEST PUSH2 0x5D3 DUP4 DUP4 PUSH2 0x1CAF JUMP JUMPDEST POP POP POP POP JUMP JUMPDEST PUSH1 0x6 DUP2 JUMP JUMPDEST PUSH0 DUP2 JUMP JUMPDEST PUSH2 0x5EA PUSH2 0x1D98 JUMP JUMPDEST DUP1 PUSH0 DUP2 SUB PUSH2 0x624 JUMPI PUSH1 0x40 MLOAD PUSH32 0x1F2A200500000000000000000000000000000000000000000000000000000000 DUP2 MSTORE PUSH1 0x4 ADD PUSH1 0x40 MLOAD DUP1 SWAP2 SUB SWAP1 REVERT JUMPDEST DUP3 PUSH0 PUSH20 0xFFFFFFFFFFFFFFFFFFFFFFFFFFFFFFFFFFFFFFFF AND DUP2 PUSH20 0xFFFFFFFFFFFFFFFFFFFFFFFFFFFFFFFFFFFFFFFF AND SUB PUSH2 0x695 JUMPI DUP1 PUSH1 0x40 MLOAD PUSH32 0xBF16AAB600000000000000000000000000000000000000000000000000000000 DUP2 MSTORE PUSH1 0x4 ADD PUSH2 0x68C SWAP2 SWAP1 PUSH2 0x266B JUMP JUMPDEST PUSH1 0x40 MLOAD DUP1 SWAP2 SUB SWAP1 REVERT JUMPDEST DUP4 PUSH1 0x6 PUSH0 DUP3 PUSH20 0xFFFFFFFFFFFFFFFFFFFFFFFFFFFFFFFFFFFFFFFF AND PUSH20 0xFFFFFFFFFFFFFFFFFFFFFFFFFFFFFFFFFFFFFFFF AND DUP2 MSTORE PUSH1 0x20 ADD SWAP1 DUP2 MSTORE PUSH1 0x20 ADD PUSH0 KECCAK256 PUSH0 ADD PUSH0 SWAP1 SLOAD SWAP1 PUSH2 0x100 EXP SWAP1 DIV PUSH1 0xFF AND PUSH2 0x723 JUMPI DUP1 PUSH1 0x40 MLOAD PUSH32 0xBF16AAB600000000000000000000000000000000000000000000000000000000 DUP2 MSTORE PUSH1 0x4 ADD PUSH2 0x71A SWAP2 SWAP1 PUSH2 0x266B JUMP JUMPDEST PUSH1 0x40 MLOAD DUP1 SWAP2 SUB SWAP1 REVERT JUMPDEST PUSH0 PUSH2 0x72E DUP7 DUP7 PUSH2 0x1DE7 JUMP JUMPDEST SWAP1 POP PUSH0 DUP2 PUSH1 0x2 SLOAD PUSH2 0x73F SWAP2 SWAP1 PUSH2 0x28C9 JUMP JUMPDEST SWAP1 POP PUSH32 0x0 DUP2 GT ISZERO PUSH2 0x7C8 JUMPI DUP1 PUSH32 0x0 PUSH1 0x40 MLOAD PUSH32 0xF480E28500000000000000000000000000000000000000000000000000000000 DUP2 MSTORE PUSH1 0x4 ADD PUSH2 0x7BF SWAP3 SWAP2 SWAP1 PUSH2 0x28FC JUMP JUMPDEST PUSH1 0x40 MLOAD DUP1 SWAP2 SUB SWAP1 REVERT JUMPDEST DUP6 PUSH1 0x5 PUSH0 DUP10 PUSH20 0xFFFFFFFFFFFFFFFFFFFFFFFFFFFFFFFFFFFFFFFF AND PUSH20 0xFFFFFFFFFFFFFFFFFFFFFFFFFFFFFFFFFFFFFFFF AND DUP2 MSTORE PUSH1 0x20 ADD SWAP1 DUP2 MSTORE PUSH1 0x20 ADD PUSH0 KECCAK256 PUSH0 CALLER PUSH20 0xFFFFFFFFFFFFFFFFFFFFFFFFFFFFFFFFFFFFFFFF AND PUSH20 0xFFFFFFFFFFFFFFFFFFFFFFFFFFFFFFFFFFFFFFFF AND DUP2 MSTORE PUSH1 0x20 ADD SWAP1 DUP2 MSTORE PUSH1 0x20 ADD PUSH0 KECCAK256 PUSH0 DUP3 DUP3 SLOAD PUSH2 0x84F SWAP2 SWAP1 PUSH2 0x28C9 JUMP JUMPDEST SWAP3 POP POP DUP2 SWAP1 SSTORE POP DUP1 PUSH1 0x2 DUP2 SWAP1 SSTORE POP PUSH1 0x3 PUSH0 DUP2 SLOAD DUP1 SWAP3 SWAP2 SWAP1 PUSH1 0x1 ADD SWAP2 SWAP1 POP SSTORE POP PUSH2 0x89B CALLER ADDRESS DUP9 DUP11 PUSH20 0xFFFFFFFFFFFFFFFFFFFFFFFFFFFFFFFFFFFFFFFF AND PUSH2 0x213C SWAP1 SWAP4 SWAP3 SWAP2 SWAP1 PUSH4 0xFFFFFFFF AND JUMP JUMPDEST CALLER PUSH20 0xFFFFFFFFFFFFFFFFFFFFFFFFFFFFFFFFFFFFFFFF AND DUP8 PUSH20 0xFFFFFFFFFFFFFFFFFFFFFFFFFFFFFFFFFFFFFFFF AND PUSH32 0x4E2CA0515ED1AEF1395F66B5303BB5D6F1BF9D61A353FA53F73F8AC9973FA9F6 DUP9 PUSH1 0x5 PUSH0 DUP13 PUSH20 0xFFFFFFFFFFFFFFFFFFFFFFFFFFFFFFFFFFFFFFFF AND PUSH20 0xFFFFFFFFFFFFFFFFFFFFFFFFFFFFFFFFFFFFFFFF AND DUP2 MSTORE PUSH1 0x20 ADD SWAP1 DUP2 MSTORE PUSH1 0x20 ADD PUSH0 KECCAK256 PUSH0 CALLER PUSH20 0xFFFFFFFFFFFFFFFFFFFFFFFFFFFFFFFFFFFFFFFF AND PUSH20 0xFFFFFFFFFFFFFFFFFFFFFFFFFFFFFFFFFFFFFFFF AND DUP2 MSTORE PUSH1 0x20 ADD SWAP1 DUP2 MSTORE PUSH1 0x20 ADD PUSH0 KECCAK256 SLOAD DUP7 PUSH1 0x40 MLOAD PUSH2 0x974 SWAP4 SWAP3 SWAP2 SWAP1 PUSH2 0x2923 JUMP JUMPDEST PUSH1 0x40 MLOAD DUP1 SWAP2 SUB SWAP1 LOG3 POP POP POP POP POP PUSH2 0x989 PUSH2 0x21BE JUMP JUMPDEST POP POP JUMP JUMPDEST PUSH2 0x995 PUSH2 0x21C7 JUMP JUMPDEST PUSH20 0xFFFFFFFFFFFFFFFFFFFFFFFFFFFFFFFFFFFFFFFF AND DUP2 PUSH20 0xFFFFFFFFFFFFFFFFFFFFFFFFFFFFFFFFFFFFFFFF AND EQ PUSH2 0x9F9 JUMPI PUSH1 0x40 MLOAD PUSH32 0x6697B23200000000000000000000000000000000000000000000000000000000 DUP2 MSTORE PUSH1 0x4 ADD PUSH1 0x40 MLOAD DUP1 SWAP2 SUB SWAP1 REVERT JUMPDEST PUSH2 0xA03 DUP3 DUP3 PUSH2 0x21CE JUMP JUMPDEST POP POP POP JUMP JUMPDEST PUSH2 0xA10 PUSH2 0x1D98 JUMP JUMPDEST CALLVALUE PUSH0 DUP2 SUB PUSH2 0xA4A JUMPI PUSH1 0x40 MLOAD PUSH32 0x1F2A200500000000000000000000000000000000000000000000000000000000 DUP2 MSTORE PUSH1 0x4 ADD PUSH1 0x40 MLOAD DUP1 SWAP2 SUB SWAP1 REVERT JUMPDEST PUSH0 PUSH1 0x6 PUSH0 DUP3 PUSH20 0xFFFFFFFFFFFFFFFFFFFFFFFFFFFFFFFFFFFFFFFF AND PUSH20 0xFFFFFFFFFFFFFFFFFFFFFFFFFFFFFFFFFFFFFFFF AND DUP2 MSTORE PUSH1 0x20 ADD SWAP1 DUP2 MSTORE PUSH1 0x20 ADD PUSH0 KECCAK256 PUSH0 ADD PUSH0 SWAP1 SLOAD SWAP1 PUSH2 0x100 EXP SWAP1 DIV PUSH1 0xFF AND PUSH2 0xAD8 JUMPI DUP1 PUSH1 0x40 MLOAD PUSH32 0xBF16AAB600000000000000000000000000000000000000000000000000000000 DUP2 MSTORE PUSH1 0x4 ADD PUSH2 0xACF SWAP2 SWAP1 PUSH2 0x266B JUMP JUMPDEST PUSH1 0x40 MLOAD DUP1 SWAP2 SUB SWAP1 REVERT JUMPDEST PUSH0 PUSH2 0xAE3 PUSH0 CALLVALUE PUSH2 0x1DE7 JUMP JUMPDEST SWAP1 POP PUSH0 DUP2 PUSH1 0x2 SLOAD PUSH2 0xAF4 SWAP2 SWAP1 PUSH2 0x28C9 JUMP JUMPDEST SWAP1 POP PUSH32 0x0 DUP2 GT ISZERO PUSH2 0xB7D JUMPI DUP1 PUSH32 0x0 PUSH1 0x40 MLOAD PUSH32 0xF480E28500000000000000000000000000000000000000000000000000000000 DUP2 MSTORE PUSH1 0x4 ADD PUSH2 0xB74 SWAP3 SWAP2 SWAP1 PUSH2 0x28FC JUMP JUMPDEST PUSH1 0x40 MLOAD DUP1 SWAP2 SUB SWAP1 REVERT JUMPDEST CALLVALUE PUSH1 0x5 PUSH0 DUP1 PUSH20 0xFFFFFFFFFFFFFFFFFFFFFFFFFFFFFFFFFFFFFFFF AND PUSH20 0xFFFFFFFFFFFFFFFFFFFFFFFFFFFFFFFFFFFFFFFF AND DUP2 MSTORE PUSH1 0x20 ADD SWAP1 DUP2 MSTORE PUSH1 0x20 ADD PUSH0 KECCAK256 PUSH0 CALLER PUSH20 0xFFFFFFFFFFFFFFFFFFFFFFFFFFFFFFFFFFFFFFFF AND PUSH20 0xFFFFFFFFFFFFFFFFFFFFFFFFFFFFFFFFFFFFFFFF AND DUP2 MSTORE PUSH1 0x20 ADD SWAP1 DUP2 MSTORE PUSH1 0x20 ADD PUSH0 KECCAK256 PUSH0 DUP3 DUP3 SLOAD PUSH2 0xC04 SWAP2 SWAP1 PUSH2 0x28C9 JUMP JUMPDEST SWAP3 POP POP DUP2 SWAP1 SSTORE POP DUP1 PUSH1 0x2 DUP2 SWAP1 SSTORE POP PUSH1 0x3 PUSH0 DUP2 SLOAD DUP1 SWAP3 SWAP2 SWAP1 PUSH1 0x1 ADD SWAP2 SWAP1 POP SSTORE POP CALLER PUSH20 0xFFFFFFFFFFFFFFFFFFFFFFFFFFFFFFFFFFFFFFFF AND PUSH0 PUSH20 0xFFFFFFFFFFFFFFFFFFFFFFFFFFFFFFFFFFFFFFFF AND PUSH32 0x4E2CA0515ED1AEF1395F66B5303BB5D6F1BF9D61A353FA53F73F8AC9973FA9F6 CALLVALUE PUSH1 0x5 PUSH0 DUP1 PUSH20 0xFFFFFFFFFFFFFFFFFFFFFFFFFFFFFFFFFFFFFFFF AND PUSH20 0xFFFFFFFFFFFFFFFFFFFFFFFFFFFFFFFFFFFFFFFF AND DUP2 MSTORE PUSH1 0x20 ADD SWAP1 DUP2 MSTORE PUSH1 0x20 ADD PUSH0 KECCAK256 PUSH0 CALLER PUSH20 0xFFFFFFFFFFFFFFFFFFFFFFFFFFFFFFFFFFFFFFFF AND PUSH20 0xFFFFFFFFFFFFFFFFFFFFFFFFFFFFFFFFFFFFFFFF AND DUP2 MSTORE PUSH1 0x20 ADD SWAP1 DUP2 MSTORE PUSH1 0x20 ADD PUSH0 KECCAK256 SLOAD DUP7 PUSH1 0x40 MLOAD PUSH2 0xCFC SWAP4 SWAP3 SWAP2 SWAP1 PUSH2 0x2923 JUMP JUMPDEST PUSH1 0x40 MLOAD DUP1 SWAP2 SUB SWAP1 LOG3 POP POP POP POP PUSH2 0xD10 PUSH2 0x21BE JUMP JUMPDEST JUMP JUMPDEST PUSH1 0x4 SLOAD DUP2 JUMP JUMPDEST PUSH0 DUP1 PUSH0 DUP5 DUP2 MSTORE PUSH1 0x20 ADD SWAP1 DUP2 MSTORE PUSH1 0x20 ADD PUSH0 KECCAK256 PUSH0 ADD PUSH0 DUP4 PUSH20 0xFFFFFFFFFFFFFFFFFFFFFFFFFFFFFFFFFFFFFFFF AND PUSH20 0xFFFFFFFFFFFFFFFFFFFFFFFFFFFFFFFFFFFFFFFF AND DUP2 MSTORE PUSH1 0x20 ADD SWAP1 DUP2 MSTORE PUSH1 0x20 ADD PUSH0 KECCAK256 PUSH0 SWAP1 SLOAD SWAP1 PUSH2 0x100 EXP SWAP1 DIV PUSH1 0xFF AND SWAP1 POP SWAP3 SWAP2 POP POP JUMP JUMPDEST PUSH32 0x2172861495E7B85EDAC73E3CD5FBB42DD675BAADF627720E687BCFDACA025096 PUSH2 0xDA5 DUP2 PUSH2 0x1C9B JUMP JUMPDEST PUSH0 PUSH20 0xFFFFFFFFFFFFFFFFFFFFFFFFFFFFFFFFFFFFFFFF AND DUP7 PUSH20 0xFFFFFFFFFFFFFFFFFFFFFFFFFFFFFFFFFFFFFFFF AND SUB PUSH2 0xE15 JUMPI DUP6 PUSH1 0x40 MLOAD PUSH32 0xBF16AAB600000000000000000000000000000000000000000000000000000000 DUP2 MSTORE PUSH1 0x4 ADD PUSH2 0xE0C SWAP2 SWAP1 PUSH2 0x266B JUMP JUMPDEST PUSH1 0x40 MLOAD DUP1 SWAP2 SUB SWAP1 REVERT JUMPDEST PUSH0 PUSH1 0x6 PUSH0 DUP9 PUSH20 0xFFFFFFFFFFFFFFFFFFFFFFFFFFFFFFFFFFFFFFFF AND PUSH20 0xFFFFFFFFFFFFFFFFFFFFFFFFFFFFFFFFFFFFFFFF AND DUP2 MSTORE PUSH1 0x20 ADD SWAP1 DUP2 MSTORE PUSH1 0x20 ADD PUSH0 KECCAK256 SWAP1 POP DUP6 DUP2 PUSH0 ADD PUSH0 PUSH2 0x100 EXP DUP2 SLOAD DUP2 PUSH1 0xFF MUL NOT AND SWAP1 DUP4 ISZERO ISZERO MUL OR SWAP1 SSTORE POP PUSH0 DUP2 PUSH0 ADD PUSH1 0x1 PUSH2 0x100 EXP DUP2 SLOAD DUP2 PUSH1 0xFF MUL NOT AND SWAP1 DUP4 ISZERO ISZERO MUL OR SWAP1 SSTORE POP PUSH0 DUP6 PUSH1 0xFF AND SUB PUSH2 0xF45 JUMPI DUP7 PUSH20 0xFFFFFFFFFFFFFFFFFFFFFFFFFFFFFFFFFFFFFFFF AND PUSH4 0x313CE567 PUSH1 0x40 MLOAD DUP2 PUSH4 0xFFFFFFFF AND PUSH1 0xE0 SHL DUP2 MSTORE PUSH1 0x4 ADD PUSH1 0x20 PUSH1 0x40 MLOAD DUP1 DUP4 SUB DUP2 DUP7 GAS STATICCALL SWAP3 POP POP POP DUP1 ISZERO PUSH2 0xEFC JUMPI POP PUSH1 0x40 MLOAD RETURNDATASIZE PUSH1 0x1F NOT PUSH1 0x1F DUP3 ADD AND DUP3 ADD DUP1 PUSH1 0x40 MSTORE POP DUP2 ADD SWAP1 PUSH2 0xEF9 SWAP2 SWAP1 PUSH2 0x296C JUMP JUMPDEST PUSH1 0x1 JUMPDEST PUSH2 0xF22 JUMPI PUSH1 0x12 DUP2 PUSH0 ADD PUSH1 0x2 PUSH2 0x100 EXP DUP2 SLOAD DUP2 PUSH1 0xFF MUL NOT AND SWAP1 DUP4 PUSH1 0xFF AND MUL OR SWAP1 SSTORE POP PUSH2 0xF40 JUMP JUMPDEST DUP1 DUP3 PUSH0 ADD PUSH1 0x2 PUSH2 0x100 EXP DUP2 SLOAD DUP2 PUSH1 0xFF MUL NOT AND SWAP1 DUP4 PUSH1 0xFF AND MUL OR SWAP1 SSTORE POP POP JUMPDEST PUSH2 0xF62 JUMP JUMPDEST DUP5 DUP2 PUSH0 ADD PUSH1 0x2 PUSH2 0x100 EXP DUP2 SLOAD DUP2 PUSH1 0xFF MUL NOT AND SWAP1 DUP4 PUSH1 0xFF AND MUL OR SWAP1 SSTORE POP JUMPDEST DUP4 DUP2 PUSH1 0x1 ADD DUP2 SWAP1 SSTORE POP DUP3 DUP2 PUSH1 0x2 ADD PUSH0 PUSH2 0x100 EXP DUP2 SLOAD DUP2 PUSH20 0xFFFFFFFFFFFFFFFFFFFFFFFFFFFFFFFFFFFFFFFF MUL NOT AND SWAP1 DUP4 PUSH20 0xFFFFFFFFFFFFFFFFFFFFFFFFFFFFFFFFFFFFFFFF AND MUL OR SWAP1 SSTORE POP DUP7 PUSH20 0xFFFFFFFFFFFFFFFFFFFFFFFFFFFFFFFFFFFFFFFF AND PUSH32 0xCEEC6D18B470B58EABBFC22B7D771C54609ACB2BBE777747424F6E9A5A9D5A25 DUP8 PUSH0 DUP5 PUSH0 ADD PUSH1 0x2 SWAP1 SLOAD SWAP1 PUSH2 0x100 EXP SWAP1 DIV PUSH1 0xFF AND DUP9 DUP9 PUSH1 0x40 MLOAD PUSH2 0x100B SWAP6 SWAP5 SWAP4 SWAP3 SWAP2 SWAP1 PUSH2 0x284B JUMP JUMPDEST PUSH1 0x40 MLOAD DUP1 SWAP2 SUB SWAP1 LOG2 POP POP POP POP POP POP POP JUMP JUMPDEST PUSH2 0x1024 PUSH2 0x1D98 JUMP JUMPDEST DUP1 PUSH0 DUP2 SUB PUSH2 0x105E JUMPI PUSH1 0x40 MLOAD PUSH32 0x1F2A200500000000000000000000000000000000000000000000000000000000 DUP2 MSTORE PUSH1 0x4 ADD PUSH1 0x40 MLOAD DUP1 SWAP2 SUB SWAP1 REVERT JUMPDEST DUP3 PUSH0 PUSH20 0xFFFFFFFFFFFFFFFFFFFFFFFFFFFFFFFFFFFFFFFF AND DUP2 PUSH20 0xFFFFFFFFFFFFFFFFFFFFFFFFFFFFFFFFFFFFFFFF AND SUB PUSH2 0x10CF JUMPI DUP1 PUSH1 0x40 MLOAD PUSH32 0xBF16AAB600000000000000000000000000000000000000000000000000000000 DUP2 MSTORE PUSH1 0x4 ADD PUSH2 0x10C6 SWAP2 SWAP1 PUSH2 0x266B JUMP JUMPDEST PUSH1 0x40 MLOAD DUP1 SWAP2 SUB SWAP1 REVERT JUMPDEST DUP4 PUSH1 0x6 PUSH0 DUP3 PUSH20 0xFFFFFFFFFFFFFFFFFFFFFFFFFFFFFFFFFFFFFFFF AND PUSH20 0xFFFFFFFFFFFFFFFFFFFFFFFFFFFFFFFFFFFFFFFF AND DUP2 MSTORE PUSH1 0x20 ADD SWAP1 DUP2 MSTORE PUSH1 0x20 ADD PUSH0 KECCAK256 PUSH0 ADD PUSH0 SWAP1 SLOAD SWAP1 PUSH2 0x100 EXP SWAP1 DIV PUSH1 0xFF AND PUSH2 0x115D JUMPI DUP1 PUSH1 0x40 MLOAD PUSH32 0xBF16AAB600000000000000000000000000000000000000000000000000000000 DUP2 MSTORE PUSH1 0x4 ADD PUSH2 0x1154 SWAP2 SWAP1 PUSH2 0x266B JUMP JUMPDEST PUSH1 0x40 MLOAD DUP1 SWAP2 SUB SWAP1 REVERT JUMPDEST DUP5 DUP5 PUSH0 PUSH1 0x6 PUSH0 DUP5 PUSH20 0xFFFFFFFFFFFFFFFFFFFFFFFFFFFFFFFFFFFFFFFF AND PUSH20 0xFFFFFFFFFFFFFFFFFFFFFFFFFFFFFFFFFFFFFFFF AND DUP2 MSTORE PUSH1 0x20 ADD SWAP1 DUP2 MSTORE PUSH1 0x20 ADD PUSH0 KECCAK256 PUSH1 0x40 MLOAD DUP1 PUSH1 0xA0 ADD PUSH1 0x40 MSTORE SWAP1 DUP2 PUSH0 DUP3 ADD PUSH0 SWAP1 SLOAD SWAP1 PUSH2 0x100 EXP SWAP1 DIV PUSH1 0xFF AND ISZERO ISZERO ISZERO ISZERO DUP2 MSTORE PUSH1 0x20 ADD PUSH0 DUP3 ADD PUSH1 0x1 SWAP1 SLOAD SWAP1 PUSH2 0x100 EXP SWAP1 DIV PUSH1 0xFF AND ISZERO ISZERO ISZERO ISZERO DUP2 MSTORE PUSH1 0x20 ADD PUSH0 DUP3 ADD PUSH1 0x2 SWAP1 SLOAD SWAP1 PUSH2 0x100 EXP SWAP1 DIV PUSH1 0xFF AND PUSH1 0xFF AND PUSH1 0xFF AND DUP2 MSTORE PUSH1 0x20 ADD PUSH1 0x1 DUP3 ADD SLOAD DUP2 MSTORE PUSH1 0x20 ADD PUSH1 0x2 DUP3 ADD PUSH0 SWAP1 SLOAD SWAP1 PUSH2 0x100 EXP SWAP1 DIV PUSH20 0xFFFFFFFFFFFFFFFFFFFFFFFFFFFFFFFFFFFFFFFF AND PUSH20 0xFFFFFFFFFFFFFFFFFFFFFFFFFFFFFFFFFFFFFFFF AND PUSH20 0xFFFFFFFFFFFFFFFFFFFFFFFFFFFFFFFFFFFFFFFF AND DUP2 MSTORE POP POP SWAP1 POP DUP1 PUSH1 0x60 ADD MLOAD DUP3 GT ISZERO PUSH2 0x12A7 JUMPI DUP2 DUP2 PUSH1 0x60 ADD MLOAD PUSH1 0x40 MLOAD PUSH32 0x16D0EF100000000000000000000000000000000000000000000000000000000 DUP2 MSTORE PUSH1 0x4 ADD PUSH2 0x129E SWAP3 SWAP2 SWAP1 PUSH2 0x28FC JUMP JUMPDEST PUSH1 0x40 MLOAD DUP1 SWAP2 SUB SWAP1 REVERT JUMPDEST PUSH0 PUSH1 0x5 PUSH0 DUP11 PUSH20 0xFFFFFFFFFFFFFFFFFFFFFFFFFFFFFFFFFFFFFFFF AND PUSH20 0xFFFFFFFFFFFFFFFFFFFFFFFFFFFFFFFFFFFFFFFF AND DUP2 MSTORE PUSH1 0x20 ADD SWAP1 DUP2 MSTORE PUSH1 0x20 ADD PUSH0 KECCAK256 PUSH0 CALLER PUSH20 0xFFFFFFFFFFFFFFFFFFFFFFFFFFFFFFFFFFFFFFFF AND PUSH20 0xFFFFFFFFFFFFFFFFFFFFFFFFFFFFFFFFFFFFFFFF AND DUP2 MSTORE PUSH1 0x20 ADD SWAP1 DUP2 MSTORE PUSH1 0x20 ADD PUSH0 KECCAK256 SLOAD SWAP1 POP DUP8 DUP2 LT ISZERO PUSH2 0x136A JUMPI DUP1 DUP9 PUSH1 0x40 MLOAD PUSH32 0xCF47918100000000000000000000000000000000000000000000000000000000 DUP2 MSTORE PUSH1 0x4 ADD PUSH2 0x1361 SWAP3 SWAP2 SWAP1 PUSH2 0x28FC JUMP JUMPDEST PUSH1 0x40 MLOAD DUP1 SWAP2 SUB SWAP1 REVERT JUMPDEST DUP8 DUP2 PUSH2 0x1376 SWAP2 SWAP1 PUSH2 0x2997 JUMP JUMPDEST PUSH1 0x5 PUSH0 DUP12 PUSH20 0xFFFFFFFFFFFFFFFFFFFFFFFFFFFFFFFFFFFFFFFF AND PUSH20 0xFFFFFFFFFFFFFFFFFFFFFFFFFFFFFFFFFFFFFFFF AND DUP2 MSTORE PUSH1 0x20 ADD SWAP1 DUP2 MSTORE PUSH1 0x20 ADD PUSH0 KECCAK256 PUSH0 CALLER PUSH20 0xFFFFFFFFFFFFFFFFFFFFFFFFFFFFFFFFFFFFFFFF AND PUSH20 0xFFFFFFFFFFFFFFFFFFFFFFFFFFFFFFFFFFFFFFFF AND DUP2 MSTORE PUSH1 0x20 ADD SWAP1 DUP2 MSTORE PUSH1 0x20 ADD PUSH0 KECCAK256 DUP2 SWAP1 SSTORE POP PUSH1 0x4 PUSH0 DUP2 SLOAD DUP1 SWAP3 SWAP2 SWAP1 PUSH1 0x1 ADD SWAP2 SWAP1 POP SSTORE POP PUSH2 0x142E CALLER DUP10 DUP12 PUSH20 0xFFFFFFFFFFFFFFFFFFFFFFFFFFFFFFFFFFFFFFFF AND PUSH2 0x22B7 SWAP1 SWAP3 SWAP2 SWAP1 PUSH4 0xFFFFFFFF AND JUMP JUMPDEST CALLER PUSH20 0xFFFFFFFFFFFFFFFFFFFFFFFFFFFFFFFFFFFFFFFF AND DUP10 PUSH20 0xFFFFFFFFFFFFFFFFFFFFFFFFFFFFFFFFFFFFFFFF AND PUSH32 0xEBFF2602B3F468259E1E99F613FED6691F3A6526EFFE6EF3E768BA7AE7A36C4F DUP11 PUSH1 0x5 PUSH0 DUP15 PUSH20 0xFFFFFFFFFFFFFFFFFFFFFFFFFFFFFFFFFFFFFFFF AND PUSH20 0xFFFFFFFFFFFFFFFFFFFFFFFFFFFFFFFFFFFFFFFF AND DUP2 MSTORE PUSH1 0x20 ADD SWAP1 DUP2 MSTORE PUSH1 0x20 ADD PUSH0 KECCAK256 PUSH0 CALLER PUSH20 0xFFFFFFFFFFFFFFFFFFFFFFFFFFFFFFFFFFFFFFFF AND PUSH20 0xFFFFFFFFFFFFFFFFFFFFFFFFFFFFFFFFFFFFFFFF AND DUP2 MSTORE PUSH1 0x20 ADD SWAP1 DUP2 MSTORE PUSH1 0x20 ADD PUSH0 KECCAK256 SLOAD PUSH2 0x1501 DUP15 DUP15 PUSH2 0x1DE7 JUMP JUMPDEST PUSH1 0x40 MLOAD PUSH2 0x1510 SWAP4 SWAP3 SWAP2 SWAP1 PUSH2 0x2923 JUMP JUMPDEST PUSH1 0x40 MLOAD DUP1 SWAP2 SUB SWAP1 LOG3 POP POP POP POP POP POP POP PUSH2 0x1527 PUSH2 0x21BE JUMP JUMPDEST POP POP JUMP JUMPDEST PUSH0 DUP1 SHL DUP2 JUMP JUMPDEST PUSH2 0x1539 PUSH2 0x1D98 JUMP JUMPDEST DUP1 PUSH0 DUP2 SUB PUSH2 0x1573 JUMPI PUSH1 0x40 MLOAD PUSH32 0x1F2A200500000000000000000000000000000000000000000000000000000000 DUP2 MSTORE PUSH1 0x4 ADD PUSH1 0x40 MLOAD DUP1 SWAP2 SUB SWAP1 REVERT JUMPDEST PUSH0 PUSH1 0x6 PUSH0 DUP3 PUSH20 0xFFFFFFFFFFFFFFFFFFFFFFFFFFFFFFFFFFFFFFFF AND PUSH20 0xFFFFFFFFFFFFFFFFFFFFFFFFFFFFFFFFFFFFFFFF AND DUP2 MSTORE PUSH1 0x20 ADD SWAP1 DUP2 MSTORE PUSH1 0x20 ADD PUSH0 KECCAK256 PUSH0 ADD PUSH0 SWAP1 SLOAD SWAP1 PUSH2 0x100 EXP SWAP1 DIV PUSH1 0xFF AND PUSH2 0x1601 JUMPI DUP1 PUSH1 0x40 MLOAD PUSH32 0xBF16AAB600000000000000000000000000000000000000000000000000000000 DUP2 MSTORE PUSH1 0x4 ADD PUSH2 0x15F8 SWAP2 SWAP1 PUSH2 0x266B JUMP JUMPDEST PUSH1 0x40 MLOAD DUP1 SWAP2 SUB SWAP1 REVERT JUMPDEST PUSH0 DUP4 PUSH0 PUSH1 0x6 PUSH0 DUP5 PUSH20 0xFFFFFFFFFFFFFFFFFFFFFFFFFFFFFFFFFFFFFFFF AND PUSH20 0xFFFFFFFFFFFFFFFFFFFFFFFFFFFFFFFFFFFFFFFF AND DUP2 MSTORE PUSH1 0x20 ADD SWAP1 DUP2 MSTORE PUSH1 0x20 ADD PUSH0 KECCAK256 PUSH1 0x40 MLOAD DUP1 PUSH1 0xA0 ADD PUSH1 0x40 MSTORE SWAP1 DUP2 PUSH0 DUP3 ADD PUSH0 SWAP1 SLOAD SWAP1 PUSH2 0x100 EXP SWAP1 DIV PUSH1 0xFF AND ISZERO ISZERO ISZERO ISZERO DUP2 MSTORE PUSH1 0x20 ADD PUSH0 DUP3 ADD PUSH1 0x1 SWAP1 SLOAD SWAP1 PUSH2 0x100 EXP SWAP1 DIV PUSH1 0xFF AND ISZERO ISZERO ISZERO ISZERO DUP2 MSTORE PUSH1 0x20 ADD PUSH0 DUP3 ADD PUSH1 0x2 SWAP1 SLOAD SWAP1 PUSH2 0x100 EXP SWAP1 DIV PUSH1 0xFF AND PUSH1 0xFF AND PUSH1 0xFF AND DUP2 MSTORE PUSH1 0x20 ADD PUSH1 0x1 DUP3 ADD SLOAD DUP2 MSTORE PUSH1 0x20 ADD PUSH1 0x2 DUP3 ADD PUSH0 SWAP1 SLOAD SWAP1 PUSH2 0x100 EXP SWAP1 DIV PUSH20 0xFFFFFFFFFFFFFFFFFFFFFFFFFFFFFFFFFFFFFFFF AND PUSH20 0xFFFFFFFFFFFFFFFFFFFFFFFFFFFFFFFFFFFFFFFF AND PUSH20 0xFFFFFFFFFFFFFFFFFFFFFFFFFFFFFFFFFFFFFFFF AND DUP2 MSTORE POP POP SWAP1 POP DUP1 PUSH1 0x60 ADD MLOAD DUP3 GT ISZERO PUSH2 0x174B JUMPI DUP2 DUP2 PUSH1 0x60 ADD MLOAD PUSH1 0x40 MLOAD PUSH32 0x16D0EF100000000000000000000000000000000000000000000000000000000 DUP2 MSTORE PUSH1 0x4 ADD PUSH2 0x1742 SWAP3 SWAP2 SWAP1 PUSH2 0x28FC JUMP JUMPDEST PUSH1 0x40 MLOAD DUP1 SWAP2 SUB SWAP1 REVERT JUMPDEST PUSH0 PUSH1 0x5 PUSH0 DUP1 PUSH20 0xFFFFFFFFFFFFFFFFFFFFFFFFFFFFFFFFFFFFFFFF AND PUSH20 0xFFFFFFFFFFFFFFFFFFFFFFFFFFFFFFFFFFFFFFFF AND DUP2 MSTORE PUSH1 0x20 ADD SWAP1 DUP2 MSTORE PUSH1 0x20 ADD PUSH0 KECCAK256 PUSH0 CALLER PUSH20 0xFFFFFFFFFFFFFFFFFFFFFFFFFFFFFFFFFFFFFFFF AND PUSH20 0xFFFFFFFFFFFFFFFFFFFFFFFFFFFFFFFFFFFFFFFF AND DUP2 MSTORE PUSH1 0x20 ADD SWAP1 DUP2 MSTORE PUSH1 0x20 ADD PUSH0 KECCAK256 SLOAD SWAP1 POP DUP7 DUP2 LT ISZERO PUSH2 0x180E JUMPI DUP1 DUP8 PUSH1 0x40 MLOAD PUSH32 0xCF47918100000000000000000000000000000000000000000000000000000000 DUP2 MSTORE PUSH1 0x4 ADD PUSH2 0x1805 SWAP3 SWAP2 SWAP1 PUSH2 0x28FC JUMP JUMPDEST PUSH1 0x40 MLOAD DUP1 SWAP2 SUB SWAP1 REVERT JUMPDEST DUP7 DUP2 PUSH2 0x181A SWAP2 SWAP1 PUSH2 0x2997 JUMP JUMPDEST PUSH1 0x5 PUSH0 DUP1 PUSH20 0xFFFFFFFFFFFFFFFFFFFFFFFFFFFFFFFFFFFFFFFF AND PUSH20 0xFFFFFFFFFFFFFFFFFFFFFFFFFFFFFFFFFFFFFFFF AND DUP2 MSTORE PUSH1 0x20 ADD SWAP1 DUP2 MSTORE PUSH1 0x20 ADD PUSH0 KECCAK256 PUSH0 CALLER PUSH20 0xFFFFFFFFFFFFFFFFFFFFFFFFFFFFFFFFFFFFFFFF AND PUSH20 0xFFFFFFFFFFFFFFFFFFFFFFFFFFFFFFFFFFFFFFFF AND DUP2 MSTORE PUSH1 0x20 ADD SWAP1 DUP2 MSTORE PUSH1 0x20 ADD PUSH0 KECCAK256 DUP2 SWAP1 SSTORE POP PUSH1 0x4 PUSH0 DUP2 SLOAD DUP1 SWAP3 SWAP2 SWAP1 PUSH1 0x1 ADD SWAP2 SWAP1 POP SSTORE POP PUSH0 CALLER PUSH20 0xFFFFFFFFFFFFFFFFFFFFFFFFFFFFFFFFFFFFFFFF AND DUP9 PUSH1 0x40 MLOAD PUSH2 0x18CC SWAP1 PUSH2 0x29F7 JUMP JUMPDEST PUSH0 PUSH1 0x40 MLOAD DUP1 DUP4 SUB DUP2 DUP6 DUP8 GAS CALL SWAP3 POP POP POP RETURNDATASIZE DUP1 PUSH0 DUP2 EQ PUSH2 0x1906 JUMPI PUSH1 0x40 MLOAD SWAP2 POP PUSH1 0x1F NOT PUSH1 0x3F RETURNDATASIZE ADD AND DUP3 ADD PUSH1 0x40 MSTORE RETURNDATASIZE DUP3 MSTORE RETURNDATASIZE PUSH0 PUSH1 0x20 DUP5 ADD RETURNDATACOPY PUSH2 0x190B JUMP JUMPDEST PUSH1 0x60 SWAP2 POP JUMPDEST POP POP SWAP1 POP DUP1 PUSH2 0x1946 JUMPI PUSH1 0x40 MLOAD PUSH32 0x6D963F8800000000000000000000000000000000000000000000000000000000 DUP2 MSTORE PUSH1 0x4 ADD PUSH1 0x40 MLOAD DUP1 SWAP2 SUB SWAP1 REVERT JUMPDEST CALLER PUSH20 0xFFFFFFFFFFFFFFFFFFFFFFFFFFFFFFFFFFFFFFFF AND PUSH0 PUSH20 0xFFFFFFFFFFFFFFFFFFFFFFFFFFFFFFFFFFFFFFFF AND PUSH32 0xEBFF2602B3F468259E1E99F613FED6691F3A6526EFFE6EF3E768BA7AE7A36C4F DUP11 PUSH1 0x5 PUSH0 DUP1 PUSH20 0xFFFFFFFFFFFFFFFFFFFFFFFFFFFFFFFFFFFFFFFF AND PUSH20 0xFFFFFFFFFFFFFFFFFFFFFFFFFFFFFFFFFFFFFFFF AND DUP2 MSTORE PUSH1 0x20 ADD SWAP1 DUP2 MSTORE PUSH1 0x20 ADD PUSH0 KECCAK256 PUSH0 CALLER PUSH20 0xFFFFFFFFFFFFFFFFFFFFFFFFFFFFFFFFFFFFFFFF AND PUSH20 0xFFFFFFFFFFFFFFFFFFFFFFFFFFFFFFFFFFFFFFFF AND DUP2 MSTORE PUSH1 0x20 ADD SWAP1 DUP2 MSTORE PUSH1 0x20 ADD PUSH0 KECCAK256 SLOAD PUSH2 0x1A19 PUSH0 DUP15 PUSH2 0x1DE7 JUMP JUMPDEST PUSH1 0x40 MLOAD PUSH2 0x1A28 SWAP4 SWAP3 SWAP2 SWAP1 PUSH2 0x2923 JUMP JUMPDEST PUSH1 0x40 MLOAD DUP1 SWAP2 SUB SWAP1 LOG3 POP POP POP POP POP POP POP PUSH2 0x1A3F PUSH2 0x21BE JUMP JUMPDEST POP JUMP JUMPDEST PUSH32 0x2172861495E7B85EDAC73E3CD5FBB42DD675BAADF627720E687BCFDACA025096 DUP2 JUMP JUMPDEST PUSH2 0x1A6F DUP3 PUSH2 0x58F JUMP JUMPDEST PUSH2 0x1A78 DUP2 PUSH2 0x1C9B JUMP JUMPDEST PUSH2 0x1A82 DUP4 DUP4 PUSH2 0x21CE JUMP JUMPDEST POP POP POP POP JUMP JUMPDEST PUSH0 DUP1 PUSH1 0x5 PUSH0 DUP6 PUSH20 0xFFFFFFFFFFFFFFFFFFFFFFFFFFFFFFFFFFFFFFFF AND PUSH20 0xFFFFFFFFFFFFFFFFFFFFFFFFFFFFFFFFFFFFFFFF AND DUP2 MSTORE PUSH1 0x20 ADD SWAP1 DUP2 MSTORE PUSH1 0x20 ADD PUSH0 KECCAK256 PUSH0 DUP5 PUSH20 0xFFFFFFFFFFFFFFFFFFFFFFFFFFFFFFFFFFFFFFFF AND PUSH20 0xFFFFFFFFFFFFFFFFFFFFFFFFFFFFFFFFFFFFFFFF AND DUP2 MSTORE PUSH1 0x20 ADD SWAP1 DUP2 MSTORE PUSH1 0x20 ADD PUSH0 KECCAK256 SLOAD SWAP1 POP PUSH2 0x1B0F DUP5 DUP3 PUSH2 0x1DE7 JUMP JUMPDEST SWAP2 POP POP SWAP3 SWAP2 POP POP JUMP JUMPDEST PUSH0 PUSH1 0x5 PUSH0 DUP4 PUSH20 0xFFFFFFFFFFFFFFFFFFFFFFFFFFFFFFFFFFFFFFFF AND PUSH20 0xFFFFFFFFFFFFFFFFFFFFFFFFFFFFFFFFFFFFFFFF AND DUP2 MSTORE PUSH1 0x20 ADD SWAP1 DUP2 MSTORE PUSH1 0x20 ADD PUSH0 KECCAK256 PUSH0 CALLER PUSH20 0xFFFFFFFFFFFFFFFFFFFFFFFFFFFFFFFFFFFFFFFF AND PUSH20 0xFFFFFFFFFFFFFFFFFFFFFFFFFFFFFFFFFFFFFFFF AND DUP2 MSTORE PUSH1 0x20 ADD SWAP1 DUP2 MSTORE PUSH1 0x20 ADD PUSH0 KECCAK256 SLOAD SWAP1 POP SWAP2 SWAP1 POP JUMP JUMPDEST PUSH32 0x0 DUP2 JUMP JUMPDEST PUSH1 0x6 PUSH1 0x20 MSTORE DUP1 PUSH0 MSTORE PUSH1 0x40 PUSH0 KECCAK256 PUSH0 SWAP2 POP SWAP1 POP DUP1 PUSH0 ADD PUSH0 SWAP1 SLOAD SWAP1 PUSH2 0x100 EXP SWAP1 DIV PUSH1 0xFF AND SWAP1 DUP1 PUSH0 ADD PUSH1 0x1 SWAP1 SLOAD SWAP1 PUSH2 0x100 EXP SWAP1 DIV PUSH1 0xFF AND SWAP1 DUP1 PUSH0 ADD PUSH1 0x2 SWAP1 SLOAD SWAP1 PUSH2 0x100 EXP SWAP1 DIV PUSH1 0xFF AND SWAP1 DUP1 PUSH1 0x1 ADD SLOAD SWAP1 DUP1 PUSH1 0x2 ADD PUSH0 SWAP1 SLOAD SWAP1 PUSH2 0x100 EXP SWAP1 DIV PUSH20 0xFFFFFFFFFFFFFFFFFFFFFFFFFFFFFFFFFFFFFFFF AND SWAP1 POP DUP6 JUMP JUMPDEST PUSH0 PUSH32 0x1FFC9A700000000000000000000000000000000000000000000000000000000 PUSH28 0xFFFFFFFFFFFFFFFFFFFFFFFFFFFFFFFFFFFFFFFFFFFFFFFFFFFFFFFF NOT AND DUP3 PUSH28 0xFFFFFFFFFFFFFFFFFFFFFFFFFFFFFFFFFFFFFFFFFFFFFFFFFFFFFFFF NOT AND EQ SWAP1 POP SWAP2 SWAP1 POP JUMP JUMPDEST PUSH2 0x1CAC DUP2 PUSH2 0x1CA7 PUSH2 0x21C7 JUMP JUMPDEST PUSH2 0x2336 JUMP JUMPDEST POP JUMP JUMPDEST PUSH0 PUSH2 0x1CBA DUP4 DUP4 PUSH2 0xD18 JUMP JUMPDEST PUSH2 0x1D8E JUMPI PUSH1 0x1 PUSH0 DUP1 DUP6 DUP2 MSTORE PUSH1 0x20 ADD SWAP1 DUP2 MSTORE PUSH1 0x20 ADD PUSH0 KECCAK256 PUSH0 ADD PUSH0 DUP5 PUSH20 0xFFFFFFFFFFFFFFFFFFFFFFFFFFFFFFFFFFFFFFFF AND PUSH20 0xFFFFFFFFFFFFFFFFFFFFFFFFFFFFFFFFFFFFFFFF AND DUP2 MSTORE PUSH1 0x20 ADD SWAP1 DUP2 MSTORE PUSH1 0x20 ADD PUSH0 KECCAK256 PUSH0 PUSH2 0x100 EXP DUP2 SLOAD DUP2 PUSH1 0xFF MUL NOT AND SWAP1 DUP4 ISZERO ISZERO MUL OR SWAP1 SSTORE POP PUSH2 0x1D2B PUSH2 0x21C7 JUMP JUMPDEST PUSH20 0xFFFFFFFFFFFFFFFFFFFFFFFFFFFFFFFFFFFFFFFF AND DUP3 PUSH20 0xFFFFFFFFFFFFFFFFFFFFFFFFFFFFFFFFFFFFFFFF AND DUP5 PUSH32 0x2F8788117E7EFF1D82E926EC794901D17C78024A50270940304540A733656F0D PUSH1 0x40 MLOAD PUSH1 0x40 MLOAD DUP1 SWAP2 SUB SWAP1 LOG4 PUSH1 0x1 SWAP1 POP PUSH2 0x1D92 JUMP JUMPDEST PUSH0 SWAP1 POP JUMPDEST SWAP3 SWAP2 POP POP JUMP JUMPDEST PUSH1 0x2 PUSH1 0x1 SLOAD SUB PUSH2 0x1DDD JUMPI PUSH1 0x40 MLOAD PUSH32 0x8C379A000000000000000000000000000000000000000000000000000000000 DUP2 MSTORE PUSH1 0x4 ADD PUSH2 0x1DD4 SWAP1 PUSH2 0x2A65 JUMP JUMPDEST PUSH1 0x40 MLOAD DUP1 SWAP2 SUB SWAP1 REVERT JUMPDEST PUSH1 0x2 PUSH1 0x1 DUP2 SWAP1 SSTORE POP JUMP JUMPDEST PUSH0 DUP1 DUP3 SUB PUSH2 0x1DF7 JUMPI PUSH0 SWAP1 POP PUSH2 0x2136 JUMP JUMPDEST PUSH0 PUSH1 0x6 PUSH0 DUP6 PUSH20 0xFFFFFFFFFFFFFFFFFFFFFFFFFFFFFFFFFFFFFFFF AND PUSH20 0xFFFFFFFFFFFFFFFFFFFFFFFFFFFFFFFFFFFFFFFF AND DUP2 MSTORE PUSH1 0x20 ADD SWAP1 DUP2 MSTORE PUSH1 0x20 ADD PUSH0 KECCAK256 PUSH1 0x40 MLOAD DUP1 PUSH1 0xA0 ADD PUSH1 0x40 MSTORE SWAP1 DUP2 PUSH0 DUP3 ADD PUSH0 SWAP1 SLOAD SWAP1 PUSH2 0x100 EXP SWAP1 DIV PUSH1 0xFF AND ISZERO ISZERO ISZERO ISZERO DUP2 MSTORE PUSH1 0x20 ADD PUSH0 DUP3 ADD PUSH1 0x1 SWAP1 SLOAD SWAP1 PUSH2 0x100 EXP SWAP1 DIV PUSH1 0xFF AND ISZERO ISZERO ISZERO ISZERO DUP2 MSTORE PUSH1 0x20 ADD PUSH0 DUP3 ADD PUSH1 0x2 SWAP1 SLOAD SWAP1 PUSH2 0x100 EXP SWAP1 DIV PUSH1 0xFF AND PUSH1 0xFF AND PUSH1 0xFF AND DUP2 MSTORE PUSH1 0x20 ADD PUSH1 0x1 DUP3 ADD SLOAD DUP2 MSTORE PUSH1 0x20 ADD PUSH1 0x2 DUP3 ADD PUSH0 SWAP1 SLOAD SWAP1 PUSH2 0x100 EXP SWAP1 DIV PUSH20 0xFFFFFFFFFFFFFFFFFFFFFFFFFFFFFFFFFFFFFFFF AND PUSH20 0xFFFFFFFFFFFFFFFFFFFFFFFFFFFFFFFFFFFFFFFF AND PUSH20 0xFFFFFFFFFFFFFFFFFFFFFFFFFFFFFFFFFFFFFFFF AND DUP2 MSTORE POP POP SWAP1 POP PUSH0 DUP2 PUSH1 0x80 ADD MLOAD SWAP1 POP PUSH0 PUSH20 0xFFFFFFFFFFFFFFFFFFFFFFFFFFFFFFFFFFFFFFFF AND DUP2 PUSH20 0xFFFFFFFFFFFFFFFFFFFFFFFFFFFFFFFFFFFFFFFF AND SUB PUSH2 0x1F68 JUMPI DUP5 PUSH1 0x40 MLOAD PUSH32 0x8A7A791D00000000000000000000000000000000000000000000000000000000 DUP2 MSTORE PUSH1 0x4 ADD PUSH2 0x1F5F SWAP2 SWAP1 PUSH2 0x266B JUMP JUMPDEST PUSH1 0x40 MLOAD DUP1 SWAP2 SUB SWAP1 REVERT JUMPDEST PUSH0 DUP2 PUSH20 0xFFFFFFFFFFFFFFFFFFFFFFFFFFFFFFFFFFFFFFFF AND PUSH4 0xFEAF968C PUSH1 0x40 MLOAD DUP2 PUSH4 0xFFFFFFFF AND PUSH1 0xE0 SHL DUP2 MSTORE PUSH1 0x4 ADD PUSH1 0xA0 PUSH1 0x40 MLOAD DUP1 DUP4 SUB DUP2 DUP7 GAS STATICCALL ISZERO DUP1 ISZERO PUSH2 0x1FB2 JUMPI RETURNDATASIZE PUSH0 DUP1 RETURNDATACOPY RETURNDATASIZE PUSH0 REVERT JUMPDEST POP POP POP POP PUSH1 0x40 MLOAD RETURNDATASIZE PUSH1 0x1F NOT PUSH1 0x1F DUP3 ADD AND DUP3 ADD DUP1 PUSH1 0x40 MSTORE POP DUP2 ADD SWAP1 PUSH2 0x1FD6 SWAP2 SWAP1 PUSH2 0x2B09 JUMP JUMPDEST POP POP POP SWAP2 POP POP PUSH0 DUP2 SGT PUSH2 0x2015 JUMPI PUSH1 0x40 MLOAD PUSH32 0x4FD58D4B00000000000000000000000000000000000000000000000000000000 DUP2 MSTORE PUSH1 0x4 ADD PUSH1 0x40 MLOAD DUP1 SWAP2 SUB SWAP1 REVERT JUMPDEST PUSH0 DUP3 PUSH20 0xFFFFFFFFFFFFFFFFFFFFFFFFFFFFFFFFFFFFFFFF AND PUSH4 0x313CE567 PUSH1 0x40 MLOAD DUP2 PUSH4 0xFFFFFFFF AND PUSH1 0xE0 SHL DUP2 MSTORE PUSH1 0x4 ADD PUSH1 0x20 PUSH1 0x40 MLOAD DUP1 DUP4 SUB DUP2 DUP7 GAS STATICCALL ISZERO DUP1 ISZERO PUSH2 0x205F JUMPI RETURNDATASIZE PUSH0 DUP1 RETURNDATACOPY RETURNDATASIZE PUSH0 REVERT JUMPDEST POP POP POP POP PUSH1 0x40 MLOAD RETURNDATASIZE PUSH1 0x1F NOT PUSH1 0x1F DUP3 ADD AND DUP3 ADD DUP1 PUSH1 0x40 MSTORE POP DUP2 ADD SWAP1 PUSH2 0x2083 SWAP2 SWAP1 PUSH2 0x296C JUMP JUMPDEST SWAP1 POP PUSH0 DUP3 DUP8 PUSH2 0x2092 SWAP2 SWAP1 PUSH2 0x2B80 JUMP JUMPDEST SWAP1 POP PUSH0 DUP3 PUSH1 0xFF AND GT ISZERO PUSH2 0x20BA JUMPI DUP2 PUSH1 0xA PUSH2 0x20AC SWAP2 SWAP1 PUSH2 0x2CF0 JUMP JUMPDEST DUP2 PUSH2 0x20B7 SWAP2 SWAP1 PUSH2 0x2D67 JUMP JUMPDEST SWAP1 POP JUMPDEST PUSH1 0x6 PUSH1 0xFF AND DUP6 PUSH1 0x40 ADD MLOAD PUSH1 0xFF AND LT PUSH2 0x2100 JUMPI PUSH0 PUSH1 0x6 DUP7 PUSH1 0x40 ADD MLOAD PUSH2 0x20DE SWAP2 SWAP1 PUSH2 0x2D97 JUMP JUMPDEST PUSH1 0xA PUSH2 0x20EA SWAP2 SWAP1 PUSH2 0x2CF0 JUMP JUMPDEST SWAP1 POP DUP1 DUP3 PUSH2 0x20F8 SWAP2 SWAP1 PUSH2 0x2D67 JUMP JUMPDEST SWAP7 POP POP PUSH2 0x2130 JUMP JUMPDEST PUSH0 DUP6 PUSH1 0x40 ADD MLOAD PUSH1 0x6 PUSH2 0x2112 SWAP2 SWAP1 PUSH2 0x2D97 JUMP JUMPDEST PUSH1 0xA PUSH2 0x211E SWAP2 SWAP1 PUSH2 0x2CF0 JUMP JUMPDEST SWAP1 POP DUP1 DUP3 PUSH2 0x212C SWAP2 SWAP1 PUSH2 0x2B80 JUMP JUMPDEST SWAP7 POP POP JUMPDEST POP POP POP POP POP JUMPDEST SWAP3 SWAP2 POP POP JUMP JUMPDEST PUSH2 0x21B8 DUP5 DUP6 PUSH20 0xFFFFFFFFFFFFFFFFFFFFFFFFFFFFFFFFFFFFFFFF AND PUSH4 0x23B872DD DUP7 DUP7 DUP7 PUSH1 0x40 MLOAD PUSH1 0x24 ADD PUSH2 0x2171 SWAP4 SWAP3 SWAP2 SWAP1 PUSH2 0x2DCB JUMP JUMPDEST PUSH1 0x40 MLOAD PUSH1 0x20 DUP2 DUP4 SUB SUB DUP2 MSTORE SWAP1 PUSH1 0x40 MSTORE SWAP2 POP PUSH1 0xE0 SHL PUSH1 0x20 DUP3 ADD DUP1 MLOAD PUSH28 0xFFFFFFFFFFFFFFFFFFFFFFFFFFFFFFFFFFFFFFFFFFFFFFFFFFFFFFFF DUP4 DUP2 DUP4 AND OR DUP4 MSTORE POP POP POP POP PUSH2 0x2387 JUMP JUMPDEST POP POP POP POP JUMP JUMPDEST PUSH1 0x1 DUP1 DUP2 SWAP1 SSTORE POP JUMP JUMPDEST PUSH0 CALLER SWAP1 POP SWAP1 JUMP JUMPDEST PUSH0 PUSH2 0x21D9 DUP4 DUP4 PUSH2 0xD18 JUMP JUMPDEST ISZERO PUSH2 0x22AD JUMPI PUSH0 DUP1 PUSH0 DUP6 DUP2 MSTORE PUSH1 0x20 ADD SWAP1 DUP2 MSTORE PUSH1 0x20 ADD PUSH0 KECCAK256 PUSH0 ADD PUSH0 DUP5 PUSH20 0xFFFFFFFFFFFFFFFFFFFFFFFFFFFFFFFFFFFFFFFF AND PUSH20 0xFFFFFFFFFFFFFFFFFFFFFFFFFFFFFFFFFFFFFFFF AND DUP2 MSTORE PUSH1 0x20 ADD SWAP1 DUP2 MSTORE PUSH1 0x20 ADD PUSH0 KECCAK256 PUSH0 PUSH2 0x100 EXP DUP2 SLOAD DUP2 PUSH1 0xFF MUL NOT AND SWAP1 DUP4 ISZERO ISZERO MUL OR SWAP1 SSTORE POP PUSH2 0x224A PUSH2 0x21C7 JUMP JUMPDEST PUSH20 0xFFFFFFFFFFFFFFFFFFFFFFFFFFFFFFFFFFFFFFFF AND DUP3 PUSH20 0xFFFFFFFFFFFFFFFFFFFFFFFFFFFFFFFFFFFFFFFF AND DUP5 PUSH32 0xF6391F5C32D9C69D2A47EA670B442974B53935D1EDC7FD64EB21E047A839171B PUSH1 0x40 MLOAD PUSH1 0x40 MLOAD DUP1 SWAP2 SUB SWAP1 LOG4 PUSH1 0x1 SWAP1 POP PUSH2 0x22B1 JUMP JUMPDEST PUSH0 SWAP1 POP JUMPDEST SWAP3 SWAP2 POP POP JUMP JUMPDEST PUSH2 0x2331 DUP4 DUP5 PUSH20 0xFFFFFFFFFFFFFFFFFFFFFFFFFFFFFFFFFFFFFFFF AND PUSH4 0xA9059CBB DUP6 DUP6 PUSH1 0x40 MLOAD PUSH1 0x24 ADD PUSH2 0x22EA SWAP3 SWAP2 SWAP1 PUSH2 0x2E00 JUMP JUMPDEST PUSH1 0x40 MLOAD PUSH1 0x20 DUP2 DUP4 SUB SUB DUP2 MSTORE SWAP1 PUSH1 0x40 MSTORE SWAP2 POP PUSH1 0xE0 SHL PUSH1 0x20 DUP3 ADD DUP1 MLOAD PUSH28 0xFFFFFFFFFFFFFFFFFFFFFFFFFFFFFFFFFFFFFFFFFFFFFFFFFFFFFFFF DUP4 DUP2 DUP4 AND OR DUP4 MSTORE POP POP POP POP PUSH2 0x2387 JUMP JUMPDEST POP POP POP JUMP JUMPDEST PUSH2 0x2340 DUP3 DUP3 PUSH2 0xD18 JUMP JUMPDEST PUSH2 0x2383 JUMPI DUP1 DUP3 PUSH1 0x40 MLOAD PUSH32 0xE2517D3F00000000000000000000000000000000000000000000000000000000 DUP2 MSTORE PUSH1 0x4 ADD PUSH2 0x237A SWAP3 SWAP2 SWAP1 PUSH2 0x2E27 JUMP JUMPDEST PUSH1 0x40 MLOAD DUP1 SWAP2 SUB SWAP1 REVERT JUMPDEST POP POP JUMP JUMPDEST PUSH0 DUP1 PUSH1 0x20 PUSH0 DUP5 MLOAD PUSH1 0x20 DUP7 ADD PUSH0 DUP9 GAS CALL DUP1 PUSH2 0x23A6 JUMPI PUSH1 0x40 MLOAD RETURNDATASIZE PUSH0 DUP3 RETURNDATACOPY RETURNDATASIZE DUP2 REVERT JUMPDEST RETURNDATASIZE SWAP3 POP PUSH0 MLOAD SWAP2 POP POP PUSH0 DUP3 EQ PUSH2 0x23BF JUMPI PUSH1 0x1 DUP2 EQ ISZERO PUSH2 0x23DA JUMP JUMPDEST PUSH0 DUP5 PUSH20 0xFFFFFFFFFFFFFFFFFFFFFFFFFFFFFFFFFFFFFFFF AND EXTCODESIZE EQ JUMPDEST ISZERO PUSH2 0x241C JUMPI DUP4 PUSH1 0x40 MLOAD PUSH32 0x5274AFE700000000000000000000000000000000000000000000000000000000 DUP2 MSTORE PUSH1 0x4 ADD PUSH2 0x2413 SWAP2 SWAP1 PUSH2 0x266B JUMP JUMPDEST PUSH1 0x40 MLOAD DUP1 SWAP2 SUB SWAP1 REVERT JUMPDEST POP POP POP POP JUMP JUMPDEST PUSH0 DUP1 REVERT JUMPDEST PUSH0 PUSH32 0xFFFFFFFF00000000000000000000000000000000000000000000000000000000 DUP3 AND SWAP1 POP SWAP2 SWAP1 POP JUMP JUMPDEST PUSH2 0x245A DUP2 PUSH2 0x2426 JUMP JUMPDEST DUP2 EQ PUSH2 0x2464 JUMPI PUSH0 DUP1 REVERT JUMPDEST POP JUMP JUMPDEST PUSH0 DUP2 CALLDATALOAD SWAP1 POP PUSH2 0x2475 DUP2 PUSH2 0x2451 JUMP JUMPDEST SWAP3 SWAP2 POP POP JUMP JUMPDEST PUSH0 PUSH1 0x20 DUP3 DUP5 SUB SLT ISZERO PUSH2 0x2490 JUMPI PUSH2 0x248F PUSH2 0x2422 JUMP JUMPDEST JUMPDEST PUSH0 PUSH2 0x249D DUP5 DUP3 DUP6 ADD PUSH2 0x2467 JUMP JUMPDEST SWAP2 POP POP SWAP3 SWAP2 POP POP JUMP JUMPDEST PUSH0 DUP2 ISZERO ISZERO SWAP1 POP SWAP2 SWAP1 POP JUMP JUMPDEST PUSH2 0x24BA DUP2 PUSH2 0x24A6 JUMP JUMPDEST DUP3 MSTORE POP POP JUMP JUMPDEST PUSH0 PUSH1 0x20 DUP3 ADD SWAP1 POP PUSH2 0x24D3 PUSH0 DUP4 ADD DUP5 PUSH2 0x24B1 JUMP JUMPDEST SWAP3 SWAP2 POP POP JUMP JUMPDEST PUSH0 DUP2 SWAP1 POP SWAP2 SWAP1 POP JUMP JUMPDEST PUSH2 0x24EB DUP2 PUSH2 0x24D9 JUMP JUMPDEST DUP2 EQ PUSH2 0x24F5 JUMPI PUSH0 DUP1 REVERT JUMPDEST POP JUMP JUMPDEST PUSH0 DUP2 CALLDATALOAD SWAP1 POP PUSH2 0x2506 DUP2 PUSH2 0x24E2 JUMP JUMPDEST SWAP3 SWAP2 POP POP JUMP JUMPDEST PUSH0 PUSH1 0x20 DUP3 DUP5 SUB SLT ISZERO PUSH2 0x2521 JUMPI PUSH2 0x2520 PUSH2 0x2422 JUMP JUMPDEST JUMPDEST PUSH0 PUSH2 0x252E DUP5 DUP3 DUP6 ADD PUSH2 0x24F8 JUMP JUMPDEST SWAP2 POP POP SWAP3 SWAP2 POP POP JUMP JUMPDEST PUSH2 0x2540 DUP2 PUSH2 0x24D9 JUMP JUMPDEST DUP3 MSTORE POP POP JUMP JUMPDEST PUSH0 PUSH1 0x20 DUP3 ADD SWAP1 POP PUSH2 0x2559 PUSH0 DUP4 ADD DUP5 PUSH2 0x2537 JUMP JUMPDEST SWAP3 SWAP2 POP POP JUMP JUMPDEST PUSH0 DUP2 SWAP1 POP SWAP2 SWAP1 POP JUMP JUMPDEST PUSH2 0x2571 DUP2 PUSH2 0x255F JUMP JUMPDEST DUP3 MSTORE POP POP JUMP JUMPDEST PUSH0 PUSH1 0x20 DUP3 ADD SWAP1 POP PUSH2 0x258A PUSH0 DUP4 ADD DUP5 PUSH2 0x2568 JUMP JUMPDEST SWAP3 SWAP2 POP POP JUMP JUMPDEST PUSH0 PUSH20 0xFFFFFFFFFFFFFFFFFFFFFFFFFFFFFFFFFFFFFFFF DUP3 AND SWAP1 POP SWAP2 SWAP1 POP JUMP JUMPDEST PUSH0 PUSH2 0x25B9 DUP3 PUSH2 0x2590 JUMP JUMPDEST SWAP1 POP SWAP2 SWAP1 POP JUMP JUMPDEST PUSH2 0x25C9 DUP2 PUSH2 0x25AF JUMP JUMPDEST DUP2 EQ PUSH2 0x25D3 JUMPI PUSH0 DUP1 REVERT JUMPDEST POP JUMP JUMPDEST PUSH0 DUP2 CALLDATALOAD SWAP1 POP PUSH2 0x25E4 DUP2 PUSH2 0x25C0 JUMP JUMPDEST SWAP3 SWAP2 POP POP JUMP JUMPDEST PUSH0 DUP1 PUSH1 0x40 DUP4 DUP6 SUB SLT ISZERO PUSH2 0x2600 JUMPI PUSH2 0x25FF PUSH2 0x2422 JUMP JUMPDEST JUMPDEST PUSH0 PUSH2 0x260D DUP6 DUP3 DUP7 ADD PUSH2 0x24F8 JUMP JUMPDEST SWAP3 POP POP PUSH1 0x20 PUSH2 0x261E DUP6 DUP3 DUP7 ADD PUSH2 0x25D6 JUMP JUMPDEST SWAP2 POP POP SWAP3 POP SWAP3 SWAP1 POP JUMP JUMPDEST PUSH0 PUSH1 0xFF DUP3 AND SWAP1 POP SWAP2 SWAP1 POP JUMP JUMPDEST PUSH2 0x263D DUP2 PUSH2 0x2628 JUMP JUMPDEST DUP3 MSTORE POP POP JUMP JUMPDEST PUSH0 PUSH1 0x20 DUP3 ADD SWAP1 POP PUSH2 0x2656 PUSH0 DUP4 ADD DUP5 PUSH2 0x2634 JUMP JUMPDEST SWAP3 SWAP2 POP POP JUMP JUMPDEST PUSH2 0x2665 DUP2 PUSH2 0x25AF JUMP JUMPDEST DUP3 MSTORE POP POP JUMP JUMPDEST PUSH0 PUSH1 0x20 DUP3 ADD SWAP1 POP PUSH2 0x267E PUSH0 DUP4 ADD DUP5 PUSH2 0x265C JUMP JUMPDEST SWAP3 SWAP2 POP POP JUMP JUMPDEST PUSH2 0x268D DUP2 PUSH2 0x255F JUMP JUMPDEST DUP2 EQ PUSH2 0x2697 JUMPI PUSH0 DUP1 REVERT JUMPDEST POP JUMP JUMPDEST PUSH0 DUP2 CALLDATALOAD SWAP1 POP PUSH2 0x26A8 DUP2 PUSH2 0x2684 JUMP JUMPDEST SWAP3 SWAP2 POP POP JUMP JUMPDEST PUSH0 DUP1 PUSH1 0x40 DUP4 DUP6 SUB SLT ISZERO PUSH2 0x26C4 JUMPI PUSH2 0x26C3 PUSH2 0x2422 JUMP JUMPDEST JUMPDEST PUSH0 PUSH2 0x26D1 DUP6 DUP3 DUP7 ADD PUSH2 0x25D6 JUMP JUMPDEST SWAP3 POP POP PUSH1 0x20 PUSH2 0x26E2 DUP6 DUP3 DUP7 ADD PUSH2 0x269A JUMP JUMPDEST SWAP2 POP POP SWAP3 POP SWAP3 SWAP1 POP JUMP JUMPDEST PUSH2 0x26F5 DUP2 PUSH2 0x24A6 JUMP JUMPDEST DUP2 EQ PUSH2 0x26FF JUMPI PUSH0 DUP1 REVERT JUMPDEST POP JUMP JUMPDEST PUSH0 DUP2 CALLDATALOAD SWAP1 POP PUSH2 0x2710 DUP2 PUSH2 0x26EC JUMP JUMPDEST SWAP3 SWAP2 POP POP JUMP JUMPDEST PUSH2 0x271F DUP2 PUSH2 0x2628 JUMP JUMPDEST DUP2 EQ PUSH2 0x2729 JUMPI PUSH0 DUP1 REVERT JUMPDEST POP JUMP JUMPDEST PUSH0 DUP2 CALLDATALOAD SWAP1 POP PUSH2 0x273A DUP2 PUSH2 0x2716 JUMP JUMPDEST SWAP3 SWAP2 POP POP JUMP JUMPDEST PUSH0 DUP1 PUSH0 DUP1 PUSH0 PUSH1 0xA0 DUP7 DUP9 SUB SLT ISZERO PUSH2 0x2759 JUMPI PUSH2 0x2758 PUSH2 0x2422 JUMP JUMPDEST JUMPDEST PUSH0 PUSH2 0x2766 DUP9 DUP3 DUP10 ADD PUSH2 0x25D6 JUMP JUMPDEST SWAP6 POP POP PUSH1 0x20 PUSH2 0x2777 DUP9 DUP3 DUP10 ADD PUSH2 0x2702 JUMP JUMPDEST SWAP5 POP POP PUSH1 0x40 PUSH2 0x2788 DUP9 DUP3 DUP10 ADD PUSH2 0x272C JUMP JUMPDEST SWAP4 POP POP PUSH1 0x60 PUSH2 0x2799 DUP9 DUP3 DUP10 ADD PUSH2 0x269A JUMP JUMPDEST SWAP3 POP POP PUSH1 0x80 PUSH2 0x27AA DUP9 DUP3 DUP10 ADD PUSH2 0x25D6 JUMP JUMPDEST SWAP2 POP POP SWAP3 SWAP6 POP SWAP3 SWAP6 SWAP1 SWAP4 POP JUMP JUMPDEST PUSH0 PUSH1 0x20 DUP3 DUP5 SUB SLT ISZERO PUSH2 0x27CC JUMPI PUSH2 0x27CB PUSH2 0x2422 JUMP JUMPDEST JUMPDEST PUSH0 PUSH2 0x27D9 DUP5 DUP3 DUP6 ADD PUSH2 0x269A JUMP JUMPDEST SWAP2 POP POP SWAP3 SWAP2 POP POP JUMP JUMPDEST PUSH0 DUP1 PUSH1 0x40 DUP4 DUP6 SUB SLT ISZERO PUSH2 0x27F8 JUMPI PUSH2 0x27F7 PUSH2 0x2422 JUMP JUMPDEST JUMPDEST PUSH0 PUSH2 0x2805 DUP6 DUP3 DUP7 ADD PUSH2 0x25D6 JUMP JUMPDEST SWAP3 POP POP PUSH1 0x20 PUSH2 0x2816 DUP6 DUP3 DUP7 ADD PUSH2 0x25D6 JUMP JUMPDEST SWAP2 POP POP SWAP3 POP SWAP3 SWAP1 POP JUMP JUMPDEST PUSH0 PUSH1 0x20 DUP3 DUP5 SUB SLT ISZERO PUSH2 0x2835 JUMPI PUSH2 0x2834 PUSH2 0x2422 JUMP JUMPDEST JUMPDEST PUSH0 PUSH2 0x2842 DUP5 DUP3 DUP6 ADD PUSH2 0x25D6 JUMP JUMPDEST SWAP2 POP POP SWAP3 SWAP2 POP POP JUMP JUMPDEST PUSH0 PUSH1 0xA0 DUP3 ADD SWAP1 POP PUSH2 0x285E PUSH0 DUP4 ADD DUP9 PUSH2 0x24B1 JUMP JUMPDEST PUSH2 0x286B PUSH1 0x20 DUP4 ADD DUP8 PUSH2 0x24B1 JUMP JUMPDEST PUSH2 0x2878 PUSH1 0x40 DUP4 ADD DUP7 PUSH2 0x2634 JUMP JUMPDEST PUSH2 0x2885 PUSH1 0x60 DUP4 ADD DUP6 PUSH2 0x2568 JUMP JUMPDEST PUSH2 0x2892 PUSH1 0x80 DUP4 ADD DUP5 PUSH2 0x265C JUMP JUMPDEST SWAP7 SWAP6 POP POP POP POP POP POP JUMP JUMPDEST PUSH32 0x4E487B7100000000000000000000000000000000000000000000000000000000 PUSH0 MSTORE PUSH1 0x11 PUSH1 0x4 MSTORE PUSH1 0x24 PUSH0 REVERT JUMPDEST PUSH0 PUSH2 0x28D3 DUP3 PUSH2 0x255F JUMP JUMPDEST SWAP2 POP PUSH2 0x28DE DUP4 PUSH2 0x255F JUMP JUMPDEST SWAP3 POP DUP3 DUP3 ADD SWAP1 POP DUP1 DUP3 GT ISZERO PUSH2 0x28F6 JUMPI PUSH2 0x28F5 PUSH2 0x289C JUMP JUMPDEST JUMPDEST SWAP3 SWAP2 POP POP JUMP JUMPDEST PUSH0 PUSH1 0x40 DUP3 ADD SWAP1 POP PUSH2 0x290F PUSH0 DUP4 ADD DUP6 PUSH2 0x2568 JUMP JUMPDEST PUSH2 0x291C PUSH1 0x20 DUP4 ADD DUP5 PUSH2 0x2568 JUMP JUMPDEST SWAP4 SWAP3 POP POP POP JUMP JUMPDEST PUSH0 PUSH1 0x60 DUP3 ADD SWAP1 POP PUSH2 0x2936 PUSH0 DUP4 ADD DUP7 PUSH2 0x2568 JUMP JUMPDEST PUSH2 0x2943 PUSH1 0x20 DUP4 ADD DUP6 PUSH2 0x2568 JUMP JUMPDEST PUSH2 0x2950 PUSH1 0x40 DUP4 ADD DUP5 PUSH2 0x2568 JUMP JUMPDEST SWAP5 SWAP4 POP POP POP POP JUMP JUMPDEST PUSH0 DUP2 MLOAD SWAP1 POP PUSH2 0x2966 DUP2 PUSH2 0x2716 JUMP JUMPDEST SWAP3 SWAP2 POP POP JUMP JUMPDEST PUSH0 PUSH1 0x20 DUP3 DUP5 SUB SLT ISZERO PUSH2 0x2981 JUMPI PUSH2 0x2980 PUSH2 0x2422 JUMP JUMPDEST JUMPDEST PUSH0 PUSH2 0x298E DUP5 DUP3 DUP6 ADD PUSH2 0x2958 JUMP JUMPDEST SWAP2 POP POP SWAP3 SWAP2 POP POP JUMP JUMPDEST PUSH0 PUSH2 0x29A1 DUP3 PUSH2 0x255F JUMP JUMPDEST SWAP2 POP PUSH2 0x29AC DUP4 PUSH2 0x255F JUMP JUMPDEST SWAP3 POP DUP3 DUP3 SUB SWAP1 POP DUP2 DUP2 GT ISZERO PUSH2 0x29C4 JUMPI PUSH2 0x29C3 PUSH2 0x289C JUMP JUMPDEST JUMPDEST SWAP3 SWAP2 POP POP JUMP JUMPDEST PUSH0 DUP2 SWAP1 POP SWAP3 SWAP2 POP POP JUMP JUMPDEST POP JUMP JUMPDEST PUSH0 PUSH2 0x29E2 PUSH0 DUP4 PUSH2 0x29CA JUMP JUMPDEST SWAP2 POP PUSH2 0x29ED DUP3 PUSH2 0x29D4 JUMP JUMPDEST PUSH0 DUP3 ADD SWAP1 POP SWAP2 SWAP1 POP JUMP JUMPDEST PUSH0 PUSH2 0x2A01 DUP3 PUSH2 0x29D7 JUMP JUMPDEST SWAP2 POP DUP2 SWAP1 POP SWAP2 SWAP1 POP JUMP JUMPDEST PUSH0 DUP3 DUP3 MSTORE PUSH1 0x20 DUP3 ADD SWAP1 POP SWAP3 SWAP2 POP POP JUMP JUMPDEST PUSH32 0x5265656E7472616E637947756172643A207265656E7472616E742063616C6C00 PUSH0 DUP3 ADD MSTORE POP JUMP JUMPDEST PUSH0 PUSH2 0x2A4F PUSH1 0x1F DUP4 PUSH2 0x2A0B JUMP JUMPDEST SWAP2 POP PUSH2 0x2A5A DUP3 PUSH2 0x2A1B JUMP JUMPDEST PUSH1 0x20 DUP3 ADD SWAP1 POP SWAP2 SWAP1 POP JUMP JUMPDEST PUSH0 PUSH1 0x20 DUP3 ADD SWAP1 POP DUP2 DUP2 SUB PUSH0 DUP4 ADD MSTORE PUSH2 0x2A7C DUP2 PUSH2 0x2A43 JUMP JUMPDEST SWAP1 POP SWAP2 SWAP1 POP JUMP JUMPDEST PUSH0 PUSH10 0xFFFFFFFFFFFFFFFFFFFF DUP3 AND SWAP1 POP SWAP2 SWAP1 POP JUMP JUMPDEST PUSH2 0x2AA1 DUP2 PUSH2 0x2A83 JUMP JUMPDEST DUP2 EQ PUSH2 0x2AAB JUMPI PUSH0 DUP1 REVERT JUMPDEST POP JUMP JUMPDEST PUSH0 DUP2 MLOAD SWAP1 POP PUSH2 0x2ABC DUP2 PUSH2 0x2A98 JUMP JUMPDEST SWAP3 SWAP2 POP POP JUMP JUMPDEST PUSH0 DUP2 SWAP1 POP SWAP2 SWAP1 POP JUMP JUMPDEST PUSH2 0x2AD4 DUP2 PUSH2 0x2AC2 JUMP JUMPDEST DUP2 EQ PUSH2 0x2ADE JUMPI PUSH0 DUP1 REVERT JUMPDEST POP JUMP JUMPDEST PUSH0 DUP2 MLOAD SWAP1 POP PUSH2 0x2AEF DUP2 PUSH2 0x2ACB JUMP JUMPDEST SWAP3 SWAP2 POP POP JUMP JUMPDEST PUSH0 DUP2 MLOAD SWAP1 POP PUSH2 0x2B03 DUP2 PUSH2 0x2684 JUMP JUMPDEST SWAP3 SWAP2 POP POP JUMP JUMPDEST PUSH0 DUP1 PUSH0 DUP1 PUSH0 PUSH1 0xA0 DUP7 DUP9 SUB SLT ISZERO PUSH2 0x2B22 JUMPI PUSH2 0x2B21 PUSH2 0x2422 JUMP JUMPDEST JUMPDEST PUSH0 PUSH2 0x2B2F DUP9 DUP3 DUP10 ADD PUSH2 0x2AAE JUMP JUMPDEST SWAP6 POP POP PUSH1 0x20 PUSH2 0x2B40 DUP9 DUP3 DUP10 ADD PUSH2 0x2AE1 JUMP JUMPDEST SWAP5 POP POP PUSH1 0x40 PUSH2 0x2B51 DUP9 DUP3 DUP10 ADD PUSH2 0x2AF5 JUMP JUMPDEST SWAP4 POP POP PUSH1 0x60 PUSH2 0x2B62 DUP9 DUP3 DUP10 ADD PUSH2 0x2AF5 JUMP JUMPDEST SWAP3 POP POP PUSH1 0x80 PUSH2 0x2B73 DUP9 DUP3 DUP10 ADD PUSH2 0x2AAE JUMP JUMPDEST SWAP2 POP POP SWAP3 SWAP6 POP SWAP3 SWAP6 SWAP1 SWAP4 POP JUMP JUMPDEST PUSH0 PUSH2 0x2B8A DUP3 PUSH2 0x255F JUMP JUMPDEST SWAP2 POP PUSH2 0x2B95 DUP4 PUSH2 0x255F JUMP JUMPDEST SWAP3 POP DUP3 DUP3 MUL PUSH2 0x2BA3 DUP2 PUSH2 0x255F JUMP JUMPDEST SWAP2 POP DUP3 DUP3 DIV DUP5 EQ DUP4 ISZERO OR PUSH2 0x2BBA JUMPI PUSH2 0x2BB9 PUSH2 0x289C JUMP JUMPDEST JUMPDEST POP SWAP3 SWAP2 POP POP JUMP JUMPDEST PUSH0 DUP2 PUSH1 0x1 SHR SWAP1 POP SWAP2 SWAP1 POP JUMP JUMPDEST PUSH0 DUP1 DUP3 SWAP2 POP DUP4 SWAP1 POP JUMPDEST PUSH1 0x1 DUP6 GT ISZERO PUSH2 0x2C16 JUMPI DUP1 DUP7 DIV DUP2 GT ISZERO PUSH2 0x2BF2 JUMPI PUSH2 0x2BF1 PUSH2 0x289C JUMP JUMPDEST JUMPDEST PUSH1 0x1 DUP6 AND ISZERO PUSH2 0x2C01 JUMPI DUP1 DUP3 MUL SWAP2 POP JUMPDEST DUP1 DUP2 MUL SWAP1 POP PUSH2 0x2C0F DUP6 PUSH2 0x2BC1 JUMP JUMPDEST SWAP5 POP PUSH2 0x2BD6 JUMP JUMPDEST SWAP5 POP SWAP5 SWAP3 POP POP POP JUMP JUMPDEST PUSH0 DUP3 PUSH2 0x2C2E JUMPI PUSH1 0x1 SWAP1 POP PUSH2 0x2CE9 JUMP JUMPDEST DUP2 PUSH2 0x2C3B JUMPI PUSH0 SWAP1 POP PUSH2 0x2CE9 JUMP JUMPDEST DUP2 PUSH1 0x1 DUP2 EQ PUSH2 0x2C51 JUMPI PUSH1 0x2 DUP2 EQ PUSH2 0x2C5B JUMPI PUSH2 0x2C8A JUMP JUMPDEST PUSH1 0x1 SWAP2 POP POP PUSH2 0x2CE9 JUMP JUMPDEST PUSH1 0xFF DUP5 GT ISZERO PUSH2 0x2C6D JUMPI PUSH2 0x2C6C PUSH2 0x289C JUMP JUMPDEST JUMPDEST DUP4 PUSH1 0x2 EXP SWAP2 POP DUP5 DUP3 GT ISZERO PUSH2 0x2C84 JUMPI PUSH2 0x2C83 PUSH2 0x289C JUMP JUMPDEST JUMPDEST POP PUSH2 0x2CE9 JUMP JUMPDEST POP PUSH1 0x20 DUP4 LT PUSH2 0x133 DUP4 LT AND PUSH1 0x4E DUP5 LT PUSH1 0xB DUP5 LT AND OR ISZERO PUSH2 0x2CBF JUMPI DUP3 DUP3 EXP SWAP1 POP DUP4 DUP2 GT ISZERO PUSH2 0x2CBA JUMPI PUSH2 0x2CB9 PUSH2 0x289C JUMP JUMPDEST JUMPDEST PUSH2 0x2CE9 JUMP JUMPDEST PUSH2 0x2CCC DUP5 DUP5 DUP5 PUSH1 0x1 PUSH2 0x2BCD JUMP JUMPDEST SWAP3 POP SWAP1 POP DUP2 DUP5 DIV DUP2 GT ISZERO PUSH2 0x2CE3 JUMPI PUSH2 0x2CE2 PUSH2 0x289C JUMP JUMPDEST JUMPDEST DUP2 DUP2 MUL SWAP1 POP JUMPDEST SWAP4 SWAP3 POP POP POP JUMP JUMPDEST PUSH0 PUSH2 0x2CFA DUP3 PUSH2 0x255F JUMP JUMPDEST SWAP2 POP PUSH2 0x2D05 DUP4 PUSH2 0x2628 JUMP JUMPDEST SWAP3 POP PUSH2 0x2D32 PUSH32 0xFFFFFFFFFFFFFFFFFFFFFFFFFFFFFFFFFFFFFFFFFFFFFFFFFFFFFFFFFFFFFFFF DUP5 DUP5 PUSH2 0x2C1F JUMP JUMPDEST SWAP1 POP SWAP3 SWAP2 POP POP JUMP JUMPDEST PUSH32 0x4E487B7100000000000000000000000000000000000000000000000000000000 PUSH0 MSTORE PUSH1 0x12 PUSH1 0x4 MSTORE PUSH1 0x24 PUSH0 REVERT JUMPDEST PUSH0 PUSH2 0x2D71 DUP3 PUSH2 0x255F JUMP JUMPDEST SWAP2 POP PUSH2 0x2D7C DUP4 PUSH2 0x255F JUMP JUMPDEST SWAP3 POP DUP3 PUSH2 0x2D8C JUMPI PUSH2 0x2D8B PUSH2 0x2D3A JUMP JUMPDEST JUMPDEST DUP3 DUP3 DIV SWAP1 POP SWAP3 SWAP2 POP POP JUMP JUMPDEST PUSH0 PUSH2 0x2DA1 DUP3 PUSH2 0x2628 JUMP JUMPDEST SWAP2 POP PUSH2 0x2DAC DUP4 PUSH2 0x2628 JUMP JUMPDEST SWAP3 POP DUP3 DUP3 SUB SWAP1 POP PUSH1 0xFF DUP2 GT ISZERO PUSH2 0x2DC5 JUMPI PUSH2 0x2DC4 PUSH2 0x289C JUMP JUMPDEST JUMPDEST SWAP3 SWAP2 POP POP JUMP JUMPDEST PUSH0 PUSH1 0x60 DUP3 ADD SWAP1 POP PUSH2 0x2DDE PUSH0 DUP4 ADD DUP7 PUSH2 0x265C JUMP JUMPDEST PUSH2 0x2DEB PUSH1 0x20 DUP4 ADD DUP6 PUSH2 0x265C JUMP JUMPDEST PUSH2 0x2DF8 PUSH1 0x40 DUP4 ADD DUP5 PUSH2 0x2568 JUMP JUMPDEST SWAP5 SWAP4 POP POP POP POP JUMP JUMPDEST PUSH0 PUSH1 0x40 DUP3 ADD SWAP1 POP PUSH2 0x2E13 PUSH0 DUP4 ADD DUP6 PUSH2 0x265C JUMP JUMPDEST PUSH2 0x2E20 PUSH1 0x20 DUP4 ADD DUP5 PUSH2 0x2568 JUMP JUMPDEST SWAP4 SWAP3 POP POP POP JUMP JUMPDEST PUSH0 PUSH1 0x40 DUP3 ADD SWAP1 POP PUSH2 0x2E3A PUSH0 DUP4 ADD DUP6 PUSH2 0x265C JUMP JUMPDEST PUSH2 0x2E47 PUSH1 0x20 DUP4 ADD DUP5 PUSH2 0x2537 JUMP JUMPDEST SWAP4 SWAP3 POP POP POP JUMP INVALID LOG2 PUSH5 0x6970667358 0x22 SLT KECCAK256 PUSH10 0x601F4BFDEAD2F9B62145 0xD9 0xC3 GAS 0xBA KECCAK256 SWAP6 0xC1 0xDD CALLER PUSH19 0xD55863D615DE5EF69CAE4264736F6C63430008 BYTE STOP CALLER "
				},
				"gasEstimates": {
					"creation": {
						"codeDepositCost": "2381600",
						"executionCost": "infinite",
						"totalCost": "infinite"
					},
					"external": {
						"DEFAULT_ADMIN_ROLE()": "419",
						"NATIVE_TOKEN()": "417",
						"ROLE_ADMIN()": "347",
						"USD_DECIMALS()": "354",
						"bankCapUsd6()": "infinite",
						"depositCount()": "2515",
						"depositEth()": "infinite",
						"depositToken(address,uint256)": "infinite",
						"getBalance(address)": "3004",
						"getRoleAdmin(bytes32)": "infinite",
						"getUsdBalance(address,address)": "infinite",
						"grantRole(bytes32,address)": "infinite",
						"hasRole(bytes32,address)": "3145",
						"renounceRole(bytes32,address)": "infinite",
						"revokeRole(bytes32,address)": "infinite",
						"setTokenConfig(address,bool,uint8,uint256,address)": "infinite",
						"supportsInterface(bytes4)": "741",
						"tokenConfig(address)": "infinite",
						"totalDepositedUsd6()": "2493",
						"withdrawCount()": "2558",
						"withdrawEth(uint256)": "infinite",
						"withdrawToken(address,uint256)": "infinite"
					},
					"internal": {
						"_toUsd(address,uint256)": "infinite"
					}
				},
				"methodIdentifiers": {
					"DEFAULT_ADMIN_ROLE()": "a217fddf",
					"NATIVE_TOKEN()": "31f7d964",
					"ROLE_ADMIN()": "d391014b",
					"USD_DECIMALS()": "2f6ee695",
					"bankCapUsd6()": "f9bda21f",
					"depositCount()": "2dfdf0b5",
					"depositEth()": "439370b1",
					"depositToken(address,uint256)": "338b5dea",
					"getBalance(address)": "f8b2cb4f",
					"getRoleAdmin(bytes32)": "248a9ca3",
					"getUsdBalance(address,address)": "dcb6e250",
					"grantRole(bytes32,address)": "2f2ff15d",
					"hasRole(bytes32,address)": "91d14854",
					"renounceRole(bytes32,address)": "36568abe",
					"revokeRole(bytes32,address)": "d547741f",
					"setTokenConfig(address,bool,uint8,uint256,address)": "9c50adee",
					"supportsInterface(bytes4)": "01ffc9a7",
					"tokenConfig(address)": "fe136c4e",
					"totalDepositedUsd6()": "29608ba6",
					"withdrawCount()": "4cc05a71",
					"withdrawEth(uint256)": "c311d049",
					"withdrawToken(address,uint256)": "9e281a98"
				}
			},
			"storageLayout": {
				"storage": [
					{
						"astId": 27,
						"contract": "src/KipuBankV2.sol:KipuBankV2",
						"label": "_roles",
						"offset": 0,
						"slot": "0",
						"type": "t_mapping(t_bytes32,t_struct(RoleData)22_storage)"
					},
					{
						"astId": 480,
						"contract": "src/KipuBankV2.sol:KipuBankV2",
						"label": "_status",
						"offset": 0,
						"slot": "1",
						"type": "t_uint256"
					},
					{
						"astId": 1221,
						"contract": "src/KipuBankV2.sol:KipuBankV2",
						"label": "totalDepositedUsd6",
						"offset": 0,
						"slot": "2",
						"type": "t_uint256"
					},
					{
						"astId": 1224,
						"contract": "src/KipuBankV2.sol:KipuBankV2",
						"label": "depositCount",
						"offset": 0,
						"slot": "3",
						"type": "t_uint256"
					},
					{
						"astId": 1226,
						"contract": "src/KipuBankV2.sol:KipuBankV2",
						"label": "withdrawCount",
						"offset": 0,
						"slot": "4",
						"type": "t_uint256"
					},
					{
						"astId": 1233,
						"contract": "src/KipuBankV2.sol:KipuBankV2",
						"label": "balances",
						"offset": 0,
						"slot": "5",
						"type": "t_mapping(t_address,t_mapping(t_address,t_uint256))"
					},
					{
						"astId": 1239,
						"contract": "src/KipuBankV2.sol:KipuBankV2",
						"label": "tokenConfig",
						"offset": 0,
						"slot": "6",
						"type": "t_mapping(t_address,t_struct(TokenConfig)1189_storage)"
					}
				],
				"types": {
					"t_address": {
						"encoding": "inplace",
						"label": "address",
						"numberOfBytes": "20"
					},
					"t_bool": {
						"encoding": "inplace",
						"label": "bool",
						"numberOfBytes": "1"
					},
					"t_bytes32": {
						"encoding": "inplace",
						"label": "bytes32",
						"numberOfBytes": "32"
					},
					"t_mapping(t_address,t_bool)": {
						"encoding": "mapping",
						"key": "t_address",
						"label": "mapping(address => bool)",
						"numberOfBytes": "32",
						"value": "t_bool"
					},
					"t_mapping(t_address,t_mapping(t_address,t_uint256))": {
						"encoding": "mapping",
						"key": "t_address",
						"label": "mapping(address => mapping(address => uint256))",
						"numberOfBytes": "32",
						"value": "t_mapping(t_address,t_uint256)"
					},
					"t_mapping(t_address,t_struct(TokenConfig)1189_storage)": {
						"encoding": "mapping",
						"key": "t_address",
						"label": "mapping(address => struct TokenConfig)",
						"numberOfBytes": "32",
						"value": "t_struct(TokenConfig)1189_storage"
					},
					"t_mapping(t_address,t_uint256)": {
						"encoding": "mapping",
						"key": "t_address",
						"label": "mapping(address => uint256)",
						"numberOfBytes": "32",
						"value": "t_uint256"
					},
					"t_mapping(t_bytes32,t_struct(RoleData)22_storage)": {
						"encoding": "mapping",
						"key": "t_bytes32",
						"label": "mapping(bytes32 => struct AccessControl.RoleData)",
						"numberOfBytes": "32",
						"value": "t_struct(RoleData)22_storage"
					},
					"t_struct(RoleData)22_storage": {
						"encoding": "inplace",
						"label": "struct AccessControl.RoleData",
						"members": [
							{
								"astId": 19,
								"contract": "src/KipuBankV2.sol:KipuBankV2",
								"label": "hasRole",
								"offset": 0,
								"slot": "0",
								"type": "t_mapping(t_address,t_bool)"
							},
							{
								"astId": 21,
								"contract": "src/KipuBankV2.sol:KipuBankV2",
								"label": "adminRole",
								"offset": 0,
								"slot": "1",
								"type": "t_bytes32"
							}
						],
						"numberOfBytes": "64"
					},
					"t_struct(TokenConfig)1189_storage": {
						"encoding": "inplace",
						"label": "struct TokenConfig",
						"members": [
							{
								"astId": 1180,
								"contract": "src/KipuBankV2.sol:KipuBankV2",
								"label": "supported",
								"offset": 0,
								"slot": "0",
								"type": "t_bool"
							},
							{
								"astId": 1182,
								"contract": "src/KipuBankV2.sol:KipuBankV2",
								"label": "isNative",
								"offset": 1,
								"slot": "0",
								"type": "t_bool"
							},
							{
								"astId": 1184,
								"contract": "src/KipuBankV2.sol:KipuBankV2",
								"label": "tokenDecimals",
								"offset": 2,
								"slot": "0",
								"type": "t_uint8"
							},
							{
								"astId": 1186,
								"contract": "src/KipuBankV2.sol:KipuBankV2",
								"label": "withdrawLimit",
								"offset": 0,
								"slot": "1",
								"type": "t_uint256"
							},
							{
								"astId": 1188,
								"contract": "src/KipuBankV2.sol:KipuBankV2",
								"label": "priceFeed",
								"offset": 0,
								"slot": "2",
								"type": "t_address"
							}
						],
						"numberOfBytes": "96"
					},
					"t_uint256": {
						"encoding": "inplace",
						"label": "uint256",
						"numberOfBytes": "32"
					},
					"t_uint8": {
						"encoding": "inplace",
						"label": "uint8",
						"numberOfBytes": "1"
					}
				}
			},
			"userdoc": {
				"kind": "user",
				"methods": {
					"NATIVE_TOKEN()": {
						"notice": "Identificador del token nativo (ETH). Uso address(0)"
					},
					"ROLE_ADMIN()": {
						"notice": "Rol administrador. Puede configurar tokens y parámetros"
					},
					"USD_DECIMALS()": {
						"notice": "Decimales internos de USD estilo USDC (6 decimales)"
					},
					"bankCapUsd6()": {
						"notice": "Límite global del banco en USD (6 decimales). Inmutable"
					},
					"depositCount()": {
						"notice": "Contadores de operaciones"
					},
					"depositEth()": {
						"notice": "Deposita ETH en tu bóveda personal"
					},
					"depositToken(address,uint256)": {
						"notice": "Deposita un token ERC-20 habilitado"
					},
					"getBalance(address)": {
						"notice": "Devuelve el saldo del remitente para un token (en unidades del token)"
					},
					"getUsdBalance(address,address)": {
						"notice": "Devuelve el saldo de un usuario en USD(6) estimado para un token"
					},
					"setTokenConfig(address,bool,uint8,uint256,address)": {
						"notice": "Agrega o actualiza un token ERC-20 soportado"
					},
					"tokenConfig(address)": {
						"notice": "Configuración por token. address(0) = ETH"
					},
					"totalDepositedUsd6()": {
						"notice": "Total acumulado en USD(6) depositado en el banco"
					},
					"withdrawEth(uint256)": {
						"notice": "Retira ETH de tu bóveda personal."
					},
					"withdrawToken(address,uint256)": {
						"notice": "Retira un token ERC-20   habilitado"
					}
				},
				"notice": "Versión multi-token con control de acceso, bank cap en USD y conversión de decimales",
				"version": 1
			}
		}
	}
}